{
	"contracts/smth.sol": {
		"smth": {
			"abi": [
				{
					"inputs": [],
					"stateMutability": "nonpayable",
					"type": "constructor"
				},
				{
					"inputs": [
						{
							"internalType": "address",
							"name": "winner",
							"type": "address"
						}
					],
					"name": "assignPrize",
					"outputs": [],
					"stateMutability": "payable",
					"type": "function"
				},
				{
					"inputs": [],
					"name": "owner",
					"outputs": [
						{
							"internalType": "address",
							"name": "",
							"type": "address"
						}
					],
					"stateMutability": "view",
					"type": "function"
				},
				{
					"inputs": [
						{
							"internalType": "address",
							"name": "",
							"type": "address"
						}
					],
					"name": "pendingW",
					"outputs": [
						{
							"internalType": "uint256",
							"name": "",
							"type": "uint256"
						}
					],
					"stateMutability": "view",
					"type": "function"
				},
				{
					"inputs": [],
					"name": "withdraw",
					"outputs": [],
					"stateMutability": "nonpayable",
					"type": "function"
				}
			],
			"devdoc": {
				"kind": "dev",
				"methods": {},
				"version": 1
			},
			"evm": {
				"assembly": "    /* \"contracts/smth.sol\":129:767  contract smth {... */\n  mstore(0x40, 0x80)\n    /* \"contracts/smth.sol\":229:280  constructor() {... */\n  callvalue\n  dup1\n  iszero\n  tag_1\n  jumpi\n  revert(0x00, 0x00)\ntag_1:\n  pop\n    /* \"contracts/smth.sol\":262:272  msg.sender */\n  caller\n    /* \"contracts/smth.sol\":254:259  owner */\n  0x00\n  0x00\n    /* \"contracts/smth.sol\":254:272  owner = msg.sender */\n  0x0100\n  exp\n  dup2\n  sload\n  dup2\n  0xffffffffffffffffffffffffffffffffffffffff\n  mul\n  not\n  and\n  swap1\n  dup4\n  0xffffffffffffffffffffffffffffffffffffffff\n  and\n  mul\n  or\n  swap1\n  sstore\n  pop\n    /* \"contracts/smth.sol\":129:767  contract smth {... */\n  dataSize(sub_0)\n  dup1\n  dataOffset(sub_0)\n  0x00\n  codecopy\n  0x00\n  return\nstop\n\nsub_0: assembly {\n        /* \"contracts/smth.sol\":129:767  contract smth {... */\n      mstore(0x40, 0x80)\n      jumpi(tag_1, lt(calldatasize, 0x04))\n      shr(0xe0, calldataload(0x00))\n      dup1\n      0x3ccfd60b\n      eq\n      tag_2\n      jumpi\n      dup1\n      0x577d9620\n      eq\n      tag_3\n      jumpi\n      dup1\n      0x59b390a7\n      eq\n      tag_4\n      jumpi\n      dup1\n      0x8da5cb5b\n      eq\n      tag_5\n      jumpi\n    tag_1:\n      revert(0x00, 0x00)\n        /* \"contracts/smth.sol\":507:764  function withdraw() public {... */\n    tag_2:\n      callvalue\n      dup1\n      iszero\n      tag_6\n      jumpi\n      revert(0x00, 0x00)\n    tag_6:\n      pop\n      tag_7\n      tag_8\n      jump\t// in\n    tag_7:\n      stop\n        /* \"contracts/smth.sol\":389:499  function assignPrize(address winner) public payable onlyOwner {... */\n    tag_3:\n      tag_9\n      0x04\n      dup1\n      calldatasize\n      sub\n      dup2\n      add\n      swap1\n      tag_10\n      swap2\n      swap1\n      tag_11\n      jump\t// in\n    tag_10:\n      tag_12\n      jump\t// in\n    tag_9:\n      stop\n        /* \"contracts/smth.sol\":177:220  mapping(address => uint256) public pendingW */\n    tag_4:\n      callvalue\n      dup1\n      iszero\n      tag_13\n      jumpi\n      revert(0x00, 0x00)\n    tag_13:\n      pop\n      tag_14\n      0x04\n      dup1\n      calldatasize\n      sub\n      dup2\n      add\n      swap1\n      tag_15\n      swap2\n      swap1\n      tag_11\n      jump\t// in\n    tag_15:\n      tag_16\n      jump\t// in\n    tag_14:\n      mload(0x40)\n      tag_17\n      swap2\n      swap1\n      tag_18\n      jump\t// in\n    tag_17:\n      mload(0x40)\n      dup1\n      swap2\n      sub\n      swap1\n      return\n        /* \"contracts/smth.sol\":150:170  address public owner */\n    tag_5:\n      callvalue\n      dup1\n      iszero\n      tag_19\n      jumpi\n      revert(0x00, 0x00)\n    tag_19:\n      pop\n      tag_20\n      tag_21\n      jump\t// in\n    tag_20:\n      mload(0x40)\n      tag_22\n      swap2\n      swap1\n      tag_23\n      jump\t// in\n    tag_22:\n      mload(0x40)\n      dup1\n      swap2\n      sub\n      swap1\n      return\n        /* \"contracts/smth.sol\":507:764  function withdraw() public {... */\n    tag_8:\n        /* \"contracts/smth.sol\":545:556  uint256 amt */\n      0x00\n        /* \"contracts/smth.sol\":559:567  pendingW */\n      0x01\n        /* \"contracts/smth.sol\":559:579  pendingW[msg.sender] */\n      0x00\n        /* \"contracts/smth.sol\":568:578  msg.sender */\n      caller\n        /* \"contracts/smth.sol\":559:579  pendingW[msg.sender] */\n      0xffffffffffffffffffffffffffffffffffffffff\n      and\n      0xffffffffffffffffffffffffffffffffffffffff\n      and\n      dup2\n      mstore\n      0x20\n      add\n      swap1\n      dup2\n      mstore\n      0x20\n      add\n      0x00\n      keccak256\n      sload\n        /* \"contracts/smth.sol\":545:579  uint256 amt = pendingW[msg.sender] */\n      swap1\n      pop\n        /* \"contracts/smth.sol\":604:605  0 */\n      0x00\n        /* \"contracts/smth.sol\":598:601  amt */\n      dup2\n        /* \"contracts/smth.sol\":598:605  amt > 0 */\n      gt\n        /* \"contracts/smth.sol\":590:618  require(amt > 0, \"notihing\") */\n      tag_25\n      jumpi\n      mload(0x40)\n      0x08c379a000000000000000000000000000000000000000000000000000000000\n      dup2\n      mstore\n      0x04\n      add\n      tag_26\n      swap1\n      tag_27\n      jump\t// in\n    tag_26:\n      mload(0x40)\n      dup1\n      swap2\n      sub\n      swap1\n      revert\n    tag_25:\n        /* \"contracts/smth.sol\":652:653  0 */\n      0x00\n        /* \"contracts/smth.sol\":629:637  pendingW */\n      0x01\n        /* \"contracts/smth.sol\":629:649  pendingW[msg.sender] */\n      0x00\n        /* \"contracts/smth.sol\":638:648  msg.sender */\n      caller\n        /* \"contracts/smth.sol\":629:649  pendingW[msg.sender] */\n      0xffffffffffffffffffffffffffffffffffffffff\n      and\n      0xffffffffffffffffffffffffffffffffffffffff\n      and\n      dup2\n      mstore\n      0x20\n      add\n      swap1\n      dup2\n      mstore\n      0x20\n      add\n      0x00\n      keccak256\n        /* \"contracts/smth.sol\":629:653  pendingW[msg.sender] = 0 */\n      dup2\n      swap1\n      sstore\n      pop\n        /* \"contracts/smth.sol\":665:677  bool success */\n      0x00\n        /* \"contracts/smth.sol\":691:701  msg.sender */\n      caller\n        /* \"contracts/smth.sol\":683:707  payable(msg.sender).call */\n      0xffffffffffffffffffffffffffffffffffffffff\n      and\n        /* \"contracts/smth.sol\":715:718  amt */\n      dup3\n        /* \"contracts/smth.sol\":683:723  payable(msg.sender).call{value: amt}(\"\") */\n      mload(0x40)\n      tag_28\n      swap1\n      tag_29\n      jump\t// in\n    tag_28:\n      0x00\n      mload(0x40)\n      dup1\n      dup4\n      sub\n      dup2\n      dup6\n      dup8\n      gas\n      call\n      swap3\n      pop\n      pop\n      pop\n      returndatasize\n      dup1\n      0x00\n      dup2\n      eq\n      tag_32\n      jumpi\n      mload(0x40)\n      swap2\n      pop\n      and(add(returndatasize, 0x3f), not(0x1f))\n      dup3\n      add\n      0x40\n      mstore\n      returndatasize\n      dup3\n      mstore\n      returndatasize\n      0x00\n      0x20\n      dup5\n      add\n      returndatacopy\n      jump(tag_31)\n    tag_32:\n      0x60\n      swap2\n      pop\n    tag_31:\n      pop\n        /* \"contracts/smth.sol\":664:723  (bool success, ) = payable(msg.sender).call{value: amt}(\"\") */\n      pop\n      swap1\n      pop\n        /* \"contracts/smth.sol\":742:749  success */\n      dup1\n        /* \"contracts/smth.sol\":734:756  require(success, \"ok\") */\n      tag_33\n      jumpi\n      mload(0x40)\n      0x08c379a000000000000000000000000000000000000000000000000000000000\n      dup2\n      mstore\n      0x04\n      add\n      tag_34\n      swap1\n      tag_35\n      jump\t// in\n    tag_34:\n      mload(0x40)\n      dup1\n      swap2\n      sub\n      swap1\n      revert\n    tag_33:\n        /* \"contracts/smth.sol\":534:764  {... */\n      pop\n      pop\n        /* \"contracts/smth.sol\":507:764  function withdraw() public {... */\n      jump\t// out\n        /* \"contracts/smth.sol\":389:499  function assignPrize(address winner) public payable onlyOwner {... */\n    tag_12:\n        /* \"contracts/smth.sol\":342:347  owner */\n      0x00\n      0x00\n      swap1\n      sload\n      swap1\n      0x0100\n      exp\n      swap1\n      div\n      0xffffffffffffffffffffffffffffffffffffffff\n      and\n        /* \"contracts/smth.sol\":328:347  msg.sender == owner */\n      0xffffffffffffffffffffffffffffffffffffffff\n      and\n        /* \"contracts/smth.sol\":328:338  msg.sender */\n      caller\n        /* \"contracts/smth.sol\":328:347  msg.sender == owner */\n      0xffffffffffffffffffffffffffffffffffffffff\n      and\n      eq\n        /* \"contracts/smth.sol\":320:361  require(msg.sender == owner, \"not owner\") */\n      tag_37\n      jumpi\n      mload(0x40)\n      0x08c379a000000000000000000000000000000000000000000000000000000000\n      dup2\n      mstore\n      0x04\n      add\n      tag_38\n      swap1\n      tag_39\n      jump\t// in\n    tag_38:\n      mload(0x40)\n      dup1\n      swap2\n      sub\n      swap1\n      revert\n    tag_37:\n        /* \"contracts/smth.sol\":482:491  msg.value */\n      callvalue\n        /* \"contracts/smth.sol\":462:470  pendingW */\n      0x01\n        /* \"contracts/smth.sol\":462:478  pendingW[winner] */\n      0x00\n        /* \"contracts/smth.sol\":471:477  winner */\n      dup4\n        /* \"contracts/smth.sol\":462:478  pendingW[winner] */\n      0xffffffffffffffffffffffffffffffffffffffff\n      and\n      0xffffffffffffffffffffffffffffffffffffffff\n      and\n      dup2\n      mstore\n      0x20\n      add\n      swap1\n      dup2\n      mstore\n      0x20\n      add\n      0x00\n      keccak256\n      0x00\n        /* \"contracts/smth.sol\":462:491  pendingW[winner] += msg.value */\n      dup3\n      dup3\n      sload\n      tag_41\n      swap2\n      swap1\n      tag_42\n      jump\t// in\n    tag_41:\n      swap3\n      pop\n      pop\n      dup2\n      swap1\n      sstore\n      pop\n        /* \"contracts/smth.sol\":389:499  function assignPrize(address winner) public payable onlyOwner {... */\n      pop\n      jump\t// out\n        /* \"contracts/smth.sol\":177:220  mapping(address => uint256) public pendingW */\n    tag_16:\n      mstore(0x20, 0x01)\n      dup1\n      0x00\n      mstore\n      keccak256(0x00, 0x40)\n      0x00\n      swap2\n      pop\n      swap1\n      pop\n      sload\n      dup2\n      jump\t// out\n        /* \"contracts/smth.sol\":150:170  address public owner */\n    tag_21:\n      0x00\n      0x00\n      swap1\n      sload\n      swap1\n      0x0100\n      exp\n      swap1\n      div\n      0xffffffffffffffffffffffffffffffffffffffff\n      and\n      dup2\n      jump\t// out\n        /* \"#utility.yul\":88:205   */\n    tag_44:\n        /* \"#utility.yul\":197:198   */\n      0x00\n        /* \"#utility.yul\":194:195   */\n      0x00\n        /* \"#utility.yul\":187:199   */\n      revert\n        /* \"#utility.yul\":334:460   */\n    tag_46:\n        /* \"#utility.yul\":371:378   */\n      0x00\n        /* \"#utility.yul\":411:453   */\n      0xffffffffffffffffffffffffffffffffffffffff\n        /* \"#utility.yul\":404:409   */\n      dup3\n        /* \"#utility.yul\":400:454   */\n      and\n        /* \"#utility.yul\":389:454   */\n      swap1\n      pop\n        /* \"#utility.yul\":334:460   */\n      swap2\n      swap1\n      pop\n      jump\t// out\n        /* \"#utility.yul\":466:562   */\n    tag_47:\n        /* \"#utility.yul\":503:510   */\n      0x00\n        /* \"#utility.yul\":532:556   */\n      tag_70\n        /* \"#utility.yul\":550:555   */\n      dup3\n        /* \"#utility.yul\":532:556   */\n      tag_46\n      jump\t// in\n    tag_70:\n        /* \"#utility.yul\":521:556   */\n      swap1\n      pop\n        /* \"#utility.yul\":466:562   */\n      swap2\n      swap1\n      pop\n      jump\t// out\n        /* \"#utility.yul\":568:690   */\n    tag_48:\n        /* \"#utility.yul\":641:665   */\n      tag_72\n        /* \"#utility.yul\":659:664   */\n      dup2\n        /* \"#utility.yul\":641:665   */\n      tag_47\n      jump\t// in\n    tag_72:\n        /* \"#utility.yul\":634:639   */\n      dup2\n        /* \"#utility.yul\":631:666   */\n      eq\n        /* \"#utility.yul\":621:684   */\n      tag_73\n      jumpi\n        /* \"#utility.yul\":680:681   */\n      0x00\n        /* \"#utility.yul\":677:678   */\n      0x00\n        /* \"#utility.yul\":670:682   */\n      revert\n        /* \"#utility.yul\":621:684   */\n    tag_73:\n        /* \"#utility.yul\":568:690   */\n      pop\n      jump\t// out\n        /* \"#utility.yul\":696:835   */\n    tag_49:\n        /* \"#utility.yul\":742:747   */\n      0x00\n        /* \"#utility.yul\":780:786   */\n      dup2\n        /* \"#utility.yul\":767:787   */\n      calldataload\n        /* \"#utility.yul\":758:787   */\n      swap1\n      pop\n        /* \"#utility.yul\":796:829   */\n      tag_75\n        /* \"#utility.yul\":823:828   */\n      dup2\n        /* \"#utility.yul\":796:829   */\n      tag_48\n      jump\t// in\n    tag_75:\n        /* \"#utility.yul\":696:835   */\n      swap3\n      swap2\n      pop\n      pop\n      jump\t// out\n        /* \"#utility.yul\":841:1170   */\n    tag_11:\n        /* \"#utility.yul\":900:906   */\n      0x00\n        /* \"#utility.yul\":949:951   */\n      0x20\n        /* \"#utility.yul\":937:946   */\n      dup3\n        /* \"#utility.yul\":928:935   */\n      dup5\n        /* \"#utility.yul\":924:947   */\n      sub\n        /* \"#utility.yul\":920:952   */\n      slt\n        /* \"#utility.yul\":917:1036   */\n      iszero\n      tag_77\n      jumpi\n        /* \"#utility.yul\":955:1034   */\n      tag_78\n      tag_44\n      jump\t// in\n    tag_78:\n        /* \"#utility.yul\":917:1036   */\n    tag_77:\n        /* \"#utility.yul\":1075:1076   */\n      0x00\n        /* \"#utility.yul\":1100:1153   */\n      tag_79\n        /* \"#utility.yul\":1145:1152   */\n      dup5\n        /* \"#utility.yul\":1136:1142   */\n      dup3\n        /* \"#utility.yul\":1125:1134   */\n      dup6\n        /* \"#utility.yul\":1121:1143   */\n      add\n        /* \"#utility.yul\":1100:1153   */\n      tag_49\n      jump\t// in\n    tag_79:\n        /* \"#utility.yul\":1090:1153   */\n      swap2\n      pop\n        /* \"#utility.yul\":1046:1163   */\n      pop\n        /* \"#utility.yul\":841:1170   */\n      swap3\n      swap2\n      pop\n      pop\n      jump\t// out\n        /* \"#utility.yul\":1176:1253   */\n    tag_50:\n        /* \"#utility.yul\":1213:1220   */\n      0x00\n        /* \"#utility.yul\":1242:1247   */\n      dup2\n        /* \"#utility.yul\":1231:1247   */\n      swap1\n      pop\n        /* \"#utility.yul\":1176:1253   */\n      swap2\n      swap1\n      pop\n      jump\t// out\n        /* \"#utility.yul\":1259:1377   */\n    tag_51:\n        /* \"#utility.yul\":1346:1370   */\n      tag_82\n        /* \"#utility.yul\":1364:1369   */\n      dup2\n        /* \"#utility.yul\":1346:1370   */\n      tag_50\n      jump\t// in\n    tag_82:\n        /* \"#utility.yul\":1341:1344   */\n      dup3\n        /* \"#utility.yul\":1334:1371   */\n      mstore\n        /* \"#utility.yul\":1259:1377   */\n      pop\n      pop\n      jump\t// out\n        /* \"#utility.yul\":1383:1605   */\n    tag_18:\n        /* \"#utility.yul\":1476:1480   */\n      0x00\n        /* \"#utility.yul\":1514:1516   */\n      0x20\n        /* \"#utility.yul\":1503:1512   */\n      dup3\n        /* \"#utility.yul\":1499:1517   */\n      add\n        /* \"#utility.yul\":1491:1517   */\n      swap1\n      pop\n        /* \"#utility.yul\":1527:1598   */\n      tag_84\n        /* \"#utility.yul\":1595:1596   */\n      0x00\n        /* \"#utility.yul\":1584:1593   */\n      dup4\n        /* \"#utility.yul\":1580:1597   */\n      add\n        /* \"#utility.yul\":1571:1577   */\n      dup5\n        /* \"#utility.yul\":1527:1598   */\n      tag_51\n      jump\t// in\n    tag_84:\n        /* \"#utility.yul\":1383:1605   */\n      swap3\n      swap2\n      pop\n      pop\n      jump\t// out\n        /* \"#utility.yul\":1611:1729   */\n    tag_52:\n        /* \"#utility.yul\":1698:1722   */\n      tag_86\n        /* \"#utility.yul\":1716:1721   */\n      dup2\n        /* \"#utility.yul\":1698:1722   */\n      tag_47\n      jump\t// in\n    tag_86:\n        /* \"#utility.yul\":1693:1696   */\n      dup3\n        /* \"#utility.yul\":1686:1723   */\n      mstore\n        /* \"#utility.yul\":1611:1729   */\n      pop\n      pop\n      jump\t// out\n        /* \"#utility.yul\":1735:1957   */\n    tag_23:\n        /* \"#utility.yul\":1828:1832   */\n      0x00\n        /* \"#utility.yul\":1866:1868   */\n      0x20\n        /* \"#utility.yul\":1855:1864   */\n      dup3\n        /* \"#utility.yul\":1851:1869   */\n      add\n        /* \"#utility.yul\":1843:1869   */\n      swap1\n      pop\n        /* \"#utility.yul\":1879:1950   */\n      tag_88\n        /* \"#utility.yul\":1947:1948   */\n      0x00\n        /* \"#utility.yul\":1936:1945   */\n      dup4\n        /* \"#utility.yul\":1932:1949   */\n      add\n        /* \"#utility.yul\":1923:1929   */\n      dup5\n        /* \"#utility.yul\":1879:1950   */\n      tag_52\n      jump\t// in\n    tag_88:\n        /* \"#utility.yul\":1735:1957   */\n      swap3\n      swap2\n      pop\n      pop\n      jump\t// out\n        /* \"#utility.yul\":1963:2132   */\n    tag_53:\n        /* \"#utility.yul\":2047:2058   */\n      0x00\n        /* \"#utility.yul\":2081:2087   */\n      dup3\n        /* \"#utility.yul\":2076:2079   */\n      dup3\n        /* \"#utility.yul\":2069:2088   */\n      mstore\n        /* \"#utility.yul\":2121:2125   */\n      0x20\n        /* \"#utility.yul\":2116:2119   */\n      dup3\n        /* \"#utility.yul\":2112:2126   */\n      add\n        /* \"#utility.yul\":2097:2126   */\n      swap1\n      pop\n        /* \"#utility.yul\":1963:2132   */\n      swap3\n      swap2\n      pop\n      pop\n      jump\t// out\n        /* \"#utility.yul\":2138:2296   */\n    tag_54:\n        /* \"#utility.yul\":2278:2288   */\n      0x6e6f746968696e67000000000000000000000000000000000000000000000000\n        /* \"#utility.yul\":2274:2275   */\n      0x00\n        /* \"#utility.yul\":2266:2272   */\n      dup3\n        /* \"#utility.yul\":2262:2276   */\n      add\n        /* \"#utility.yul\":2255:2289   */\n      mstore\n        /* \"#utility.yul\":2138:2296   */\n      pop\n      jump\t// out\n        /* \"#utility.yul\":2302:2667   */\n    tag_55:\n        /* \"#utility.yul\":2444:2447   */\n      0x00\n        /* \"#utility.yul\":2465:2531   */\n      tag_92\n        /* \"#utility.yul\":2529:2530   */\n      0x08\n        /* \"#utility.yul\":2524:2527   */\n      dup4\n        /* \"#utility.yul\":2465:2531   */\n      tag_53\n      jump\t// in\n    tag_92:\n        /* \"#utility.yul\":2458:2531   */\n      swap2\n      pop\n        /* \"#utility.yul\":2540:2633   */\n      tag_93\n        /* \"#utility.yul\":2629:2632   */\n      dup3\n        /* \"#utility.yul\":2540:2633   */\n      tag_54\n      jump\t// in\n    tag_93:\n        /* \"#utility.yul\":2658:2660   */\n      0x20\n        /* \"#utility.yul\":2653:2656   */\n      dup3\n        /* \"#utility.yul\":2649:2661   */\n      add\n        /* \"#utility.yul\":2642:2661   */\n      swap1\n      pop\n        /* \"#utility.yul\":2302:2667   */\n      swap2\n      swap1\n      pop\n      jump\t// out\n        /* \"#utility.yul\":2673:3092   */\n    tag_27:\n        /* \"#utility.yul\":2839:2843   */\n      0x00\n        /* \"#utility.yul\":2877:2879   */\n      0x20\n        /* \"#utility.yul\":2866:2875   */\n      dup3\n        /* \"#utility.yul\":2862:2880   */\n      add\n        /* \"#utility.yul\":2854:2880   */\n      swap1\n      pop\n        /* \"#utility.yul\":2926:2935   */\n      dup2\n        /* \"#utility.yul\":2920:2924   */\n      dup2\n        /* \"#utility.yul\":2916:2936   */\n      sub\n        /* \"#utility.yul\":2912:2913   */\n      0x00\n        /* \"#utility.yul\":2901:2910   */\n      dup4\n        /* \"#utility.yul\":2897:2914   */\n      add\n        /* \"#utility.yul\":2890:2937   */\n      mstore\n        /* \"#utility.yul\":2954:3085   */\n      tag_95\n        /* \"#utility.yul\":3080:3084   */\n      dup2\n        /* \"#utility.yul\":2954:3085   */\n      tag_55\n      jump\t// in\n    tag_95:\n        /* \"#utility.yul\":2946:3085   */\n      swap1\n      pop\n        /* \"#utility.yul\":2673:3092   */\n      swap2\n      swap1\n      pop\n      jump\t// out\n        /* \"#utility.yul\":3098:3245   */\n    tag_56:\n        /* \"#utility.yul\":3199:3210   */\n      0x00\n        /* \"#utility.yul\":3236:3239   */\n      dup2\n        /* \"#utility.yul\":3221:3239   */\n      swap1\n      pop\n        /* \"#utility.yul\":3098:3245   */\n      swap3\n      swap2\n      pop\n      pop\n      jump\t// out\n        /* \"#utility.yul\":3251:3365   */\n    tag_57:\n      pop\n      jump\t// out\n        /* \"#utility.yul\":3371:3769   */\n    tag_58:\n        /* \"#utility.yul\":3530:3533   */\n      0x00\n        /* \"#utility.yul\":3551:3634   */\n      tag_99\n        /* \"#utility.yul\":3632:3633   */\n      0x00\n        /* \"#utility.yul\":3627:3630   */\n      dup4\n        /* \"#utility.yul\":3551:3634   */\n      tag_56\n      jump\t// in\n    tag_99:\n        /* \"#utility.yul\":3544:3634   */\n      swap2\n      pop\n        /* \"#utility.yul\":3643:3736   */\n      tag_100\n        /* \"#utility.yul\":3732:3735   */\n      dup3\n        /* \"#utility.yul\":3643:3736   */\n      tag_57\n      jump\t// in\n    tag_100:\n        /* \"#utility.yul\":3761:3762   */\n      0x00\n        /* \"#utility.yul\":3756:3759   */\n      dup3\n        /* \"#utility.yul\":3752:3763   */\n      add\n        /* \"#utility.yul\":3745:3763   */\n      swap1\n      pop\n        /* \"#utility.yul\":3371:3769   */\n      swap2\n      swap1\n      pop\n      jump\t// out\n        /* \"#utility.yul\":3775:4154   */\n    tag_29:\n        /* \"#utility.yul\":3959:3962   */\n      0x00\n        /* \"#utility.yul\":3981:4128   */\n      tag_102\n        /* \"#utility.yul\":4124:4127   */\n      dup3\n        /* \"#utility.yul\":3981:4128   */\n      tag_58\n      jump\t// in\n    tag_102:\n        /* \"#utility.yul\":3974:4128   */\n      swap2\n      pop\n        /* \"#utility.yul\":4145:4148   */\n      dup2\n        /* \"#utility.yul\":4138:4148   */\n      swap1\n      pop\n        /* \"#utility.yul\":3775:4154   */\n      swap2\n      swap1\n      pop\n      jump\t// out\n        /* \"#utility.yul\":4160:4312   */\n    tag_59:\n        /* \"#utility.yul\":4300:4304   */\n      0x6f6b000000000000000000000000000000000000000000000000000000000000\n        /* \"#utility.yul\":4296:4297   */\n      0x00\n        /* \"#utility.yul\":4288:4294   */\n      dup3\n        /* \"#utility.yul\":4284:4298   */\n      add\n        /* \"#utility.yul\":4277:4305   */\n      mstore\n        /* \"#utility.yul\":4160:4312   */\n      pop\n      jump\t// out\n        /* \"#utility.yul\":4318:4683   */\n    tag_60:\n        /* \"#utility.yul\":4460:4463   */\n      0x00\n        /* \"#utility.yul\":4481:4547   */\n      tag_105\n        /* \"#utility.yul\":4545:4546   */\n      0x02\n        /* \"#utility.yul\":4540:4543   */\n      dup4\n        /* \"#utility.yul\":4481:4547   */\n      tag_53\n      jump\t// in\n    tag_105:\n        /* \"#utility.yul\":4474:4547   */\n      swap2\n      pop\n        /* \"#utility.yul\":4556:4649   */\n      tag_106\n        /* \"#utility.yul\":4645:4648   */\n      dup3\n        /* \"#utility.yul\":4556:4649   */\n      tag_59\n      jump\t// in\n    tag_106:\n        /* \"#utility.yul\":4674:4676   */\n      0x20\n        /* \"#utility.yul\":4669:4672   */\n      dup3\n        /* \"#utility.yul\":4665:4677   */\n      add\n        /* \"#utility.yul\":4658:4677   */\n      swap1\n      pop\n        /* \"#utility.yul\":4318:4683   */\n      swap2\n      swap1\n      pop\n      jump\t// out\n        /* \"#utility.yul\":4689:5108   */\n    tag_35:\n        /* \"#utility.yul\":4855:4859   */\n      0x00\n        /* \"#utility.yul\":4893:4895   */\n      0x20\n        /* \"#utility.yul\":4882:4891   */\n      dup3\n        /* \"#utility.yul\":4878:4896   */\n      add\n        /* \"#utility.yul\":4870:4896   */\n      swap1\n      pop\n        /* \"#utility.yul\":4942:4951   */\n      dup2\n        /* \"#utility.yul\":4936:4940   */\n      dup2\n        /* \"#utility.yul\":4932:4952   */\n      sub\n        /* \"#utility.yul\":4928:4929   */\n      0x00\n        /* \"#utility.yul\":4917:4926   */\n      dup4\n        /* \"#utility.yul\":4913:4930   */\n      add\n        /* \"#utility.yul\":4906:4953   */\n      mstore\n        /* \"#utility.yul\":4970:5101   */\n      tag_108\n        /* \"#utility.yul\":5096:5100   */\n      dup2\n        /* \"#utility.yul\":4970:5101   */\n      tag_60\n      jump\t// in\n    tag_108:\n        /* \"#utility.yul\":4962:5101   */\n      swap1\n      pop\n        /* \"#utility.yul\":4689:5108   */\n      swap2\n      swap1\n      pop\n      jump\t// out\n        /* \"#utility.yul\":5114:5273   */\n    tag_61:\n        /* \"#utility.yul\":5254:5265   */\n      0x6e6f74206f776e65720000000000000000000000000000000000000000000000\n        /* \"#utility.yul\":5250:5251   */\n      0x00\n        /* \"#utility.yul\":5242:5248   */\n      dup3\n        /* \"#utility.yul\":5238:5252   */\n      add\n        /* \"#utility.yul\":5231:5266   */\n      mstore\n        /* \"#utility.yul\":5114:5273   */\n      pop\n      jump\t// out\n        /* \"#utility.yul\":5279:5644   */\n    tag_62:\n        /* \"#utility.yul\":5421:5424   */\n      0x00\n        /* \"#utility.yul\":5442:5508   */\n      tag_111\n        /* \"#utility.yul\":5506:5507   */\n      0x09\n        /* \"#utility.yul\":5501:5504   */\n      dup4\n        /* \"#utility.yul\":5442:5508   */\n      tag_53\n      jump\t// in\n    tag_111:\n        /* \"#utility.yul\":5435:5508   */\n      swap2\n      pop\n        /* \"#utility.yul\":5517:5610   */\n      tag_112\n        /* \"#utility.yul\":5606:5609   */\n      dup3\n        /* \"#utility.yul\":5517:5610   */\n      tag_61\n      jump\t// in\n    tag_112:\n        /* \"#utility.yul\":5635:5637   */\n      0x20\n        /* \"#utility.yul\":5630:5633   */\n      dup3\n        /* \"#utility.yul\":5626:5638   */\n      add\n        /* \"#utility.yul\":5619:5638   */\n      swap1\n      pop\n        /* \"#utility.yul\":5279:5644   */\n      swap2\n      swap1\n      pop\n      jump\t// out\n        /* \"#utility.yul\":5650:6069   */\n    tag_39:\n        /* \"#utility.yul\":5816:5820   */\n      0x00\n        /* \"#utility.yul\":5854:5856   */\n      0x20\n        /* \"#utility.yul\":5843:5852   */\n      dup3\n        /* \"#utility.yul\":5839:5857   */\n      add\n        /* \"#utility.yul\":5831:5857   */\n      swap1\n      pop\n        /* \"#utility.yul\":5903:5912   */\n      dup2\n        /* \"#utility.yul\":5897:5901   */\n      dup2\n        /* \"#utility.yul\":5893:5913   */\n      sub\n        /* \"#utility.yul\":5889:5890   */\n      0x00\n        /* \"#utility.yul\":5878:5887   */\n      dup4\n        /* \"#utility.yul\":5874:5891   */\n      add\n        /* \"#utility.yul\":5867:5914   */\n      mstore\n        /* \"#utility.yul\":5931:6062   */\n      tag_114\n        /* \"#utility.yul\":6057:6061   */\n      dup2\n        /* \"#utility.yul\":5931:6062   */\n      tag_62\n      jump\t// in\n    tag_114:\n        /* \"#utility.yul\":5923:6062   */\n      swap1\n      pop\n        /* \"#utility.yul\":5650:6069   */\n      swap2\n      swap1\n      pop\n      jump\t// out\n        /* \"#utility.yul\":6075:6255   */\n    tag_63:\n        /* \"#utility.yul\":6123:6200   */\n      0x4e487b7100000000000000000000000000000000000000000000000000000000\n        /* \"#utility.yul\":6120:6121   */\n      0x00\n        /* \"#utility.yul\":6113:6201   */\n      mstore\n        /* \"#utility.yul\":6220:6224   */\n      0x11\n        /* \"#utility.yul\":6217:6218   */\n      0x04\n        /* \"#utility.yul\":6210:6225   */\n      mstore\n        /* \"#utility.yul\":6244:6248   */\n      0x24\n        /* \"#utility.yul\":6241:6242   */\n      0x00\n        /* \"#utility.yul\":6234:6249   */\n      revert\n        /* \"#utility.yul\":6261:6452   */\n    tag_42:\n        /* \"#utility.yul\":6301:6304   */\n      0x00\n        /* \"#utility.yul\":6320:6340   */\n      tag_117\n        /* \"#utility.yul\":6338:6339   */\n      dup3\n        /* \"#utility.yul\":6320:6340   */\n      tag_50\n      jump\t// in\n    tag_117:\n        /* \"#utility.yul\":6315:6340   */\n      swap2\n      pop\n        /* \"#utility.yul\":6354:6374   */\n      tag_118\n        /* \"#utility.yul\":6372:6373   */\n      dup4\n        /* \"#utility.yul\":6354:6374   */\n      tag_50\n      jump\t// in\n    tag_118:\n        /* \"#utility.yul\":6349:6374   */\n      swap3\n      pop\n        /* \"#utility.yul\":6397:6398   */\n      dup3\n        /* \"#utility.yul\":6394:6395   */\n      dup3\n        /* \"#utility.yul\":6390:6399   */\n      add\n        /* \"#utility.yul\":6383:6399   */\n      swap1\n      pop\n        /* \"#utility.yul\":6418:6421   */\n      dup1\n        /* \"#utility.yul\":6415:6416   */\n      dup3\n        /* \"#utility.yul\":6412:6422   */\n      gt\n        /* \"#utility.yul\":6409:6445   */\n      iszero\n      tag_119\n      jumpi\n        /* \"#utility.yul\":6425:6443   */\n      tag_120\n      tag_63\n      jump\t// in\n    tag_120:\n        /* \"#utility.yul\":6409:6445   */\n    tag_119:\n        /* \"#utility.yul\":6261:6452   */\n      swap3\n      swap2\n      pop\n      pop\n      jump\t// out\n\n    auxdata: 0xa26469706673582212202f38c8ec05c4e56af8f50fce8a467fc88573fb27d0d45adac79147ec8c5a365264736f6c634300081f0033\n}\n",
				"bytecode": {
					"linkReferences": {},
					"object": "6080604052348015600e575f5ffd5b50335f5f6101000a81548173ffffffffffffffffffffffffffffffffffffffff021916908373ffffffffffffffffffffffffffffffffffffffff1602179055506106698061005b5f395ff3fe60806040526004361061003e575f3560e01c80633ccfd60b14610042578063577d96201461005857806359b390a7146100745780638da5cb5b146100b0575b5f5ffd5b34801561004d575f5ffd5b506100566100da565b005b610072600480360381019061006d91906103c6565b61024b565b005b34801561007f575f5ffd5b5061009a600480360381019061009591906103c6565b61032f565b6040516100a79190610409565b60405180910390f35b3480156100bb575f5ffd5b506100c4610344565b6040516100d19190610431565b60405180910390f35b5f60015f3373ffffffffffffffffffffffffffffffffffffffff1673ffffffffffffffffffffffffffffffffffffffff1681526020019081526020015f205490505f811161015d576040517f08c379a0000000000000000000000000000000000000000000000000000000008152600401610154906104a4565b60405180910390fd5b5f60015f3373ffffffffffffffffffffffffffffffffffffffff1673ffffffffffffffffffffffffffffffffffffffff1681526020019081526020015f20819055505f3373ffffffffffffffffffffffffffffffffffffffff16826040516101c4906104ef565b5f6040518083038185875af1925050503d805f81146101fe576040519150601f19603f3d011682016040523d82523d5f602084013e610203565b606091505b5050905080610247576040517f08c379a000000000000000000000000000000000000000000000000000000000815260040161023e9061054d565b60405180910390fd5b5050565b5f5f9054906101000a900473ffffffffffffffffffffffffffffffffffffffff1673ffffffffffffffffffffffffffffffffffffffff163373ffffffffffffffffffffffffffffffffffffffff16146102d9576040517f08c379a00000000000000000000000000000000000000000000000000000000081526004016102d0906105b5565b60405180910390fd5b3460015f8373ffffffffffffffffffffffffffffffffffffffff1673ffffffffffffffffffffffffffffffffffffffff1681526020019081526020015f205f8282546103259190610600565b9250508190555050565b6001602052805f5260405f205f915090505481565b5f5f9054906101000a900473ffffffffffffffffffffffffffffffffffffffff1681565b5f5ffd5b5f73ffffffffffffffffffffffffffffffffffffffff82169050919050565b5f6103958261036c565b9050919050565b6103a58161038b565b81146103af575f5ffd5b50565b5f813590506103c08161039c565b92915050565b5f602082840312156103db576103da610368565b5b5f6103e8848285016103b2565b91505092915050565b5f819050919050565b610403816103f1565b82525050565b5f60208201905061041c5f8301846103fa565b92915050565b61042b8161038b565b82525050565b5f6020820190506104445f830184610422565b92915050565b5f82825260208201905092915050565b7f6e6f746968696e670000000000000000000000000000000000000000000000005f82015250565b5f61048e60088361044a565b91506104998261045a565b602082019050919050565b5f6020820190508181035f8301526104bb81610482565b9050919050565b5f81905092915050565b50565b5f6104da5f836104c2565b91506104e5826104cc565b5f82019050919050565b5f6104f9826104cf565b9150819050919050565b7f6f6b0000000000000000000000000000000000000000000000000000000000005f82015250565b5f61053760028361044a565b915061054282610503565b602082019050919050565b5f6020820190508181035f8301526105648161052b565b9050919050565b7f6e6f74206f776e657200000000000000000000000000000000000000000000005f82015250565b5f61059f60098361044a565b91506105aa8261056b565b602082019050919050565b5f6020820190508181035f8301526105cc81610593565b9050919050565b7f4e487b71000000000000000000000000000000000000000000000000000000005f52601160045260245ffd5b5f61060a826103f1565b9150610615836103f1565b925082820190508082111561062d5761062c6105d3565b5b9291505056fea26469706673582212202f38c8ec05c4e56af8f50fce8a467fc88573fb27d0d45adac79147ec8c5a365264736f6c634300081f0033",
					"opcodes": "PUSH1 0x80 PUSH1 0x40 MSTORE CALLVALUE DUP1 ISZERO PUSH1 0xE JUMPI PUSH0 PUSH0 REVERT JUMPDEST POP CALLER PUSH0 PUSH0 PUSH2 0x100 EXP DUP2 SLOAD DUP2 PUSH20 0xFFFFFFFFFFFFFFFFFFFFFFFFFFFFFFFFFFFFFFFF MUL NOT AND SWAP1 DUP4 PUSH20 0xFFFFFFFFFFFFFFFFFFFFFFFFFFFFFFFFFFFFFFFF AND MUL OR SWAP1 SSTORE POP PUSH2 0x669 DUP1 PUSH2 0x5B PUSH0 CODECOPY PUSH0 RETURN INVALID PUSH1 0x80 PUSH1 0x40 MSTORE PUSH1 0x4 CALLDATASIZE LT PUSH2 0x3E JUMPI PUSH0 CALLDATALOAD PUSH1 0xE0 SHR DUP1 PUSH4 0x3CCFD60B EQ PUSH2 0x42 JUMPI DUP1 PUSH4 0x577D9620 EQ PUSH2 0x58 JUMPI DUP1 PUSH4 0x59B390A7 EQ PUSH2 0x74 JUMPI DUP1 PUSH4 0x8DA5CB5B EQ PUSH2 0xB0 JUMPI JUMPDEST PUSH0 PUSH0 REVERT JUMPDEST CALLVALUE DUP1 ISZERO PUSH2 0x4D JUMPI PUSH0 PUSH0 REVERT JUMPDEST POP PUSH2 0x56 PUSH2 0xDA JUMP JUMPDEST STOP JUMPDEST PUSH2 0x72 PUSH1 0x4 DUP1 CALLDATASIZE SUB DUP2 ADD SWAP1 PUSH2 0x6D SWAP2 SWAP1 PUSH2 0x3C6 JUMP JUMPDEST PUSH2 0x24B JUMP JUMPDEST STOP JUMPDEST CALLVALUE DUP1 ISZERO PUSH2 0x7F JUMPI PUSH0 PUSH0 REVERT JUMPDEST POP PUSH2 0x9A PUSH1 0x4 DUP1 CALLDATASIZE SUB DUP2 ADD SWAP1 PUSH2 0x95 SWAP2 SWAP1 PUSH2 0x3C6 JUMP JUMPDEST PUSH2 0x32F JUMP JUMPDEST PUSH1 0x40 MLOAD PUSH2 0xA7 SWAP2 SWAP1 PUSH2 0x409 JUMP JUMPDEST PUSH1 0x40 MLOAD DUP1 SWAP2 SUB SWAP1 RETURN JUMPDEST CALLVALUE DUP1 ISZERO PUSH2 0xBB JUMPI PUSH0 PUSH0 REVERT JUMPDEST POP PUSH2 0xC4 PUSH2 0x344 JUMP JUMPDEST PUSH1 0x40 MLOAD PUSH2 0xD1 SWAP2 SWAP1 PUSH2 0x431 JUMP JUMPDEST PUSH1 0x40 MLOAD DUP1 SWAP2 SUB SWAP1 RETURN JUMPDEST PUSH0 PUSH1 0x1 PUSH0 CALLER PUSH20 0xFFFFFFFFFFFFFFFFFFFFFFFFFFFFFFFFFFFFFFFF AND PUSH20 0xFFFFFFFFFFFFFFFFFFFFFFFFFFFFFFFFFFFFFFFF AND DUP2 MSTORE PUSH1 0x20 ADD SWAP1 DUP2 MSTORE PUSH1 0x20 ADD PUSH0 KECCAK256 SLOAD SWAP1 POP PUSH0 DUP2 GT PUSH2 0x15D JUMPI PUSH1 0x40 MLOAD PUSH32 0x8C379A000000000000000000000000000000000000000000000000000000000 DUP2 MSTORE PUSH1 0x4 ADD PUSH2 0x154 SWAP1 PUSH2 0x4A4 JUMP JUMPDEST PUSH1 0x40 MLOAD DUP1 SWAP2 SUB SWAP1 REVERT JUMPDEST PUSH0 PUSH1 0x1 PUSH0 CALLER PUSH20 0xFFFFFFFFFFFFFFFFFFFFFFFFFFFFFFFFFFFFFFFF AND PUSH20 0xFFFFFFFFFFFFFFFFFFFFFFFFFFFFFFFFFFFFFFFF AND DUP2 MSTORE PUSH1 0x20 ADD SWAP1 DUP2 MSTORE PUSH1 0x20 ADD PUSH0 KECCAK256 DUP2 SWAP1 SSTORE POP PUSH0 CALLER PUSH20 0xFFFFFFFFFFFFFFFFFFFFFFFFFFFFFFFFFFFFFFFF AND DUP3 PUSH1 0x40 MLOAD PUSH2 0x1C4 SWAP1 PUSH2 0x4EF JUMP JUMPDEST PUSH0 PUSH1 0x40 MLOAD DUP1 DUP4 SUB DUP2 DUP6 DUP8 GAS CALL SWAP3 POP POP POP RETURNDATASIZE DUP1 PUSH0 DUP2 EQ PUSH2 0x1FE JUMPI PUSH1 0x40 MLOAD SWAP2 POP PUSH1 0x1F NOT PUSH1 0x3F RETURNDATASIZE ADD AND DUP3 ADD PUSH1 0x40 MSTORE RETURNDATASIZE DUP3 MSTORE RETURNDATASIZE PUSH0 PUSH1 0x20 DUP5 ADD RETURNDATACOPY PUSH2 0x203 JUMP JUMPDEST PUSH1 0x60 SWAP2 POP JUMPDEST POP POP SWAP1 POP DUP1 PUSH2 0x247 JUMPI PUSH1 0x40 MLOAD PUSH32 0x8C379A000000000000000000000000000000000000000000000000000000000 DUP2 MSTORE PUSH1 0x4 ADD PUSH2 0x23E SWAP1 PUSH2 0x54D JUMP JUMPDEST PUSH1 0x40 MLOAD DUP1 SWAP2 SUB SWAP1 REVERT JUMPDEST POP POP JUMP JUMPDEST PUSH0 PUSH0 SWAP1 SLOAD SWAP1 PUSH2 0x100 EXP SWAP1 DIV PUSH20 0xFFFFFFFFFFFFFFFFFFFFFFFFFFFFFFFFFFFFFFFF AND PUSH20 0xFFFFFFFFFFFFFFFFFFFFFFFFFFFFFFFFFFFFFFFF AND CALLER PUSH20 0xFFFFFFFFFFFFFFFFFFFFFFFFFFFFFFFFFFFFFFFF AND EQ PUSH2 0x2D9 JUMPI PUSH1 0x40 MLOAD PUSH32 0x8C379A000000000000000000000000000000000000000000000000000000000 DUP2 MSTORE PUSH1 0x4 ADD PUSH2 0x2D0 SWAP1 PUSH2 0x5B5 JUMP JUMPDEST PUSH1 0x40 MLOAD DUP1 SWAP2 SUB SWAP1 REVERT JUMPDEST CALLVALUE PUSH1 0x1 PUSH0 DUP4 PUSH20 0xFFFFFFFFFFFFFFFFFFFFFFFFFFFFFFFFFFFFFFFF AND PUSH20 0xFFFFFFFFFFFFFFFFFFFFFFFFFFFFFFFFFFFFFFFF AND DUP2 MSTORE PUSH1 0x20 ADD SWAP1 DUP2 MSTORE PUSH1 0x20 ADD PUSH0 KECCAK256 PUSH0 DUP3 DUP3 SLOAD PUSH2 0x325 SWAP2 SWAP1 PUSH2 0x600 JUMP JUMPDEST SWAP3 POP POP DUP2 SWAP1 SSTORE POP POP JUMP JUMPDEST PUSH1 0x1 PUSH1 0x20 MSTORE DUP1 PUSH0 MSTORE PUSH1 0x40 PUSH0 KECCAK256 PUSH0 SWAP2 POP SWAP1 POP SLOAD DUP2 JUMP JUMPDEST PUSH0 PUSH0 SWAP1 SLOAD SWAP1 PUSH2 0x100 EXP SWAP1 DIV PUSH20 0xFFFFFFFFFFFFFFFFFFFFFFFFFFFFFFFFFFFFFFFF AND DUP2 JUMP JUMPDEST PUSH0 PUSH0 REVERT JUMPDEST PUSH0 PUSH20 0xFFFFFFFFFFFFFFFFFFFFFFFFFFFFFFFFFFFFFFFF DUP3 AND SWAP1 POP SWAP2 SWAP1 POP JUMP JUMPDEST PUSH0 PUSH2 0x395 DUP3 PUSH2 0x36C JUMP JUMPDEST SWAP1 POP SWAP2 SWAP1 POP JUMP JUMPDEST PUSH2 0x3A5 DUP2 PUSH2 0x38B JUMP JUMPDEST DUP2 EQ PUSH2 0x3AF JUMPI PUSH0 PUSH0 REVERT JUMPDEST POP JUMP JUMPDEST PUSH0 DUP2 CALLDATALOAD SWAP1 POP PUSH2 0x3C0 DUP2 PUSH2 0x39C JUMP JUMPDEST SWAP3 SWAP2 POP POP JUMP JUMPDEST PUSH0 PUSH1 0x20 DUP3 DUP5 SUB SLT ISZERO PUSH2 0x3DB JUMPI PUSH2 0x3DA PUSH2 0x368 JUMP JUMPDEST JUMPDEST PUSH0 PUSH2 0x3E8 DUP5 DUP3 DUP6 ADD PUSH2 0x3B2 JUMP JUMPDEST SWAP2 POP POP SWAP3 SWAP2 POP POP JUMP JUMPDEST PUSH0 DUP2 SWAP1 POP SWAP2 SWAP1 POP JUMP JUMPDEST PUSH2 0x403 DUP2 PUSH2 0x3F1 JUMP JUMPDEST DUP3 MSTORE POP POP JUMP JUMPDEST PUSH0 PUSH1 0x20 DUP3 ADD SWAP1 POP PUSH2 0x41C PUSH0 DUP4 ADD DUP5 PUSH2 0x3FA JUMP JUMPDEST SWAP3 SWAP2 POP POP JUMP JUMPDEST PUSH2 0x42B DUP2 PUSH2 0x38B JUMP JUMPDEST DUP3 MSTORE POP POP JUMP JUMPDEST PUSH0 PUSH1 0x20 DUP3 ADD SWAP1 POP PUSH2 0x444 PUSH0 DUP4 ADD DUP5 PUSH2 0x422 JUMP JUMPDEST SWAP3 SWAP2 POP POP JUMP JUMPDEST PUSH0 DUP3 DUP3 MSTORE PUSH1 0x20 DUP3 ADD SWAP1 POP SWAP3 SWAP2 POP POP JUMP JUMPDEST PUSH32 0x6E6F746968696E67000000000000000000000000000000000000000000000000 PUSH0 DUP3 ADD MSTORE POP JUMP JUMPDEST PUSH0 PUSH2 0x48E PUSH1 0x8 DUP4 PUSH2 0x44A JUMP JUMPDEST SWAP2 POP PUSH2 0x499 DUP3 PUSH2 0x45A JUMP JUMPDEST PUSH1 0x20 DUP3 ADD SWAP1 POP SWAP2 SWAP1 POP JUMP JUMPDEST PUSH0 PUSH1 0x20 DUP3 ADD SWAP1 POP DUP2 DUP2 SUB PUSH0 DUP4 ADD MSTORE PUSH2 0x4BB DUP2 PUSH2 0x482 JUMP JUMPDEST SWAP1 POP SWAP2 SWAP1 POP JUMP JUMPDEST PUSH0 DUP2 SWAP1 POP SWAP3 SWAP2 POP POP JUMP JUMPDEST POP JUMP JUMPDEST PUSH0 PUSH2 0x4DA PUSH0 DUP4 PUSH2 0x4C2 JUMP JUMPDEST SWAP2 POP PUSH2 0x4E5 DUP3 PUSH2 0x4CC JUMP JUMPDEST PUSH0 DUP3 ADD SWAP1 POP SWAP2 SWAP1 POP JUMP JUMPDEST PUSH0 PUSH2 0x4F9 DUP3 PUSH2 0x4CF JUMP JUMPDEST SWAP2 POP DUP2 SWAP1 POP SWAP2 SWAP1 POP JUMP JUMPDEST PUSH32 0x6F6B000000000000000000000000000000000000000000000000000000000000 PUSH0 DUP3 ADD MSTORE POP JUMP JUMPDEST PUSH0 PUSH2 0x537 PUSH1 0x2 DUP4 PUSH2 0x44A JUMP JUMPDEST SWAP2 POP PUSH2 0x542 DUP3 PUSH2 0x503 JUMP JUMPDEST PUSH1 0x20 DUP3 ADD SWAP1 POP SWAP2 SWAP1 POP JUMP JUMPDEST PUSH0 PUSH1 0x20 DUP3 ADD SWAP1 POP DUP2 DUP2 SUB PUSH0 DUP4 ADD MSTORE PUSH2 0x564 DUP2 PUSH2 0x52B JUMP JUMPDEST SWAP1 POP SWAP2 SWAP1 POP JUMP JUMPDEST PUSH32 0x6E6F74206F776E65720000000000000000000000000000000000000000000000 PUSH0 DUP3 ADD MSTORE POP JUMP JUMPDEST PUSH0 PUSH2 0x59F PUSH1 0x9 DUP4 PUSH2 0x44A JUMP JUMPDEST SWAP2 POP PUSH2 0x5AA DUP3 PUSH2 0x56B JUMP JUMPDEST PUSH1 0x20 DUP3 ADD SWAP1 POP SWAP2 SWAP1 POP JUMP JUMPDEST PUSH0 PUSH1 0x20 DUP3 ADD SWAP1 POP DUP2 DUP2 SUB PUSH0 DUP4 ADD MSTORE PUSH2 0x5CC DUP2 PUSH2 0x593 JUMP JUMPDEST SWAP1 POP SWAP2 SWAP1 POP JUMP JUMPDEST PUSH32 0x4E487B7100000000000000000000000000000000000000000000000000000000 PUSH0 MSTORE PUSH1 0x11 PUSH1 0x4 MSTORE PUSH1 0x24 PUSH0 REVERT JUMPDEST PUSH0 PUSH2 0x60A DUP3 PUSH2 0x3F1 JUMP JUMPDEST SWAP2 POP PUSH2 0x615 DUP4 PUSH2 0x3F1 JUMP JUMPDEST SWAP3 POP DUP3 DUP3 ADD SWAP1 POP DUP1 DUP3 GT ISZERO PUSH2 0x62D JUMPI PUSH2 0x62C PUSH2 0x5D3 JUMP JUMPDEST JUMPDEST SWAP3 SWAP2 POP POP JUMP INVALID LOG2 PUSH5 0x6970667358 0x22 SLT KECCAK256 0x2F CODESIZE 0xC8 EOFCREATE 0x5 0xC4 JUMPF 0x6AF8 CREATE2 0xF 0xCE DUP11 CHAINID PUSH32 0xC88573FB27D0D45ADAC79147EC8C5A365264736F6C634300081F003300000000 "
				},
				"gasEstimates": {
					"creation": {
						"codeDepositCost": "328200",
						"executionCost": "24630",
						"totalCost": "352830"
					},
					"external": {
						"assignPrize(address)": "infinite",
						"owner()": "2551",
						"pendingW(address)": "2824",
						"withdraw()": "infinite"
					}
				},
				"methodIdentifiers": {
					"assignPrize(address)": "577d9620",
					"owner()": "8da5cb5b",
					"pendingW(address)": "59b390a7",
					"withdraw()": "3ccfd60b"
				}
			},
			"storageLayout": {
				"storage": [
					{
						"astId": 3,
						"contract": "contracts/smth.sol:smth",
						"label": "owner",
						"offset": 0,
						"slot": "0",
						"type": "t_address"
					},
					{
						"astId": 7,
						"contract": "contracts/smth.sol:smth",
						"label": "pendingW",
						"offset": 0,
						"slot": "1",
						"type": "t_mapping(t_address,t_uint256)"
					}
				],
				"types": {
					"t_address": {
						"encoding": "inplace",
						"label": "address",
						"numberOfBytes": "20"
					},
					"t_mapping(t_address,t_uint256)": {
						"encoding": "mapping",
						"key": "t_address",
						"label": "mapping(address => uint256)",
						"numberOfBytes": "32",
						"value": "t_uint256"
					},
					"t_uint256": {
						"encoding": "inplace",
						"label": "uint256",
						"numberOfBytes": "32"
					}
				}
			},
			"userdoc": {
				"kind": "user",
				"methods": {},
				"version": 1
			}
		}
	}
}