{
	"contracts/CompanyRBAC.sol": {
		"CompanyRBAC": {
			"abi": [
				{
					"inputs": [],
					"stateMutability": "nonpayable",
					"type": "constructor"
				},
				{
					"anonymous": false,
					"inputs": [
						{
							"indexed": true,
							"internalType": "uint256",
							"name": "jobId",
							"type": "uint256"
						},
						{
							"indexed": true,
							"internalType": "address",
							"name": "applicant",
							"type": "address"
						}
					],
					"name": "ApplicationSubmitted",
					"type": "event"
				},
				{
					"anonymous": false,
					"inputs": [
						{
							"indexed": true,
							"internalType": "uint256",
							"name": "jobId",
							"type": "uint256"
						},
						{
							"indexed": true,
							"internalType": "address",
							"name": "closedBy",
							"type": "address"
						}
					],
					"name": "JobClosed",
					"type": "event"
				},
				{
					"anonymous": false,
					"inputs": [
						{
							"indexed": true,
							"internalType": "uint256",
							"name": "jobId",
							"type": "uint256"
						},
						{
							"indexed": false,
							"internalType": "string",
							"name": "title",
							"type": "string"
						},
						{
							"indexed": true,
							"internalType": "address",
							"name": "postedBy",
							"type": "address"
						}
					],
					"name": "JobPosted",
					"type": "event"
				},
				{
					"anonymous": false,
					"inputs": [
						{
							"indexed": true,
							"internalType": "bytes32",
							"name": "role",
							"type": "bytes32"
						},
						{
							"indexed": true,
							"internalType": "address",
							"name": "account",
							"type": "address"
						}
					],
					"name": "RoleGranted",
					"type": "event"
				},
				{
					"anonymous": false,
					"inputs": [
						{
							"indexed": true,
							"internalType": "bytes32",
							"name": "role",
							"type": "bytes32"
						},
						{
							"indexed": true,
							"internalType": "address",
							"name": "account",
							"type": "address"
						}
					],
					"name": "RoleRevoked",
					"type": "event"
				},
				{
					"inputs": [],
					"name": "ADMIN",
					"outputs": [
						{
							"internalType": "bytes32",
							"name": "",
							"type": "bytes32"
						}
					],
					"stateMutability": "view",
					"type": "function"
				},
				{
					"inputs": [],
					"name": "EMPLOYEE",
					"outputs": [
						{
							"internalType": "bytes32",
							"name": "",
							"type": "bytes32"
						}
					],
					"stateMutability": "view",
					"type": "function"
				},
				{
					"inputs": [],
					"name": "MANAGER",
					"outputs": [
						{
							"internalType": "bytes32",
							"name": "",
							"type": "bytes32"
						}
					],
					"stateMutability": "view",
					"type": "function"
				},
				{
					"inputs": [
						{
							"internalType": "uint256",
							"name": "",
							"type": "uint256"
						}
					],
					"name": "applications",
					"outputs": [
						{
							"internalType": "address",
							"name": "applicant",
							"type": "address"
						},
						{
							"internalType": "uint256",
							"name": "jobId",
							"type": "uint256"
						},
						{
							"internalType": "string",
							"name": "message",
							"type": "string"
						}
					],
					"stateMutability": "view",
					"type": "function"
				},
				{
					"inputs": [
						{
							"internalType": "uint256",
							"name": "jobId",
							"type": "uint256"
						},
						{
							"internalType": "string",
							"name": "message",
							"type": "string"
						}
					],
					"name": "applyToJob",
					"outputs": [],
					"stateMutability": "nonpayable",
					"type": "function"
				},
				{
					"inputs": [
						{
							"internalType": "uint256",
							"name": "jobId",
							"type": "uint256"
						}
					],
					"name": "closeJob",
					"outputs": [],
					"stateMutability": "nonpayable",
					"type": "function"
				},
				{
					"inputs": [],
					"name": "getApplicationCount",
					"outputs": [
						{
							"internalType": "uint256",
							"name": "",
							"type": "uint256"
						}
					],
					"stateMutability": "view",
					"type": "function"
				},
				{
					"inputs": [
						{
							"internalType": "uint256",
							"name": "jobId",
							"type": "uint256"
						}
					],
					"name": "getJob",
					"outputs": [
						{
							"internalType": "string",
							"name": "title",
							"type": "string"
						},
						{
							"internalType": "bool",
							"name": "isOpen",
							"type": "bool"
						}
					],
					"stateMutability": "view",
					"type": "function"
				},
				{
					"inputs": [],
					"name": "getJobCount",
					"outputs": [
						{
							"internalType": "uint256",
							"name": "",
							"type": "uint256"
						}
					],
					"stateMutability": "view",
					"type": "function"
				},
				{
					"inputs": [
						{
							"internalType": "bytes32",
							"name": "role",
							"type": "bytes32"
						},
						{
							"internalType": "address",
							"name": "account",
							"type": "address"
						}
					],
					"name": "grantRole",
					"outputs": [],
					"stateMutability": "nonpayable",
					"type": "function"
				},
				{
					"inputs": [
						{
							"internalType": "bytes32",
							"name": "role",
							"type": "bytes32"
						},
						{
							"internalType": "address",
							"name": "account",
							"type": "address"
						}
					],
					"name": "hasRole",
					"outputs": [
						{
							"internalType": "bool",
							"name": "",
							"type": "bool"
						}
					],
					"stateMutability": "view",
					"type": "function"
				},
				{
					"inputs": [
						{
							"internalType": "uint256",
							"name": "",
							"type": "uint256"
						}
					],
					"name": "jobs",
					"outputs": [
						{
							"internalType": "string",
							"name": "title",
							"type": "string"
						},
						{
							"internalType": "address",
							"name": "postedBy",
							"type": "address"
						},
						{
							"internalType": "bool",
							"name": "isOpen",
							"type": "bool"
						}
					],
					"stateMutability": "view",
					"type": "function"
				},
				{
					"inputs": [
						{
							"internalType": "string",
							"name": "title",
							"type": "string"
						}
					],
					"name": "postJob",
					"outputs": [],
					"stateMutability": "nonpayable",
					"type": "function"
				},
				{
					"inputs": [
						{
							"internalType": "bytes32",
							"name": "role",
							"type": "bytes32"
						},
						{
							"internalType": "address",
							"name": "account",
							"type": "address"
						}
					],
					"name": "revokeRole",
					"outputs": [],
					"stateMutability": "nonpayable",
					"type": "function"
				}
			],
			"devdoc": {
				"kind": "dev",
				"methods": {},
				"version": 1
			},
			"evm": {
				"assembly": "    /* \"contracts/CompanyRBAC.sol\":60:5647  contract CompanyRBAC {... */\n  mstore(0x40, 0x80)\n    /* \"contracts/CompanyRBAC.sol\":2192:2254  constructor() {... */\n  callvalue\n  dup1\n  iszero\n  tag_1\n  jumpi\n  revert(0x00, 0x00)\ntag_1:\n  pop\n    /* \"contracts/CompanyRBAC.sol\":2217:2246  _grantRole(ADMIN, msg.sender) */\n  tag_4\n    /* \"contracts/CompanyRBAC.sol\":344:362  keccak256(\"ADMIN\") */\n  0xdf8b4c520ffe197c5343c6f5aec59570151ef9a492f2c624fd45ddde6135ec42\n    /* \"contracts/CompanyRBAC.sol\":2235:2245  msg.sender */\n  caller\n    /* \"contracts/CompanyRBAC.sol\":2217:2227  _grantRole */\n  shl(0x20, tag_5)\n    /* \"contracts/CompanyRBAC.sol\":2217:2246  _grantRole(ADMIN, msg.sender) */\n  0x20\n  shr\n  jump\t// in\ntag_4:\n    /* \"contracts/CompanyRBAC.sol\":60:5647  contract CompanyRBAC {... */\n  jump(tag_6)\n    /* \"contracts/CompanyRBAC.sol\":4942:5091  function _grantRole(bytes32 role, address account) internal {... */\ntag_5:\n    /* \"contracts/CompanyRBAC.sol\":5037:5041  true */\n  0x01\n    /* \"contracts/CompanyRBAC.sol\":5013:5019  _roles */\n  0x00\n    /* \"contracts/CompanyRBAC.sol\":5013:5025  _roles[role] */\n  0x00\n    /* \"contracts/CompanyRBAC.sol\":5020:5024  role */\n  dup5\n    /* \"contracts/CompanyRBAC.sol\":5013:5025  _roles[role] */\n  dup2\n  mstore\n  0x20\n  add\n  swap1\n  dup2\n  mstore\n  0x20\n  add\n  0x00\n  keccak256\n    /* \"contracts/CompanyRBAC.sol\":5013:5034  _roles[role][account] */\n  0x00\n    /* \"contracts/CompanyRBAC.sol\":5026:5033  account */\n  dup4\n    /* \"contracts/CompanyRBAC.sol\":5013:5034  _roles[role][account] */\n  0xffffffffffffffffffffffffffffffffffffffff\n  and\n  0xffffffffffffffffffffffffffffffffffffffff\n  and\n  dup2\n  mstore\n  0x20\n  add\n  swap1\n  dup2\n  mstore\n  0x20\n  add\n  0x00\n  keccak256\n  0x00\n    /* \"contracts/CompanyRBAC.sol\":5013:5041  _roles[role][account] = true */\n  0x0100\n  exp\n  dup2\n  sload\n  dup2\n  0xff\n  mul\n  not\n  and\n  swap1\n  dup4\n  iszero\n  iszero\n  mul\n  or\n  swap1\n  sstore\n  pop\n    /* \"contracts/CompanyRBAC.sol\":5075:5082  account */\n  dup1\n    /* \"contracts/CompanyRBAC.sol\":5057:5083  RoleGranted(role, account) */\n  0xffffffffffffffffffffffffffffffffffffffff\n  and\n    /* \"contracts/CompanyRBAC.sol\":5069:5073  role */\n  dup3\n    /* \"contracts/CompanyRBAC.sol\":5057:5083  RoleGranted(role, account) */\n  0x2ae6a113c0ed5b78a53413ffbb7679881f11145ccfba4fb92e863dfcd5a1d2f3\n  mload(0x40)\n  mload(0x40)\n  dup1\n  swap2\n  sub\n  swap1\n  log3\n    /* \"contracts/CompanyRBAC.sol\":4942:5091  function _grantRole(bytes32 role, address account) internal {... */\n  pop\n  pop\n  jump\t// out\n    /* \"contracts/CompanyRBAC.sol\":60:5647  contract CompanyRBAC {... */\ntag_6:\n  dataSize(sub_0)\n  dup1\n  dataOffset(sub_0)\n  0x00\n  codecopy\n  0x00\n  return\nstop\n\nsub_0: assembly {\n        /* \"contracts/CompanyRBAC.sol\":60:5647  contract CompanyRBAC {... */\n      mstore(0x40, 0x80)\n      callvalue\n      dup1\n      iszero\n      tag_1\n      jumpi\n      revert(0x00, 0x00)\n    tag_1:\n      pop\n      jumpi(tag_2, lt(calldatasize, 0x04))\n      shr(0xe0, calldataload(0x00))\n      dup1\n      0x58a6f4ca\n      gt\n      tag_17\n      jumpi\n      dup1\n      0xbf22c457\n      gt\n      tag_18\n      jumpi\n      dup1\n      0xbf22c457\n      eq\n      tag_13\n      jumpi\n      dup1\n      0xd547741f\n      eq\n      tag_14\n      jumpi\n      dup1\n      0xdfefadff\n      eq\n      tag_15\n      jumpi\n      dup1\n      0xe7336d14\n      eq\n      tag_16\n      jumpi\n      jump(tag_2)\n    tag_18:\n      dup1\n      0x58a6f4ca\n      eq\n      tag_10\n      jumpi\n      dup1\n      0x91d14854\n      eq\n      tag_11\n      jumpi\n      dup1\n      0xb02b4a2f\n      eq\n      tag_12\n      jumpi\n      jump(tag_2)\n    tag_17:\n      dup1\n      0x27a6d1d7\n      gt\n      tag_19\n      jumpi\n      dup1\n      0x27a6d1d7\n      eq\n      tag_6\n      jumpi\n      dup1\n      0x2a0acc6a\n      eq\n      tag_7\n      jumpi\n      dup1\n      0x2f2ff15d\n      eq\n      tag_8\n      jumpi\n      dup1\n      0x3efaea1f\n      eq\n      tag_9\n      jumpi\n      jump(tag_2)\n    tag_19:\n      dup1\n      0x180aedf3\n      eq\n      tag_3\n      jumpi\n      dup1\n      0x1b2df850\n      eq\n      tag_4\n      jumpi\n      dup1\n      0x1e01abca\n      eq\n      tag_5\n      jumpi\n    tag_2:\n      revert(0x00, 0x00)\n        /* \"contracts/CompanyRBAC.sol\":979:1004  Job[]         public jobs */\n    tag_3:\n      tag_20\n      0x04\n      dup1\n      calldatasize\n      sub\n      dup2\n      add\n      swap1\n      tag_21\n      swap2\n      swap1\n      tag_22\n      jump\t// in\n    tag_21:\n      tag_23\n      jump\t// in\n    tag_20:\n      mload(0x40)\n      tag_24\n      swap4\n      swap3\n      swap2\n      swap1\n      tag_25\n      jump\t// in\n    tag_24:\n      mload(0x40)\n      dup1\n      swap2\n      sub\n      swap1\n      return\n        /* \"contracts/CompanyRBAC.sol\":369:424  bytes32 public constant MANAGER  = keccak256(\"MANAGER\") */\n    tag_4:\n      tag_26\n      tag_27\n      jump\t// in\n    tag_26:\n      mload(0x40)\n      tag_28\n      swap2\n      swap1\n      tag_29\n      jump\t// in\n    tag_28:\n      mload(0x40)\n      dup1\n      swap2\n      sub\n      swap1\n      return\n        /* \"contracts/CompanyRBAC.sol\":3520:3790  function closeJob(uint256 jobId) external onlyRole(MANAGER) {... */\n    tag_5:\n      tag_30\n      0x04\n      dup1\n      calldatasize\n      sub\n      dup2\n      add\n      swap1\n      tag_31\n      swap2\n      swap1\n      tag_22\n      jump\t// in\n    tag_31:\n      tag_32\n      jump\t// in\n    tag_30:\n      stop\n        /* \"contracts/CompanyRBAC.sol\":3216:3512  function postJob(string calldata title) external onlyRole(MANAGER) {... */\n    tag_6:\n      tag_33\n      0x04\n      dup1\n      calldatasize\n      sub\n      dup2\n      add\n      swap1\n      tag_34\n      swap2\n      swap1\n      tag_35\n      jump\t// in\n    tag_34:\n      tag_36\n      jump\t// in\n    tag_33:\n      stop\n        /* \"contracts/CompanyRBAC.sol\":309:362  bytes32 public constant ADMIN    = keccak256(\"ADMIN\") */\n    tag_7:\n      tag_37\n      tag_38\n      jump\t// in\n    tag_37:\n      mload(0x40)\n      tag_39\n      swap2\n      swap1\n      tag_29\n      jump\t// in\n    tag_39:\n      mload(0x40)\n      dup1\n      swap2\n      sub\n      swap1\n      return\n        /* \"contracts/CompanyRBAC.sol\":2461:2763  function grantRole(bytes32 role, address account) external onlyRole(ADMIN) {... */\n    tag_8:\n      tag_40\n      0x04\n      dup1\n      calldatasize\n      sub\n      dup2\n      add\n      swap1\n      tag_41\n      swap2\n      swap1\n      tag_42\n      jump\t// in\n    tag_41:\n      tag_43\n      jump\t// in\n    tag_40:\n      stop\n        /* \"contracts/CompanyRBAC.sol\":3991:4437  function applyToJob(uint256 jobId, string calldata message)... */\n    tag_9:\n      tag_44\n      0x04\n      dup1\n      calldatasize\n      sub\n      dup2\n      add\n      swap1\n      tag_45\n      swap2\n      swap1\n      tag_46\n      jump\t// in\n    tag_45:\n      tag_47\n      jump\t// in\n    tag_44:\n      stop\n        /* \"contracts/CompanyRBAC.sol\":5536:5644  function getApplicationCount() external view returns (uint256) {... */\n    tag_10:\n      tag_48\n      tag_49\n      jump\t// in\n    tag_48:\n      mload(0x40)\n      tag_50\n      swap2\n      swap1\n      tag_51\n      jump\t// in\n    tag_50:\n      mload(0x40)\n      dup1\n      swap2\n      sub\n      swap1\n      return\n        /* \"contracts/CompanyRBAC.sol\":5304:5428  function hasRole(bytes32 role, address account) external view returns (bool) {... */\n    tag_11:\n      tag_52\n      0x04\n      dup1\n      calldatasize\n      sub\n      dup2\n      add\n      swap1\n      tag_53\n      swap2\n      swap1\n      tag_42\n      jump\t// in\n    tag_53:\n      tag_54\n      jump\t// in\n    tag_52:\n      mload(0x40)\n      tag_55\n      swap2\n      swap1\n      tag_56\n      jump\t// in\n    tag_55:\n      mload(0x40)\n      dup1\n      swap2\n      sub\n      swap1\n      return\n        /* \"contracts/CompanyRBAC.sol\":5436:5528  function getJobCount() external view returns (uint256) {... */\n    tag_12:\n      tag_57\n      tag_58\n      jump\t// in\n    tag_57:\n      mload(0x40)\n      tag_59\n      swap2\n      swap1\n      tag_51\n      jump\t// in\n    tag_59:\n      mload(0x40)\n      dup1\n      swap2\n      sub\n      swap1\n      return\n        /* \"contracts/CompanyRBAC.sol\":4445:4737  function getJob(uint256 jobId)... */\n    tag_13:\n      tag_60\n      0x04\n      dup1\n      calldatasize\n      sub\n      dup2\n      add\n      swap1\n      tag_61\n      swap2\n      swap1\n      tag_22\n      jump\t// in\n    tag_61:\n      tag_62\n      jump\t// in\n    tag_60:\n      mload(0x40)\n      tag_63\n      swap3\n      swap2\n      swap1\n      tag_64\n      jump\t// in\n    tag_63:\n      mload(0x40)\n      dup1\n      swap2\n      sub\n      swap1\n      return\n        /* \"contracts/CompanyRBAC.sol\":2771:3013  function revokeRole(bytes32 role, address account) external onlyRole(ADMIN) {... */\n    tag_14:\n      tag_65\n      0x04\n      dup1\n      calldatasize\n      sub\n      dup2\n      add\n      swap1\n      tag_66\n      swap2\n      swap1\n      tag_42\n      jump\t// in\n    tag_66:\n      tag_67\n      jump\t// in\n    tag_65:\n      stop\n        /* \"contracts/CompanyRBAC.sol\":1011:1044  Application[] public applications */\n    tag_15:\n      tag_68\n      0x04\n      dup1\n      calldatasize\n      sub\n      dup2\n      add\n      swap1\n      tag_69\n      swap2\n      swap1\n      tag_22\n      jump\t// in\n    tag_69:\n      tag_70\n      jump\t// in\n    tag_68:\n      mload(0x40)\n      tag_71\n      swap4\n      swap3\n      swap2\n      swap1\n      tag_72\n      jump\t// in\n    tag_71:\n      mload(0x40)\n      dup1\n      swap2\n      sub\n      swap1\n      return\n        /* \"contracts/CompanyRBAC.sol\":431:487  bytes32 public constant EMPLOYEE = keccak256(\"EMPLOYEE\") */\n    tag_16:\n      tag_73\n      tag_74\n      jump\t// in\n    tag_73:\n      mload(0x40)\n      tag_75\n      swap2\n      swap1\n      tag_29\n      jump\t// in\n    tag_75:\n      mload(0x40)\n      dup1\n      swap2\n      sub\n      swap1\n      return\n        /* \"contracts/CompanyRBAC.sol\":979:1004  Job[]         public jobs */\n    tag_23:\n      0x01\n      dup2\n      dup2\n      sload\n      dup2\n      lt\n      tag_76\n      jumpi\n      0x00\n      dup1\n      revert\n    tag_76:\n      swap1\n      0x00\n      mstore\n      keccak256(0x00, 0x20)\n      swap1\n      0x02\n      mul\n      add\n      0x00\n      swap2\n      pop\n      swap1\n      pop\n      dup1\n      0x00\n      add\n      dup1\n      sload\n      tag_78\n      swap1\n      tag_79\n      jump\t// in\n    tag_78:\n      dup1\n      0x1f\n      add\n      0x20\n      dup1\n      swap2\n      div\n      mul\n      0x20\n      add\n      mload(0x40)\n      swap1\n      dup2\n      add\n      0x40\n      mstore\n      dup1\n      swap3\n      swap2\n      swap1\n      dup2\n      dup2\n      mstore\n      0x20\n      add\n      dup3\n      dup1\n      sload\n      tag_80\n      swap1\n      tag_79\n      jump\t// in\n    tag_80:\n      dup1\n      iszero\n      tag_81\n      jumpi\n      dup1\n      0x1f\n      lt\n      tag_82\n      jumpi\n      0x0100\n      dup1\n      dup4\n      sload\n      div\n      mul\n      dup4\n      mstore\n      swap2\n      0x20\n      add\n      swap2\n      jump(tag_81)\n    tag_82:\n      dup3\n      add\n      swap2\n      swap1\n      0x00\n      mstore\n      keccak256(0x00, 0x20)\n      swap1\n    tag_83:\n      dup2\n      sload\n      dup2\n      mstore\n      swap1\n      0x01\n      add\n      swap1\n      0x20\n      add\n      dup1\n      dup4\n      gt\n      tag_83\n      jumpi\n      dup3\n      swap1\n      sub\n      0x1f\n      and\n      dup3\n      add\n      swap2\n    tag_81:\n      pop\n      pop\n      pop\n      pop\n      pop\n      swap1\n      dup1\n      0x01\n      add\n      0x00\n      swap1\n      sload\n      swap1\n      0x0100\n      exp\n      swap1\n      div\n      0xffffffffffffffffffffffffffffffffffffffff\n      and\n      swap1\n      dup1\n      0x01\n      add\n      0x14\n      swap1\n      sload\n      swap1\n      0x0100\n      exp\n      swap1\n      div\n      0xff\n      and\n      swap1\n      pop\n      dup4\n      jump\t// out\n        /* \"contracts/CompanyRBAC.sol\":369:424  bytes32 public constant MANAGER  = keccak256(\"MANAGER\") */\n    tag_27:\n        /* \"contracts/CompanyRBAC.sol\":404:424  keccak256(\"MANAGER\") */\n      0xaf290d8680820aad922855f39b306097b20e28774d6c1ad35a20325630c3a02c\n        /* \"contracts/CompanyRBAC.sol\":369:424  bytes32 public constant MANAGER  = keccak256(\"MANAGER\") */\n      dup2\n      jump\t// out\n        /* \"contracts/CompanyRBAC.sol\":3520:3790  function closeJob(uint256 jobId) external onlyRole(MANAGER) {... */\n    tag_32:\n        /* \"contracts/CompanyRBAC.sol\":404:424  keccak256(\"MANAGER\") */\n      0xaf290d8680820aad922855f39b306097b20e28774d6c1ad35a20325630c3a02c\n        /* \"contracts/CompanyRBAC.sol\":1915:1921  _roles */\n      0x00\n        /* \"contracts/CompanyRBAC.sol\":1915:1927  _roles[role] */\n      0x00\n        /* \"contracts/CompanyRBAC.sol\":1922:1926  role */\n      dup3\n        /* \"contracts/CompanyRBAC.sol\":1915:1927  _roles[role] */\n      dup2\n      mstore\n      0x20\n      add\n      swap1\n      dup2\n      mstore\n      0x20\n      add\n      0x00\n      keccak256\n        /* \"contracts/CompanyRBAC.sol\":1915:1939  _roles[role][msg.sender] */\n      0x00\n        /* \"contracts/CompanyRBAC.sol\":1928:1938  msg.sender */\n      caller\n        /* \"contracts/CompanyRBAC.sol\":1915:1939  _roles[role][msg.sender] */\n      0xffffffffffffffffffffffffffffffffffffffff\n      and\n      0xffffffffffffffffffffffffffffffffffffffff\n      and\n      dup2\n      mstore\n      0x20\n      add\n      swap1\n      dup2\n      mstore\n      0x20\n      add\n      0x00\n      keccak256\n      0x00\n      swap1\n      sload\n      swap1\n      0x0100\n      exp\n      swap1\n      div\n      0xff\n      and\n        /* \"contracts/CompanyRBAC.sol\":1907:1957  require(_roles[role][msg.sender], \"Access denied\") */\n      tag_85\n      jumpi\n      mload(0x40)\n      0x08c379a000000000000000000000000000000000000000000000000000000000\n      dup2\n      mstore\n      0x04\n      add\n      tag_86\n      swap1\n      tag_87\n      jump\t// in\n    tag_86:\n      mload(0x40)\n      dup1\n      swap2\n      sub\n      swap1\n      revert\n    tag_85:\n        /* \"contracts/CompanyRBAC.sol\":3607:3611  jobs */\n      0x01\n        /* \"contracts/CompanyRBAC.sol\":3607:3618  jobs.length */\n      dup1\n      sload\n      swap1\n      pop\n        /* \"contracts/CompanyRBAC.sol\":3599:3604  jobId */\n      dup3\n        /* \"contracts/CompanyRBAC.sol\":3599:3618  jobId < jobs.length */\n      lt\n        /* \"contracts/CompanyRBAC.sol\":3591:3641  require(jobId < jobs.length, \"Job does not exist\") */\n      tag_89\n      jumpi\n      mload(0x40)\n      0x08c379a000000000000000000000000000000000000000000000000000000000\n      dup2\n      mstore\n      0x04\n      add\n      tag_90\n      swap1\n      tag_91\n      jump\t// in\n    tag_90:\n      mload(0x40)\n      dup1\n      swap2\n      sub\n      swap1\n      revert\n    tag_89:\n        /* \"contracts/CompanyRBAC.sol\":3660:3664  jobs */\n      0x01\n        /* \"contracts/CompanyRBAC.sol\":3665:3670  jobId */\n      dup3\n        /* \"contracts/CompanyRBAC.sol\":3660:3671  jobs[jobId] */\n      dup2\n      sload\n      dup2\n      lt\n      tag_92\n      jumpi\n      tag_93\n      tag_94\n      jump\t// in\n    tag_93:\n    tag_92:\n      swap1\n      0x00\n      mstore\n      keccak256(0x00, 0x20)\n      swap1\n      0x02\n      mul\n      add\n        /* \"contracts/CompanyRBAC.sol\":3660:3678  jobs[jobId].isOpen */\n      0x01\n      add\n      0x14\n      swap1\n      sload\n      swap1\n      0x0100\n      exp\n      swap1\n      div\n      0xff\n      and\n        /* \"contracts/CompanyRBAC.sol\":3652:3701  require(jobs[jobId].isOpen, \"Job already closed\") */\n      tag_96\n      jumpi\n      mload(0x40)\n      0x08c379a000000000000000000000000000000000000000000000000000000000\n      dup2\n      mstore\n      0x04\n      add\n      tag_97\n      swap1\n      tag_98\n      jump\t// in\n    tag_97:\n      mload(0x40)\n      dup1\n      swap2\n      sub\n      swap1\n      revert\n    tag_96:\n        /* \"contracts/CompanyRBAC.sol\":3733:3738  false */\n      0x00\n        /* \"contracts/CompanyRBAC.sol\":3712:3716  jobs */\n      0x01\n        /* \"contracts/CompanyRBAC.sol\":3717:3722  jobId */\n      dup4\n        /* \"contracts/CompanyRBAC.sol\":3712:3723  jobs[jobId] */\n      dup2\n      sload\n      dup2\n      lt\n      tag_99\n      jumpi\n      tag_100\n      tag_94\n      jump\t// in\n    tag_100:\n    tag_99:\n      swap1\n      0x00\n      mstore\n      keccak256(0x00, 0x20)\n      swap1\n      0x02\n      mul\n      add\n        /* \"contracts/CompanyRBAC.sol\":3712:3730  jobs[jobId].isOpen */\n      0x01\n      add\n      0x14\n        /* \"contracts/CompanyRBAC.sol\":3712:3738  jobs[jobId].isOpen = false */\n      0x0100\n      exp\n      dup2\n      sload\n      dup2\n      0xff\n      mul\n      not\n      and\n      swap1\n      dup4\n      iszero\n      iszero\n      mul\n      or\n      swap1\n      sstore\n      pop\n        /* \"contracts/CompanyRBAC.sol\":3771:3781  msg.sender */\n      caller\n        /* \"contracts/CompanyRBAC.sol\":3754:3782  JobClosed(jobId, msg.sender) */\n      0xffffffffffffffffffffffffffffffffffffffff\n      and\n        /* \"contracts/CompanyRBAC.sol\":3764:3769  jobId */\n      dup3\n        /* \"contracts/CompanyRBAC.sol\":3754:3782  JobClosed(jobId, msg.sender) */\n      0x225e8602d919485e9a54c796e7ceb40e6ad02e5bcc5dce07355d117713e5166c\n      mload(0x40)\n      mload(0x40)\n      dup1\n      swap2\n      sub\n      swap1\n      log3\n        /* \"contracts/CompanyRBAC.sol\":3520:3790  function closeJob(uint256 jobId) external onlyRole(MANAGER) {... */\n      pop\n      pop\n      jump\t// out\n        /* \"contracts/CompanyRBAC.sol\":3216:3512  function postJob(string calldata title) external onlyRole(MANAGER) {... */\n    tag_36:\n        /* \"contracts/CompanyRBAC.sol\":404:424  keccak256(\"MANAGER\") */\n      0xaf290d8680820aad922855f39b306097b20e28774d6c1ad35a20325630c3a02c\n        /* \"contracts/CompanyRBAC.sol\":1915:1921  _roles */\n      0x00\n        /* \"contracts/CompanyRBAC.sol\":1915:1927  _roles[role] */\n      0x00\n        /* \"contracts/CompanyRBAC.sol\":1922:1926  role */\n      dup3\n        /* \"contracts/CompanyRBAC.sol\":1915:1927  _roles[role] */\n      dup2\n      mstore\n      0x20\n      add\n      swap1\n      dup2\n      mstore\n      0x20\n      add\n      0x00\n      keccak256\n        /* \"contracts/CompanyRBAC.sol\":1915:1939  _roles[role][msg.sender] */\n      0x00\n        /* \"contracts/CompanyRBAC.sol\":1928:1938  msg.sender */\n      caller\n        /* \"contracts/CompanyRBAC.sol\":1915:1939  _roles[role][msg.sender] */\n      0xffffffffffffffffffffffffffffffffffffffff\n      and\n      0xffffffffffffffffffffffffffffffffffffffff\n      and\n      dup2\n      mstore\n      0x20\n      add\n      swap1\n      dup2\n      mstore\n      0x20\n      add\n      0x00\n      keccak256\n      0x00\n      swap1\n      sload\n      swap1\n      0x0100\n      exp\n      swap1\n      div\n      0xff\n      and\n        /* \"contracts/CompanyRBAC.sol\":1907:1957  require(_roles[role][msg.sender], \"Access denied\") */\n      tag_103\n      jumpi\n      mload(0x40)\n      0x08c379a000000000000000000000000000000000000000000000000000000000\n      dup2\n      mstore\n      0x04\n      add\n      tag_104\n      swap1\n      tag_87\n      jump\t// in\n    tag_104:\n      mload(0x40)\n      dup1\n      swap2\n      sub\n      swap1\n      revert\n    tag_103:\n        /* \"contracts/CompanyRBAC.sol\":3294:3307  uint256 jobId */\n      0x00\n        /* \"contracts/CompanyRBAC.sol\":3310:3314  jobs */\n      0x01\n        /* \"contracts/CompanyRBAC.sol\":3310:3321  jobs.length */\n      dup1\n      sload\n      swap1\n      pop\n        /* \"contracts/CompanyRBAC.sol\":3294:3321  uint256 jobId = jobs.length */\n      swap1\n      pop\n        /* \"contracts/CompanyRBAC.sol\":3332:3336  jobs */\n      0x01\n        /* \"contracts/CompanyRBAC.sol\":3342:3452  Job({... */\n      mload(0x40)\n      dup1\n      0x60\n      add\n      0x40\n      mstore\n      dup1\n        /* \"contracts/CompanyRBAC.sol\":3371:3376  title */\n      dup7\n      dup7\n        /* \"contracts/CompanyRBAC.sol\":3342:3452  Job({... */\n      dup1\n      dup1\n      0x1f\n      add\n      0x20\n      dup1\n      swap2\n      div\n      mul\n      0x20\n      add\n      mload(0x40)\n      swap1\n      dup2\n      add\n      0x40\n      mstore\n      dup1\n      swap4\n      swap3\n      swap2\n      swap1\n      dup2\n      dup2\n      mstore\n      0x20\n      add\n      dup4\n      dup4\n      dup1\n      dup3\n      dup5\n      calldatacopy\n      0x00\n      dup2\n      dup5\n      add\n      mstore\n      not(0x1f)\n      0x1f\n      dup3\n      add\n      and\n      swap1\n      pop\n      dup1\n      dup4\n      add\n      swap3\n      pop\n      pop\n      pop\n      pop\n      pop\n      pop\n      pop\n      dup2\n      mstore\n      0x20\n      add\n        /* \"contracts/CompanyRBAC.sol\":3401:3411  msg.sender */\n      caller\n        /* \"contracts/CompanyRBAC.sol\":3342:3452  Job({... */\n      0xffffffffffffffffffffffffffffffffffffffff\n      and\n      dup2\n      mstore\n      0x20\n      add\n        /* \"contracts/CompanyRBAC.sol\":3436:3440  true */\n      0x01\n        /* \"contracts/CompanyRBAC.sol\":3342:3452  Job({... */\n      iszero\n      iszero\n      dup2\n      mstore\n      pop\n        /* \"contracts/CompanyRBAC.sol\":3332:3453  jobs.push(Job({... */\n      swap1\n      dup1\n      0x01\n      dup2\n      sload\n      add\n      dup1\n      dup3\n      sstore\n      dup1\n      swap2\n      pop\n      pop\n      0x01\n      swap1\n      sub\n      swap1\n      0x00\n      mstore\n      keccak256(0x00, 0x20)\n      swap1\n      0x02\n      mul\n      add\n      0x00\n      swap1\n      swap2\n      swap1\n      swap2\n      swap1\n      swap2\n      pop\n      0x00\n      dup3\n      add\n      mload\n      dup2\n      0x00\n      add\n      swap1\n      dup2\n      tag_107\n      swap2\n      swap1\n      tag_108\n      jump\t// in\n    tag_107:\n      pop\n      0x20\n      dup3\n      add\n      mload\n      dup2\n      0x01\n      add\n      exp(0x0100, 0x00)\n      dup2\n      sload\n      dup2\n      0xffffffffffffffffffffffffffffffffffffffff\n      mul\n      not\n      and\n      swap1\n      dup4\n      0xffffffffffffffffffffffffffffffffffffffff\n      and\n      mul\n      or\n      swap1\n      sstore\n      pop\n      0x40\n      dup3\n      add\n      mload\n      dup2\n      0x01\n      add\n      exp(0x0100, 0x14)\n      dup2\n      sload\n      dup2\n      0xff\n      mul\n      not\n      and\n      swap1\n      dup4\n      iszero\n      iszero\n      mul\n      or\n      swap1\n      sstore\n      pop\n      pop\n      pop\n        /* \"contracts/CompanyRBAC.sol\":3493:3503  msg.sender */\n      caller\n        /* \"contracts/CompanyRBAC.sol\":3469:3504  JobPosted(jobId, title, msg.sender) */\n      0xffffffffffffffffffffffffffffffffffffffff\n      and\n        /* \"contracts/CompanyRBAC.sol\":3479:3484  jobId */\n      dup2\n        /* \"contracts/CompanyRBAC.sol\":3469:3504  JobPosted(jobId, title, msg.sender) */\n      0x4d735a55ef1592186e3de98cfded1b75826f5b08a7d2777536ac6bcc9b5e8f2b\n        /* \"contracts/CompanyRBAC.sol\":3486:3491  title */\n      dup7\n      dup7\n        /* \"contracts/CompanyRBAC.sol\":3469:3504  JobPosted(jobId, title, msg.sender) */\n      mload(0x40)\n      tag_109\n      swap3\n      swap2\n      swap1\n      tag_110\n      jump\t// in\n    tag_109:\n      mload(0x40)\n      dup1\n      swap2\n      sub\n      swap1\n      log3\n        /* \"contracts/CompanyRBAC.sol\":3283:3512  {... */\n      pop\n        /* \"contracts/CompanyRBAC.sol\":3216:3512  function postJob(string calldata title) external onlyRole(MANAGER) {... */\n      pop\n      pop\n      pop\n      jump\t// out\n        /* \"contracts/CompanyRBAC.sol\":309:362  bytes32 public constant ADMIN    = keccak256(\"ADMIN\") */\n    tag_38:\n        /* \"contracts/CompanyRBAC.sol\":344:362  keccak256(\"ADMIN\") */\n      0xdf8b4c520ffe197c5343c6f5aec59570151ef9a492f2c624fd45ddde6135ec42\n        /* \"contracts/CompanyRBAC.sol\":309:362  bytes32 public constant ADMIN    = keccak256(\"ADMIN\") */\n      dup2\n      jump\t// out\n        /* \"contracts/CompanyRBAC.sol\":2461:2763  function grantRole(bytes32 role, address account) external onlyRole(ADMIN) {... */\n    tag_43:\n        /* \"contracts/CompanyRBAC.sol\":344:362  keccak256(\"ADMIN\") */\n      0xdf8b4c520ffe197c5343c6f5aec59570151ef9a492f2c624fd45ddde6135ec42\n        /* \"contracts/CompanyRBAC.sol\":1915:1921  _roles */\n      0x00\n        /* \"contracts/CompanyRBAC.sol\":1915:1927  _roles[role] */\n      0x00\n        /* \"contracts/CompanyRBAC.sol\":1922:1926  role */\n      dup3\n        /* \"contracts/CompanyRBAC.sol\":1915:1927  _roles[role] */\n      dup2\n      mstore\n      0x20\n      add\n      swap1\n      dup2\n      mstore\n      0x20\n      add\n      0x00\n      keccak256\n        /* \"contracts/CompanyRBAC.sol\":1915:1939  _roles[role][msg.sender] */\n      0x00\n        /* \"contracts/CompanyRBAC.sol\":1928:1938  msg.sender */\n      caller\n        /* \"contracts/CompanyRBAC.sol\":1915:1939  _roles[role][msg.sender] */\n      0xffffffffffffffffffffffffffffffffffffffff\n      and\n      0xffffffffffffffffffffffffffffffffffffffff\n      and\n      dup2\n      mstore\n      0x20\n      add\n      swap1\n      dup2\n      mstore\n      0x20\n      add\n      0x00\n      keccak256\n      0x00\n      swap1\n      sload\n      swap1\n      0x0100\n      exp\n      swap1\n      div\n      0xff\n      and\n        /* \"contracts/CompanyRBAC.sol\":1907:1957  require(_roles[role][msg.sender], \"Access denied\") */\n      tag_112\n      jumpi\n      mload(0x40)\n      0x08c379a000000000000000000000000000000000000000000000000000000000\n      dup2\n      mstore\n      0x04\n      add\n      tag_113\n      swap1\n      tag_87\n      jump\t// in\n    tag_113:\n      mload(0x40)\n      dup1\n      swap2\n      sub\n      swap1\n      revert\n    tag_112:\n        /* \"contracts/CompanyRBAC.sol\":404:424  keccak256(\"MANAGER\") */\n      0xaf290d8680820aad922855f39b306097b20e28774d6c1ad35a20325630c3a02c\n        /* \"contracts/CompanyRBAC.sol\":2555:2559  role */\n      dup4\n        /* \"contracts/CompanyRBAC.sol\":2555:2570  role == MANAGER */\n      eq\n        /* \"contracts/CompanyRBAC.sol\":2555:2590  role == MANAGER || role == EMPLOYEE */\n      dup1\n      tag_115\n      jumpi\n      pop\n        /* \"contracts/CompanyRBAC.sol\":466:487  keccak256(\"EMPLOYEE\") */\n      0x989b8681e34e5a140922589c8eca8a05e6973c253a67caab2922847f87aa8bde\n        /* \"contracts/CompanyRBAC.sol\":2574:2578  role */\n      dup4\n        /* \"contracts/CompanyRBAC.sol\":2574:2590  role == EMPLOYEE */\n      eq\n        /* \"contracts/CompanyRBAC.sol\":2555:2590  role == MANAGER || role == EMPLOYEE */\n    tag_115:\n        /* \"contracts/CompanyRBAC.sol\":2547:2607  require(role == MANAGER || role == EMPLOYEE, \"Invalid role\") */\n      tag_116\n      jumpi\n      mload(0x40)\n      0x08c379a000000000000000000000000000000000000000000000000000000000\n      dup2\n      mstore\n      0x04\n      add\n      tag_117\n      swap1\n      tag_118\n      jump\t// in\n    tag_117:\n      mload(0x40)\n      dup1\n      swap2\n      sub\n      swap1\n      revert\n    tag_116:\n        /* \"contracts/CompanyRBAC.sol\":2627:2633  _roles */\n      0x00\n        /* \"contracts/CompanyRBAC.sol\":2627:2642  _roles[MANAGER] */\n      0x00\n        /* \"contracts/CompanyRBAC.sol\":404:424  keccak256(\"MANAGER\") */\n      0xaf290d8680820aad922855f39b306097b20e28774d6c1ad35a20325630c3a02c\n        /* \"contracts/CompanyRBAC.sol\":2627:2642  _roles[MANAGER] */\n      dup2\n      mstore\n      0x20\n      add\n      swap1\n      dup2\n      mstore\n      0x20\n      add\n      0x00\n      keccak256\n        /* \"contracts/CompanyRBAC.sol\":2627:2651  _roles[MANAGER][account] */\n      0x00\n        /* \"contracts/CompanyRBAC.sol\":2643:2650  account */\n      dup4\n        /* \"contracts/CompanyRBAC.sol\":2627:2651  _roles[MANAGER][account] */\n      0xffffffffffffffffffffffffffffffffffffffff\n      and\n      0xffffffffffffffffffffffffffffffffffffffff\n      and\n      dup2\n      mstore\n      0x20\n      add\n      swap1\n      dup2\n      mstore\n      0x20\n      add\n      0x00\n      keccak256\n      0x00\n      swap1\n      sload\n      swap1\n      0x0100\n      exp\n      swap1\n      div\n      0xff\n      and\n        /* \"contracts/CompanyRBAC.sol\":2626:2651  !_roles[MANAGER][account] */\n      iszero\n        /* \"contracts/CompanyRBAC.sol\":2626:2681  !_roles[MANAGER][account] && !_roles[EMPLOYEE][account] */\n      dup1\n      iszero\n      tag_119\n      jumpi\n      pop\n        /* \"contracts/CompanyRBAC.sol\":2656:2662  _roles */\n      0x00\n        /* \"contracts/CompanyRBAC.sol\":2656:2672  _roles[EMPLOYEE] */\n      0x00\n        /* \"contracts/CompanyRBAC.sol\":466:487  keccak256(\"EMPLOYEE\") */\n      0x989b8681e34e5a140922589c8eca8a05e6973c253a67caab2922847f87aa8bde\n        /* \"contracts/CompanyRBAC.sol\":2656:2672  _roles[EMPLOYEE] */\n      dup2\n      mstore\n      0x20\n      add\n      swap1\n      dup2\n      mstore\n      0x20\n      add\n      0x00\n      keccak256\n        /* \"contracts/CompanyRBAC.sol\":2656:2681  _roles[EMPLOYEE][account] */\n      0x00\n        /* \"contracts/CompanyRBAC.sol\":2673:2680  account */\n      dup4\n        /* \"contracts/CompanyRBAC.sol\":2656:2681  _roles[EMPLOYEE][account] */\n      0xffffffffffffffffffffffffffffffffffffffff\n      and\n      0xffffffffffffffffffffffffffffffffffffffff\n      and\n      dup2\n      mstore\n      0x20\n      add\n      swap1\n      dup2\n      mstore\n      0x20\n      add\n      0x00\n      keccak256\n      0x00\n      swap1\n      sload\n      swap1\n      0x0100\n      exp\n      swap1\n      div\n      0xff\n      and\n        /* \"contracts/CompanyRBAC.sol\":2655:2681  !_roles[EMPLOYEE][account] */\n      iszero\n        /* \"contracts/CompanyRBAC.sol\":2626:2681  !_roles[MANAGER][account] && !_roles[EMPLOYEE][account] */\n    tag_119:\n        /* \"contracts/CompanyRBAC.sol\":2618:2717  require(!_roles[MANAGER][account] && !_roles[EMPLOYEE][account],... */\n      tag_120\n      jumpi\n      mload(0x40)\n      0x08c379a000000000000000000000000000000000000000000000000000000000\n      dup2\n      mstore\n      0x04\n      add\n      tag_121\n      swap1\n      tag_122\n      jump\t// in\n    tag_121:\n      mload(0x40)\n      dup1\n      swap2\n      sub\n      swap1\n      revert\n    tag_120:\n        /* \"contracts/CompanyRBAC.sol\":2730:2755  _grantRole(role, account) */\n      tag_123\n        /* \"contracts/CompanyRBAC.sol\":2741:2745  role */\n      dup4\n        /* \"contracts/CompanyRBAC.sol\":2747:2754  account */\n      dup4\n        /* \"contracts/CompanyRBAC.sol\":2730:2740  _grantRole */\n      tag_124\n        /* \"contracts/CompanyRBAC.sol\":2730:2755  _grantRole(role, account) */\n      jump\t// in\n    tag_123:\n        /* \"contracts/CompanyRBAC.sol\":2461:2763  function grantRole(bytes32 role, address account) external onlyRole(ADMIN) {... */\n      pop\n      pop\n      pop\n      jump\t// out\n        /* \"contracts/CompanyRBAC.sol\":3991:4437  function applyToJob(uint256 jobId, string calldata message)... */\n    tag_47:\n        /* \"contracts/CompanyRBAC.sol\":466:487  keccak256(\"EMPLOYEE\") */\n      0x989b8681e34e5a140922589c8eca8a05e6973c253a67caab2922847f87aa8bde\n        /* \"contracts/CompanyRBAC.sol\":1915:1921  _roles */\n      0x00\n        /* \"contracts/CompanyRBAC.sol\":1915:1927  _roles[role] */\n      0x00\n        /* \"contracts/CompanyRBAC.sol\":1922:1926  role */\n      dup3\n        /* \"contracts/CompanyRBAC.sol\":1915:1927  _roles[role] */\n      dup2\n      mstore\n      0x20\n      add\n      swap1\n      dup2\n      mstore\n      0x20\n      add\n      0x00\n      keccak256\n        /* \"contracts/CompanyRBAC.sol\":1915:1939  _roles[role][msg.sender] */\n      0x00\n        /* \"contracts/CompanyRBAC.sol\":1928:1938  msg.sender */\n      caller\n        /* \"contracts/CompanyRBAC.sol\":1915:1939  _roles[role][msg.sender] */\n      0xffffffffffffffffffffffffffffffffffffffff\n      and\n      0xffffffffffffffffffffffffffffffffffffffff\n      and\n      dup2\n      mstore\n      0x20\n      add\n      swap1\n      dup2\n      mstore\n      0x20\n      add\n      0x00\n      keccak256\n      0x00\n      swap1\n      sload\n      swap1\n      0x0100\n      exp\n      swap1\n      div\n      0xff\n      and\n        /* \"contracts/CompanyRBAC.sol\":1907:1957  require(_roles[role][msg.sender], \"Access denied\") */\n      tag_126\n      jumpi\n      mload(0x40)\n      0x08c379a000000000000000000000000000000000000000000000000000000000\n      dup2\n      mstore\n      0x04\n      add\n      tag_127\n      swap1\n      tag_87\n      jump\t// in\n    tag_127:\n      mload(0x40)\n      dup1\n      swap2\n      sub\n      swap1\n      revert\n    tag_126:\n        /* \"contracts/CompanyRBAC.sol\":4129:4133  jobs */\n      0x01\n        /* \"contracts/CompanyRBAC.sol\":4129:4140  jobs.length */\n      dup1\n      sload\n      swap1\n      pop\n        /* \"contracts/CompanyRBAC.sol\":4121:4126  jobId */\n      dup5\n        /* \"contracts/CompanyRBAC.sol\":4121:4140  jobId < jobs.length */\n      lt\n        /* \"contracts/CompanyRBAC.sol\":4113:4163  require(jobId < jobs.length, \"Job does not exist\") */\n      tag_129\n      jumpi\n      mload(0x40)\n      0x08c379a000000000000000000000000000000000000000000000000000000000\n      dup2\n      mstore\n      0x04\n      add\n      tag_130\n      swap1\n      tag_91\n      jump\t// in\n    tag_130:\n      mload(0x40)\n      dup1\n      swap2\n      sub\n      swap1\n      revert\n    tag_129:\n        /* \"contracts/CompanyRBAC.sol\":4182:4186  jobs */\n      0x01\n        /* \"contracts/CompanyRBAC.sol\":4187:4192  jobId */\n      dup5\n        /* \"contracts/CompanyRBAC.sol\":4182:4193  jobs[jobId] */\n      dup2\n      sload\n      dup2\n      lt\n      tag_131\n      jumpi\n      tag_132\n      tag_94\n      jump\t// in\n    tag_132:\n    tag_131:\n      swap1\n      0x00\n      mstore\n      keccak256(0x00, 0x20)\n      swap1\n      0x02\n      mul\n      add\n        /* \"contracts/CompanyRBAC.sol\":4182:4200  jobs[jobId].isOpen */\n      0x01\n      add\n      0x14\n      swap1\n      sload\n      swap1\n      0x0100\n      exp\n      swap1\n      div\n      0xff\n      and\n        /* \"contracts/CompanyRBAC.sol\":4174:4218  require(jobs[jobId].isOpen, \"Job is closed\") */\n      tag_134\n      jumpi\n      mload(0x40)\n      0x08c379a000000000000000000000000000000000000000000000000000000000\n      dup2\n      mstore\n      0x04\n      add\n      tag_135\n      swap1\n      tag_136\n      jump\t// in\n    tag_135:\n      mload(0x40)\n      dup1\n      swap2\n      sub\n      swap1\n      revert\n    tag_134:\n        /* \"contracts/CompanyRBAC.sol\":4231:4243  applications */\n      0x02\n        /* \"contracts/CompanyRBAC.sol\":4249:4373  Application({... */\n      mload(0x40)\n      dup1\n      0x60\n      add\n      0x40\n      mstore\n      dup1\n        /* \"contracts/CompanyRBAC.sol\":4287:4297  msg.sender */\n      caller\n        /* \"contracts/CompanyRBAC.sol\":4249:4373  Application({... */\n      0xffffffffffffffffffffffffffffffffffffffff\n      and\n      dup2\n      mstore\n      0x20\n      add\n        /* \"contracts/CompanyRBAC.sol\":4323:4328  jobId */\n      dup7\n        /* \"contracts/CompanyRBAC.sol\":4249:4373  Application({... */\n      dup2\n      mstore\n      0x20\n      add\n        /* \"contracts/CompanyRBAC.sol\":4354:4361  message */\n      dup6\n      dup6\n        /* \"contracts/CompanyRBAC.sol\":4249:4373  Application({... */\n      dup1\n      dup1\n      0x1f\n      add\n      0x20\n      dup1\n      swap2\n      div\n      mul\n      0x20\n      add\n      mload(0x40)\n      swap1\n      dup2\n      add\n      0x40\n      mstore\n      dup1\n      swap4\n      swap3\n      swap2\n      swap1\n      dup2\n      dup2\n      mstore\n      0x20\n      add\n      dup4\n      dup4\n      dup1\n      dup3\n      dup5\n      calldatacopy\n      0x00\n      dup2\n      dup5\n      add\n      mstore\n      not(0x1f)\n      0x1f\n      dup3\n      add\n      and\n      swap1\n      pop\n      dup1\n      dup4\n      add\n      swap3\n      pop\n      pop\n      pop\n      pop\n      pop\n      pop\n      pop\n      dup2\n      mstore\n      pop\n        /* \"contracts/CompanyRBAC.sol\":4231:4374  applications.push(Application({... */\n      swap1\n      dup1\n      0x01\n      dup2\n      sload\n      add\n      dup1\n      dup3\n      sstore\n      dup1\n      swap2\n      pop\n      pop\n      0x01\n      swap1\n      sub\n      swap1\n      0x00\n      mstore\n      keccak256(0x00, 0x20)\n      swap1\n      0x03\n      mul\n      add\n      0x00\n      swap1\n      swap2\n      swap1\n      swap2\n      swap1\n      swap2\n      pop\n      0x00\n      dup3\n      add\n      mload\n      dup2\n      0x00\n      add\n      exp(0x0100, 0x00)\n      dup2\n      sload\n      dup2\n      0xffffffffffffffffffffffffffffffffffffffff\n      mul\n      not\n      and\n      swap1\n      dup4\n      0xffffffffffffffffffffffffffffffffffffffff\n      and\n      mul\n      or\n      swap1\n      sstore\n      pop\n      0x20\n      dup3\n      add\n      mload\n      dup2\n      0x01\n      add\n      sstore\n      0x40\n      dup3\n      add\n      mload\n      dup2\n      0x02\n      add\n      swap1\n      dup2\n      tag_138\n      swap2\n      swap1\n      tag_108\n      jump\t// in\n    tag_138:\n      pop\n      pop\n      pop\n        /* \"contracts/CompanyRBAC.sol\":4418:4428  msg.sender */\n      caller\n        /* \"contracts/CompanyRBAC.sol\":4390:4429  ApplicationSubmitted(jobId, msg.sender) */\n      0xffffffffffffffffffffffffffffffffffffffff\n      and\n        /* \"contracts/CompanyRBAC.sol\":4411:4416  jobId */\n      dup5\n        /* \"contracts/CompanyRBAC.sol\":4390:4429  ApplicationSubmitted(jobId, msg.sender) */\n      0x394b2f46e841d2b670718e98a15dfb76853abc5a8761449c74e9cba62d901521\n      mload(0x40)\n      mload(0x40)\n      dup1\n      swap2\n      sub\n      swap1\n      log3\n        /* \"contracts/CompanyRBAC.sol\":3991:4437  function applyToJob(uint256 jobId, string calldata message)... */\n      pop\n      pop\n      pop\n      pop\n      jump\t// out\n        /* \"contracts/CompanyRBAC.sol\":5536:5644  function getApplicationCount() external view returns (uint256) {... */\n    tag_49:\n        /* \"contracts/CompanyRBAC.sol\":5590:5597  uint256 */\n      0x00\n        /* \"contracts/CompanyRBAC.sol\":5617:5629  applications */\n      0x02\n        /* \"contracts/CompanyRBAC.sol\":5617:5636  applications.length */\n      dup1\n      sload\n      swap1\n      pop\n        /* \"contracts/CompanyRBAC.sol\":5610:5636  return applications.length */\n      swap1\n      pop\n        /* \"contracts/CompanyRBAC.sol\":5536:5644  function getApplicationCount() external view returns (uint256) {... */\n      swap1\n      jump\t// out\n        /* \"contracts/CompanyRBAC.sol\":5304:5428  function hasRole(bytes32 role, address account) external view returns (bool) {... */\n    tag_54:\n        /* \"contracts/CompanyRBAC.sol\":5375:5379  bool */\n      0x00\n        /* \"contracts/CompanyRBAC.sol\":5399:5405  _roles */\n      0x00\n        /* \"contracts/CompanyRBAC.sol\":5399:5411  _roles[role] */\n      0x00\n        /* \"contracts/CompanyRBAC.sol\":5406:5410  role */\n      dup5\n        /* \"contracts/CompanyRBAC.sol\":5399:5411  _roles[role] */\n      dup2\n      mstore\n      0x20\n      add\n      swap1\n      dup2\n      mstore\n      0x20\n      add\n      0x00\n      keccak256\n        /* \"contracts/CompanyRBAC.sol\":5399:5420  _roles[role][account] */\n      0x00\n        /* \"contracts/CompanyRBAC.sol\":5412:5419  account */\n      dup4\n        /* \"contracts/CompanyRBAC.sol\":5399:5420  _roles[role][account] */\n      0xffffffffffffffffffffffffffffffffffffffff\n      and\n      0xffffffffffffffffffffffffffffffffffffffff\n      and\n      dup2\n      mstore\n      0x20\n      add\n      swap1\n      dup2\n      mstore\n      0x20\n      add\n      0x00\n      keccak256\n      0x00\n      swap1\n      sload\n      swap1\n      0x0100\n      exp\n      swap1\n      div\n      0xff\n      and\n        /* \"contracts/CompanyRBAC.sol\":5392:5420  return _roles[role][account] */\n      swap1\n      pop\n        /* \"contracts/CompanyRBAC.sol\":5304:5428  function hasRole(bytes32 role, address account) external view returns (bool) {... */\n      swap3\n      swap2\n      pop\n      pop\n      jump\t// out\n        /* \"contracts/CompanyRBAC.sol\":5436:5528  function getJobCount() external view returns (uint256) {... */\n    tag_58:\n        /* \"contracts/CompanyRBAC.sol\":5482:5489  uint256 */\n      0x00\n        /* \"contracts/CompanyRBAC.sol\":5509:5513  jobs */\n      0x01\n        /* \"contracts/CompanyRBAC.sol\":5509:5520  jobs.length */\n      dup1\n      sload\n      swap1\n      pop\n        /* \"contracts/CompanyRBAC.sol\":5502:5520  return jobs.length */\n      swap1\n      pop\n        /* \"contracts/CompanyRBAC.sol\":5436:5528  function getJobCount() external view returns (uint256) {... */\n      swap1\n      jump\t// out\n        /* \"contracts/CompanyRBAC.sol\":4445:4737  function getJob(uint256 jobId)... */\n    tag_62:\n        /* \"contracts/CompanyRBAC.sol\":4554:4573  string memory title */\n      0x60\n        /* \"contracts/CompanyRBAC.sol\":4575:4586  bool isOpen */\n      0x00\n        /* \"contracts/CompanyRBAC.sol\":466:487  keccak256(\"EMPLOYEE\") */\n      0x989b8681e34e5a140922589c8eca8a05e6973c253a67caab2922847f87aa8bde\n        /* \"contracts/CompanyRBAC.sol\":1915:1921  _roles */\n      0x00\n        /* \"contracts/CompanyRBAC.sol\":1915:1927  _roles[role] */\n      0x00\n        /* \"contracts/CompanyRBAC.sol\":1922:1926  role */\n      dup3\n        /* \"contracts/CompanyRBAC.sol\":1915:1927  _roles[role] */\n      dup2\n      mstore\n      0x20\n      add\n      swap1\n      dup2\n      mstore\n      0x20\n      add\n      0x00\n      keccak256\n        /* \"contracts/CompanyRBAC.sol\":1915:1939  _roles[role][msg.sender] */\n      0x00\n        /* \"contracts/CompanyRBAC.sol\":1928:1938  msg.sender */\n      caller\n        /* \"contracts/CompanyRBAC.sol\":1915:1939  _roles[role][msg.sender] */\n      0xffffffffffffffffffffffffffffffffffffffff\n      and\n      0xffffffffffffffffffffffffffffffffffffffff\n      and\n      dup2\n      mstore\n      0x20\n      add\n      swap1\n      dup2\n      mstore\n      0x20\n      add\n      0x00\n      keccak256\n      0x00\n      swap1\n      sload\n      swap1\n      0x0100\n      exp\n      swap1\n      div\n      0xff\n      and\n        /* \"contracts/CompanyRBAC.sol\":1907:1957  require(_roles[role][msg.sender], \"Access denied\") */\n      tag_143\n      jumpi\n      mload(0x40)\n      0x08c379a000000000000000000000000000000000000000000000000000000000\n      dup2\n      mstore\n      0x04\n      add\n      tag_144\n      swap1\n      tag_87\n      jump\t// in\n    tag_144:\n      mload(0x40)\n      dup1\n      swap2\n      sub\n      swap1\n      revert\n    tag_143:\n        /* \"contracts/CompanyRBAC.sol\":4620:4624  jobs */\n      0x01\n        /* \"contracts/CompanyRBAC.sol\":4620:4631  jobs.length */\n      dup1\n      sload\n      swap1\n      pop\n        /* \"contracts/CompanyRBAC.sol\":4612:4617  jobId */\n      dup5\n        /* \"contracts/CompanyRBAC.sol\":4612:4631  jobId < jobs.length */\n      lt\n        /* \"contracts/CompanyRBAC.sol\":4604:4654  require(jobId < jobs.length, \"Job does not exist\") */\n      tag_146\n      jumpi\n      mload(0x40)\n      0x08c379a000000000000000000000000000000000000000000000000000000000\n      dup2\n      mstore\n      0x04\n      add\n      tag_147\n      swap1\n      tag_91\n      jump\t// in\n    tag_147:\n      mload(0x40)\n      dup1\n      swap2\n      sub\n      swap1\n      revert\n    tag_146:\n        /* \"contracts/CompanyRBAC.sol\":4665:4678  Job storage j */\n      0x00\n        /* \"contracts/CompanyRBAC.sol\":4681:4685  jobs */\n      0x01\n        /* \"contracts/CompanyRBAC.sol\":4686:4691  jobId */\n      dup6\n        /* \"contracts/CompanyRBAC.sol\":4681:4692  jobs[jobId] */\n      dup2\n      sload\n      dup2\n      lt\n      tag_148\n      jumpi\n      tag_149\n      tag_94\n      jump\t// in\n    tag_149:\n    tag_148:\n      swap1\n      0x00\n      mstore\n      keccak256(0x00, 0x20)\n      swap1\n      0x02\n      mul\n      add\n        /* \"contracts/CompanyRBAC.sol\":4665:4692  Job storage j = jobs[jobId] */\n      swap1\n      pop\n        /* \"contracts/CompanyRBAC.sol\":4711:4712  j */\n      dup1\n        /* \"contracts/CompanyRBAC.sol\":4711:4718  j.title */\n      0x00\n      add\n        /* \"contracts/CompanyRBAC.sol\":4720:4721  j */\n      dup2\n        /* \"contracts/CompanyRBAC.sol\":4720:4728  j.isOpen */\n      0x01\n      add\n      0x14\n      swap1\n      sload\n      swap1\n      0x0100\n      exp\n      swap1\n      div\n      0xff\n      and\n        /* \"contracts/CompanyRBAC.sol\":4703:4729  return (j.title, j.isOpen) */\n      dup2\n      dup1\n      sload\n      tag_151\n      swap1\n      tag_79\n      jump\t// in\n    tag_151:\n      dup1\n      0x1f\n      add\n      0x20\n      dup1\n      swap2\n      div\n      mul\n      0x20\n      add\n      mload(0x40)\n      swap1\n      dup2\n      add\n      0x40\n      mstore\n      dup1\n      swap3\n      swap2\n      swap1\n      dup2\n      dup2\n      mstore\n      0x20\n      add\n      dup3\n      dup1\n      sload\n      tag_152\n      swap1\n      tag_79\n      jump\t// in\n    tag_152:\n      dup1\n      iszero\n      tag_153\n      jumpi\n      dup1\n      0x1f\n      lt\n      tag_154\n      jumpi\n      0x0100\n      dup1\n      dup4\n      sload\n      div\n      mul\n      dup4\n      mstore\n      swap2\n      0x20\n      add\n      swap2\n      jump(tag_153)\n    tag_154:\n      dup3\n      add\n      swap2\n      swap1\n      0x00\n      mstore\n      keccak256(0x00, 0x20)\n      swap1\n    tag_155:\n      dup2\n      sload\n      dup2\n      mstore\n      swap1\n      0x01\n      add\n      swap1\n      0x20\n      add\n      dup1\n      dup4\n      gt\n      tag_155\n      jumpi\n      dup3\n      swap1\n      sub\n      0x1f\n      and\n      dup3\n      add\n      swap2\n    tag_153:\n      pop\n      pop\n      pop\n      pop\n      pop\n      swap2\n      pop\n      swap4\n      pop\n      swap4\n      pop\n      pop\n        /* \"contracts/CompanyRBAC.sol\":4445:4737  function getJob(uint256 jobId)... */\n      pop\n      swap2\n      pop\n      swap2\n      jump\t// out\n        /* \"contracts/CompanyRBAC.sol\":2771:3013  function revokeRole(bytes32 role, address account) external onlyRole(ADMIN) {... */\n    tag_67:\n        /* \"contracts/CompanyRBAC.sol\":344:362  keccak256(\"ADMIN\") */\n      0xdf8b4c520ffe197c5343c6f5aec59570151ef9a492f2c624fd45ddde6135ec42\n        /* \"contracts/CompanyRBAC.sol\":1915:1921  _roles */\n      0x00\n        /* \"contracts/CompanyRBAC.sol\":1915:1927  _roles[role] */\n      0x00\n        /* \"contracts/CompanyRBAC.sol\":1922:1926  role */\n      dup3\n        /* \"contracts/CompanyRBAC.sol\":1915:1927  _roles[role] */\n      dup2\n      mstore\n      0x20\n      add\n      swap1\n      dup2\n      mstore\n      0x20\n      add\n      0x00\n      keccak256\n        /* \"contracts/CompanyRBAC.sol\":1915:1939  _roles[role][msg.sender] */\n      0x00\n        /* \"contracts/CompanyRBAC.sol\":1928:1938  msg.sender */\n      caller\n        /* \"contracts/CompanyRBAC.sol\":1915:1939  _roles[role][msg.sender] */\n      0xffffffffffffffffffffffffffffffffffffffff\n      and\n      0xffffffffffffffffffffffffffffffffffffffff\n      and\n      dup2\n      mstore\n      0x20\n      add\n      swap1\n      dup2\n      mstore\n      0x20\n      add\n      0x00\n      keccak256\n      0x00\n      swap1\n      sload\n      swap1\n      0x0100\n      exp\n      swap1\n      div\n      0xff\n      and\n        /* \"contracts/CompanyRBAC.sol\":1907:1957  require(_roles[role][msg.sender], \"Access denied\") */\n      tag_157\n      jumpi\n      mload(0x40)\n      0x08c379a000000000000000000000000000000000000000000000000000000000\n      dup2\n      mstore\n      0x04\n      add\n      tag_158\n      swap1\n      tag_87\n      jump\t// in\n    tag_158:\n      mload(0x40)\n      dup1\n      swap2\n      sub\n      swap1\n      revert\n    tag_157:\n        /* \"contracts/CompanyRBAC.sol\":2866:2872  _roles */\n      0x00\n        /* \"contracts/CompanyRBAC.sol\":2866:2878  _roles[role] */\n      0x00\n        /* \"contracts/CompanyRBAC.sol\":2873:2877  role */\n      dup5\n        /* \"contracts/CompanyRBAC.sol\":2866:2878  _roles[role] */\n      dup2\n      mstore\n      0x20\n      add\n      swap1\n      dup2\n      mstore\n      0x20\n      add\n      0x00\n      keccak256\n        /* \"contracts/CompanyRBAC.sol\":2866:2887  _roles[role][account] */\n      0x00\n        /* \"contracts/CompanyRBAC.sol\":2879:2886  account */\n      dup4\n        /* \"contracts/CompanyRBAC.sol\":2866:2887  _roles[role][account] */\n      0xffffffffffffffffffffffffffffffffffffffff\n      and\n      0xffffffffffffffffffffffffffffffffffffffff\n      and\n      dup2\n      mstore\n      0x20\n      add\n      swap1\n      dup2\n      mstore\n      0x20\n      add\n      0x00\n      keccak256\n      0x00\n      swap1\n      sload\n      swap1\n      0x0100\n      exp\n      swap1\n      div\n      0xff\n      and\n        /* \"contracts/CompanyRBAC.sol\":2858:2923  require(_roles[role][account], \"Account does not have this role\") */\n      tag_160\n      jumpi\n      mload(0x40)\n      0x08c379a000000000000000000000000000000000000000000000000000000000\n      dup2\n      mstore\n      0x04\n      add\n      tag_161\n      swap1\n      tag_162\n      jump\t// in\n    tag_161:\n      mload(0x40)\n      dup1\n      swap2\n      sub\n      swap1\n      revert\n    tag_160:\n        /* \"contracts/CompanyRBAC.sol\":2958:2963  false */\n      0x00\n        /* \"contracts/CompanyRBAC.sol\":2934:2940  _roles */\n      0x00\n        /* \"contracts/CompanyRBAC.sol\":2934:2946  _roles[role] */\n      0x00\n        /* \"contracts/CompanyRBAC.sol\":2941:2945  role */\n      dup6\n        /* \"contracts/CompanyRBAC.sol\":2934:2946  _roles[role] */\n      dup2\n      mstore\n      0x20\n      add\n      swap1\n      dup2\n      mstore\n      0x20\n      add\n      0x00\n      keccak256\n        /* \"contracts/CompanyRBAC.sol\":2934:2955  _roles[role][account] */\n      0x00\n        /* \"contracts/CompanyRBAC.sol\":2947:2954  account */\n      dup5\n        /* \"contracts/CompanyRBAC.sol\":2934:2955  _roles[role][account] */\n      0xffffffffffffffffffffffffffffffffffffffff\n      and\n      0xffffffffffffffffffffffffffffffffffffffff\n      and\n      dup2\n      mstore\n      0x20\n      add\n      swap1\n      dup2\n      mstore\n      0x20\n      add\n      0x00\n      keccak256\n      0x00\n        /* \"contracts/CompanyRBAC.sol\":2934:2963  _roles[role][account] = false */\n      0x0100\n      exp\n      dup2\n      sload\n      dup2\n      0xff\n      mul\n      not\n      and\n      swap1\n      dup4\n      iszero\n      iszero\n      mul\n      or\n      swap1\n      sstore\n      pop\n        /* \"contracts/CompanyRBAC.sol\":2997:3004  account */\n      dup2\n        /* \"contracts/CompanyRBAC.sol\":2979:3005  RoleRevoked(role, account) */\n      0xffffffffffffffffffffffffffffffffffffffff\n      and\n        /* \"contracts/CompanyRBAC.sol\":2991:2995  role */\n      dup4\n        /* \"contracts/CompanyRBAC.sol\":2979:3005  RoleRevoked(role, account) */\n      0x155aaafb6329a2098580462df33ec4b7441b19729b9601c5fc17ae1cf99a8a52\n      mload(0x40)\n      mload(0x40)\n      dup1\n      swap2\n      sub\n      swap1\n      log3\n        /* \"contracts/CompanyRBAC.sol\":2771:3013  function revokeRole(bytes32 role, address account) external onlyRole(ADMIN) {... */\n      pop\n      pop\n      pop\n      jump\t// out\n        /* \"contracts/CompanyRBAC.sol\":1011:1044  Application[] public applications */\n    tag_70:\n      0x02\n      dup2\n      dup2\n      sload\n      dup2\n      lt\n      tag_163\n      jumpi\n      0x00\n      dup1\n      revert\n    tag_163:\n      swap1\n      0x00\n      mstore\n      keccak256(0x00, 0x20)\n      swap1\n      0x03\n      mul\n      add\n      0x00\n      swap2\n      pop\n      swap1\n      pop\n      dup1\n      0x00\n      add\n      0x00\n      swap1\n      sload\n      swap1\n      0x0100\n      exp\n      swap1\n      div\n      0xffffffffffffffffffffffffffffffffffffffff\n      and\n      swap1\n      dup1\n      0x01\n      add\n      sload\n      swap1\n      dup1\n      0x02\n      add\n      dup1\n      sload\n      tag_165\n      swap1\n      tag_79\n      jump\t// in\n    tag_165:\n      dup1\n      0x1f\n      add\n      0x20\n      dup1\n      swap2\n      div\n      mul\n      0x20\n      add\n      mload(0x40)\n      swap1\n      dup2\n      add\n      0x40\n      mstore\n      dup1\n      swap3\n      swap2\n      swap1\n      dup2\n      dup2\n      mstore\n      0x20\n      add\n      dup3\n      dup1\n      sload\n      tag_166\n      swap1\n      tag_79\n      jump\t// in\n    tag_166:\n      dup1\n      iszero\n      tag_167\n      jumpi\n      dup1\n      0x1f\n      lt\n      tag_168\n      jumpi\n      0x0100\n      dup1\n      dup4\n      sload\n      div\n      mul\n      dup4\n      mstore\n      swap2\n      0x20\n      add\n      swap2\n      jump(tag_167)\n    tag_168:\n      dup3\n      add\n      swap2\n      swap1\n      0x00\n      mstore\n      keccak256(0x00, 0x20)\n      swap1\n    tag_169:\n      dup2\n      sload\n      dup2\n      mstore\n      swap1\n      0x01\n      add\n      swap1\n      0x20\n      add\n      dup1\n      dup4\n      gt\n      tag_169\n      jumpi\n      dup3\n      swap1\n      sub\n      0x1f\n      and\n      dup3\n      add\n      swap2\n    tag_167:\n      pop\n      pop\n      pop\n      pop\n      pop\n      swap1\n      pop\n      dup4\n      jump\t// out\n        /* \"contracts/CompanyRBAC.sol\":431:487  bytes32 public constant EMPLOYEE = keccak256(\"EMPLOYEE\") */\n    tag_74:\n        /* \"contracts/CompanyRBAC.sol\":466:487  keccak256(\"EMPLOYEE\") */\n      0x989b8681e34e5a140922589c8eca8a05e6973c253a67caab2922847f87aa8bde\n        /* \"contracts/CompanyRBAC.sol\":431:487  bytes32 public constant EMPLOYEE = keccak256(\"EMPLOYEE\") */\n      dup2\n      jump\t// out\n        /* \"contracts/CompanyRBAC.sol\":4942:5091  function _grantRole(bytes32 role, address account) internal {... */\n    tag_124:\n        /* \"contracts/CompanyRBAC.sol\":5037:5041  true */\n      0x01\n        /* \"contracts/CompanyRBAC.sol\":5013:5019  _roles */\n      0x00\n        /* \"contracts/CompanyRBAC.sol\":5013:5025  _roles[role] */\n      0x00\n        /* \"contracts/CompanyRBAC.sol\":5020:5024  role */\n      dup5\n        /* \"contracts/CompanyRBAC.sol\":5013:5025  _roles[role] */\n      dup2\n      mstore\n      0x20\n      add\n      swap1\n      dup2\n      mstore\n      0x20\n      add\n      0x00\n      keccak256\n        /* \"contracts/CompanyRBAC.sol\":5013:5034  _roles[role][account] */\n      0x00\n        /* \"contracts/CompanyRBAC.sol\":5026:5033  account */\n      dup4\n        /* \"contracts/CompanyRBAC.sol\":5013:5034  _roles[role][account] */\n      0xffffffffffffffffffffffffffffffffffffffff\n      and\n      0xffffffffffffffffffffffffffffffffffffffff\n      and\n      dup2\n      mstore\n      0x20\n      add\n      swap1\n      dup2\n      mstore\n      0x20\n      add\n      0x00\n      keccak256\n      0x00\n        /* \"contracts/CompanyRBAC.sol\":5013:5041  _roles[role][account] = true */\n      0x0100\n      exp\n      dup2\n      sload\n      dup2\n      0xff\n      mul\n      not\n      and\n      swap1\n      dup4\n      iszero\n      iszero\n      mul\n      or\n      swap1\n      sstore\n      pop\n        /* \"contracts/CompanyRBAC.sol\":5075:5082  account */\n      dup1\n        /* \"contracts/CompanyRBAC.sol\":5057:5083  RoleGranted(role, account) */\n      0xffffffffffffffffffffffffffffffffffffffff\n      and\n        /* \"contracts/CompanyRBAC.sol\":5069:5073  role */\n      dup3\n        /* \"contracts/CompanyRBAC.sol\":5057:5083  RoleGranted(role, account) */\n      0x2ae6a113c0ed5b78a53413ffbb7679881f11145ccfba4fb92e863dfcd5a1d2f3\n      mload(0x40)\n      mload(0x40)\n      dup1\n      swap2\n      sub\n      swap1\n      log3\n        /* \"contracts/CompanyRBAC.sol\":4942:5091  function _grantRole(bytes32 role, address account) internal {... */\n      pop\n      pop\n      jump\t// out\n        /* \"#utility.yul\":88:205   */\n    tag_172:\n        /* \"#utility.yul\":197:198   */\n      0x00\n        /* \"#utility.yul\":194:195   */\n      0x00\n        /* \"#utility.yul\":187:199   */\n      revert\n        /* \"#utility.yul\":211:328   */\n    tag_173:\n        /* \"#utility.yul\":320:321   */\n      0x00\n        /* \"#utility.yul\":317:318   */\n      0x00\n        /* \"#utility.yul\":310:322   */\n      revert\n        /* \"#utility.yul\":334:411   */\n    tag_174:\n        /* \"#utility.yul\":371:378   */\n      0x00\n        /* \"#utility.yul\":400:405   */\n      dup2\n        /* \"#utility.yul\":389:405   */\n      swap1\n      pop\n        /* \"#utility.yul\":334:411   */\n      swap2\n      swap1\n      pop\n      jump\t// out\n        /* \"#utility.yul\":417:539   */\n    tag_175:\n        /* \"#utility.yul\":490:514   */\n      tag_237\n        /* \"#utility.yul\":508:513   */\n      dup2\n        /* \"#utility.yul\":490:514   */\n      tag_174\n      jump\t// in\n    tag_237:\n        /* \"#utility.yul\":483:488   */\n      dup2\n        /* \"#utility.yul\":480:515   */\n      eq\n        /* \"#utility.yul\":470:533   */\n      tag_238\n      jumpi\n        /* \"#utility.yul\":529:530   */\n      0x00\n        /* \"#utility.yul\":526:527   */\n      0x00\n        /* \"#utility.yul\":519:531   */\n      revert\n        /* \"#utility.yul\":470:533   */\n    tag_238:\n        /* \"#utility.yul\":417:539   */\n      pop\n      jump\t// out\n        /* \"#utility.yul\":545:684   */\n    tag_176:\n        /* \"#utility.yul\":591:596   */\n      0x00\n        /* \"#utility.yul\":629:635   */\n      dup2\n        /* \"#utility.yul\":616:636   */\n      calldataload\n        /* \"#utility.yul\":607:636   */\n      swap1\n      pop\n        /* \"#utility.yul\":645:678   */\n      tag_240\n        /* \"#utility.yul\":672:677   */\n      dup2\n        /* \"#utility.yul\":645:678   */\n      tag_175\n      jump\t// in\n    tag_240:\n        /* \"#utility.yul\":545:684   */\n      swap3\n      swap2\n      pop\n      pop\n      jump\t// out\n        /* \"#utility.yul\":690:1019   */\n    tag_22:\n        /* \"#utility.yul\":749:755   */\n      0x00\n        /* \"#utility.yul\":798:800   */\n      0x20\n        /* \"#utility.yul\":786:795   */\n      dup3\n        /* \"#utility.yul\":777:784   */\n      dup5\n        /* \"#utility.yul\":773:796   */\n      sub\n        /* \"#utility.yul\":769:801   */\n      slt\n        /* \"#utility.yul\":766:885   */\n      iszero\n      tag_242\n      jumpi\n        /* \"#utility.yul\":804:883   */\n      tag_243\n      tag_172\n      jump\t// in\n    tag_243:\n        /* \"#utility.yul\":766:885   */\n    tag_242:\n        /* \"#utility.yul\":924:925   */\n      0x00\n        /* \"#utility.yul\":949:1002   */\n      tag_244\n        /* \"#utility.yul\":994:1001   */\n      dup5\n        /* \"#utility.yul\":985:991   */\n      dup3\n        /* \"#utility.yul\":974:983   */\n      dup6\n        /* \"#utility.yul\":970:992   */\n      add\n        /* \"#utility.yul\":949:1002   */\n      tag_176\n      jump\t// in\n    tag_244:\n        /* \"#utility.yul\":939:1002   */\n      swap2\n      pop\n        /* \"#utility.yul\":895:1012   */\n      pop\n        /* \"#utility.yul\":690:1019   */\n      swap3\n      swap2\n      pop\n      pop\n      jump\t// out\n        /* \"#utility.yul\":1025:1124   */\n    tag_177:\n        /* \"#utility.yul\":1077:1083   */\n      0x00\n        /* \"#utility.yul\":1111:1116   */\n      dup2\n        /* \"#utility.yul\":1105:1117   */\n      mload\n        /* \"#utility.yul\":1095:1117   */\n      swap1\n      pop\n        /* \"#utility.yul\":1025:1124   */\n      swap2\n      swap1\n      pop\n      jump\t// out\n        /* \"#utility.yul\":1130:1299   */\n    tag_178:\n        /* \"#utility.yul\":1214:1225   */\n      0x00\n        /* \"#utility.yul\":1248:1254   */\n      dup3\n        /* \"#utility.yul\":1243:1246   */\n      dup3\n        /* \"#utility.yul\":1236:1255   */\n      mstore\n        /* \"#utility.yul\":1288:1292   */\n      0x20\n        /* \"#utility.yul\":1283:1286   */\n      dup3\n        /* \"#utility.yul\":1279:1293   */\n      add\n        /* \"#utility.yul\":1264:1293   */\n      swap1\n      pop\n        /* \"#utility.yul\":1130:1299   */\n      swap3\n      swap2\n      pop\n      pop\n      jump\t// out\n        /* \"#utility.yul\":1305:1444   */\n    tag_179:\n        /* \"#utility.yul\":1394:1400   */\n      dup3\n        /* \"#utility.yul\":1389:1392   */\n      dup2\n        /* \"#utility.yul\":1384:1387   */\n      dup4\n        /* \"#utility.yul\":1378:1401   */\n      mcopy\n        /* \"#utility.yul\":1435:1436   */\n      0x00\n        /* \"#utility.yul\":1426:1432   */\n      dup4\n        /* \"#utility.yul\":1421:1424   */\n      dup4\n        /* \"#utility.yul\":1417:1433   */\n      add\n        /* \"#utility.yul\":1410:1437   */\n      mstore\n        /* \"#utility.yul\":1305:1444   */\n      pop\n      pop\n      pop\n      jump\t// out\n        /* \"#utility.yul\":1450:1552   */\n    tag_180:\n        /* \"#utility.yul\":1491:1497   */\n      0x00\n        /* \"#utility.yul\":1542:1544   */\n      0x1f\n        /* \"#utility.yul\":1538:1545   */\n      not\n        /* \"#utility.yul\":1533:1535   */\n      0x1f\n        /* \"#utility.yul\":1526:1531   */\n      dup4\n        /* \"#utility.yul\":1522:1536   */\n      add\n        /* \"#utility.yul\":1518:1546   */\n      and\n        /* \"#utility.yul\":1508:1546   */\n      swap1\n      pop\n        /* \"#utility.yul\":1450:1552   */\n      swap2\n      swap1\n      pop\n      jump\t// out\n        /* \"#utility.yul\":1558:1935   */\n    tag_181:\n        /* \"#utility.yul\":1646:1649   */\n      0x00\n        /* \"#utility.yul\":1674:1713   */\n      tag_250\n        /* \"#utility.yul\":1707:1712   */\n      dup3\n        /* \"#utility.yul\":1674:1713   */\n      tag_177\n      jump\t// in\n    tag_250:\n        /* \"#utility.yul\":1729:1800   */\n      tag_251\n        /* \"#utility.yul\":1793:1799   */\n      dup2\n        /* \"#utility.yul\":1788:1791   */\n      dup6\n        /* \"#utility.yul\":1729:1800   */\n      tag_178\n      jump\t// in\n    tag_251:\n        /* \"#utility.yul\":1722:1800   */\n      swap4\n      pop\n        /* \"#utility.yul\":1809:1874   */\n      tag_252\n        /* \"#utility.yul\":1867:1873   */\n      dup2\n        /* \"#utility.yul\":1862:1865   */\n      dup6\n        /* \"#utility.yul\":1855:1859   */\n      0x20\n        /* \"#utility.yul\":1848:1853   */\n      dup7\n        /* \"#utility.yul\":1844:1860   */\n      add\n        /* \"#utility.yul\":1809:1874   */\n      tag_179\n      jump\t// in\n    tag_252:\n        /* \"#utility.yul\":1899:1928   */\n      tag_253\n        /* \"#utility.yul\":1921:1927   */\n      dup2\n        /* \"#utility.yul\":1899:1928   */\n      tag_180\n      jump\t// in\n    tag_253:\n        /* \"#utility.yul\":1894:1897   */\n      dup5\n        /* \"#utility.yul\":1890:1929   */\n      add\n        /* \"#utility.yul\":1883:1929   */\n      swap2\n      pop\n        /* \"#utility.yul\":1650:1935   */\n      pop\n        /* \"#utility.yul\":1558:1935   */\n      swap3\n      swap2\n      pop\n      pop\n      jump\t// out\n        /* \"#utility.yul\":1941:2067   */\n    tag_182:\n        /* \"#utility.yul\":1978:1985   */\n      0x00\n        /* \"#utility.yul\":2018:2060   */\n      0xffffffffffffffffffffffffffffffffffffffff\n        /* \"#utility.yul\":2011:2016   */\n      dup3\n        /* \"#utility.yul\":2007:2061   */\n      and\n        /* \"#utility.yul\":1996:2061   */\n      swap1\n      pop\n        /* \"#utility.yul\":1941:2067   */\n      swap2\n      swap1\n      pop\n      jump\t// out\n        /* \"#utility.yul\":2073:2169   */\n    tag_183:\n        /* \"#utility.yul\":2110:2117   */\n      0x00\n        /* \"#utility.yul\":2139:2163   */\n      tag_256\n        /* \"#utility.yul\":2157:2162   */\n      dup3\n        /* \"#utility.yul\":2139:2163   */\n      tag_182\n      jump\t// in\n    tag_256:\n        /* \"#utility.yul\":2128:2163   */\n      swap1\n      pop\n        /* \"#utility.yul\":2073:2169   */\n      swap2\n      swap1\n      pop\n      jump\t// out\n        /* \"#utility.yul\":2175:2293   */\n    tag_184:\n        /* \"#utility.yul\":2262:2286   */\n      tag_258\n        /* \"#utility.yul\":2280:2285   */\n      dup2\n        /* \"#utility.yul\":2262:2286   */\n      tag_183\n      jump\t// in\n    tag_258:\n        /* \"#utility.yul\":2257:2260   */\n      dup3\n        /* \"#utility.yul\":2250:2287   */\n      mstore\n        /* \"#utility.yul\":2175:2293   */\n      pop\n      pop\n      jump\t// out\n        /* \"#utility.yul\":2299:2389   */\n    tag_185:\n        /* \"#utility.yul\":2333:2340   */\n      0x00\n        /* \"#utility.yul\":2376:2381   */\n      dup2\n        /* \"#utility.yul\":2369:2382   */\n      iszero\n        /* \"#utility.yul\":2362:2383   */\n      iszero\n        /* \"#utility.yul\":2351:2383   */\n      swap1\n      pop\n        /* \"#utility.yul\":2299:2389   */\n      swap2\n      swap1\n      pop\n      jump\t// out\n        /* \"#utility.yul\":2395:2504   */\n    tag_186:\n        /* \"#utility.yul\":2476:2497   */\n      tag_261\n        /* \"#utility.yul\":2491:2496   */\n      dup2\n        /* \"#utility.yul\":2476:2497   */\n      tag_185\n      jump\t// in\n    tag_261:\n        /* \"#utility.yul\":2471:2474   */\n      dup3\n        /* \"#utility.yul\":2464:2498   */\n      mstore\n        /* \"#utility.yul\":2395:2504   */\n      pop\n      pop\n      jump\t// out\n        /* \"#utility.yul\":2510:3031   */\n    tag_25:\n        /* \"#utility.yul\":2673:2677   */\n      0x00\n        /* \"#utility.yul\":2711:2713   */\n      0x60\n        /* \"#utility.yul\":2700:2709   */\n      dup3\n        /* \"#utility.yul\":2696:2714   */\n      add\n        /* \"#utility.yul\":2688:2714   */\n      swap1\n      pop\n        /* \"#utility.yul\":2760:2769   */\n      dup2\n        /* \"#utility.yul\":2754:2758   */\n      dup2\n        /* \"#utility.yul\":2750:2770   */\n      sub\n        /* \"#utility.yul\":2746:2747   */\n      0x00\n        /* \"#utility.yul\":2735:2744   */\n      dup4\n        /* \"#utility.yul\":2731:2748   */\n      add\n        /* \"#utility.yul\":2724:2771   */\n      mstore\n        /* \"#utility.yul\":2788:2866   */\n      tag_263\n        /* \"#utility.yul\":2861:2865   */\n      dup2\n        /* \"#utility.yul\":2852:2858   */\n      dup7\n        /* \"#utility.yul\":2788:2866   */\n      tag_181\n      jump\t// in\n    tag_263:\n        /* \"#utility.yul\":2780:2866   */\n      swap1\n      pop\n        /* \"#utility.yul\":2876:2948   */\n      tag_264\n        /* \"#utility.yul\":2944:2946   */\n      0x20\n        /* \"#utility.yul\":2933:2942   */\n      dup4\n        /* \"#utility.yul\":2929:2947   */\n      add\n        /* \"#utility.yul\":2920:2926   */\n      dup6\n        /* \"#utility.yul\":2876:2948   */\n      tag_184\n      jump\t// in\n    tag_264:\n        /* \"#utility.yul\":2958:3024   */\n      tag_265\n        /* \"#utility.yul\":3020:3022   */\n      0x40\n        /* \"#utility.yul\":3009:3018   */\n      dup4\n        /* \"#utility.yul\":3005:3023   */\n      add\n        /* \"#utility.yul\":2996:3002   */\n      dup5\n        /* \"#utility.yul\":2958:3024   */\n      tag_186\n      jump\t// in\n    tag_265:\n        /* \"#utility.yul\":2510:3031   */\n      swap5\n      swap4\n      pop\n      pop\n      pop\n      pop\n      jump\t// out\n        /* \"#utility.yul\":3037:3114   */\n    tag_187:\n        /* \"#utility.yul\":3074:3081   */\n      0x00\n        /* \"#utility.yul\":3103:3108   */\n      dup2\n        /* \"#utility.yul\":3092:3108   */\n      swap1\n      pop\n        /* \"#utility.yul\":3037:3114   */\n      swap2\n      swap1\n      pop\n      jump\t// out\n        /* \"#utility.yul\":3120:3238   */\n    tag_188:\n        /* \"#utility.yul\":3207:3231   */\n      tag_268\n        /* \"#utility.yul\":3225:3230   */\n      dup2\n        /* \"#utility.yul\":3207:3231   */\n      tag_187\n      jump\t// in\n    tag_268:\n        /* \"#utility.yul\":3202:3205   */\n      dup3\n        /* \"#utility.yul\":3195:3232   */\n      mstore\n        /* \"#utility.yul\":3120:3238   */\n      pop\n      pop\n      jump\t// out\n        /* \"#utility.yul\":3244:3466   */\n    tag_29:\n        /* \"#utility.yul\":3337:3341   */\n      0x00\n        /* \"#utility.yul\":3375:3377   */\n      0x20\n        /* \"#utility.yul\":3364:3373   */\n      dup3\n        /* \"#utility.yul\":3360:3378   */\n      add\n        /* \"#utility.yul\":3352:3378   */\n      swap1\n      pop\n        /* \"#utility.yul\":3388:3459   */\n      tag_270\n        /* \"#utility.yul\":3456:3457   */\n      0x00\n        /* \"#utility.yul\":3445:3454   */\n      dup4\n        /* \"#utility.yul\":3441:3458   */\n      add\n        /* \"#utility.yul\":3432:3438   */\n      dup5\n        /* \"#utility.yul\":3388:3459   */\n      tag_188\n      jump\t// in\n    tag_270:\n        /* \"#utility.yul\":3244:3466   */\n      swap3\n      swap2\n      pop\n      pop\n      jump\t// out\n        /* \"#utility.yul\":3472:3589   */\n    tag_189:\n        /* \"#utility.yul\":3581:3582   */\n      0x00\n        /* \"#utility.yul\":3578:3579   */\n      0x00\n        /* \"#utility.yul\":3571:3583   */\n      revert\n        /* \"#utility.yul\":3595:3712   */\n    tag_190:\n        /* \"#utility.yul\":3704:3705   */\n      0x00\n        /* \"#utility.yul\":3701:3702   */\n      0x00\n        /* \"#utility.yul\":3694:3706   */\n      revert\n        /* \"#utility.yul\":3718:3835   */\n    tag_191:\n        /* \"#utility.yul\":3827:3828   */\n      0x00\n        /* \"#utility.yul\":3824:3825   */\n      0x00\n        /* \"#utility.yul\":3817:3829   */\n      revert\n        /* \"#utility.yul\":3855:4408   */\n    tag_192:\n        /* \"#utility.yul\":3913:3921   */\n      0x00\n        /* \"#utility.yul\":3923:3929   */\n      0x00\n        /* \"#utility.yul\":3973:3976   */\n      dup4\n        /* \"#utility.yul\":3966:3970   */\n      0x1f\n        /* \"#utility.yul\":3958:3964   */\n      dup5\n        /* \"#utility.yul\":3954:3971   */\n      add\n        /* \"#utility.yul\":3950:3977   */\n      slt\n        /* \"#utility.yul\":3940:4062   */\n      tag_275\n      jumpi\n        /* \"#utility.yul\":3981:4060   */\n      tag_276\n      tag_189\n      jump\t// in\n    tag_276:\n        /* \"#utility.yul\":3940:4062   */\n    tag_275:\n        /* \"#utility.yul\":4094:4100   */\n      dup3\n        /* \"#utility.yul\":4081:4101   */\n      calldataload\n        /* \"#utility.yul\":4071:4101   */\n      swap1\n      pop\n        /* \"#utility.yul\":4124:4142   */\n      0xffffffffffffffff\n        /* \"#utility.yul\":4116:4122   */\n      dup2\n        /* \"#utility.yul\":4113:4143   */\n      gt\n        /* \"#utility.yul\":4110:4227   */\n      iszero\n      tag_277\n      jumpi\n        /* \"#utility.yul\":4146:4225   */\n      tag_278\n      tag_190\n      jump\t// in\n    tag_278:\n        /* \"#utility.yul\":4110:4227   */\n    tag_277:\n        /* \"#utility.yul\":4260:4264   */\n      0x20\n        /* \"#utility.yul\":4252:4258   */\n      dup4\n        /* \"#utility.yul\":4248:4265   */\n      add\n        /* \"#utility.yul\":4236:4265   */\n      swap2\n      pop\n        /* \"#utility.yul\":4314:4317   */\n      dup4\n        /* \"#utility.yul\":4306:4310   */\n      0x01\n        /* \"#utility.yul\":4298:4304   */\n      dup3\n        /* \"#utility.yul\":4294:4311   */\n      mul\n        /* \"#utility.yul\":4284:4292   */\n      dup4\n        /* \"#utility.yul\":4280:4312   */\n      add\n        /* \"#utility.yul\":4277:4318   */\n      gt\n        /* \"#utility.yul\":4274:4402   */\n      iszero\n      tag_279\n      jumpi\n        /* \"#utility.yul\":4321:4400   */\n      tag_280\n      tag_191\n      jump\t// in\n    tag_280:\n        /* \"#utility.yul\":4274:4402   */\n    tag_279:\n        /* \"#utility.yul\":3855:4408   */\n      swap3\n      pop\n      swap3\n      swap1\n      pop\n      jump\t// out\n        /* \"#utility.yul\":4414:4943   */\n    tag_35:\n        /* \"#utility.yul\":4485:4491   */\n      0x00\n        /* \"#utility.yul\":4493:4499   */\n      0x00\n        /* \"#utility.yul\":4542:4544   */\n      0x20\n        /* \"#utility.yul\":4530:4539   */\n      dup4\n        /* \"#utility.yul\":4521:4528   */\n      dup6\n        /* \"#utility.yul\":4517:4540   */\n      sub\n        /* \"#utility.yul\":4513:4545   */\n      slt\n        /* \"#utility.yul\":4510:4629   */\n      iszero\n      tag_282\n      jumpi\n        /* \"#utility.yul\":4548:4627   */\n      tag_283\n      tag_172\n      jump\t// in\n    tag_283:\n        /* \"#utility.yul\":4510:4629   */\n    tag_282:\n        /* \"#utility.yul\":4696:4697   */\n      0x00\n        /* \"#utility.yul\":4685:4694   */\n      dup4\n        /* \"#utility.yul\":4681:4698   */\n      add\n        /* \"#utility.yul\":4668:4699   */\n      calldataload\n        /* \"#utility.yul\":4726:4744   */\n      0xffffffffffffffff\n        /* \"#utility.yul\":4718:4724   */\n      dup2\n        /* \"#utility.yul\":4715:4745   */\n      gt\n        /* \"#utility.yul\":4712:4829   */\n      iszero\n      tag_284\n      jumpi\n        /* \"#utility.yul\":4748:4827   */\n      tag_285\n      tag_173\n      jump\t// in\n    tag_285:\n        /* \"#utility.yul\":4712:4829   */\n    tag_284:\n        /* \"#utility.yul\":4861:4926   */\n      tag_286\n        /* \"#utility.yul\":4918:4925   */\n      dup6\n        /* \"#utility.yul\":4909:4915   */\n      dup3\n        /* \"#utility.yul\":4898:4907   */\n      dup7\n        /* \"#utility.yul\":4894:4916   */\n      add\n        /* \"#utility.yul\":4861:4926   */\n      tag_192\n      jump\t// in\n    tag_286:\n        /* \"#utility.yul\":4843:4926   */\n      swap3\n      pop\n      swap3\n      pop\n        /* \"#utility.yul\":4639:4936   */\n      pop\n        /* \"#utility.yul\":4414:4943   */\n      swap3\n      pop\n      swap3\n      swap1\n      pop\n      jump\t// out\n        /* \"#utility.yul\":4949:5071   */\n    tag_193:\n        /* \"#utility.yul\":5022:5046   */\n      tag_288\n        /* \"#utility.yul\":5040:5045   */\n      dup2\n        /* \"#utility.yul\":5022:5046   */\n      tag_187\n      jump\t// in\n    tag_288:\n        /* \"#utility.yul\":5015:5020   */\n      dup2\n        /* \"#utility.yul\":5012:5047   */\n      eq\n        /* \"#utility.yul\":5002:5065   */\n      tag_289\n      jumpi\n        /* \"#utility.yul\":5061:5062   */\n      0x00\n        /* \"#utility.yul\":5058:5059   */\n      0x00\n        /* \"#utility.yul\":5051:5063   */\n      revert\n        /* \"#utility.yul\":5002:5065   */\n    tag_289:\n        /* \"#utility.yul\":4949:5071   */\n      pop\n      jump\t// out\n        /* \"#utility.yul\":5077:5216   */\n    tag_194:\n        /* \"#utility.yul\":5123:5128   */\n      0x00\n        /* \"#utility.yul\":5161:5167   */\n      dup2\n        /* \"#utility.yul\":5148:5168   */\n      calldataload\n        /* \"#utility.yul\":5139:5168   */\n      swap1\n      pop\n        /* \"#utility.yul\":5177:5210   */\n      tag_291\n        /* \"#utility.yul\":5204:5209   */\n      dup2\n        /* \"#utility.yul\":5177:5210   */\n      tag_193\n      jump\t// in\n    tag_291:\n        /* \"#utility.yul\":5077:5216   */\n      swap3\n      swap2\n      pop\n      pop\n      jump\t// out\n        /* \"#utility.yul\":5222:5344   */\n    tag_195:\n        /* \"#utility.yul\":5295:5319   */\n      tag_293\n        /* \"#utility.yul\":5313:5318   */\n      dup2\n        /* \"#utility.yul\":5295:5319   */\n      tag_183\n      jump\t// in\n    tag_293:\n        /* \"#utility.yul\":5288:5293   */\n      dup2\n        /* \"#utility.yul\":5285:5320   */\n      eq\n        /* \"#utility.yul\":5275:5338   */\n      tag_294\n      jumpi\n        /* \"#utility.yul\":5334:5335   */\n      0x00\n        /* \"#utility.yul\":5331:5332   */\n      0x00\n        /* \"#utility.yul\":5324:5336   */\n      revert\n        /* \"#utility.yul\":5275:5338   */\n    tag_294:\n        /* \"#utility.yul\":5222:5344   */\n      pop\n      jump\t// out\n        /* \"#utility.yul\":5350:5489   */\n    tag_196:\n        /* \"#utility.yul\":5396:5401   */\n      0x00\n        /* \"#utility.yul\":5434:5440   */\n      dup2\n        /* \"#utility.yul\":5421:5441   */\n      calldataload\n        /* \"#utility.yul\":5412:5441   */\n      swap1\n      pop\n        /* \"#utility.yul\":5450:5483   */\n      tag_296\n        /* \"#utility.yul\":5477:5482   */\n      dup2\n        /* \"#utility.yul\":5450:5483   */\n      tag_195\n      jump\t// in\n    tag_296:\n        /* \"#utility.yul\":5350:5489   */\n      swap3\n      swap2\n      pop\n      pop\n      jump\t// out\n        /* \"#utility.yul\":5495:5969   */\n    tag_42:\n        /* \"#utility.yul\":5563:5569   */\n      0x00\n        /* \"#utility.yul\":5571:5577   */\n      0x00\n        /* \"#utility.yul\":5620:5622   */\n      0x40\n        /* \"#utility.yul\":5608:5617   */\n      dup4\n        /* \"#utility.yul\":5599:5606   */\n      dup6\n        /* \"#utility.yul\":5595:5618   */\n      sub\n        /* \"#utility.yul\":5591:5623   */\n      slt\n        /* \"#utility.yul\":5588:5707   */\n      iszero\n      tag_298\n      jumpi\n        /* \"#utility.yul\":5626:5705   */\n      tag_299\n      tag_172\n      jump\t// in\n    tag_299:\n        /* \"#utility.yul\":5588:5707   */\n    tag_298:\n        /* \"#utility.yul\":5746:5747   */\n      0x00\n        /* \"#utility.yul\":5771:5824   */\n      tag_300\n        /* \"#utility.yul\":5816:5823   */\n      dup6\n        /* \"#utility.yul\":5807:5813   */\n      dup3\n        /* \"#utility.yul\":5796:5805   */\n      dup7\n        /* \"#utility.yul\":5792:5814   */\n      add\n        /* \"#utility.yul\":5771:5824   */\n      tag_194\n      jump\t// in\n    tag_300:\n        /* \"#utility.yul\":5761:5824   */\n      swap3\n      pop\n        /* \"#utility.yul\":5717:5834   */\n      pop\n        /* \"#utility.yul\":5873:5875   */\n      0x20\n        /* \"#utility.yul\":5899:5952   */\n      tag_301\n        /* \"#utility.yul\":5944:5951   */\n      dup6\n        /* \"#utility.yul\":5935:5941   */\n      dup3\n        /* \"#utility.yul\":5924:5933   */\n      dup7\n        /* \"#utility.yul\":5920:5942   */\n      add\n        /* \"#utility.yul\":5899:5952   */\n      tag_196\n      jump\t// in\n    tag_301:\n        /* \"#utility.yul\":5889:5952   */\n      swap2\n      pop\n        /* \"#utility.yul\":5844:5962   */\n      pop\n        /* \"#utility.yul\":5495:5969   */\n      swap3\n      pop\n      swap3\n      swap1\n      pop\n      jump\t// out\n        /* \"#utility.yul\":5975:6649   */\n    tag_46:\n        /* \"#utility.yul\":6055:6061   */\n      0x00\n        /* \"#utility.yul\":6063:6069   */\n      0x00\n        /* \"#utility.yul\":6071:6077   */\n      0x00\n        /* \"#utility.yul\":6120:6122   */\n      0x40\n        /* \"#utility.yul\":6108:6117   */\n      dup5\n        /* \"#utility.yul\":6099:6106   */\n      dup7\n        /* \"#utility.yul\":6095:6118   */\n      sub\n        /* \"#utility.yul\":6091:6123   */\n      slt\n        /* \"#utility.yul\":6088:6207   */\n      iszero\n      tag_303\n      jumpi\n        /* \"#utility.yul\":6126:6205   */\n      tag_304\n      tag_172\n      jump\t// in\n    tag_304:\n        /* \"#utility.yul\":6088:6207   */\n    tag_303:\n        /* \"#utility.yul\":6246:6247   */\n      0x00\n        /* \"#utility.yul\":6271:6324   */\n      tag_305\n        /* \"#utility.yul\":6316:6323   */\n      dup7\n        /* \"#utility.yul\":6307:6313   */\n      dup3\n        /* \"#utility.yul\":6296:6305   */\n      dup8\n        /* \"#utility.yul\":6292:6314   */\n      add\n        /* \"#utility.yul\":6271:6324   */\n      tag_176\n      jump\t// in\n    tag_305:\n        /* \"#utility.yul\":6261:6324   */\n      swap4\n      pop\n        /* \"#utility.yul\":6217:6334   */\n      pop\n        /* \"#utility.yul\":6401:6403   */\n      0x20\n        /* \"#utility.yul\":6390:6399   */\n      dup5\n        /* \"#utility.yul\":6386:6404   */\n      add\n        /* \"#utility.yul\":6373:6405   */\n      calldataload\n        /* \"#utility.yul\":6432:6450   */\n      0xffffffffffffffff\n        /* \"#utility.yul\":6424:6430   */\n      dup2\n        /* \"#utility.yul\":6421:6451   */\n      gt\n        /* \"#utility.yul\":6418:6535   */\n      iszero\n      tag_306\n      jumpi\n        /* \"#utility.yul\":6454:6533   */\n      tag_307\n      tag_173\n      jump\t// in\n    tag_307:\n        /* \"#utility.yul\":6418:6535   */\n    tag_306:\n        /* \"#utility.yul\":6567:6632   */\n      tag_308\n        /* \"#utility.yul\":6624:6631   */\n      dup7\n        /* \"#utility.yul\":6615:6621   */\n      dup3\n        /* \"#utility.yul\":6604:6613   */\n      dup8\n        /* \"#utility.yul\":6600:6622   */\n      add\n        /* \"#utility.yul\":6567:6632   */\n      tag_192\n      jump\t// in\n    tag_308:\n        /* \"#utility.yul\":6549:6632   */\n      swap3\n      pop\n      swap3\n      pop\n        /* \"#utility.yul\":6344:6642   */\n      pop\n        /* \"#utility.yul\":5975:6649   */\n      swap3\n      pop\n      swap3\n      pop\n      swap3\n      jump\t// out\n        /* \"#utility.yul\":6655:6773   */\n    tag_197:\n        /* \"#utility.yul\":6742:6766   */\n      tag_310\n        /* \"#utility.yul\":6760:6765   */\n      dup2\n        /* \"#utility.yul\":6742:6766   */\n      tag_174\n      jump\t// in\n    tag_310:\n        /* \"#utility.yul\":6737:6740   */\n      dup3\n        /* \"#utility.yul\":6730:6767   */\n      mstore\n        /* \"#utility.yul\":6655:6773   */\n      pop\n      pop\n      jump\t// out\n        /* \"#utility.yul\":6779:7001   */\n    tag_51:\n        /* \"#utility.yul\":6872:6876   */\n      0x00\n        /* \"#utility.yul\":6910:6912   */\n      0x20\n        /* \"#utility.yul\":6899:6908   */\n      dup3\n        /* \"#utility.yul\":6895:6913   */\n      add\n        /* \"#utility.yul\":6887:6913   */\n      swap1\n      pop\n        /* \"#utility.yul\":6923:6994   */\n      tag_312\n        /* \"#utility.yul\":6991:6992   */\n      0x00\n        /* \"#utility.yul\":6980:6989   */\n      dup4\n        /* \"#utility.yul\":6976:6993   */\n      add\n        /* \"#utility.yul\":6967:6973   */\n      dup5\n        /* \"#utility.yul\":6923:6994   */\n      tag_197\n      jump\t// in\n    tag_312:\n        /* \"#utility.yul\":6779:7001   */\n      swap3\n      swap2\n      pop\n      pop\n      jump\t// out\n        /* \"#utility.yul\":7007:7217   */\n    tag_56:\n        /* \"#utility.yul\":7094:7098   */\n      0x00\n        /* \"#utility.yul\":7132:7134   */\n      0x20\n        /* \"#utility.yul\":7121:7130   */\n      dup3\n        /* \"#utility.yul\":7117:7135   */\n      add\n        /* \"#utility.yul\":7109:7135   */\n      swap1\n      pop\n        /* \"#utility.yul\":7145:7210   */\n      tag_314\n        /* \"#utility.yul\":7207:7208   */\n      0x00\n        /* \"#utility.yul\":7196:7205   */\n      dup4\n        /* \"#utility.yul\":7192:7209   */\n      add\n        /* \"#utility.yul\":7183:7189   */\n      dup5\n        /* \"#utility.yul\":7145:7210   */\n      tag_186\n      jump\t// in\n    tag_314:\n        /* \"#utility.yul\":7007:7217   */\n      swap3\n      swap2\n      pop\n      pop\n      jump\t// out\n        /* \"#utility.yul\":7223:7634   */\n    tag_64:\n        /* \"#utility.yul\":7358:7362   */\n      0x00\n        /* \"#utility.yul\":7396:7398   */\n      0x40\n        /* \"#utility.yul\":7385:7394   */\n      dup3\n        /* \"#utility.yul\":7381:7399   */\n      add\n        /* \"#utility.yul\":7373:7399   */\n      swap1\n      pop\n        /* \"#utility.yul\":7445:7454   */\n      dup2\n        /* \"#utility.yul\":7439:7443   */\n      dup2\n        /* \"#utility.yul\":7435:7455   */\n      sub\n        /* \"#utility.yul\":7431:7432   */\n      0x00\n        /* \"#utility.yul\":7420:7429   */\n      dup4\n        /* \"#utility.yul\":7416:7433   */\n      add\n        /* \"#utility.yul\":7409:7456   */\n      mstore\n        /* \"#utility.yul\":7473:7551   */\n      tag_316\n        /* \"#utility.yul\":7546:7550   */\n      dup2\n        /* \"#utility.yul\":7537:7543   */\n      dup6\n        /* \"#utility.yul\":7473:7551   */\n      tag_181\n      jump\t// in\n    tag_316:\n        /* \"#utility.yul\":7465:7551   */\n      swap1\n      pop\n        /* \"#utility.yul\":7561:7627   */\n      tag_317\n        /* \"#utility.yul\":7623:7625   */\n      0x20\n        /* \"#utility.yul\":7612:7621   */\n      dup4\n        /* \"#utility.yul\":7608:7626   */\n      add\n        /* \"#utility.yul\":7599:7605   */\n      dup5\n        /* \"#utility.yul\":7561:7627   */\n      tag_186\n      jump\t// in\n    tag_317:\n        /* \"#utility.yul\":7223:7634   */\n      swap4\n      swap3\n      pop\n      pop\n      pop\n      jump\t// out\n        /* \"#utility.yul\":7640:8173   */\n    tag_72:\n        /* \"#utility.yul\":7809:7813   */\n      0x00\n        /* \"#utility.yul\":7847:7849   */\n      0x60\n        /* \"#utility.yul\":7836:7845   */\n      dup3\n        /* \"#utility.yul\":7832:7850   */\n      add\n        /* \"#utility.yul\":7824:7850   */\n      swap1\n      pop\n        /* \"#utility.yul\":7860:7931   */\n      tag_319\n        /* \"#utility.yul\":7928:7929   */\n      0x00\n        /* \"#utility.yul\":7917:7926   */\n      dup4\n        /* \"#utility.yul\":7913:7930   */\n      add\n        /* \"#utility.yul\":7904:7910   */\n      dup7\n        /* \"#utility.yul\":7860:7931   */\n      tag_184\n      jump\t// in\n    tag_319:\n        /* \"#utility.yul\":7941:8013   */\n      tag_320\n        /* \"#utility.yul\":8009:8011   */\n      0x20\n        /* \"#utility.yul\":7998:8007   */\n      dup4\n        /* \"#utility.yul\":7994:8012   */\n      add\n        /* \"#utility.yul\":7985:7991   */\n      dup6\n        /* \"#utility.yul\":7941:8013   */\n      tag_197\n      jump\t// in\n    tag_320:\n        /* \"#utility.yul\":8060:8069   */\n      dup2\n        /* \"#utility.yul\":8054:8058   */\n      dup2\n        /* \"#utility.yul\":8050:8070   */\n      sub\n        /* \"#utility.yul\":8045:8047   */\n      0x40\n        /* \"#utility.yul\":8034:8043   */\n      dup4\n        /* \"#utility.yul\":8030:8048   */\n      add\n        /* \"#utility.yul\":8023:8071   */\n      mstore\n        /* \"#utility.yul\":8088:8166   */\n      tag_321\n        /* \"#utility.yul\":8161:8165   */\n      dup2\n        /* \"#utility.yul\":8152:8158   */\n      dup5\n        /* \"#utility.yul\":8088:8166   */\n      tag_181\n      jump\t// in\n    tag_321:\n        /* \"#utility.yul\":8080:8166   */\n      swap1\n      pop\n        /* \"#utility.yul\":7640:8173   */\n      swap5\n      swap4\n      pop\n      pop\n      pop\n      pop\n      jump\t// out\n        /* \"#utility.yul\":8179:8359   */\n    tag_198:\n        /* \"#utility.yul\":8227:8304   */\n      0x4e487b7100000000000000000000000000000000000000000000000000000000\n        /* \"#utility.yul\":8224:8225   */\n      0x00\n        /* \"#utility.yul\":8217:8305   */\n      mstore\n        /* \"#utility.yul\":8324:8328   */\n      0x22\n        /* \"#utility.yul\":8321:8322   */\n      0x04\n        /* \"#utility.yul\":8314:8329   */\n      mstore\n        /* \"#utility.yul\":8348:8352   */\n      0x24\n        /* \"#utility.yul\":8345:8346   */\n      0x00\n        /* \"#utility.yul\":8338:8353   */\n      revert\n        /* \"#utility.yul\":8365:8685   */\n    tag_79:\n        /* \"#utility.yul\":8409:8415   */\n      0x00\n        /* \"#utility.yul\":8446:8447   */\n      0x02\n        /* \"#utility.yul\":8440:8444   */\n      dup3\n        /* \"#utility.yul\":8436:8448   */\n      div\n        /* \"#utility.yul\":8426:8448   */\n      swap1\n      pop\n        /* \"#utility.yul\":8493:8494   */\n      0x01\n        /* \"#utility.yul\":8487:8491   */\n      dup3\n        /* \"#utility.yul\":8483:8495   */\n      and\n        /* \"#utility.yul\":8514:8532   */\n      dup1\n        /* \"#utility.yul\":8504:8585   */\n      tag_324\n      jumpi\n        /* \"#utility.yul\":8570:8574   */\n      0x7f\n        /* \"#utility.yul\":8562:8568   */\n      dup3\n        /* \"#utility.yul\":8558:8575   */\n      and\n        /* \"#utility.yul\":8548:8575   */\n      swap2\n      pop\n        /* \"#utility.yul\":8504:8585   */\n    tag_324:\n        /* \"#utility.yul\":8632:8634   */\n      0x20\n        /* \"#utility.yul\":8624:8630   */\n      dup3\n        /* \"#utility.yul\":8621:8635   */\n      lt\n        /* \"#utility.yul\":8601:8619   */\n      dup2\n        /* \"#utility.yul\":8598:8636   */\n      sub\n        /* \"#utility.yul\":8595:8679   */\n      tag_325\n      jumpi\n        /* \"#utility.yul\":8651:8669   */\n      tag_326\n      tag_198\n      jump\t// in\n    tag_326:\n        /* \"#utility.yul\":8595:8679   */\n    tag_325:\n        /* \"#utility.yul\":8416:8685   */\n      pop\n        /* \"#utility.yul\":8365:8685   */\n      swap2\n      swap1\n      pop\n      jump\t// out\n        /* \"#utility.yul\":8691:8854   */\n    tag_199:\n        /* \"#utility.yul\":8831:8846   */\n      0x4163636573732064656e69656400000000000000000000000000000000000000\n        /* \"#utility.yul\":8827:8828   */\n      0x00\n        /* \"#utility.yul\":8819:8825   */\n      dup3\n        /* \"#utility.yul\":8815:8829   */\n      add\n        /* \"#utility.yul\":8808:8847   */\n      mstore\n        /* \"#utility.yul\":8691:8854   */\n      pop\n      jump\t// out\n        /* \"#utility.yul\":8860:9226   */\n    tag_200:\n        /* \"#utility.yul\":9002:9005   */\n      0x00\n        /* \"#utility.yul\":9023:9090   */\n      tag_329\n        /* \"#utility.yul\":9087:9089   */\n      0x0d\n        /* \"#utility.yul\":9082:9085   */\n      dup4\n        /* \"#utility.yul\":9023:9090   */\n      tag_178\n      jump\t// in\n    tag_329:\n        /* \"#utility.yul\":9016:9090   */\n      swap2\n      pop\n        /* \"#utility.yul\":9099:9192   */\n      tag_330\n        /* \"#utility.yul\":9188:9191   */\n      dup3\n        /* \"#utility.yul\":9099:9192   */\n      tag_199\n      jump\t// in\n    tag_330:\n        /* \"#utility.yul\":9217:9219   */\n      0x20\n        /* \"#utility.yul\":9212:9215   */\n      dup3\n        /* \"#utility.yul\":9208:9220   */\n      add\n        /* \"#utility.yul\":9201:9220   */\n      swap1\n      pop\n        /* \"#utility.yul\":8860:9226   */\n      swap2\n      swap1\n      pop\n      jump\t// out\n        /* \"#utility.yul\":9232:9651   */\n    tag_87:\n        /* \"#utility.yul\":9398:9402   */\n      0x00\n        /* \"#utility.yul\":9436:9438   */\n      0x20\n        /* \"#utility.yul\":9425:9434   */\n      dup3\n        /* \"#utility.yul\":9421:9439   */\n      add\n        /* \"#utility.yul\":9413:9439   */\n      swap1\n      pop\n        /* \"#utility.yul\":9485:9494   */\n      dup2\n        /* \"#utility.yul\":9479:9483   */\n      dup2\n        /* \"#utility.yul\":9475:9495   */\n      sub\n        /* \"#utility.yul\":9471:9472   */\n      0x00\n        /* \"#utility.yul\":9460:9469   */\n      dup4\n        /* \"#utility.yul\":9456:9473   */\n      add\n        /* \"#utility.yul\":9449:9496   */\n      mstore\n        /* \"#utility.yul\":9513:9644   */\n      tag_332\n        /* \"#utility.yul\":9639:9643   */\n      dup2\n        /* \"#utility.yul\":9513:9644   */\n      tag_200\n      jump\t// in\n    tag_332:\n        /* \"#utility.yul\":9505:9644   */\n      swap1\n      pop\n        /* \"#utility.yul\":9232:9651   */\n      swap2\n      swap1\n      pop\n      jump\t// out\n        /* \"#utility.yul\":9657:9825   */\n    tag_201:\n        /* \"#utility.yul\":9797:9817   */\n      0x4a6f6220646f6573206e6f742065786973740000000000000000000000000000\n        /* \"#utility.yul\":9793:9794   */\n      0x00\n        /* \"#utility.yul\":9785:9791   */\n      dup3\n        /* \"#utility.yul\":9781:9795   */\n      add\n        /* \"#utility.yul\":9774:9818   */\n      mstore\n        /* \"#utility.yul\":9657:9825   */\n      pop\n      jump\t// out\n        /* \"#utility.yul\":9831:10197   */\n    tag_202:\n        /* \"#utility.yul\":9973:9976   */\n      0x00\n        /* \"#utility.yul\":9994:10061   */\n      tag_335\n        /* \"#utility.yul\":10058:10060   */\n      0x12\n        /* \"#utility.yul\":10053:10056   */\n      dup4\n        /* \"#utility.yul\":9994:10061   */\n      tag_178\n      jump\t// in\n    tag_335:\n        /* \"#utility.yul\":9987:10061   */\n      swap2\n      pop\n        /* \"#utility.yul\":10070:10163   */\n      tag_336\n        /* \"#utility.yul\":10159:10162   */\n      dup3\n        /* \"#utility.yul\":10070:10163   */\n      tag_201\n      jump\t// in\n    tag_336:\n        /* \"#utility.yul\":10188:10190   */\n      0x20\n        /* \"#utility.yul\":10183:10186   */\n      dup3\n        /* \"#utility.yul\":10179:10191   */\n      add\n        /* \"#utility.yul\":10172:10191   */\n      swap1\n      pop\n        /* \"#utility.yul\":9831:10197   */\n      swap2\n      swap1\n      pop\n      jump\t// out\n        /* \"#utility.yul\":10203:10622   */\n    tag_91:\n        /* \"#utility.yul\":10369:10373   */\n      0x00\n        /* \"#utility.yul\":10407:10409   */\n      0x20\n        /* \"#utility.yul\":10396:10405   */\n      dup3\n        /* \"#utility.yul\":10392:10410   */\n      add\n        /* \"#utility.yul\":10384:10410   */\n      swap1\n      pop\n        /* \"#utility.yul\":10456:10465   */\n      dup2\n        /* \"#utility.yul\":10450:10454   */\n      dup2\n        /* \"#utility.yul\":10446:10466   */\n      sub\n        /* \"#utility.yul\":10442:10443   */\n      0x00\n        /* \"#utility.yul\":10431:10440   */\n      dup4\n        /* \"#utility.yul\":10427:10444   */\n      add\n        /* \"#utility.yul\":10420:10467   */\n      mstore\n        /* \"#utility.yul\":10484:10615   */\n      tag_338\n        /* \"#utility.yul\":10610:10614   */\n      dup2\n        /* \"#utility.yul\":10484:10615   */\n      tag_202\n      jump\t// in\n    tag_338:\n        /* \"#utility.yul\":10476:10615   */\n      swap1\n      pop\n        /* \"#utility.yul\":10203:10622   */\n      swap2\n      swap1\n      pop\n      jump\t// out\n        /* \"#utility.yul\":10628:10808   */\n    tag_94:\n        /* \"#utility.yul\":10676:10753   */\n      0x4e487b7100000000000000000000000000000000000000000000000000000000\n        /* \"#utility.yul\":10673:10674   */\n      0x00\n        /* \"#utility.yul\":10666:10754   */\n      mstore\n        /* \"#utility.yul\":10773:10777   */\n      0x32\n        /* \"#utility.yul\":10770:10771   */\n      0x04\n        /* \"#utility.yul\":10763:10778   */\n      mstore\n        /* \"#utility.yul\":10797:10801   */\n      0x24\n        /* \"#utility.yul\":10794:10795   */\n      0x00\n        /* \"#utility.yul\":10787:10802   */\n      revert\n        /* \"#utility.yul\":10814:10982   */\n    tag_203:\n        /* \"#utility.yul\":10954:10974   */\n      0x4a6f6220616c726561647920636c6f7365640000000000000000000000000000\n        /* \"#utility.yul\":10950:10951   */\n      0x00\n        /* \"#utility.yul\":10942:10948   */\n      dup3\n        /* \"#utility.yul\":10938:10952   */\n      add\n        /* \"#utility.yul\":10931:10975   */\n      mstore\n        /* \"#utility.yul\":10814:10982   */\n      pop\n      jump\t// out\n        /* \"#utility.yul\":10988:11354   */\n    tag_204:\n        /* \"#utility.yul\":11130:11133   */\n      0x00\n        /* \"#utility.yul\":11151:11218   */\n      tag_342\n        /* \"#utility.yul\":11215:11217   */\n      0x12\n        /* \"#utility.yul\":11210:11213   */\n      dup4\n        /* \"#utility.yul\":11151:11218   */\n      tag_178\n      jump\t// in\n    tag_342:\n        /* \"#utility.yul\":11144:11218   */\n      swap2\n      pop\n        /* \"#utility.yul\":11227:11320   */\n      tag_343\n        /* \"#utility.yul\":11316:11319   */\n      dup3\n        /* \"#utility.yul\":11227:11320   */\n      tag_203\n      jump\t// in\n    tag_343:\n        /* \"#utility.yul\":11345:11347   */\n      0x20\n        /* \"#utility.yul\":11340:11343   */\n      dup3\n        /* \"#utility.yul\":11336:11348   */\n      add\n        /* \"#utility.yul\":11329:11348   */\n      swap1\n      pop\n        /* \"#utility.yul\":10988:11354   */\n      swap2\n      swap1\n      pop\n      jump\t// out\n        /* \"#utility.yul\":11360:11779   */\n    tag_98:\n        /* \"#utility.yul\":11526:11530   */\n      0x00\n        /* \"#utility.yul\":11564:11566   */\n      0x20\n        /* \"#utility.yul\":11553:11562   */\n      dup3\n        /* \"#utility.yul\":11549:11567   */\n      add\n        /* \"#utility.yul\":11541:11567   */\n      swap1\n      pop\n        /* \"#utility.yul\":11613:11622   */\n      dup2\n        /* \"#utility.yul\":11607:11611   */\n      dup2\n        /* \"#utility.yul\":11603:11623   */\n      sub\n        /* \"#utility.yul\":11599:11600   */\n      0x00\n        /* \"#utility.yul\":11588:11597   */\n      dup4\n        /* \"#utility.yul\":11584:11601   */\n      add\n        /* \"#utility.yul\":11577:11624   */\n      mstore\n        /* \"#utility.yul\":11641:11772   */\n      tag_345\n        /* \"#utility.yul\":11767:11771   */\n      dup2\n        /* \"#utility.yul\":11641:11772   */\n      tag_204\n      jump\t// in\n    tag_345:\n        /* \"#utility.yul\":11633:11772   */\n      swap1\n      pop\n        /* \"#utility.yul\":11360:11779   */\n      swap2\n      swap1\n      pop\n      jump\t// out\n        /* \"#utility.yul\":11785:11965   */\n    tag_205:\n        /* \"#utility.yul\":11833:11910   */\n      0x4e487b7100000000000000000000000000000000000000000000000000000000\n        /* \"#utility.yul\":11830:11831   */\n      0x00\n        /* \"#utility.yul\":11823:11911   */\n      mstore\n        /* \"#utility.yul\":11930:11934   */\n      0x41\n        /* \"#utility.yul\":11927:11928   */\n      0x04\n        /* \"#utility.yul\":11920:11935   */\n      mstore\n        /* \"#utility.yul\":11954:11958   */\n      0x24\n        /* \"#utility.yul\":11951:11952   */\n      0x00\n        /* \"#utility.yul\":11944:11959   */\n      revert\n        /* \"#utility.yul\":11971:12112   */\n    tag_206:\n        /* \"#utility.yul\":12020:12024   */\n      0x00\n        /* \"#utility.yul\":12043:12046   */\n      dup2\n        /* \"#utility.yul\":12035:12046   */\n      swap1\n      pop\n        /* \"#utility.yul\":12066:12069   */\n      dup2\n        /* \"#utility.yul\":12063:12064   */\n      0x00\n        /* \"#utility.yul\":12056:12070   */\n      mstore\n        /* \"#utility.yul\":12100:12104   */\n      0x20\n        /* \"#utility.yul\":12097:12098   */\n      0x00\n        /* \"#utility.yul\":12087:12105   */\n      keccak256\n        /* \"#utility.yul\":12079:12105   */\n      swap1\n      pop\n        /* \"#utility.yul\":11971:12112   */\n      swap2\n      swap1\n      pop\n      jump\t// out\n        /* \"#utility.yul\":12118:12211   */\n    tag_207:\n        /* \"#utility.yul\":12155:12161   */\n      0x00\n        /* \"#utility.yul\":12202:12204   */\n      0x20\n        /* \"#utility.yul\":12197:12199   */\n      0x1f\n        /* \"#utility.yul\":12190:12195   */\n      dup4\n        /* \"#utility.yul\":12186:12200   */\n      add\n        /* \"#utility.yul\":12182:12205   */\n      div\n        /* \"#utility.yul\":12172:12205   */\n      swap1\n      pop\n        /* \"#utility.yul\":12118:12211   */\n      swap2\n      swap1\n      pop\n      jump\t// out\n        /* \"#utility.yul\":12217:12324   */\n    tag_208:\n        /* \"#utility.yul\":12261:12269   */\n      0x00\n        /* \"#utility.yul\":12311:12316   */\n      dup3\n        /* \"#utility.yul\":12305:12309   */\n      dup3\n        /* \"#utility.yul\":12301:12317   */\n      shl\n        /* \"#utility.yul\":12280:12317   */\n      swap1\n      pop\n        /* \"#utility.yul\":12217:12324   */\n      swap3\n      swap2\n      pop\n      pop\n      jump\t// out\n        /* \"#utility.yul\":12330:12723   */\n    tag_209:\n        /* \"#utility.yul\":12399:12405   */\n      0x00\n        /* \"#utility.yul\":12449:12450   */\n      0x08\n        /* \"#utility.yul\":12437:12447   */\n      dup4\n        /* \"#utility.yul\":12433:12451   */\n      mul\n        /* \"#utility.yul\":12472:12569   */\n      tag_351\n        /* \"#utility.yul\":12502:12568   */\n      0xffffffffffffffffffffffffffffffffffffffffffffffffffffffffffffffff\n        /* \"#utility.yul\":12491:12500   */\n      dup3\n        /* \"#utility.yul\":12472:12569   */\n      tag_208\n      jump\t// in\n    tag_351:\n        /* \"#utility.yul\":12590:12629   */\n      tag_352\n        /* \"#utility.yul\":12620:12628   */\n      dup7\n        /* \"#utility.yul\":12609:12618   */\n      dup4\n        /* \"#utility.yul\":12590:12629   */\n      tag_208\n      jump\t// in\n    tag_352:\n        /* \"#utility.yul\":12578:12629   */\n      swap6\n      pop\n        /* \"#utility.yul\":12662:12666   */\n      dup1\n        /* \"#utility.yul\":12658:12667   */\n      not\n        /* \"#utility.yul\":12651:12656   */\n      dup5\n        /* \"#utility.yul\":12647:12668   */\n      and\n        /* \"#utility.yul\":12638:12668   */\n      swap4\n      pop\n        /* \"#utility.yul\":12711:12715   */\n      dup1\n        /* \"#utility.yul\":12701:12709   */\n      dup7\n        /* \"#utility.yul\":12697:12716   */\n      and\n        /* \"#utility.yul\":12690:12695   */\n      dup5\n        /* \"#utility.yul\":12687:12717   */\n      or\n        /* \"#utility.yul\":12677:12717   */\n      swap3\n      pop\n        /* \"#utility.yul\":12406:12723   */\n      pop\n      pop\n        /* \"#utility.yul\":12330:12723   */\n      swap4\n      swap3\n      pop\n      pop\n      pop\n      jump\t// out\n        /* \"#utility.yul\":12729:12789   */\n    tag_210:\n        /* \"#utility.yul\":12757:12760   */\n      0x00\n        /* \"#utility.yul\":12778:12783   */\n      dup2\n        /* \"#utility.yul\":12771:12783   */\n      swap1\n      pop\n        /* \"#utility.yul\":12729:12789   */\n      swap2\n      swap1\n      pop\n      jump\t// out\n        /* \"#utility.yul\":12795:12937   */\n    tag_211:\n        /* \"#utility.yul\":12845:12854   */\n      0x00\n        /* \"#utility.yul\":12878:12931   */\n      tag_355\n        /* \"#utility.yul\":12896:12930   */\n      tag_356\n        /* \"#utility.yul\":12905:12929   */\n      tag_357\n        /* \"#utility.yul\":12923:12928   */\n      dup5\n        /* \"#utility.yul\":12905:12929   */\n      tag_174\n      jump\t// in\n    tag_357:\n        /* \"#utility.yul\":12896:12930   */\n      tag_210\n      jump\t// in\n    tag_356:\n        /* \"#utility.yul\":12878:12931   */\n      tag_174\n      jump\t// in\n    tag_355:\n        /* \"#utility.yul\":12865:12931   */\n      swap1\n      pop\n        /* \"#utility.yul\":12795:12937   */\n      swap2\n      swap1\n      pop\n      jump\t// out\n        /* \"#utility.yul\":12943:13018   */\n    tag_212:\n        /* \"#utility.yul\":12986:12989   */\n      0x00\n        /* \"#utility.yul\":13007:13012   */\n      dup2\n        /* \"#utility.yul\":13000:13012   */\n      swap1\n      pop\n        /* \"#utility.yul\":12943:13018   */\n      swap2\n      swap1\n      pop\n      jump\t// out\n        /* \"#utility.yul\":13024:13293   */\n    tag_213:\n        /* \"#utility.yul\":13134:13173   */\n      tag_360\n        /* \"#utility.yul\":13165:13172   */\n      dup4\n        /* \"#utility.yul\":13134:13173   */\n      tag_211\n      jump\t// in\n    tag_360:\n        /* \"#utility.yul\":13195:13286   */\n      tag_361\n        /* \"#utility.yul\":13244:13285   */\n      tag_362\n        /* \"#utility.yul\":13268:13284   */\n      dup3\n        /* \"#utility.yul\":13244:13285   */\n      tag_212\n      jump\t// in\n    tag_362:\n        /* \"#utility.yul\":13236:13242   */\n      dup5\n        /* \"#utility.yul\":13229:13233   */\n      dup5\n        /* \"#utility.yul\":13223:13234   */\n      sload\n        /* \"#utility.yul\":13195:13286   */\n      tag_209\n      jump\t// in\n    tag_361:\n        /* \"#utility.yul\":13189:13193   */\n      dup3\n        /* \"#utility.yul\":13182:13287   */\n      sstore\n        /* \"#utility.yul\":13100:13293   */\n      pop\n        /* \"#utility.yul\":13024:13293   */\n      pop\n      pop\n      pop\n      jump\t// out\n        /* \"#utility.yul\":13299:13372   */\n    tag_214:\n        /* \"#utility.yul\":13344:13347   */\n      0x00\n        /* \"#utility.yul\":13365:13366   */\n      0x00\n        /* \"#utility.yul\":13358:13366   */\n      swap1\n      pop\n        /* \"#utility.yul\":13299:13372   */\n      swap1\n      jump\t// out\n        /* \"#utility.yul\":13378:13567   */\n    tag_215:\n        /* \"#utility.yul\":13455:13487   */\n      tag_365\n      tag_214\n      jump\t// in\n    tag_365:\n        /* \"#utility.yul\":13496:13561   */\n      tag_366\n        /* \"#utility.yul\":13554:13560   */\n      dup2\n        /* \"#utility.yul\":13546:13552   */\n      dup5\n        /* \"#utility.yul\":13540:13544   */\n      dup5\n        /* \"#utility.yul\":13496:13561   */\n      tag_213\n      jump\t// in\n    tag_366:\n        /* \"#utility.yul\":13431:13567   */\n      pop\n        /* \"#utility.yul\":13378:13567   */\n      pop\n      pop\n      jump\t// out\n        /* \"#utility.yul\":13573:13759   */\n    tag_216:\n        /* \"#utility.yul\":13633:13753   */\n    tag_368:\n        /* \"#utility.yul\":13650:13653   */\n      dup2\n        /* \"#utility.yul\":13643:13648   */\n      dup2\n        /* \"#utility.yul\":13640:13654   */\n      lt\n        /* \"#utility.yul\":13633:13753   */\n      iszero\n      tag_370\n      jumpi\n        /* \"#utility.yul\":13704:13743   */\n      tag_371\n        /* \"#utility.yul\":13741:13742   */\n      0x00\n        /* \"#utility.yul\":13734:13739   */\n      dup3\n        /* \"#utility.yul\":13704:13743   */\n      tag_215\n      jump\t// in\n    tag_371:\n        /* \"#utility.yul\":13677:13678   */\n      0x01\n        /* \"#utility.yul\":13670:13675   */\n      dup2\n        /* \"#utility.yul\":13666:13679   */\n      add\n        /* \"#utility.yul\":13657:13679   */\n      swap1\n      pop\n        /* \"#utility.yul\":13633:13753   */\n      jump(tag_368)\n    tag_370:\n        /* \"#utility.yul\":13573:13759   */\n      pop\n      pop\n      jump\t// out\n        /* \"#utility.yul\":13765:14308   */\n    tag_217:\n        /* \"#utility.yul\":13866:13868   */\n      0x1f\n        /* \"#utility.yul\":13861:13864   */\n      dup3\n        /* \"#utility.yul\":13858:13869   */\n      gt\n        /* \"#utility.yul\":13855:14301   */\n      iszero\n      tag_373\n      jumpi\n        /* \"#utility.yul\":13900:13938   */\n      tag_374\n        /* \"#utility.yul\":13932:13937   */\n      dup2\n        /* \"#utility.yul\":13900:13938   */\n      tag_206\n      jump\t// in\n    tag_374:\n        /* \"#utility.yul\":13984:14013   */\n      tag_375\n        /* \"#utility.yul\":14002:14012   */\n      dup5\n        /* \"#utility.yul\":13984:14013   */\n      tag_207\n      jump\t// in\n    tag_375:\n        /* \"#utility.yul\":13974:13982   */\n      dup2\n        /* \"#utility.yul\":13970:14014   */\n      add\n        /* \"#utility.yul\":14167:14169   */\n      0x20\n        /* \"#utility.yul\":14155:14165   */\n      dup6\n        /* \"#utility.yul\":14152:14170   */\n      lt\n        /* \"#utility.yul\":14149:14198   */\n      iszero\n      tag_376\n      jumpi\n        /* \"#utility.yul\":14188:14196   */\n      dup2\n        /* \"#utility.yul\":14173:14196   */\n      swap1\n      pop\n        /* \"#utility.yul\":14149:14198   */\n    tag_376:\n        /* \"#utility.yul\":14211:14291   */\n      tag_377\n        /* \"#utility.yul\":14267:14289   */\n      tag_378\n        /* \"#utility.yul\":14285:14288   */\n      dup6\n        /* \"#utility.yul\":14267:14289   */\n      tag_207\n      jump\t// in\n    tag_378:\n        /* \"#utility.yul\":14257:14265   */\n      dup4\n        /* \"#utility.yul\":14253:14290   */\n      add\n        /* \"#utility.yul\":14240:14251   */\n      dup3\n        /* \"#utility.yul\":14211:14291   */\n      tag_216\n      jump\t// in\n    tag_377:\n        /* \"#utility.yul\":13870:14301   */\n      pop\n      pop\n        /* \"#utility.yul\":13855:14301   */\n    tag_373:\n        /* \"#utility.yul\":13765:14308   */\n      pop\n      pop\n      pop\n      jump\t// out\n        /* \"#utility.yul\":14314:14431   */\n    tag_218:\n        /* \"#utility.yul\":14368:14376   */\n      0x00\n        /* \"#utility.yul\":14418:14423   */\n      dup3\n        /* \"#utility.yul\":14412:14416   */\n      dup3\n        /* \"#utility.yul\":14408:14424   */\n      shr\n        /* \"#utility.yul\":14387:14424   */\n      swap1\n      pop\n        /* \"#utility.yul\":14314:14431   */\n      swap3\n      swap2\n      pop\n      pop\n      jump\t// out\n        /* \"#utility.yul\":14437:14606   */\n    tag_219:\n        /* \"#utility.yul\":14481:14487   */\n      0x00\n        /* \"#utility.yul\":14514:14565   */\n      tag_381\n        /* \"#utility.yul\":14562:14563   */\n      0x00\n        /* \"#utility.yul\":14558:14564   */\n      not\n        /* \"#utility.yul\":14550:14555   */\n      dup5\n        /* \"#utility.yul\":14547:14548   */\n      0x08\n        /* \"#utility.yul\":14543:14556   */\n      mul\n        /* \"#utility.yul\":14514:14565   */\n      tag_218\n      jump\t// in\n    tag_381:\n        /* \"#utility.yul\":14510:14566   */\n      not\n        /* \"#utility.yul\":14595:14599   */\n      dup1\n        /* \"#utility.yul\":14589:14593   */\n      dup4\n        /* \"#utility.yul\":14585:14600   */\n      and\n        /* \"#utility.yul\":14575:14600   */\n      swap2\n      pop\n        /* \"#utility.yul\":14488:14606   */\n      pop\n        /* \"#utility.yul\":14437:14606   */\n      swap3\n      swap2\n      pop\n      pop\n      jump\t// out\n        /* \"#utility.yul\":14611:14906   */\n    tag_220:\n        /* \"#utility.yul\":14687:14691   */\n      0x00\n        /* \"#utility.yul\":14833:14862   */\n      tag_383\n        /* \"#utility.yul\":14858:14861   */\n      dup4\n        /* \"#utility.yul\":14852:14856   */\n      dup4\n        /* \"#utility.yul\":14833:14862   */\n      tag_219\n      jump\t// in\n    tag_383:\n        /* \"#utility.yul\":14825:14862   */\n      swap2\n      pop\n        /* \"#utility.yul\":14895:14898   */\n      dup3\n        /* \"#utility.yul\":14892:14893   */\n      0x02\n        /* \"#utility.yul\":14888:14899   */\n      mul\n        /* \"#utility.yul\":14882:14886   */\n      dup3\n        /* \"#utility.yul\":14879:14900   */\n      or\n        /* \"#utility.yul\":14871:14900   */\n      swap1\n      pop\n        /* \"#utility.yul\":14611:14906   */\n      swap3\n      swap2\n      pop\n      pop\n      jump\t// out\n        /* \"#utility.yul\":14911:16306   */\n    tag_108:\n        /* \"#utility.yul\":15028:15065   */\n      tag_385\n        /* \"#utility.yul\":15061:15064   */\n      dup3\n        /* \"#utility.yul\":15028:15065   */\n      tag_177\n      jump\t// in\n    tag_385:\n        /* \"#utility.yul\":15130:15148   */\n      0xffffffffffffffff\n        /* \"#utility.yul\":15122:15128   */\n      dup2\n        /* \"#utility.yul\":15119:15149   */\n      gt\n        /* \"#utility.yul\":15116:15172   */\n      iszero\n      tag_386\n      jumpi\n        /* \"#utility.yul\":15152:15170   */\n      tag_387\n      tag_205\n      jump\t// in\n    tag_387:\n        /* \"#utility.yul\":15116:15172   */\n    tag_386:\n        /* \"#utility.yul\":15196:15234   */\n      tag_388\n        /* \"#utility.yul\":15228:15232   */\n      dup3\n        /* \"#utility.yul\":15222:15233   */\n      sload\n        /* \"#utility.yul\":15196:15234   */\n      tag_79\n      jump\t// in\n    tag_388:\n        /* \"#utility.yul\":15281:15348   */\n      tag_389\n        /* \"#utility.yul\":15341:15347   */\n      dup3\n        /* \"#utility.yul\":15333:15339   */\n      dup3\n        /* \"#utility.yul\":15327:15331   */\n      dup6\n        /* \"#utility.yul\":15281:15348   */\n      tag_217\n      jump\t// in\n    tag_389:\n        /* \"#utility.yul\":15375:15376   */\n      0x00\n        /* \"#utility.yul\":15399:15403   */\n      0x20\n        /* \"#utility.yul\":15386:15403   */\n      swap1\n      pop\n        /* \"#utility.yul\":15431:15433   */\n      0x1f\n        /* \"#utility.yul\":15423:15429   */\n      dup4\n        /* \"#utility.yul\":15420:15434   */\n      gt\n        /* \"#utility.yul\":15448:15449   */\n      0x01\n        /* \"#utility.yul\":15443:16061   */\n      dup2\n      eq\n      tag_391\n      jumpi\n        /* \"#utility.yul\":16105:16106   */\n      0x00\n        /* \"#utility.yul\":16122:16128   */\n      dup5\n        /* \"#utility.yul\":16119:16196   */\n      iszero\n      tag_392\n      jumpi\n        /* \"#utility.yul\":16171:16180   */\n      dup3\n        /* \"#utility.yul\":16166:16169   */\n      dup8\n        /* \"#utility.yul\":16162:16181   */\n      add\n        /* \"#utility.yul\":16156:16182   */\n      mload\n        /* \"#utility.yul\":16147:16182   */\n      swap1\n      pop\n        /* \"#utility.yul\":16119:16196   */\n    tag_392:\n        /* \"#utility.yul\":16222:16289   */\n      tag_393\n        /* \"#utility.yul\":16282:16288   */\n      dup6\n        /* \"#utility.yul\":16275:16280   */\n      dup3\n        /* \"#utility.yul\":16222:16289   */\n      tag_220\n      jump\t// in\n    tag_393:\n        /* \"#utility.yul\":16216:16220   */\n      dup7\n        /* \"#utility.yul\":16209:16290   */\n      sstore\n        /* \"#utility.yul\":16078:16300   */\n      pop\n        /* \"#utility.yul\":15413:16300   */\n      jump(tag_390)\n        /* \"#utility.yul\":15443:16061   */\n    tag_391:\n        /* \"#utility.yul\":15495:15499   */\n      0x1f\n        /* \"#utility.yul\":15491:15500   */\n      not\n        /* \"#utility.yul\":15483:15489   */\n      dup5\n        /* \"#utility.yul\":15479:15501   */\n      and\n        /* \"#utility.yul\":15529:15566   */\n      tag_394\n        /* \"#utility.yul\":15561:15565   */\n      dup7\n        /* \"#utility.yul\":15529:15566   */\n      tag_206\n      jump\t// in\n    tag_394:\n        /* \"#utility.yul\":15588:15589   */\n      0x00\n        /* \"#utility.yul\":15602:15810   */\n    tag_395:\n        /* \"#utility.yul\":15616:15623   */\n      dup3\n        /* \"#utility.yul\":15613:15614   */\n      dup2\n        /* \"#utility.yul\":15610:15624   */\n      lt\n        /* \"#utility.yul\":15602:15810   */\n      iszero\n      tag_397\n      jumpi\n        /* \"#utility.yul\":15695:15704   */\n      dup5\n        /* \"#utility.yul\":15690:15693   */\n      dup10\n        /* \"#utility.yul\":15686:15705   */\n      add\n        /* \"#utility.yul\":15680:15706   */\n      mload\n        /* \"#utility.yul\":15672:15678   */\n      dup3\n        /* \"#utility.yul\":15665:15707   */\n      sstore\n        /* \"#utility.yul\":15746:15747   */\n      0x01\n        /* \"#utility.yul\":15738:15744   */\n      dup3\n        /* \"#utility.yul\":15734:15748   */\n      add\n        /* \"#utility.yul\":15724:15748   */\n      swap2\n      pop\n        /* \"#utility.yul\":15793:15795   */\n      0x20\n        /* \"#utility.yul\":15782:15791   */\n      dup6\n        /* \"#utility.yul\":15778:15796   */\n      add\n        /* \"#utility.yul\":15765:15796   */\n      swap5\n      pop\n        /* \"#utility.yul\":15639:15643   */\n      0x20\n        /* \"#utility.yul\":15636:15637   */\n      dup2\n        /* \"#utility.yul\":15632:15644   */\n      add\n        /* \"#utility.yul\":15627:15644   */\n      swap1\n      pop\n        /* \"#utility.yul\":15602:15810   */\n      jump(tag_395)\n    tag_397:\n        /* \"#utility.yul\":15838:15844   */\n      dup7\n        /* \"#utility.yul\":15829:15836   */\n      dup4\n        /* \"#utility.yul\":15826:15845   */\n      lt\n        /* \"#utility.yul\":15823:16002   */\n      iszero\n      tag_398\n      jumpi\n        /* \"#utility.yul\":15896:15905   */\n      dup5\n        /* \"#utility.yul\":15891:15894   */\n      dup10\n        /* \"#utility.yul\":15887:15906   */\n      add\n        /* \"#utility.yul\":15881:15907   */\n      mload\n        /* \"#utility.yul\":15939:15987   */\n      tag_399\n        /* \"#utility.yul\":15981:15985   */\n      0x1f\n        /* \"#utility.yul\":15973:15979   */\n      dup10\n        /* \"#utility.yul\":15969:15986   */\n      and\n        /* \"#utility.yul\":15958:15967   */\n      dup3\n        /* \"#utility.yul\":15939:15987   */\n      tag_219\n      jump\t// in\n    tag_399:\n        /* \"#utility.yul\":15931:15937   */\n      dup4\n        /* \"#utility.yul\":15924:15988   */\n      sstore\n        /* \"#utility.yul\":15846:16002   */\n      pop\n        /* \"#utility.yul\":15823:16002   */\n    tag_398:\n        /* \"#utility.yul\":16048:16049   */\n      0x01\n        /* \"#utility.yul\":16044:16045   */\n      0x02\n        /* \"#utility.yul\":16036:16042   */\n      dup9\n        /* \"#utility.yul\":16032:16046   */\n      mul\n        /* \"#utility.yul\":16028:16050   */\n      add\n        /* \"#utility.yul\":16022:16026   */\n      dup9\n        /* \"#utility.yul\":16015:16051   */\n      sstore\n        /* \"#utility.yul\":15450:16061   */\n      pop\n      pop\n      pop\n        /* \"#utility.yul\":15413:16300   */\n    tag_390:\n      pop\n        /* \"#utility.yul\":15003:16306   */\n      pop\n      pop\n      pop\n        /* \"#utility.yul\":14911:16306   */\n      pop\n      pop\n      jump\t// out\n        /* \"#utility.yul\":16312:16460   */\n    tag_221:\n        /* \"#utility.yul\":16410:16416   */\n      dup3\n        /* \"#utility.yul\":16405:16408   */\n      dup2\n        /* \"#utility.yul\":16400:16403   */\n      dup4\n        /* \"#utility.yul\":16387:16417   */\n      calldatacopy\n        /* \"#utility.yul\":16451:16452   */\n      0x00\n        /* \"#utility.yul\":16442:16448   */\n      dup4\n        /* \"#utility.yul\":16437:16440   */\n      dup4\n        /* \"#utility.yul\":16433:16449   */\n      add\n        /* \"#utility.yul\":16426:16453   */\n      mstore\n        /* \"#utility.yul\":16312:16460   */\n      pop\n      pop\n      pop\n      jump\t// out\n        /* \"#utility.yul\":16490:16807   */\n    tag_222:\n        /* \"#utility.yul\":16588:16591   */\n      0x00\n        /* \"#utility.yul\":16609:16680   */\n      tag_402\n        /* \"#utility.yul\":16673:16679   */\n      dup4\n        /* \"#utility.yul\":16668:16671   */\n      dup6\n        /* \"#utility.yul\":16609:16680   */\n      tag_178\n      jump\t// in\n    tag_402:\n        /* \"#utility.yul\":16602:16680   */\n      swap4\n      pop\n        /* \"#utility.yul\":16690:16746   */\n      tag_403\n        /* \"#utility.yul\":16739:16745   */\n      dup4\n        /* \"#utility.yul\":16734:16737   */\n      dup6\n        /* \"#utility.yul\":16727:16732   */\n      dup5\n        /* \"#utility.yul\":16690:16746   */\n      tag_221\n      jump\t// in\n    tag_403:\n        /* \"#utility.yul\":16771:16800   */\n      tag_404\n        /* \"#utility.yul\":16793:16799   */\n      dup4\n        /* \"#utility.yul\":16771:16800   */\n      tag_180\n      jump\t// in\n    tag_404:\n        /* \"#utility.yul\":16766:16769   */\n      dup5\n        /* \"#utility.yul\":16762:16801   */\n      add\n        /* \"#utility.yul\":16755:16801   */\n      swap1\n      pop\n        /* \"#utility.yul\":16490:16807   */\n      swap4\n      swap3\n      pop\n      pop\n      pop\n      jump\t// out\n        /* \"#utility.yul\":16813:17146   */\n    tag_110:\n        /* \"#utility.yul\":16936:16940   */\n      0x00\n        /* \"#utility.yul\":16974:16976   */\n      0x20\n        /* \"#utility.yul\":16963:16972   */\n      dup3\n        /* \"#utility.yul\":16959:16977   */\n      add\n        /* \"#utility.yul\":16951:16977   */\n      swap1\n      pop\n        /* \"#utility.yul\":17023:17032   */\n      dup2\n        /* \"#utility.yul\":17017:17021   */\n      dup2\n        /* \"#utility.yul\":17013:17033   */\n      sub\n        /* \"#utility.yul\":17009:17010   */\n      0x00\n        /* \"#utility.yul\":16998:17007   */\n      dup4\n        /* \"#utility.yul\":16994:17011   */\n      add\n        /* \"#utility.yul\":16987:17034   */\n      mstore\n        /* \"#utility.yul\":17051:17139   */\n      tag_406\n        /* \"#utility.yul\":17134:17138   */\n      dup2\n        /* \"#utility.yul\":17125:17131   */\n      dup5\n        /* \"#utility.yul\":17117:17123   */\n      dup7\n        /* \"#utility.yul\":17051:17139   */\n      tag_222\n      jump\t// in\n    tag_406:\n        /* \"#utility.yul\":17043:17139   */\n      swap1\n      pop\n        /* \"#utility.yul\":16813:17146   */\n      swap4\n      swap3\n      pop\n      pop\n      pop\n      jump\t// out\n        /* \"#utility.yul\":17152:17314   */\n    tag_223:\n        /* \"#utility.yul\":17292:17306   */\n      0x496e76616c696420726f6c650000000000000000000000000000000000000000\n        /* \"#utility.yul\":17288:17289   */\n      0x00\n        /* \"#utility.yul\":17280:17286   */\n      dup3\n        /* \"#utility.yul\":17276:17290   */\n      add\n        /* \"#utility.yul\":17269:17307   */\n      mstore\n        /* \"#utility.yul\":17152:17314   */\n      pop\n      jump\t// out\n        /* \"#utility.yul\":17320:17686   */\n    tag_224:\n        /* \"#utility.yul\":17462:17465   */\n      0x00\n        /* \"#utility.yul\":17483:17550   */\n      tag_409\n        /* \"#utility.yul\":17547:17549   */\n      0x0c\n        /* \"#utility.yul\":17542:17545   */\n      dup4\n        /* \"#utility.yul\":17483:17550   */\n      tag_178\n      jump\t// in\n    tag_409:\n        /* \"#utility.yul\":17476:17550   */\n      swap2\n      pop\n        /* \"#utility.yul\":17559:17652   */\n      tag_410\n        /* \"#utility.yul\":17648:17651   */\n      dup3\n        /* \"#utility.yul\":17559:17652   */\n      tag_223\n      jump\t// in\n    tag_410:\n        /* \"#utility.yul\":17677:17679   */\n      0x20\n        /* \"#utility.yul\":17672:17675   */\n      dup3\n        /* \"#utility.yul\":17668:17680   */\n      add\n        /* \"#utility.yul\":17661:17680   */\n      swap1\n      pop\n        /* \"#utility.yul\":17320:17686   */\n      swap2\n      swap1\n      pop\n      jump\t// out\n        /* \"#utility.yul\":17692:18111   */\n    tag_118:\n        /* \"#utility.yul\":17858:17862   */\n      0x00\n        /* \"#utility.yul\":17896:17898   */\n      0x20\n        /* \"#utility.yul\":17885:17894   */\n      dup3\n        /* \"#utility.yul\":17881:17899   */\n      add\n        /* \"#utility.yul\":17873:17899   */\n      swap1\n      pop\n        /* \"#utility.yul\":17945:17954   */\n      dup2\n        /* \"#utility.yul\":17939:17943   */\n      dup2\n        /* \"#utility.yul\":17935:17955   */\n      sub\n        /* \"#utility.yul\":17931:17932   */\n      0x00\n        /* \"#utility.yul\":17920:17929   */\n      dup4\n        /* \"#utility.yul\":17916:17933   */\n      add\n        /* \"#utility.yul\":17909:17956   */\n      mstore\n        /* \"#utility.yul\":17973:18104   */\n      tag_412\n        /* \"#utility.yul\":18099:18103   */\n      dup2\n        /* \"#utility.yul\":17973:18104   */\n      tag_224\n      jump\t// in\n    tag_412:\n        /* \"#utility.yul\":17965:18104   */\n      swap1\n      pop\n        /* \"#utility.yul\":17692:18111   */\n      swap2\n      swap1\n      pop\n      jump\t// out\n        /* \"#utility.yul\":18117:18285   */\n    tag_225:\n        /* \"#utility.yul\":18257:18277   */\n      0x416c726561647920686173206120726f6c650000000000000000000000000000\n        /* \"#utility.yul\":18253:18254   */\n      0x00\n        /* \"#utility.yul\":18245:18251   */\n      dup3\n        /* \"#utility.yul\":18241:18255   */\n      add\n        /* \"#utility.yul\":18234:18278   */\n      mstore\n        /* \"#utility.yul\":18117:18285   */\n      pop\n      jump\t// out\n        /* \"#utility.yul\":18291:18657   */\n    tag_226:\n        /* \"#utility.yul\":18433:18436   */\n      0x00\n        /* \"#utility.yul\":18454:18521   */\n      tag_415\n        /* \"#utility.yul\":18518:18520   */\n      0x12\n        /* \"#utility.yul\":18513:18516   */\n      dup4\n        /* \"#utility.yul\":18454:18521   */\n      tag_178\n      jump\t// in\n    tag_415:\n        /* \"#utility.yul\":18447:18521   */\n      swap2\n      pop\n        /* \"#utility.yul\":18530:18623   */\n      tag_416\n        /* \"#utility.yul\":18619:18622   */\n      dup3\n        /* \"#utility.yul\":18530:18623   */\n      tag_225\n      jump\t// in\n    tag_416:\n        /* \"#utility.yul\":18648:18650   */\n      0x20\n        /* \"#utility.yul\":18643:18646   */\n      dup3\n        /* \"#utility.yul\":18639:18651   */\n      add\n        /* \"#utility.yul\":18632:18651   */\n      swap1\n      pop\n        /* \"#utility.yul\":18291:18657   */\n      swap2\n      swap1\n      pop\n      jump\t// out\n        /* \"#utility.yul\":18663:19082   */\n    tag_122:\n        /* \"#utility.yul\":18829:18833   */\n      0x00\n        /* \"#utility.yul\":18867:18869   */\n      0x20\n        /* \"#utility.yul\":18856:18865   */\n      dup3\n        /* \"#utility.yul\":18852:18870   */\n      add\n        /* \"#utility.yul\":18844:18870   */\n      swap1\n      pop\n        /* \"#utility.yul\":18916:18925   */\n      dup2\n        /* \"#utility.yul\":18910:18914   */\n      dup2\n        /* \"#utility.yul\":18906:18926   */\n      sub\n        /* \"#utility.yul\":18902:18903   */\n      0x00\n        /* \"#utility.yul\":18891:18900   */\n      dup4\n        /* \"#utility.yul\":18887:18904   */\n      add\n        /* \"#utility.yul\":18880:18927   */\n      mstore\n        /* \"#utility.yul\":18944:19075   */\n      tag_418\n        /* \"#utility.yul\":19070:19074   */\n      dup2\n        /* \"#utility.yul\":18944:19075   */\n      tag_226\n      jump\t// in\n    tag_418:\n        /* \"#utility.yul\":18936:19075   */\n      swap1\n      pop\n        /* \"#utility.yul\":18663:19082   */\n      swap2\n      swap1\n      pop\n      jump\t// out\n        /* \"#utility.yul\":19088:19251   */\n    tag_227:\n        /* \"#utility.yul\":19228:19243   */\n      0x4a6f6220697320636c6f73656400000000000000000000000000000000000000\n        /* \"#utility.yul\":19224:19225   */\n      0x00\n        /* \"#utility.yul\":19216:19222   */\n      dup3\n        /* \"#utility.yul\":19212:19226   */\n      add\n        /* \"#utility.yul\":19205:19244   */\n      mstore\n        /* \"#utility.yul\":19088:19251   */\n      pop\n      jump\t// out\n        /* \"#utility.yul\":19257:19623   */\n    tag_228:\n        /* \"#utility.yul\":19399:19402   */\n      0x00\n        /* \"#utility.yul\":19420:19487   */\n      tag_421\n        /* \"#utility.yul\":19484:19486   */\n      0x0d\n        /* \"#utility.yul\":19479:19482   */\n      dup4\n        /* \"#utility.yul\":19420:19487   */\n      tag_178\n      jump\t// in\n    tag_421:\n        /* \"#utility.yul\":19413:19487   */\n      swap2\n      pop\n        /* \"#utility.yul\":19496:19589   */\n      tag_422\n        /* \"#utility.yul\":19585:19588   */\n      dup3\n        /* \"#utility.yul\":19496:19589   */\n      tag_227\n      jump\t// in\n    tag_422:\n        /* \"#utility.yul\":19614:19616   */\n      0x20\n        /* \"#utility.yul\":19609:19612   */\n      dup3\n        /* \"#utility.yul\":19605:19617   */\n      add\n        /* \"#utility.yul\":19598:19617   */\n      swap1\n      pop\n        /* \"#utility.yul\":19257:19623   */\n      swap2\n      swap1\n      pop\n      jump\t// out\n        /* \"#utility.yul\":19629:20048   */\n    tag_136:\n        /* \"#utility.yul\":19795:19799   */\n      0x00\n        /* \"#utility.yul\":19833:19835   */\n      0x20\n        /* \"#utility.yul\":19822:19831   */\n      dup3\n        /* \"#utility.yul\":19818:19836   */\n      add\n        /* \"#utility.yul\":19810:19836   */\n      swap1\n      pop\n        /* \"#utility.yul\":19882:19891   */\n      dup2\n        /* \"#utility.yul\":19876:19880   */\n      dup2\n        /* \"#utility.yul\":19872:19892   */\n      sub\n        /* \"#utility.yul\":19868:19869   */\n      0x00\n        /* \"#utility.yul\":19857:19866   */\n      dup4\n        /* \"#utility.yul\":19853:19870   */\n      add\n        /* \"#utility.yul\":19846:19893   */\n      mstore\n        /* \"#utility.yul\":19910:20041   */\n      tag_424\n        /* \"#utility.yul\":20036:20040   */\n      dup2\n        /* \"#utility.yul\":19910:20041   */\n      tag_228\n      jump\t// in\n    tag_424:\n        /* \"#utility.yul\":19902:20041   */\n      swap1\n      pop\n        /* \"#utility.yul\":19629:20048   */\n      swap2\n      swap1\n      pop\n      jump\t// out\n        /* \"#utility.yul\":20054:20235   */\n    tag_229:\n        /* \"#utility.yul\":20194:20227   */\n      0x4163636f756e7420646f6573206e6f742068617665207468697320726f6c6500\n        /* \"#utility.yul\":20190:20191   */\n      0x00\n        /* \"#utility.yul\":20182:20188   */\n      dup3\n        /* \"#utility.yul\":20178:20192   */\n      add\n        /* \"#utility.yul\":20171:20228   */\n      mstore\n        /* \"#utility.yul\":20054:20235   */\n      pop\n      jump\t// out\n        /* \"#utility.yul\":20241:20607   */\n    tag_230:\n        /* \"#utility.yul\":20383:20386   */\n      0x00\n        /* \"#utility.yul\":20404:20471   */\n      tag_427\n        /* \"#utility.yul\":20468:20470   */\n      0x1f\n        /* \"#utility.yul\":20463:20466   */\n      dup4\n        /* \"#utility.yul\":20404:20471   */\n      tag_178\n      jump\t// in\n    tag_427:\n        /* \"#utility.yul\":20397:20471   */\n      swap2\n      pop\n        /* \"#utility.yul\":20480:20573   */\n      tag_428\n        /* \"#utility.yul\":20569:20572   */\n      dup3\n        /* \"#utility.yul\":20480:20573   */\n      tag_229\n      jump\t// in\n    tag_428:\n        /* \"#utility.yul\":20598:20600   */\n      0x20\n        /* \"#utility.yul\":20593:20596   */\n      dup3\n        /* \"#utility.yul\":20589:20601   */\n      add\n        /* \"#utility.yul\":20582:20601   */\n      swap1\n      pop\n        /* \"#utility.yul\":20241:20607   */\n      swap2\n      swap1\n      pop\n      jump\t// out\n        /* \"#utility.yul\":20613:21032   */\n    tag_162:\n        /* \"#utility.yul\":20779:20783   */\n      0x00\n        /* \"#utility.yul\":20817:20819   */\n      0x20\n        /* \"#utility.yul\":20806:20815   */\n      dup3\n        /* \"#utility.yul\":20802:20820   */\n      add\n        /* \"#utility.yul\":20794:20820   */\n      swap1\n      pop\n        /* \"#utility.yul\":20866:20875   */\n      dup2\n        /* \"#utility.yul\":20860:20864   */\n      dup2\n        /* \"#utility.yul\":20856:20876   */\n      sub\n        /* \"#utility.yul\":20852:20853   */\n      0x00\n        /* \"#utility.yul\":20841:20850   */\n      dup4\n        /* \"#utility.yul\":20837:20854   */\n      add\n        /* \"#utility.yul\":20830:20877   */\n      mstore\n        /* \"#utility.yul\":20894:21025   */\n      tag_430\n        /* \"#utility.yul\":21020:21024   */\n      dup2\n        /* \"#utility.yul\":20894:21025   */\n      tag_230\n      jump\t// in\n    tag_430:\n        /* \"#utility.yul\":20886:21025   */\n      swap1\n      pop\n        /* \"#utility.yul\":20613:21032   */\n      swap2\n      swap1\n      pop\n      jump\t// out\n\n    auxdata: 0xa2646970667358221220815d36dc0eafc5f8159a08b81454599b746bd97789abb14f1a849e03bc971e7964736f6c634300081f0033\n}\n",
				"bytecode": {
					"linkReferences": {},
					"object": "6080604052348015600e575f5ffd5b50603d7fdf8b4c520ffe197c5343c6f5aec59570151ef9a492f2c624fd45ddde6135ec4233604160201b60201c565b60ec565b60015f5f8481526020019081526020015f205f8373ffffffffffffffffffffffffffffffffffffffff1673ffffffffffffffffffffffffffffffffffffffff1681526020019081526020015f205f6101000a81548160ff0219169083151502179055508073ffffffffffffffffffffffffffffffffffffffff16827f2ae6a113c0ed5b78a53413ffbb7679881f11145ccfba4fb92e863dfcd5a1d2f360405160405180910390a35050565b611dcb806100f95f395ff3fe608060405234801561000f575f5ffd5b50600436106100e8575f3560e01c806358a6f4ca1161008a578063bf22c45711610064578063bf22c45714610236578063d547741f14610267578063dfefadff14610283578063e7336d14146102b5576100e8565b806358a6f4ca146101ca57806391d14854146101e8578063b02b4a2f14610218576100e8565b806327a6d1d7116100c657806327a6d1d7146101585780632a0acc6a146101745780632f2ff15d146101925780633efaea1f146101ae576100e8565b8063180aedf3146100ec5780631b2df8501461011e5780631e01abca1461013c575b5f5ffd5b61010660048036038101906101019190611394565b6102d3565b60405161011593929190611488565b60405180910390f35b6101266103ba565b60405161013391906114dc565b60405180910390f35b61015660048036038101906101519190611394565b6103de565b005b610172600480360381019061016d9190611556565b6105d0565b005b61017c610803565b60405161018991906114dc565b60405180910390f35b6101ac60048036038101906101a791906115f5565b610827565b005b6101c860048036038101906101c39190611633565b610ab3565b005b6101d2610d6e565b6040516101df919061169f565b60405180910390f35b61020260048036038101906101fd91906115f5565b610d7a565b60405161020f91906116b8565b60405180910390f35b610220610ddb565b60405161022d919061169f565b60405180910390f35b610250600480360381019061024b9190611394565b610de7565b60405161025e9291906116d1565b60405180910390f35b610281600480360381019061027c91906115f5565b610fb6565b005b61029d60048036038101906102989190611394565b6111b0565b6040516102ac939291906116ff565b60405180910390f35b6102bd61128a565b6040516102ca91906114dc565b60405180910390f35b600181815481106102e2575f80fd5b905f5260205f2090600202015f91509050805f01805461030190611768565b80601f016020809104026020016040519081016040528092919081815260200182805461032d90611768565b80156103785780601f1061034f57610100808354040283529160200191610378565b820191905f5260205f20905b81548152906001019060200180831161035b57829003601f168201915b505050505090806001015f9054906101000a900473ffffffffffffffffffffffffffffffffffffffff16908060010160149054906101000a900460ff16905083565b7faf290d8680820aad922855f39b306097b20e28774d6c1ad35a20325630c3a02c81565b7faf290d8680820aad922855f39b306097b20e28774d6c1ad35a20325630c3a02c5f5f8281526020019081526020015f205f3373ffffffffffffffffffffffffffffffffffffffff1673ffffffffffffffffffffffffffffffffffffffff1681526020019081526020015f205f9054906101000a900460ff16610496576040517f08c379a000000000000000000000000000000000000000000000000000000000815260040161048d906117e2565b60405180910390fd5b60018054905082106104dd576040517f08c379a00000000000000000000000000000000000000000000000000000000081526004016104d49061184a565b60405180910390fd5b600182815481106104f1576104f0611868565b5b905f5260205f20906002020160010160149054906101000a900460ff1661054d576040517f08c379a0000000000000000000000000000000000000000000000000000000008152600401610544906118df565b60405180910390fd5b5f6001838154811061056257610561611868565b5b905f5260205f20906002020160010160146101000a81548160ff0219169083151502179055503373ffffffffffffffffffffffffffffffffffffffff16827f225e8602d919485e9a54c796e7ceb40e6ad02e5bcc5dce07355d117713e5166c60405160405180910390a35050565b7faf290d8680820aad922855f39b306097b20e28774d6c1ad35a20325630c3a02c5f5f8281526020019081526020015f205f3373ffffffffffffffffffffffffffffffffffffffff1673ffffffffffffffffffffffffffffffffffffffff1681526020019081526020015f205f9054906101000a900460ff16610688576040517f08c379a000000000000000000000000000000000000000000000000000000000815260040161067f906117e2565b60405180910390fd5b5f60018054905090506001604051806060016040528086868080601f0160208091040260200160405190810160405280939291908181526020018383808284375f81840152601f19601f8201169050808301925050505050505081526020013373ffffffffffffffffffffffffffffffffffffffff16815260200160011515815250908060018154018082558091505060019003905f5260205f2090600202015f909190919091505f820151815f0190816107439190611aca565b506020820151816001015f6101000a81548173ffffffffffffffffffffffffffffffffffffffff021916908373ffffffffffffffffffffffffffffffffffffffff16021790555060408201518160010160146101000a81548160ff02191690831515021790555050503373ffffffffffffffffffffffffffffffffffffffff16817f4d735a55ef1592186e3de98cfded1b75826f5b08a7d2777536ac6bcc9b5e8f2b86866040516107f5929190611bd3565b60405180910390a350505050565b7fdf8b4c520ffe197c5343c6f5aec59570151ef9a492f2c624fd45ddde6135ec4281565b7fdf8b4c520ffe197c5343c6f5aec59570151ef9a492f2c624fd45ddde6135ec425f5f8281526020019081526020015f205f3373ffffffffffffffffffffffffffffffffffffffff1673ffffffffffffffffffffffffffffffffffffffff1681526020019081526020015f205f9054906101000a900460ff166108df576040517f08c379a00000000000000000000000000000000000000000000000000000000081526004016108d6906117e2565b60405180910390fd5b7faf290d8680820aad922855f39b306097b20e28774d6c1ad35a20325630c3a02c83148061092c57507f989b8681e34e5a140922589c8eca8a05e6973c253a67caab2922847f87aa8bde83145b61096b576040517f08c379a000000000000000000000000000000000000000000000000000000000815260040161096290611c3f565b60405180910390fd5b5f5f7faf290d8680820aad922855f39b306097b20e28774d6c1ad35a20325630c3a02c81526020019081526020015f205f8373ffffffffffffffffffffffffffffffffffffffff1673ffffffffffffffffffffffffffffffffffffffff1681526020019081526020015f205f9054906101000a900460ff16158015610a6557505f5f7f989b8681e34e5a140922589c8eca8a05e6973c253a67caab2922847f87aa8bde81526020019081526020015f205f8373ffffffffffffffffffffffffffffffffffffffff1673ffffffffffffffffffffffffffffffffffffffff1681526020019081526020015f205f9054906101000a900460ff16155b610aa4576040517f08c379a0000000000000000000000000000000000000000000000000000000008152600401610a9b90611ca7565b60405180910390fd5b610aae83836112ae565b505050565b7f989b8681e34e5a140922589c8eca8a05e6973c253a67caab2922847f87aa8bde5f5f8281526020019081526020015f205f3373ffffffffffffffffffffffffffffffffffffffff1673ffffffffffffffffffffffffffffffffffffffff1681526020019081526020015f205f9054906101000a900460ff16610b6b576040517f08c379a0000000000000000000000000000000000000000000000000000000008152600401610b62906117e2565b60405180910390fd5b6001805490508410610bb2576040517f08c379a0000000000000000000000000000000000000000000000000000000008152600401610ba99061184a565b60405180910390fd5b60018481548110610bc657610bc5611868565b5b905f5260205f20906002020160010160149054906101000a900460ff16610c22576040517f08c379a0000000000000000000000000000000000000000000000000000000008152600401610c1990611d0f565b60405180910390fd5b600260405180606001604052803373ffffffffffffffffffffffffffffffffffffffff16815260200186815260200185858080601f0160208091040260200160405190810160405280939291908181526020018383808284375f81840152601f19601f82011690508083019250505050505050815250908060018154018082558091505060019003905f5260205f2090600302015f909190919091505f820151815f015f6101000a81548173ffffffffffffffffffffffffffffffffffffffff021916908373ffffffffffffffffffffffffffffffffffffffff160217905550602082015181600101556040820151816002019081610d219190611aca565b5050503373ffffffffffffffffffffffffffffffffffffffff16847f394b2f46e841d2b670718e98a15dfb76853abc5a8761449c74e9cba62d90152160405160405180910390a350505050565b5f600280549050905090565b5f5f5f8481526020019081526020015f205f8373ffffffffffffffffffffffffffffffffffffffff1673ffffffffffffffffffffffffffffffffffffffff1681526020019081526020015f205f9054906101000a900460ff16905092915050565b5f600180549050905090565b60605f7f989b8681e34e5a140922589c8eca8a05e6973c253a67caab2922847f87aa8bde5f5f8281526020019081526020015f205f3373ffffffffffffffffffffffffffffffffffffffff1673ffffffffffffffffffffffffffffffffffffffff1681526020019081526020015f205f9054906101000a900460ff16610ea2576040517f08c379a0000000000000000000000000000000000000000000000000000000008152600401610e99906117e2565b60405180910390fd5b6001805490508410610ee9576040517f08c379a0000000000000000000000000000000000000000000000000000000008152600401610ee09061184a565b60405180910390fd5b5f60018581548110610efe57610efd611868565b5b905f5260205f2090600202019050805f018160010160149054906101000a900460ff16818054610f2d90611768565b80601f0160208091040260200160405190810160405280929190818152602001828054610f5990611768565b8015610fa45780601f10610f7b57610100808354040283529160200191610fa4565b820191905f5260205f20905b815481529060010190602001808311610f8757829003601f168201915b50505050509150935093505050915091565b7fdf8b4c520ffe197c5343c6f5aec59570151ef9a492f2c624fd45ddde6135ec425f5f8281526020019081526020015f205f3373ffffffffffffffffffffffffffffffffffffffff1673ffffffffffffffffffffffffffffffffffffffff1681526020019081526020015f205f9054906101000a900460ff1661106e576040517f08c379a0000000000000000000000000000000000000000000000000000000008152600401611065906117e2565b60405180910390fd5b5f5f8481526020019081526020015f205f8373ffffffffffffffffffffffffffffffffffffffff1673ffffffffffffffffffffffffffffffffffffffff1681526020019081526020015f205f9054906101000a900460ff16611105576040517f08c379a00000000000000000000000000000000000000000000000000000000081526004016110fc90611d77565b60405180910390fd5b5f5f5f8581526020019081526020015f205f8473ffffffffffffffffffffffffffffffffffffffff1673ffffffffffffffffffffffffffffffffffffffff1681526020019081526020015f205f6101000a81548160ff0219169083151502179055508173ffffffffffffffffffffffffffffffffffffffff16837f155aaafb6329a2098580462df33ec4b7441b19729b9601c5fc17ae1cf99a8a5260405160405180910390a3505050565b600281815481106111bf575f80fd5b905f5260205f2090600302015f91509050805f015f9054906101000a900473ffffffffffffffffffffffffffffffffffffffff169080600101549080600201805461120990611768565b80601f016020809104026020016040519081016040528092919081815260200182805461123590611768565b80156112805780601f1061125757610100808354040283529160200191611280565b820191905f5260205f20905b81548152906001019060200180831161126357829003601f168201915b5050505050905083565b7f989b8681e34e5a140922589c8eca8a05e6973c253a67caab2922847f87aa8bde81565b60015f5f8481526020019081526020015f205f8373ffffffffffffffffffffffffffffffffffffffff1673ffffffffffffffffffffffffffffffffffffffff1681526020019081526020015f205f6101000a81548160ff0219169083151502179055508073ffffffffffffffffffffffffffffffffffffffff16827f2ae6a113c0ed5b78a53413ffbb7679881f11145ccfba4fb92e863dfcd5a1d2f360405160405180910390a35050565b5f5ffd5b5f5ffd5b5f819050919050565b61137381611361565b811461137d575f5ffd5b50565b5f8135905061138e8161136a565b92915050565b5f602082840312156113a9576113a8611359565b5b5f6113b684828501611380565b91505092915050565b5f81519050919050565b5f82825260208201905092915050565b8281835e5f83830152505050565b5f601f19601f8301169050919050565b5f611401826113bf565b61140b81856113c9565b935061141b8185602086016113d9565b611424816113e7565b840191505092915050565b5f73ffffffffffffffffffffffffffffffffffffffff82169050919050565b5f6114588261142f565b9050919050565b6114688161144e565b82525050565b5f8115159050919050565b6114828161146e565b82525050565b5f6060820190508181035f8301526114a081866113f7565b90506114af602083018561145f565b6114bc6040830184611479565b949350505050565b5f819050919050565b6114d6816114c4565b82525050565b5f6020820190506114ef5f8301846114cd565b92915050565b5f5ffd5b5f5ffd5b5f5ffd5b5f5f83601f840112611516576115156114f5565b5b8235905067ffffffffffffffff811115611533576115326114f9565b5b60208301915083600182028301111561154f5761154e6114fd565b5b9250929050565b5f5f6020838503121561156c5761156b611359565b5b5f83013567ffffffffffffffff8111156115895761158861135d565b5b61159585828601611501565b92509250509250929050565b6115aa816114c4565b81146115b4575f5ffd5b50565b5f813590506115c5816115a1565b92915050565b6115d48161144e565b81146115de575f5ffd5b50565b5f813590506115ef816115cb565b92915050565b5f5f6040838503121561160b5761160a611359565b5b5f611618858286016115b7565b9250506020611629858286016115e1565b9150509250929050565b5f5f5f6040848603121561164a57611649611359565b5b5f61165786828701611380565b935050602084013567ffffffffffffffff8111156116785761167761135d565b5b61168486828701611501565b92509250509250925092565b61169981611361565b82525050565b5f6020820190506116b25f830184611690565b92915050565b5f6020820190506116cb5f830184611479565b92915050565b5f6040820190508181035f8301526116e981856113f7565b90506116f86020830184611479565b9392505050565b5f6060820190506117125f83018661145f565b61171f6020830185611690565b818103604083015261173181846113f7565b9050949350505050565b7f4e487b71000000000000000000000000000000000000000000000000000000005f52602260045260245ffd5b5f600282049050600182168061177f57607f821691505b6020821081036117925761179161173b565b5b50919050565b7f4163636573732064656e696564000000000000000000000000000000000000005f82015250565b5f6117cc600d836113c9565b91506117d782611798565b602082019050919050565b5f6020820190508181035f8301526117f9816117c0565b9050919050565b7f4a6f6220646f6573206e6f7420657869737400000000000000000000000000005f82015250565b5f6118346012836113c9565b915061183f82611800565b602082019050919050565b5f6020820190508181035f83015261186181611828565b9050919050565b7f4e487b71000000000000000000000000000000000000000000000000000000005f52603260045260245ffd5b7f4a6f6220616c726561647920636c6f73656400000000000000000000000000005f82015250565b5f6118c96012836113c9565b91506118d482611895565b602082019050919050565b5f6020820190508181035f8301526118f6816118bd565b9050919050565b7f4e487b71000000000000000000000000000000000000000000000000000000005f52604160045260245ffd5b5f819050815f5260205f209050919050565b5f6020601f8301049050919050565b5f82821b905092915050565b5f600883026119867fffffffffffffffffffffffffffffffffffffffffffffffffffffffffffffffff8261194b565b611990868361194b565b95508019841693508086168417925050509392505050565b5f819050919050565b5f6119cb6119c66119c184611361565b6119a8565b611361565b9050919050565b5f819050919050565b6119e4836119b1565b6119f86119f0826119d2565b848454611957565b825550505050565b5f5f905090565b611a0f611a00565b611a1a8184846119db565b505050565b5b81811015611a3d57611a325f82611a07565b600181019050611a20565b5050565b601f821115611a8257611a538161192a565b611a5c8461193c565b81016020851015611a6b578190505b611a7f611a778561193c565b830182611a1f565b50505b505050565b5f82821c905092915050565b5f611aa25f1984600802611a87565b1980831691505092915050565b5f611aba8383611a93565b9150826002028217905092915050565b611ad3826113bf565b67ffffffffffffffff811115611aec57611aeb6118fd565b5b611af68254611768565b611b01828285611a41565b5f60209050601f831160018114611b32575f8415611b20578287015190505b611b2a8582611aaf565b865550611b91565b601f198416611b408661192a565b5f5b82811015611b6757848901518255600182019150602085019450602081019050611b42565b86831015611b845784890151611b80601f891682611a93565b8355505b6001600288020188555050505b505050505050565b828183375f83830152505050565b5f611bb283856113c9565b9350611bbf838584611b99565b611bc8836113e7565b840190509392505050565b5f6020820190508181035f830152611bec818486611ba7565b90509392505050565b7f496e76616c696420726f6c6500000000000000000000000000000000000000005f82015250565b5f611c29600c836113c9565b9150611c3482611bf5565b602082019050919050565b5f6020820190508181035f830152611c5681611c1d565b9050919050565b7f416c726561647920686173206120726f6c6500000000000000000000000000005f82015250565b5f611c916012836113c9565b9150611c9c82611c5d565b602082019050919050565b5f6020820190508181035f830152611cbe81611c85565b9050919050565b7f4a6f6220697320636c6f736564000000000000000000000000000000000000005f82015250565b5f611cf9600d836113c9565b9150611d0482611cc5565b602082019050919050565b5f6020820190508181035f830152611d2681611ced565b9050919050565b7f4163636f756e7420646f6573206e6f742068617665207468697320726f6c65005f82015250565b5f611d61601f836113c9565b9150611d6c82611d2d565b602082019050919050565b5f6020820190508181035f830152611d8e81611d55565b905091905056fea2646970667358221220815d36dc0eafc5f8159a08b81454599b746bd97789abb14f1a849e03bc971e7964736f6c634300081f0033",
					"opcodes": "PUSH1 0x80 PUSH1 0x40 MSTORE CALLVALUE DUP1 ISZERO PUSH1 0xE JUMPI PUSH0 PUSH0 REVERT JUMPDEST POP PUSH1 0x3D PUSH32 0xDF8B4C520FFE197C5343C6F5AEC59570151EF9A492F2C624FD45DDDE6135EC42 CALLER PUSH1 0x41 PUSH1 0x20 SHL PUSH1 0x20 SHR JUMP JUMPDEST PUSH1 0xEC JUMP JUMPDEST PUSH1 0x1 PUSH0 PUSH0 DUP5 DUP2 MSTORE PUSH1 0x20 ADD SWAP1 DUP2 MSTORE PUSH1 0x20 ADD PUSH0 KECCAK256 PUSH0 DUP4 PUSH20 0xFFFFFFFFFFFFFFFFFFFFFFFFFFFFFFFFFFFFFFFF AND PUSH20 0xFFFFFFFFFFFFFFFFFFFFFFFFFFFFFFFFFFFFFFFF AND DUP2 MSTORE PUSH1 0x20 ADD SWAP1 DUP2 MSTORE PUSH1 0x20 ADD PUSH0 KECCAK256 PUSH0 PUSH2 0x100 EXP DUP2 SLOAD DUP2 PUSH1 0xFF MUL NOT AND SWAP1 DUP4 ISZERO ISZERO MUL OR SWAP1 SSTORE POP DUP1 PUSH20 0xFFFFFFFFFFFFFFFFFFFFFFFFFFFFFFFFFFFFFFFF AND DUP3 PUSH32 0x2AE6A113C0ED5B78A53413FFBB7679881F11145CCFBA4FB92E863DFCD5A1D2F3 PUSH1 0x40 MLOAD PUSH1 0x40 MLOAD DUP1 SWAP2 SUB SWAP1 LOG3 POP POP JUMP JUMPDEST PUSH2 0x1DCB DUP1 PUSH2 0xF9 PUSH0 CODECOPY PUSH0 RETURN INVALID PUSH1 0x80 PUSH1 0x40 MSTORE CALLVALUE DUP1 ISZERO PUSH2 0xF JUMPI PUSH0 PUSH0 REVERT JUMPDEST POP PUSH1 0x4 CALLDATASIZE LT PUSH2 0xE8 JUMPI PUSH0 CALLDATALOAD PUSH1 0xE0 SHR DUP1 PUSH4 0x58A6F4CA GT PUSH2 0x8A JUMPI DUP1 PUSH4 0xBF22C457 GT PUSH2 0x64 JUMPI DUP1 PUSH4 0xBF22C457 EQ PUSH2 0x236 JUMPI DUP1 PUSH4 0xD547741F EQ PUSH2 0x267 JUMPI DUP1 PUSH4 0xDFEFADFF EQ PUSH2 0x283 JUMPI DUP1 PUSH4 0xE7336D14 EQ PUSH2 0x2B5 JUMPI PUSH2 0xE8 JUMP JUMPDEST DUP1 PUSH4 0x58A6F4CA EQ PUSH2 0x1CA JUMPI DUP1 PUSH4 0x91D14854 EQ PUSH2 0x1E8 JUMPI DUP1 PUSH4 0xB02B4A2F EQ PUSH2 0x218 JUMPI PUSH2 0xE8 JUMP JUMPDEST DUP1 PUSH4 0x27A6D1D7 GT PUSH2 0xC6 JUMPI DUP1 PUSH4 0x27A6D1D7 EQ PUSH2 0x158 JUMPI DUP1 PUSH4 0x2A0ACC6A EQ PUSH2 0x174 JUMPI DUP1 PUSH4 0x2F2FF15D EQ PUSH2 0x192 JUMPI DUP1 PUSH4 0x3EFAEA1F EQ PUSH2 0x1AE JUMPI PUSH2 0xE8 JUMP JUMPDEST DUP1 PUSH4 0x180AEDF3 EQ PUSH2 0xEC JUMPI DUP1 PUSH4 0x1B2DF850 EQ PUSH2 0x11E JUMPI DUP1 PUSH4 0x1E01ABCA EQ PUSH2 0x13C JUMPI JUMPDEST PUSH0 PUSH0 REVERT JUMPDEST PUSH2 0x106 PUSH1 0x4 DUP1 CALLDATASIZE SUB DUP2 ADD SWAP1 PUSH2 0x101 SWAP2 SWAP1 PUSH2 0x1394 JUMP JUMPDEST PUSH2 0x2D3 JUMP JUMPDEST PUSH1 0x40 MLOAD PUSH2 0x115 SWAP4 SWAP3 SWAP2 SWAP1 PUSH2 0x1488 JUMP JUMPDEST PUSH1 0x40 MLOAD DUP1 SWAP2 SUB SWAP1 RETURN JUMPDEST PUSH2 0x126 PUSH2 0x3BA JUMP JUMPDEST PUSH1 0x40 MLOAD PUSH2 0x133 SWAP2 SWAP1 PUSH2 0x14DC JUMP JUMPDEST PUSH1 0x40 MLOAD DUP1 SWAP2 SUB SWAP1 RETURN JUMPDEST PUSH2 0x156 PUSH1 0x4 DUP1 CALLDATASIZE SUB DUP2 ADD SWAP1 PUSH2 0x151 SWAP2 SWAP1 PUSH2 0x1394 JUMP JUMPDEST PUSH2 0x3DE JUMP JUMPDEST STOP JUMPDEST PUSH2 0x172 PUSH1 0x4 DUP1 CALLDATASIZE SUB DUP2 ADD SWAP1 PUSH2 0x16D SWAP2 SWAP1 PUSH2 0x1556 JUMP JUMPDEST PUSH2 0x5D0 JUMP JUMPDEST STOP JUMPDEST PUSH2 0x17C PUSH2 0x803 JUMP JUMPDEST PUSH1 0x40 MLOAD PUSH2 0x189 SWAP2 SWAP1 PUSH2 0x14DC JUMP JUMPDEST PUSH1 0x40 MLOAD DUP1 SWAP2 SUB SWAP1 RETURN JUMPDEST PUSH2 0x1AC PUSH1 0x4 DUP1 CALLDATASIZE SUB DUP2 ADD SWAP1 PUSH2 0x1A7 SWAP2 SWAP1 PUSH2 0x15F5 JUMP JUMPDEST PUSH2 0x827 JUMP JUMPDEST STOP JUMPDEST PUSH2 0x1C8 PUSH1 0x4 DUP1 CALLDATASIZE SUB DUP2 ADD SWAP1 PUSH2 0x1C3 SWAP2 SWAP1 PUSH2 0x1633 JUMP JUMPDEST PUSH2 0xAB3 JUMP JUMPDEST STOP JUMPDEST PUSH2 0x1D2 PUSH2 0xD6E JUMP JUMPDEST PUSH1 0x40 MLOAD PUSH2 0x1DF SWAP2 SWAP1 PUSH2 0x169F JUMP JUMPDEST PUSH1 0x40 MLOAD DUP1 SWAP2 SUB SWAP1 RETURN JUMPDEST PUSH2 0x202 PUSH1 0x4 DUP1 CALLDATASIZE SUB DUP2 ADD SWAP1 PUSH2 0x1FD SWAP2 SWAP1 PUSH2 0x15F5 JUMP JUMPDEST PUSH2 0xD7A JUMP JUMPDEST PUSH1 0x40 MLOAD PUSH2 0x20F SWAP2 SWAP1 PUSH2 0x16B8 JUMP JUMPDEST PUSH1 0x40 MLOAD DUP1 SWAP2 SUB SWAP1 RETURN JUMPDEST PUSH2 0x220 PUSH2 0xDDB JUMP JUMPDEST PUSH1 0x40 MLOAD PUSH2 0x22D SWAP2 SWAP1 PUSH2 0x169F JUMP JUMPDEST PUSH1 0x40 MLOAD DUP1 SWAP2 SUB SWAP1 RETURN JUMPDEST PUSH2 0x250 PUSH1 0x4 DUP1 CALLDATASIZE SUB DUP2 ADD SWAP1 PUSH2 0x24B SWAP2 SWAP1 PUSH2 0x1394 JUMP JUMPDEST PUSH2 0xDE7 JUMP JUMPDEST PUSH1 0x40 MLOAD PUSH2 0x25E SWAP3 SWAP2 SWAP1 PUSH2 0x16D1 JUMP JUMPDEST PUSH1 0x40 MLOAD DUP1 SWAP2 SUB SWAP1 RETURN JUMPDEST PUSH2 0x281 PUSH1 0x4 DUP1 CALLDATASIZE SUB DUP2 ADD SWAP1 PUSH2 0x27C SWAP2 SWAP1 PUSH2 0x15F5 JUMP JUMPDEST PUSH2 0xFB6 JUMP JUMPDEST STOP JUMPDEST PUSH2 0x29D PUSH1 0x4 DUP1 CALLDATASIZE SUB DUP2 ADD SWAP1 PUSH2 0x298 SWAP2 SWAP1 PUSH2 0x1394 JUMP JUMPDEST PUSH2 0x11B0 JUMP JUMPDEST PUSH1 0x40 MLOAD PUSH2 0x2AC SWAP4 SWAP3 SWAP2 SWAP1 PUSH2 0x16FF JUMP JUMPDEST PUSH1 0x40 MLOAD DUP1 SWAP2 SUB SWAP1 RETURN JUMPDEST PUSH2 0x2BD PUSH2 0x128A JUMP JUMPDEST PUSH1 0x40 MLOAD PUSH2 0x2CA SWAP2 SWAP1 PUSH2 0x14DC JUMP JUMPDEST PUSH1 0x40 MLOAD DUP1 SWAP2 SUB SWAP1 RETURN JUMPDEST PUSH1 0x1 DUP2 DUP2 SLOAD DUP2 LT PUSH2 0x2E2 JUMPI PUSH0 DUP1 REVERT JUMPDEST SWAP1 PUSH0 MSTORE PUSH1 0x20 PUSH0 KECCAK256 SWAP1 PUSH1 0x2 MUL ADD PUSH0 SWAP2 POP SWAP1 POP DUP1 PUSH0 ADD DUP1 SLOAD PUSH2 0x301 SWAP1 PUSH2 0x1768 JUMP JUMPDEST DUP1 PUSH1 0x1F ADD PUSH1 0x20 DUP1 SWAP2 DIV MUL PUSH1 0x20 ADD PUSH1 0x40 MLOAD SWAP1 DUP2 ADD PUSH1 0x40 MSTORE DUP1 SWAP3 SWAP2 SWAP1 DUP2 DUP2 MSTORE PUSH1 0x20 ADD DUP3 DUP1 SLOAD PUSH2 0x32D SWAP1 PUSH2 0x1768 JUMP JUMPDEST DUP1 ISZERO PUSH2 0x378 JUMPI DUP1 PUSH1 0x1F LT PUSH2 0x34F JUMPI PUSH2 0x100 DUP1 DUP4 SLOAD DIV MUL DUP4 MSTORE SWAP2 PUSH1 0x20 ADD SWAP2 PUSH2 0x378 JUMP JUMPDEST DUP3 ADD SWAP2 SWAP1 PUSH0 MSTORE PUSH1 0x20 PUSH0 KECCAK256 SWAP1 JUMPDEST DUP2 SLOAD DUP2 MSTORE SWAP1 PUSH1 0x1 ADD SWAP1 PUSH1 0x20 ADD DUP1 DUP4 GT PUSH2 0x35B JUMPI DUP3 SWAP1 SUB PUSH1 0x1F AND DUP3 ADD SWAP2 JUMPDEST POP POP POP POP POP SWAP1 DUP1 PUSH1 0x1 ADD PUSH0 SWAP1 SLOAD SWAP1 PUSH2 0x100 EXP SWAP1 DIV PUSH20 0xFFFFFFFFFFFFFFFFFFFFFFFFFFFFFFFFFFFFFFFF AND SWAP1 DUP1 PUSH1 0x1 ADD PUSH1 0x14 SWAP1 SLOAD SWAP1 PUSH2 0x100 EXP SWAP1 DIV PUSH1 0xFF AND SWAP1 POP DUP4 JUMP JUMPDEST PUSH32 0xAF290D8680820AAD922855F39B306097B20E28774D6C1AD35A20325630C3A02C DUP2 JUMP JUMPDEST PUSH32 0xAF290D8680820AAD922855F39B306097B20E28774D6C1AD35A20325630C3A02C PUSH0 PUSH0 DUP3 DUP2 MSTORE PUSH1 0x20 ADD SWAP1 DUP2 MSTORE PUSH1 0x20 ADD PUSH0 KECCAK256 PUSH0 CALLER PUSH20 0xFFFFFFFFFFFFFFFFFFFFFFFFFFFFFFFFFFFFFFFF AND PUSH20 0xFFFFFFFFFFFFFFFFFFFFFFFFFFFFFFFFFFFFFFFF AND DUP2 MSTORE PUSH1 0x20 ADD SWAP1 DUP2 MSTORE PUSH1 0x20 ADD PUSH0 KECCAK256 PUSH0 SWAP1 SLOAD SWAP1 PUSH2 0x100 EXP SWAP1 DIV PUSH1 0xFF AND PUSH2 0x496 JUMPI PUSH1 0x40 MLOAD PUSH32 0x8C379A000000000000000000000000000000000000000000000000000000000 DUP2 MSTORE PUSH1 0x4 ADD PUSH2 0x48D SWAP1 PUSH2 0x17E2 JUMP JUMPDEST PUSH1 0x40 MLOAD DUP1 SWAP2 SUB SWAP1 REVERT JUMPDEST PUSH1 0x1 DUP1 SLOAD SWAP1 POP DUP3 LT PUSH2 0x4DD JUMPI PUSH1 0x40 MLOAD PUSH32 0x8C379A000000000000000000000000000000000000000000000000000000000 DUP2 MSTORE PUSH1 0x4 ADD PUSH2 0x4D4 SWAP1 PUSH2 0x184A JUMP JUMPDEST PUSH1 0x40 MLOAD DUP1 SWAP2 SUB SWAP1 REVERT JUMPDEST PUSH1 0x1 DUP3 DUP2 SLOAD DUP2 LT PUSH2 0x4F1 JUMPI PUSH2 0x4F0 PUSH2 0x1868 JUMP JUMPDEST JUMPDEST SWAP1 PUSH0 MSTORE PUSH1 0x20 PUSH0 KECCAK256 SWAP1 PUSH1 0x2 MUL ADD PUSH1 0x1 ADD PUSH1 0x14 SWAP1 SLOAD SWAP1 PUSH2 0x100 EXP SWAP1 DIV PUSH1 0xFF AND PUSH2 0x54D JUMPI PUSH1 0x40 MLOAD PUSH32 0x8C379A000000000000000000000000000000000000000000000000000000000 DUP2 MSTORE PUSH1 0x4 ADD PUSH2 0x544 SWAP1 PUSH2 0x18DF JUMP JUMPDEST PUSH1 0x40 MLOAD DUP1 SWAP2 SUB SWAP1 REVERT JUMPDEST PUSH0 PUSH1 0x1 DUP4 DUP2 SLOAD DUP2 LT PUSH2 0x562 JUMPI PUSH2 0x561 PUSH2 0x1868 JUMP JUMPDEST JUMPDEST SWAP1 PUSH0 MSTORE PUSH1 0x20 PUSH0 KECCAK256 SWAP1 PUSH1 0x2 MUL ADD PUSH1 0x1 ADD PUSH1 0x14 PUSH2 0x100 EXP DUP2 SLOAD DUP2 PUSH1 0xFF MUL NOT AND SWAP1 DUP4 ISZERO ISZERO MUL OR SWAP1 SSTORE POP CALLER PUSH20 0xFFFFFFFFFFFFFFFFFFFFFFFFFFFFFFFFFFFFFFFF AND DUP3 PUSH32 0x225E8602D919485E9A54C796E7CEB40E6AD02E5BCC5DCE07355D117713E5166C PUSH1 0x40 MLOAD PUSH1 0x40 MLOAD DUP1 SWAP2 SUB SWAP1 LOG3 POP POP JUMP JUMPDEST PUSH32 0xAF290D8680820AAD922855F39B306097B20E28774D6C1AD35A20325630C3A02C PUSH0 PUSH0 DUP3 DUP2 MSTORE PUSH1 0x20 ADD SWAP1 DUP2 MSTORE PUSH1 0x20 ADD PUSH0 KECCAK256 PUSH0 CALLER PUSH20 0xFFFFFFFFFFFFFFFFFFFFFFFFFFFFFFFFFFFFFFFF AND PUSH20 0xFFFFFFFFFFFFFFFFFFFFFFFFFFFFFFFFFFFFFFFF AND DUP2 MSTORE PUSH1 0x20 ADD SWAP1 DUP2 MSTORE PUSH1 0x20 ADD PUSH0 KECCAK256 PUSH0 SWAP1 SLOAD SWAP1 PUSH2 0x100 EXP SWAP1 DIV PUSH1 0xFF AND PUSH2 0x688 JUMPI PUSH1 0x40 MLOAD PUSH32 0x8C379A000000000000000000000000000000000000000000000000000000000 DUP2 MSTORE PUSH1 0x4 ADD PUSH2 0x67F SWAP1 PUSH2 0x17E2 JUMP JUMPDEST PUSH1 0x40 MLOAD DUP1 SWAP2 SUB SWAP1 REVERT JUMPDEST PUSH0 PUSH1 0x1 DUP1 SLOAD SWAP1 POP SWAP1 POP PUSH1 0x1 PUSH1 0x40 MLOAD DUP1 PUSH1 0x60 ADD PUSH1 0x40 MSTORE DUP1 DUP7 DUP7 DUP1 DUP1 PUSH1 0x1F ADD PUSH1 0x20 DUP1 SWAP2 DIV MUL PUSH1 0x20 ADD PUSH1 0x40 MLOAD SWAP1 DUP2 ADD PUSH1 0x40 MSTORE DUP1 SWAP4 SWAP3 SWAP2 SWAP1 DUP2 DUP2 MSTORE PUSH1 0x20 ADD DUP4 DUP4 DUP1 DUP3 DUP5 CALLDATACOPY PUSH0 DUP2 DUP5 ADD MSTORE PUSH1 0x1F NOT PUSH1 0x1F DUP3 ADD AND SWAP1 POP DUP1 DUP4 ADD SWAP3 POP POP POP POP POP POP POP DUP2 MSTORE PUSH1 0x20 ADD CALLER PUSH20 0xFFFFFFFFFFFFFFFFFFFFFFFFFFFFFFFFFFFFFFFF AND DUP2 MSTORE PUSH1 0x20 ADD PUSH1 0x1 ISZERO ISZERO DUP2 MSTORE POP SWAP1 DUP1 PUSH1 0x1 DUP2 SLOAD ADD DUP1 DUP3 SSTORE DUP1 SWAP2 POP POP PUSH1 0x1 SWAP1 SUB SWAP1 PUSH0 MSTORE PUSH1 0x20 PUSH0 KECCAK256 SWAP1 PUSH1 0x2 MUL ADD PUSH0 SWAP1 SWAP2 SWAP1 SWAP2 SWAP1 SWAP2 POP PUSH0 DUP3 ADD MLOAD DUP2 PUSH0 ADD SWAP1 DUP2 PUSH2 0x743 SWAP2 SWAP1 PUSH2 0x1ACA JUMP JUMPDEST POP PUSH1 0x20 DUP3 ADD MLOAD DUP2 PUSH1 0x1 ADD PUSH0 PUSH2 0x100 EXP DUP2 SLOAD DUP2 PUSH20 0xFFFFFFFFFFFFFFFFFFFFFFFFFFFFFFFFFFFFFFFF MUL NOT AND SWAP1 DUP4 PUSH20 0xFFFFFFFFFFFFFFFFFFFFFFFFFFFFFFFFFFFFFFFF AND MUL OR SWAP1 SSTORE POP PUSH1 0x40 DUP3 ADD MLOAD DUP2 PUSH1 0x1 ADD PUSH1 0x14 PUSH2 0x100 EXP DUP2 SLOAD DUP2 PUSH1 0xFF MUL NOT AND SWAP1 DUP4 ISZERO ISZERO MUL OR SWAP1 SSTORE POP POP POP CALLER PUSH20 0xFFFFFFFFFFFFFFFFFFFFFFFFFFFFFFFFFFFFFFFF AND DUP2 PUSH32 0x4D735A55EF1592186E3DE98CFDED1B75826F5B08A7D2777536AC6BCC9B5E8F2B DUP7 DUP7 PUSH1 0x40 MLOAD PUSH2 0x7F5 SWAP3 SWAP2 SWAP1 PUSH2 0x1BD3 JUMP JUMPDEST PUSH1 0x40 MLOAD DUP1 SWAP2 SUB SWAP1 LOG3 POP POP POP POP JUMP JUMPDEST PUSH32 0xDF8B4C520FFE197C5343C6F5AEC59570151EF9A492F2C624FD45DDDE6135EC42 DUP2 JUMP JUMPDEST PUSH32 0xDF8B4C520FFE197C5343C6F5AEC59570151EF9A492F2C624FD45DDDE6135EC42 PUSH0 PUSH0 DUP3 DUP2 MSTORE PUSH1 0x20 ADD SWAP1 DUP2 MSTORE PUSH1 0x20 ADD PUSH0 KECCAK256 PUSH0 CALLER PUSH20 0xFFFFFFFFFFFFFFFFFFFFFFFFFFFFFFFFFFFFFFFF AND PUSH20 0xFFFFFFFFFFFFFFFFFFFFFFFFFFFFFFFFFFFFFFFF AND DUP2 MSTORE PUSH1 0x20 ADD SWAP1 DUP2 MSTORE PUSH1 0x20 ADD PUSH0 KECCAK256 PUSH0 SWAP1 SLOAD SWAP1 PUSH2 0x100 EXP SWAP1 DIV PUSH1 0xFF AND PUSH2 0x8DF JUMPI PUSH1 0x40 MLOAD PUSH32 0x8C379A000000000000000000000000000000000000000000000000000000000 DUP2 MSTORE PUSH1 0x4 ADD PUSH2 0x8D6 SWAP1 PUSH2 0x17E2 JUMP JUMPDEST PUSH1 0x40 MLOAD DUP1 SWAP2 SUB SWAP1 REVERT JUMPDEST PUSH32 0xAF290D8680820AAD922855F39B306097B20E28774D6C1AD35A20325630C3A02C DUP4 EQ DUP1 PUSH2 0x92C JUMPI POP PUSH32 0x989B8681E34E5A140922589C8ECA8A05E6973C253A67CAAB2922847F87AA8BDE DUP4 EQ JUMPDEST PUSH2 0x96B JUMPI PUSH1 0x40 MLOAD PUSH32 0x8C379A000000000000000000000000000000000000000000000000000000000 DUP2 MSTORE PUSH1 0x4 ADD PUSH2 0x962 SWAP1 PUSH2 0x1C3F JUMP JUMPDEST PUSH1 0x40 MLOAD DUP1 SWAP2 SUB SWAP1 REVERT JUMPDEST PUSH0 PUSH0 PUSH32 0xAF290D8680820AAD922855F39B306097B20E28774D6C1AD35A20325630C3A02C DUP2 MSTORE PUSH1 0x20 ADD SWAP1 DUP2 MSTORE PUSH1 0x20 ADD PUSH0 KECCAK256 PUSH0 DUP4 PUSH20 0xFFFFFFFFFFFFFFFFFFFFFFFFFFFFFFFFFFFFFFFF AND PUSH20 0xFFFFFFFFFFFFFFFFFFFFFFFFFFFFFFFFFFFFFFFF AND DUP2 MSTORE PUSH1 0x20 ADD SWAP1 DUP2 MSTORE PUSH1 0x20 ADD PUSH0 KECCAK256 PUSH0 SWAP1 SLOAD SWAP1 PUSH2 0x100 EXP SWAP1 DIV PUSH1 0xFF AND ISZERO DUP1 ISZERO PUSH2 0xA65 JUMPI POP PUSH0 PUSH0 PUSH32 0x989B8681E34E5A140922589C8ECA8A05E6973C253A67CAAB2922847F87AA8BDE DUP2 MSTORE PUSH1 0x20 ADD SWAP1 DUP2 MSTORE PUSH1 0x20 ADD PUSH0 KECCAK256 PUSH0 DUP4 PUSH20 0xFFFFFFFFFFFFFFFFFFFFFFFFFFFFFFFFFFFFFFFF AND PUSH20 0xFFFFFFFFFFFFFFFFFFFFFFFFFFFFFFFFFFFFFFFF AND DUP2 MSTORE PUSH1 0x20 ADD SWAP1 DUP2 MSTORE PUSH1 0x20 ADD PUSH0 KECCAK256 PUSH0 SWAP1 SLOAD SWAP1 PUSH2 0x100 EXP SWAP1 DIV PUSH1 0xFF AND ISZERO JUMPDEST PUSH2 0xAA4 JUMPI PUSH1 0x40 MLOAD PUSH32 0x8C379A000000000000000000000000000000000000000000000000000000000 DUP2 MSTORE PUSH1 0x4 ADD PUSH2 0xA9B SWAP1 PUSH2 0x1CA7 JUMP JUMPDEST PUSH1 0x40 MLOAD DUP1 SWAP2 SUB SWAP1 REVERT JUMPDEST PUSH2 0xAAE DUP4 DUP4 PUSH2 0x12AE JUMP JUMPDEST POP POP POP JUMP JUMPDEST PUSH32 0x989B8681E34E5A140922589C8ECA8A05E6973C253A67CAAB2922847F87AA8BDE PUSH0 PUSH0 DUP3 DUP2 MSTORE PUSH1 0x20 ADD SWAP1 DUP2 MSTORE PUSH1 0x20 ADD PUSH0 KECCAK256 PUSH0 CALLER PUSH20 0xFFFFFFFFFFFFFFFFFFFFFFFFFFFFFFFFFFFFFFFF AND PUSH20 0xFFFFFFFFFFFFFFFFFFFFFFFFFFFFFFFFFFFFFFFF AND DUP2 MSTORE PUSH1 0x20 ADD SWAP1 DUP2 MSTORE PUSH1 0x20 ADD PUSH0 KECCAK256 PUSH0 SWAP1 SLOAD SWAP1 PUSH2 0x100 EXP SWAP1 DIV PUSH1 0xFF AND PUSH2 0xB6B JUMPI PUSH1 0x40 MLOAD PUSH32 0x8C379A000000000000000000000000000000000000000000000000000000000 DUP2 MSTORE PUSH1 0x4 ADD PUSH2 0xB62 SWAP1 PUSH2 0x17E2 JUMP JUMPDEST PUSH1 0x40 MLOAD DUP1 SWAP2 SUB SWAP1 REVERT JUMPDEST PUSH1 0x1 DUP1 SLOAD SWAP1 POP DUP5 LT PUSH2 0xBB2 JUMPI PUSH1 0x40 MLOAD PUSH32 0x8C379A000000000000000000000000000000000000000000000000000000000 DUP2 MSTORE PUSH1 0x4 ADD PUSH2 0xBA9 SWAP1 PUSH2 0x184A JUMP JUMPDEST PUSH1 0x40 MLOAD DUP1 SWAP2 SUB SWAP1 REVERT JUMPDEST PUSH1 0x1 DUP5 DUP2 SLOAD DUP2 LT PUSH2 0xBC6 JUMPI PUSH2 0xBC5 PUSH2 0x1868 JUMP JUMPDEST JUMPDEST SWAP1 PUSH0 MSTORE PUSH1 0x20 PUSH0 KECCAK256 SWAP1 PUSH1 0x2 MUL ADD PUSH1 0x1 ADD PUSH1 0x14 SWAP1 SLOAD SWAP1 PUSH2 0x100 EXP SWAP1 DIV PUSH1 0xFF AND PUSH2 0xC22 JUMPI PUSH1 0x40 MLOAD PUSH32 0x8C379A000000000000000000000000000000000000000000000000000000000 DUP2 MSTORE PUSH1 0x4 ADD PUSH2 0xC19 SWAP1 PUSH2 0x1D0F JUMP JUMPDEST PUSH1 0x40 MLOAD DUP1 SWAP2 SUB SWAP1 REVERT JUMPDEST PUSH1 0x2 PUSH1 0x40 MLOAD DUP1 PUSH1 0x60 ADD PUSH1 0x40 MSTORE DUP1 CALLER PUSH20 0xFFFFFFFFFFFFFFFFFFFFFFFFFFFFFFFFFFFFFFFF AND DUP2 MSTORE PUSH1 0x20 ADD DUP7 DUP2 MSTORE PUSH1 0x20 ADD DUP6 DUP6 DUP1 DUP1 PUSH1 0x1F ADD PUSH1 0x20 DUP1 SWAP2 DIV MUL PUSH1 0x20 ADD PUSH1 0x40 MLOAD SWAP1 DUP2 ADD PUSH1 0x40 MSTORE DUP1 SWAP4 SWAP3 SWAP2 SWAP1 DUP2 DUP2 MSTORE PUSH1 0x20 ADD DUP4 DUP4 DUP1 DUP3 DUP5 CALLDATACOPY PUSH0 DUP2 DUP5 ADD MSTORE PUSH1 0x1F NOT PUSH1 0x1F DUP3 ADD AND SWAP1 POP DUP1 DUP4 ADD SWAP3 POP POP POP POP POP POP POP DUP2 MSTORE POP SWAP1 DUP1 PUSH1 0x1 DUP2 SLOAD ADD DUP1 DUP3 SSTORE DUP1 SWAP2 POP POP PUSH1 0x1 SWAP1 SUB SWAP1 PUSH0 MSTORE PUSH1 0x20 PUSH0 KECCAK256 SWAP1 PUSH1 0x3 MUL ADD PUSH0 SWAP1 SWAP2 SWAP1 SWAP2 SWAP1 SWAP2 POP PUSH0 DUP3 ADD MLOAD DUP2 PUSH0 ADD PUSH0 PUSH2 0x100 EXP DUP2 SLOAD DUP2 PUSH20 0xFFFFFFFFFFFFFFFFFFFFFFFFFFFFFFFFFFFFFFFF MUL NOT AND SWAP1 DUP4 PUSH20 0xFFFFFFFFFFFFFFFFFFFFFFFFFFFFFFFFFFFFFFFF AND MUL OR SWAP1 SSTORE POP PUSH1 0x20 DUP3 ADD MLOAD DUP2 PUSH1 0x1 ADD SSTORE PUSH1 0x40 DUP3 ADD MLOAD DUP2 PUSH1 0x2 ADD SWAP1 DUP2 PUSH2 0xD21 SWAP2 SWAP1 PUSH2 0x1ACA JUMP JUMPDEST POP POP POP CALLER PUSH20 0xFFFFFFFFFFFFFFFFFFFFFFFFFFFFFFFFFFFFFFFF AND DUP5 PUSH32 0x394B2F46E841D2B670718E98A15DFB76853ABC5A8761449C74E9CBA62D901521 PUSH1 0x40 MLOAD PUSH1 0x40 MLOAD DUP1 SWAP2 SUB SWAP1 LOG3 POP POP POP POP JUMP JUMPDEST PUSH0 PUSH1 0x2 DUP1 SLOAD SWAP1 POP SWAP1 POP SWAP1 JUMP JUMPDEST PUSH0 PUSH0 PUSH0 DUP5 DUP2 MSTORE PUSH1 0x20 ADD SWAP1 DUP2 MSTORE PUSH1 0x20 ADD PUSH0 KECCAK256 PUSH0 DUP4 PUSH20 0xFFFFFFFFFFFFFFFFFFFFFFFFFFFFFFFFFFFFFFFF AND PUSH20 0xFFFFFFFFFFFFFFFFFFFFFFFFFFFFFFFFFFFFFFFF AND DUP2 MSTORE PUSH1 0x20 ADD SWAP1 DUP2 MSTORE PUSH1 0x20 ADD PUSH0 KECCAK256 PUSH0 SWAP1 SLOAD SWAP1 PUSH2 0x100 EXP SWAP1 DIV PUSH1 0xFF AND SWAP1 POP SWAP3 SWAP2 POP POP JUMP JUMPDEST PUSH0 PUSH1 0x1 DUP1 SLOAD SWAP1 POP SWAP1 POP SWAP1 JUMP JUMPDEST PUSH1 0x60 PUSH0 PUSH32 0x989B8681E34E5A140922589C8ECA8A05E6973C253A67CAAB2922847F87AA8BDE PUSH0 PUSH0 DUP3 DUP2 MSTORE PUSH1 0x20 ADD SWAP1 DUP2 MSTORE PUSH1 0x20 ADD PUSH0 KECCAK256 PUSH0 CALLER PUSH20 0xFFFFFFFFFFFFFFFFFFFFFFFFFFFFFFFFFFFFFFFF AND PUSH20 0xFFFFFFFFFFFFFFFFFFFFFFFFFFFFFFFFFFFFFFFF AND DUP2 MSTORE PUSH1 0x20 ADD SWAP1 DUP2 MSTORE PUSH1 0x20 ADD PUSH0 KECCAK256 PUSH0 SWAP1 SLOAD SWAP1 PUSH2 0x100 EXP SWAP1 DIV PUSH1 0xFF AND PUSH2 0xEA2 JUMPI PUSH1 0x40 MLOAD PUSH32 0x8C379A000000000000000000000000000000000000000000000000000000000 DUP2 MSTORE PUSH1 0x4 ADD PUSH2 0xE99 SWAP1 PUSH2 0x17E2 JUMP JUMPDEST PUSH1 0x40 MLOAD DUP1 SWAP2 SUB SWAP1 REVERT JUMPDEST PUSH1 0x1 DUP1 SLOAD SWAP1 POP DUP5 LT PUSH2 0xEE9 JUMPI PUSH1 0x40 MLOAD PUSH32 0x8C379A000000000000000000000000000000000000000000000000000000000 DUP2 MSTORE PUSH1 0x4 ADD PUSH2 0xEE0 SWAP1 PUSH2 0x184A JUMP JUMPDEST PUSH1 0x40 MLOAD DUP1 SWAP2 SUB SWAP1 REVERT JUMPDEST PUSH0 PUSH1 0x1 DUP6 DUP2 SLOAD DUP2 LT PUSH2 0xEFE JUMPI PUSH2 0xEFD PUSH2 0x1868 JUMP JUMPDEST JUMPDEST SWAP1 PUSH0 MSTORE PUSH1 0x20 PUSH0 KECCAK256 SWAP1 PUSH1 0x2 MUL ADD SWAP1 POP DUP1 PUSH0 ADD DUP2 PUSH1 0x1 ADD PUSH1 0x14 SWAP1 SLOAD SWAP1 PUSH2 0x100 EXP SWAP1 DIV PUSH1 0xFF AND DUP2 DUP1 SLOAD PUSH2 0xF2D SWAP1 PUSH2 0x1768 JUMP JUMPDEST DUP1 PUSH1 0x1F ADD PUSH1 0x20 DUP1 SWAP2 DIV MUL PUSH1 0x20 ADD PUSH1 0x40 MLOAD SWAP1 DUP2 ADD PUSH1 0x40 MSTORE DUP1 SWAP3 SWAP2 SWAP1 DUP2 DUP2 MSTORE PUSH1 0x20 ADD DUP3 DUP1 SLOAD PUSH2 0xF59 SWAP1 PUSH2 0x1768 JUMP JUMPDEST DUP1 ISZERO PUSH2 0xFA4 JUMPI DUP1 PUSH1 0x1F LT PUSH2 0xF7B JUMPI PUSH2 0x100 DUP1 DUP4 SLOAD DIV MUL DUP4 MSTORE SWAP2 PUSH1 0x20 ADD SWAP2 PUSH2 0xFA4 JUMP JUMPDEST DUP3 ADD SWAP2 SWAP1 PUSH0 MSTORE PUSH1 0x20 PUSH0 KECCAK256 SWAP1 JUMPDEST DUP2 SLOAD DUP2 MSTORE SWAP1 PUSH1 0x1 ADD SWAP1 PUSH1 0x20 ADD DUP1 DUP4 GT PUSH2 0xF87 JUMPI DUP3 SWAP1 SUB PUSH1 0x1F AND DUP3 ADD SWAP2 JUMPDEST POP POP POP POP POP SWAP2 POP SWAP4 POP SWAP4 POP POP POP SWAP2 POP SWAP2 JUMP JUMPDEST PUSH32 0xDF8B4C520FFE197C5343C6F5AEC59570151EF9A492F2C624FD45DDDE6135EC42 PUSH0 PUSH0 DUP3 DUP2 MSTORE PUSH1 0x20 ADD SWAP1 DUP2 MSTORE PUSH1 0x20 ADD PUSH0 KECCAK256 PUSH0 CALLER PUSH20 0xFFFFFFFFFFFFFFFFFFFFFFFFFFFFFFFFFFFFFFFF AND PUSH20 0xFFFFFFFFFFFFFFFFFFFFFFFFFFFFFFFFFFFFFFFF AND DUP2 MSTORE PUSH1 0x20 ADD SWAP1 DUP2 MSTORE PUSH1 0x20 ADD PUSH0 KECCAK256 PUSH0 SWAP1 SLOAD SWAP1 PUSH2 0x100 EXP SWAP1 DIV PUSH1 0xFF AND PUSH2 0x106E JUMPI PUSH1 0x40 MLOAD PUSH32 0x8C379A000000000000000000000000000000000000000000000000000000000 DUP2 MSTORE PUSH1 0x4 ADD PUSH2 0x1065 SWAP1 PUSH2 0x17E2 JUMP JUMPDEST PUSH1 0x40 MLOAD DUP1 SWAP2 SUB SWAP1 REVERT JUMPDEST PUSH0 PUSH0 DUP5 DUP2 MSTORE PUSH1 0x20 ADD SWAP1 DUP2 MSTORE PUSH1 0x20 ADD PUSH0 KECCAK256 PUSH0 DUP4 PUSH20 0xFFFFFFFFFFFFFFFFFFFFFFFFFFFFFFFFFFFFFFFF AND PUSH20 0xFFFFFFFFFFFFFFFFFFFFFFFFFFFFFFFFFFFFFFFF AND DUP2 MSTORE PUSH1 0x20 ADD SWAP1 DUP2 MSTORE PUSH1 0x20 ADD PUSH0 KECCAK256 PUSH0 SWAP1 SLOAD SWAP1 PUSH2 0x100 EXP SWAP1 DIV PUSH1 0xFF AND PUSH2 0x1105 JUMPI PUSH1 0x40 MLOAD PUSH32 0x8C379A000000000000000000000000000000000000000000000000000000000 DUP2 MSTORE PUSH1 0x4 ADD PUSH2 0x10FC SWAP1 PUSH2 0x1D77 JUMP JUMPDEST PUSH1 0x40 MLOAD DUP1 SWAP2 SUB SWAP1 REVERT JUMPDEST PUSH0 PUSH0 PUSH0 DUP6 DUP2 MSTORE PUSH1 0x20 ADD SWAP1 DUP2 MSTORE PUSH1 0x20 ADD PUSH0 KECCAK256 PUSH0 DUP5 PUSH20 0xFFFFFFFFFFFFFFFFFFFFFFFFFFFFFFFFFFFFFFFF AND PUSH20 0xFFFFFFFFFFFFFFFFFFFFFFFFFFFFFFFFFFFFFFFF AND DUP2 MSTORE PUSH1 0x20 ADD SWAP1 DUP2 MSTORE PUSH1 0x20 ADD PUSH0 KECCAK256 PUSH0 PUSH2 0x100 EXP DUP2 SLOAD DUP2 PUSH1 0xFF MUL NOT AND SWAP1 DUP4 ISZERO ISZERO MUL OR SWAP1 SSTORE POP DUP2 PUSH20 0xFFFFFFFFFFFFFFFFFFFFFFFFFFFFFFFFFFFFFFFF AND DUP4 PUSH32 0x155AAAFB6329A2098580462DF33EC4B7441B19729B9601C5FC17AE1CF99A8A52 PUSH1 0x40 MLOAD PUSH1 0x40 MLOAD DUP1 SWAP2 SUB SWAP1 LOG3 POP POP POP JUMP JUMPDEST PUSH1 0x2 DUP2 DUP2 SLOAD DUP2 LT PUSH2 0x11BF JUMPI PUSH0 DUP1 REVERT JUMPDEST SWAP1 PUSH0 MSTORE PUSH1 0x20 PUSH0 KECCAK256 SWAP1 PUSH1 0x3 MUL ADD PUSH0 SWAP2 POP SWAP1 POP DUP1 PUSH0 ADD PUSH0 SWAP1 SLOAD SWAP1 PUSH2 0x100 EXP SWAP1 DIV PUSH20 0xFFFFFFFFFFFFFFFFFFFFFFFFFFFFFFFFFFFFFFFF AND SWAP1 DUP1 PUSH1 0x1 ADD SLOAD SWAP1 DUP1 PUSH1 0x2 ADD DUP1 SLOAD PUSH2 0x1209 SWAP1 PUSH2 0x1768 JUMP JUMPDEST DUP1 PUSH1 0x1F ADD PUSH1 0x20 DUP1 SWAP2 DIV MUL PUSH1 0x20 ADD PUSH1 0x40 MLOAD SWAP1 DUP2 ADD PUSH1 0x40 MSTORE DUP1 SWAP3 SWAP2 SWAP1 DUP2 DUP2 MSTORE PUSH1 0x20 ADD DUP3 DUP1 SLOAD PUSH2 0x1235 SWAP1 PUSH2 0x1768 JUMP JUMPDEST DUP1 ISZERO PUSH2 0x1280 JUMPI DUP1 PUSH1 0x1F LT PUSH2 0x1257 JUMPI PUSH2 0x100 DUP1 DUP4 SLOAD DIV MUL DUP4 MSTORE SWAP2 PUSH1 0x20 ADD SWAP2 PUSH2 0x1280 JUMP JUMPDEST DUP3 ADD SWAP2 SWAP1 PUSH0 MSTORE PUSH1 0x20 PUSH0 KECCAK256 SWAP1 JUMPDEST DUP2 SLOAD DUP2 MSTORE SWAP1 PUSH1 0x1 ADD SWAP1 PUSH1 0x20 ADD DUP1 DUP4 GT PUSH2 0x1263 JUMPI DUP3 SWAP1 SUB PUSH1 0x1F AND DUP3 ADD SWAP2 JUMPDEST POP POP POP POP POP SWAP1 POP DUP4 JUMP JUMPDEST PUSH32 0x989B8681E34E5A140922589C8ECA8A05E6973C253A67CAAB2922847F87AA8BDE DUP2 JUMP JUMPDEST PUSH1 0x1 PUSH0 PUSH0 DUP5 DUP2 MSTORE PUSH1 0x20 ADD SWAP1 DUP2 MSTORE PUSH1 0x20 ADD PUSH0 KECCAK256 PUSH0 DUP4 PUSH20 0xFFFFFFFFFFFFFFFFFFFFFFFFFFFFFFFFFFFFFFFF AND PUSH20 0xFFFFFFFFFFFFFFFFFFFFFFFFFFFFFFFFFFFFFFFF AND DUP2 MSTORE PUSH1 0x20 ADD SWAP1 DUP2 MSTORE PUSH1 0x20 ADD PUSH0 KECCAK256 PUSH0 PUSH2 0x100 EXP DUP2 SLOAD DUP2 PUSH1 0xFF MUL NOT AND SWAP1 DUP4 ISZERO ISZERO MUL OR SWAP1 SSTORE POP DUP1 PUSH20 0xFFFFFFFFFFFFFFFFFFFFFFFFFFFFFFFFFFFFFFFF AND DUP3 PUSH32 0x2AE6A113C0ED5B78A53413FFBB7679881F11145CCFBA4FB92E863DFCD5A1D2F3 PUSH1 0x40 MLOAD PUSH1 0x40 MLOAD DUP1 SWAP2 SUB SWAP1 LOG3 POP POP JUMP JUMPDEST PUSH0 PUSH0 REVERT JUMPDEST PUSH0 PUSH0 REVERT JUMPDEST PUSH0 DUP2 SWAP1 POP SWAP2 SWAP1 POP JUMP JUMPDEST PUSH2 0x1373 DUP2 PUSH2 0x1361 JUMP JUMPDEST DUP2 EQ PUSH2 0x137D JUMPI PUSH0 PUSH0 REVERT JUMPDEST POP JUMP JUMPDEST PUSH0 DUP2 CALLDATALOAD SWAP1 POP PUSH2 0x138E DUP2 PUSH2 0x136A JUMP JUMPDEST SWAP3 SWAP2 POP POP JUMP JUMPDEST PUSH0 PUSH1 0x20 DUP3 DUP5 SUB SLT ISZERO PUSH2 0x13A9 JUMPI PUSH2 0x13A8 PUSH2 0x1359 JUMP JUMPDEST JUMPDEST PUSH0 PUSH2 0x13B6 DUP5 DUP3 DUP6 ADD PUSH2 0x1380 JUMP JUMPDEST SWAP2 POP POP SWAP3 SWAP2 POP POP JUMP JUMPDEST PUSH0 DUP2 MLOAD SWAP1 POP SWAP2 SWAP1 POP JUMP JUMPDEST PUSH0 DUP3 DUP3 MSTORE PUSH1 0x20 DUP3 ADD SWAP1 POP SWAP3 SWAP2 POP POP JUMP JUMPDEST DUP3 DUP2 DUP4 MCOPY PUSH0 DUP4 DUP4 ADD MSTORE POP POP POP JUMP JUMPDEST PUSH0 PUSH1 0x1F NOT PUSH1 0x1F DUP4 ADD AND SWAP1 POP SWAP2 SWAP1 POP JUMP JUMPDEST PUSH0 PUSH2 0x1401 DUP3 PUSH2 0x13BF JUMP JUMPDEST PUSH2 0x140B DUP2 DUP6 PUSH2 0x13C9 JUMP JUMPDEST SWAP4 POP PUSH2 0x141B DUP2 DUP6 PUSH1 0x20 DUP7 ADD PUSH2 0x13D9 JUMP JUMPDEST PUSH2 0x1424 DUP2 PUSH2 0x13E7 JUMP JUMPDEST DUP5 ADD SWAP2 POP POP SWAP3 SWAP2 POP POP JUMP JUMPDEST PUSH0 PUSH20 0xFFFFFFFFFFFFFFFFFFFFFFFFFFFFFFFFFFFFFFFF DUP3 AND SWAP1 POP SWAP2 SWAP1 POP JUMP JUMPDEST PUSH0 PUSH2 0x1458 DUP3 PUSH2 0x142F JUMP JUMPDEST SWAP1 POP SWAP2 SWAP1 POP JUMP JUMPDEST PUSH2 0x1468 DUP2 PUSH2 0x144E JUMP JUMPDEST DUP3 MSTORE POP POP JUMP JUMPDEST PUSH0 DUP2 ISZERO ISZERO SWAP1 POP SWAP2 SWAP1 POP JUMP JUMPDEST PUSH2 0x1482 DUP2 PUSH2 0x146E JUMP JUMPDEST DUP3 MSTORE POP POP JUMP JUMPDEST PUSH0 PUSH1 0x60 DUP3 ADD SWAP1 POP DUP2 DUP2 SUB PUSH0 DUP4 ADD MSTORE PUSH2 0x14A0 DUP2 DUP7 PUSH2 0x13F7 JUMP JUMPDEST SWAP1 POP PUSH2 0x14AF PUSH1 0x20 DUP4 ADD DUP6 PUSH2 0x145F JUMP JUMPDEST PUSH2 0x14BC PUSH1 0x40 DUP4 ADD DUP5 PUSH2 0x1479 JUMP JUMPDEST SWAP5 SWAP4 POP POP POP POP JUMP JUMPDEST PUSH0 DUP2 SWAP1 POP SWAP2 SWAP1 POP JUMP JUMPDEST PUSH2 0x14D6 DUP2 PUSH2 0x14C4 JUMP JUMPDEST DUP3 MSTORE POP POP JUMP JUMPDEST PUSH0 PUSH1 0x20 DUP3 ADD SWAP1 POP PUSH2 0x14EF PUSH0 DUP4 ADD DUP5 PUSH2 0x14CD JUMP JUMPDEST SWAP3 SWAP2 POP POP JUMP JUMPDEST PUSH0 PUSH0 REVERT JUMPDEST PUSH0 PUSH0 REVERT JUMPDEST PUSH0 PUSH0 REVERT JUMPDEST PUSH0 PUSH0 DUP4 PUSH1 0x1F DUP5 ADD SLT PUSH2 0x1516 JUMPI PUSH2 0x1515 PUSH2 0x14F5 JUMP JUMPDEST JUMPDEST DUP3 CALLDATALOAD SWAP1 POP PUSH8 0xFFFFFFFFFFFFFFFF DUP2 GT ISZERO PUSH2 0x1533 JUMPI PUSH2 0x1532 PUSH2 0x14F9 JUMP JUMPDEST JUMPDEST PUSH1 0x20 DUP4 ADD SWAP2 POP DUP4 PUSH1 0x1 DUP3 MUL DUP4 ADD GT ISZERO PUSH2 0x154F JUMPI PUSH2 0x154E PUSH2 0x14FD JUMP JUMPDEST JUMPDEST SWAP3 POP SWAP3 SWAP1 POP JUMP JUMPDEST PUSH0 PUSH0 PUSH1 0x20 DUP4 DUP6 SUB SLT ISZERO PUSH2 0x156C JUMPI PUSH2 0x156B PUSH2 0x1359 JUMP JUMPDEST JUMPDEST PUSH0 DUP4 ADD CALLDATALOAD PUSH8 0xFFFFFFFFFFFFFFFF DUP2 GT ISZERO PUSH2 0x1589 JUMPI PUSH2 0x1588 PUSH2 0x135D JUMP JUMPDEST JUMPDEST PUSH2 0x1595 DUP6 DUP3 DUP7 ADD PUSH2 0x1501 JUMP JUMPDEST SWAP3 POP SWAP3 POP POP SWAP3 POP SWAP3 SWAP1 POP JUMP JUMPDEST PUSH2 0x15AA DUP2 PUSH2 0x14C4 JUMP JUMPDEST DUP2 EQ PUSH2 0x15B4 JUMPI PUSH0 PUSH0 REVERT JUMPDEST POP JUMP JUMPDEST PUSH0 DUP2 CALLDATALOAD SWAP1 POP PUSH2 0x15C5 DUP2 PUSH2 0x15A1 JUMP JUMPDEST SWAP3 SWAP2 POP POP JUMP JUMPDEST PUSH2 0x15D4 DUP2 PUSH2 0x144E JUMP JUMPDEST DUP2 EQ PUSH2 0x15DE JUMPI PUSH0 PUSH0 REVERT JUMPDEST POP JUMP JUMPDEST PUSH0 DUP2 CALLDATALOAD SWAP1 POP PUSH2 0x15EF DUP2 PUSH2 0x15CB JUMP JUMPDEST SWAP3 SWAP2 POP POP JUMP JUMPDEST PUSH0 PUSH0 PUSH1 0x40 DUP4 DUP6 SUB SLT ISZERO PUSH2 0x160B JUMPI PUSH2 0x160A PUSH2 0x1359 JUMP JUMPDEST JUMPDEST PUSH0 PUSH2 0x1618 DUP6 DUP3 DUP7 ADD PUSH2 0x15B7 JUMP JUMPDEST SWAP3 POP POP PUSH1 0x20 PUSH2 0x1629 DUP6 DUP3 DUP7 ADD PUSH2 0x15E1 JUMP JUMPDEST SWAP2 POP POP SWAP3 POP SWAP3 SWAP1 POP JUMP JUMPDEST PUSH0 PUSH0 PUSH0 PUSH1 0x40 DUP5 DUP7 SUB SLT ISZERO PUSH2 0x164A JUMPI PUSH2 0x1649 PUSH2 0x1359 JUMP JUMPDEST JUMPDEST PUSH0 PUSH2 0x1657 DUP7 DUP3 DUP8 ADD PUSH2 0x1380 JUMP JUMPDEST SWAP4 POP POP PUSH1 0x20 DUP5 ADD CALLDATALOAD PUSH8 0xFFFFFFFFFFFFFFFF DUP2 GT ISZERO PUSH2 0x1678 JUMPI PUSH2 0x1677 PUSH2 0x135D JUMP JUMPDEST JUMPDEST PUSH2 0x1684 DUP7 DUP3 DUP8 ADD PUSH2 0x1501 JUMP JUMPDEST SWAP3 POP SWAP3 POP POP SWAP3 POP SWAP3 POP SWAP3 JUMP JUMPDEST PUSH2 0x1699 DUP2 PUSH2 0x1361 JUMP JUMPDEST DUP3 MSTORE POP POP JUMP JUMPDEST PUSH0 PUSH1 0x20 DUP3 ADD SWAP1 POP PUSH2 0x16B2 PUSH0 DUP4 ADD DUP5 PUSH2 0x1690 JUMP JUMPDEST SWAP3 SWAP2 POP POP JUMP JUMPDEST PUSH0 PUSH1 0x20 DUP3 ADD SWAP1 POP PUSH2 0x16CB PUSH0 DUP4 ADD DUP5 PUSH2 0x1479 JUMP JUMPDEST SWAP3 SWAP2 POP POP JUMP JUMPDEST PUSH0 PUSH1 0x40 DUP3 ADD SWAP1 POP DUP2 DUP2 SUB PUSH0 DUP4 ADD MSTORE PUSH2 0x16E9 DUP2 DUP6 PUSH2 0x13F7 JUMP JUMPDEST SWAP1 POP PUSH2 0x16F8 PUSH1 0x20 DUP4 ADD DUP5 PUSH2 0x1479 JUMP JUMPDEST SWAP4 SWAP3 POP POP POP JUMP JUMPDEST PUSH0 PUSH1 0x60 DUP3 ADD SWAP1 POP PUSH2 0x1712 PUSH0 DUP4 ADD DUP7 PUSH2 0x145F JUMP JUMPDEST PUSH2 0x171F PUSH1 0x20 DUP4 ADD DUP6 PUSH2 0x1690 JUMP JUMPDEST DUP2 DUP2 SUB PUSH1 0x40 DUP4 ADD MSTORE PUSH2 0x1731 DUP2 DUP5 PUSH2 0x13F7 JUMP JUMPDEST SWAP1 POP SWAP5 SWAP4 POP POP POP POP JUMP JUMPDEST PUSH32 0x4E487B7100000000000000000000000000000000000000000000000000000000 PUSH0 MSTORE PUSH1 0x22 PUSH1 0x4 MSTORE PUSH1 0x24 PUSH0 REVERT JUMPDEST PUSH0 PUSH1 0x2 DUP3 DIV SWAP1 POP PUSH1 0x1 DUP3 AND DUP1 PUSH2 0x177F JUMPI PUSH1 0x7F DUP3 AND SWAP2 POP JUMPDEST PUSH1 0x20 DUP3 LT DUP2 SUB PUSH2 0x1792 JUMPI PUSH2 0x1791 PUSH2 0x173B JUMP JUMPDEST JUMPDEST POP SWAP2 SWAP1 POP JUMP JUMPDEST PUSH32 0x4163636573732064656E69656400000000000000000000000000000000000000 PUSH0 DUP3 ADD MSTORE POP JUMP JUMPDEST PUSH0 PUSH2 0x17CC PUSH1 0xD DUP4 PUSH2 0x13C9 JUMP JUMPDEST SWAP2 POP PUSH2 0x17D7 DUP3 PUSH2 0x1798 JUMP JUMPDEST PUSH1 0x20 DUP3 ADD SWAP1 POP SWAP2 SWAP1 POP JUMP JUMPDEST PUSH0 PUSH1 0x20 DUP3 ADD SWAP1 POP DUP2 DUP2 SUB PUSH0 DUP4 ADD MSTORE PUSH2 0x17F9 DUP2 PUSH2 0x17C0 JUMP JUMPDEST SWAP1 POP SWAP2 SWAP1 POP JUMP JUMPDEST PUSH32 0x4A6F6220646F6573206E6F742065786973740000000000000000000000000000 PUSH0 DUP3 ADD MSTORE POP JUMP JUMPDEST PUSH0 PUSH2 0x1834 PUSH1 0x12 DUP4 PUSH2 0x13C9 JUMP JUMPDEST SWAP2 POP PUSH2 0x183F DUP3 PUSH2 0x1800 JUMP JUMPDEST PUSH1 0x20 DUP3 ADD SWAP1 POP SWAP2 SWAP1 POP JUMP JUMPDEST PUSH0 PUSH1 0x20 DUP3 ADD SWAP1 POP DUP2 DUP2 SUB PUSH0 DUP4 ADD MSTORE PUSH2 0x1861 DUP2 PUSH2 0x1828 JUMP JUMPDEST SWAP1 POP SWAP2 SWAP1 POP JUMP JUMPDEST PUSH32 0x4E487B7100000000000000000000000000000000000000000000000000000000 PUSH0 MSTORE PUSH1 0x32 PUSH1 0x4 MSTORE PUSH1 0x24 PUSH0 REVERT JUMPDEST PUSH32 0x4A6F6220616C726561647920636C6F7365640000000000000000000000000000 PUSH0 DUP3 ADD MSTORE POP JUMP JUMPDEST PUSH0 PUSH2 0x18C9 PUSH1 0x12 DUP4 PUSH2 0x13C9 JUMP JUMPDEST SWAP2 POP PUSH2 0x18D4 DUP3 PUSH2 0x1895 JUMP JUMPDEST PUSH1 0x20 DUP3 ADD SWAP1 POP SWAP2 SWAP1 POP JUMP JUMPDEST PUSH0 PUSH1 0x20 DUP3 ADD SWAP1 POP DUP2 DUP2 SUB PUSH0 DUP4 ADD MSTORE PUSH2 0x18F6 DUP2 PUSH2 0x18BD JUMP JUMPDEST SWAP1 POP SWAP2 SWAP1 POP JUMP JUMPDEST PUSH32 0x4E487B7100000000000000000000000000000000000000000000000000000000 PUSH0 MSTORE PUSH1 0x41 PUSH1 0x4 MSTORE PUSH1 0x24 PUSH0 REVERT JUMPDEST PUSH0 DUP2 SWAP1 POP DUP2 PUSH0 MSTORE PUSH1 0x20 PUSH0 KECCAK256 SWAP1 POP SWAP2 SWAP1 POP JUMP JUMPDEST PUSH0 PUSH1 0x20 PUSH1 0x1F DUP4 ADD DIV SWAP1 POP SWAP2 SWAP1 POP JUMP JUMPDEST PUSH0 DUP3 DUP3 SHL SWAP1 POP SWAP3 SWAP2 POP POP JUMP JUMPDEST PUSH0 PUSH1 0x8 DUP4 MUL PUSH2 0x1986 PUSH32 0xFFFFFFFFFFFFFFFFFFFFFFFFFFFFFFFFFFFFFFFFFFFFFFFFFFFFFFFFFFFFFFFF DUP3 PUSH2 0x194B JUMP JUMPDEST PUSH2 0x1990 DUP7 DUP4 PUSH2 0x194B JUMP JUMPDEST SWAP6 POP DUP1 NOT DUP5 AND SWAP4 POP DUP1 DUP7 AND DUP5 OR SWAP3 POP POP POP SWAP4 SWAP3 POP POP POP JUMP JUMPDEST PUSH0 DUP2 SWAP1 POP SWAP2 SWAP1 POP JUMP JUMPDEST PUSH0 PUSH2 0x19CB PUSH2 0x19C6 PUSH2 0x19C1 DUP5 PUSH2 0x1361 JUMP JUMPDEST PUSH2 0x19A8 JUMP JUMPDEST PUSH2 0x1361 JUMP JUMPDEST SWAP1 POP SWAP2 SWAP1 POP JUMP JUMPDEST PUSH0 DUP2 SWAP1 POP SWAP2 SWAP1 POP JUMP JUMPDEST PUSH2 0x19E4 DUP4 PUSH2 0x19B1 JUMP JUMPDEST PUSH2 0x19F8 PUSH2 0x19F0 DUP3 PUSH2 0x19D2 JUMP JUMPDEST DUP5 DUP5 SLOAD PUSH2 0x1957 JUMP JUMPDEST DUP3 SSTORE POP POP POP POP JUMP JUMPDEST PUSH0 PUSH0 SWAP1 POP SWAP1 JUMP JUMPDEST PUSH2 0x1A0F PUSH2 0x1A00 JUMP JUMPDEST PUSH2 0x1A1A DUP2 DUP5 DUP5 PUSH2 0x19DB JUMP JUMPDEST POP POP POP JUMP JUMPDEST JUMPDEST DUP2 DUP2 LT ISZERO PUSH2 0x1A3D JUMPI PUSH2 0x1A32 PUSH0 DUP3 PUSH2 0x1A07 JUMP JUMPDEST PUSH1 0x1 DUP2 ADD SWAP1 POP PUSH2 0x1A20 JUMP JUMPDEST POP POP JUMP JUMPDEST PUSH1 0x1F DUP3 GT ISZERO PUSH2 0x1A82 JUMPI PUSH2 0x1A53 DUP2 PUSH2 0x192A JUMP JUMPDEST PUSH2 0x1A5C DUP5 PUSH2 0x193C JUMP JUMPDEST DUP2 ADD PUSH1 0x20 DUP6 LT ISZERO PUSH2 0x1A6B JUMPI DUP2 SWAP1 POP JUMPDEST PUSH2 0x1A7F PUSH2 0x1A77 DUP6 PUSH2 0x193C JUMP JUMPDEST DUP4 ADD DUP3 PUSH2 0x1A1F JUMP JUMPDEST POP POP JUMPDEST POP POP POP JUMP JUMPDEST PUSH0 DUP3 DUP3 SHR SWAP1 POP SWAP3 SWAP2 POP POP JUMP JUMPDEST PUSH0 PUSH2 0x1AA2 PUSH0 NOT DUP5 PUSH1 0x8 MUL PUSH2 0x1A87 JUMP JUMPDEST NOT DUP1 DUP4 AND SWAP2 POP POP SWAP3 SWAP2 POP POP JUMP JUMPDEST PUSH0 PUSH2 0x1ABA DUP4 DUP4 PUSH2 0x1A93 JUMP JUMPDEST SWAP2 POP DUP3 PUSH1 0x2 MUL DUP3 OR SWAP1 POP SWAP3 SWAP2 POP POP JUMP JUMPDEST PUSH2 0x1AD3 DUP3 PUSH2 0x13BF JUMP JUMPDEST PUSH8 0xFFFFFFFFFFFFFFFF DUP2 GT ISZERO PUSH2 0x1AEC JUMPI PUSH2 0x1AEB PUSH2 0x18FD JUMP JUMPDEST JUMPDEST PUSH2 0x1AF6 DUP3 SLOAD PUSH2 0x1768 JUMP JUMPDEST PUSH2 0x1B01 DUP3 DUP3 DUP6 PUSH2 0x1A41 JUMP JUMPDEST PUSH0 PUSH1 0x20 SWAP1 POP PUSH1 0x1F DUP4 GT PUSH1 0x1 DUP2 EQ PUSH2 0x1B32 JUMPI PUSH0 DUP5 ISZERO PUSH2 0x1B20 JUMPI DUP3 DUP8 ADD MLOAD SWAP1 POP JUMPDEST PUSH2 0x1B2A DUP6 DUP3 PUSH2 0x1AAF JUMP JUMPDEST DUP7 SSTORE POP PUSH2 0x1B91 JUMP JUMPDEST PUSH1 0x1F NOT DUP5 AND PUSH2 0x1B40 DUP7 PUSH2 0x192A JUMP JUMPDEST PUSH0 JUMPDEST DUP3 DUP2 LT ISZERO PUSH2 0x1B67 JUMPI DUP5 DUP10 ADD MLOAD DUP3 SSTORE PUSH1 0x1 DUP3 ADD SWAP2 POP PUSH1 0x20 DUP6 ADD SWAP5 POP PUSH1 0x20 DUP2 ADD SWAP1 POP PUSH2 0x1B42 JUMP JUMPDEST DUP7 DUP4 LT ISZERO PUSH2 0x1B84 JUMPI DUP5 DUP10 ADD MLOAD PUSH2 0x1B80 PUSH1 0x1F DUP10 AND DUP3 PUSH2 0x1A93 JUMP JUMPDEST DUP4 SSTORE POP JUMPDEST PUSH1 0x1 PUSH1 0x2 DUP9 MUL ADD DUP9 SSTORE POP POP POP JUMPDEST POP POP POP POP POP POP JUMP JUMPDEST DUP3 DUP2 DUP4 CALLDATACOPY PUSH0 DUP4 DUP4 ADD MSTORE POP POP POP JUMP JUMPDEST PUSH0 PUSH2 0x1BB2 DUP4 DUP6 PUSH2 0x13C9 JUMP JUMPDEST SWAP4 POP PUSH2 0x1BBF DUP4 DUP6 DUP5 PUSH2 0x1B99 JUMP JUMPDEST PUSH2 0x1BC8 DUP4 PUSH2 0x13E7 JUMP JUMPDEST DUP5 ADD SWAP1 POP SWAP4 SWAP3 POP POP POP JUMP JUMPDEST PUSH0 PUSH1 0x20 DUP3 ADD SWAP1 POP DUP2 DUP2 SUB PUSH0 DUP4 ADD MSTORE PUSH2 0x1BEC DUP2 DUP5 DUP7 PUSH2 0x1BA7 JUMP JUMPDEST SWAP1 POP SWAP4 SWAP3 POP POP POP JUMP JUMPDEST PUSH32 0x496E76616C696420726F6C650000000000000000000000000000000000000000 PUSH0 DUP3 ADD MSTORE POP JUMP JUMPDEST PUSH0 PUSH2 0x1C29 PUSH1 0xC DUP4 PUSH2 0x13C9 JUMP JUMPDEST SWAP2 POP PUSH2 0x1C34 DUP3 PUSH2 0x1BF5 JUMP JUMPDEST PUSH1 0x20 DUP3 ADD SWAP1 POP SWAP2 SWAP1 POP JUMP JUMPDEST PUSH0 PUSH1 0x20 DUP3 ADD SWAP1 POP DUP2 DUP2 SUB PUSH0 DUP4 ADD MSTORE PUSH2 0x1C56 DUP2 PUSH2 0x1C1D JUMP JUMPDEST SWAP1 POP SWAP2 SWAP1 POP JUMP JUMPDEST PUSH32 0x416C726561647920686173206120726F6C650000000000000000000000000000 PUSH0 DUP3 ADD MSTORE POP JUMP JUMPDEST PUSH0 PUSH2 0x1C91 PUSH1 0x12 DUP4 PUSH2 0x13C9 JUMP JUMPDEST SWAP2 POP PUSH2 0x1C9C DUP3 PUSH2 0x1C5D JUMP JUMPDEST PUSH1 0x20 DUP3 ADD SWAP1 POP SWAP2 SWAP1 POP JUMP JUMPDEST PUSH0 PUSH1 0x20 DUP3 ADD SWAP1 POP DUP2 DUP2 SUB PUSH0 DUP4 ADD MSTORE PUSH2 0x1CBE DUP2 PUSH2 0x1C85 JUMP JUMPDEST SWAP1 POP SWAP2 SWAP1 POP JUMP JUMPDEST PUSH32 0x4A6F6220697320636C6F73656400000000000000000000000000000000000000 PUSH0 DUP3 ADD MSTORE POP JUMP JUMPDEST PUSH0 PUSH2 0x1CF9 PUSH1 0xD DUP4 PUSH2 0x13C9 JUMP JUMPDEST SWAP2 POP PUSH2 0x1D04 DUP3 PUSH2 0x1CC5 JUMP JUMPDEST PUSH1 0x20 DUP3 ADD SWAP1 POP SWAP2 SWAP1 POP JUMP JUMPDEST PUSH0 PUSH1 0x20 DUP3 ADD SWAP1 POP DUP2 DUP2 SUB PUSH0 DUP4 ADD MSTORE PUSH2 0x1D26 DUP2 PUSH2 0x1CED JUMP JUMPDEST SWAP1 POP SWAP2 SWAP1 POP JUMP JUMPDEST PUSH32 0x4163636F756E7420646F6573206E6F742068617665207468697320726F6C6500 PUSH0 DUP3 ADD MSTORE POP JUMP JUMPDEST PUSH0 PUSH2 0x1D61 PUSH1 0x1F DUP4 PUSH2 0x13C9 JUMP JUMPDEST SWAP2 POP PUSH2 0x1D6C DUP3 PUSH2 0x1D2D JUMP JUMPDEST PUSH1 0x20 DUP3 ADD SWAP1 POP SWAP2 SWAP1 POP JUMP JUMPDEST PUSH0 PUSH1 0x20 DUP3 ADD SWAP1 POP DUP2 DUP2 SUB PUSH0 DUP4 ADD MSTORE PUSH2 0x1D8E DUP2 PUSH2 0x1D55 JUMP JUMPDEST SWAP1 POP SWAP2 SWAP1 POP JUMP INVALID LOG2 PUSH5 0x6970667358 0x22 SLT KECCAK256 DUP2 TSTORE CALLDATASIZE 0xDC 0xE 0xAF 0xC5 EXTCALL ISZERO SWAP11 ADDMOD 0xB8 EQ SLOAD MSIZE SWAP12 PUSH21 0x6BD97789ABB14F1A849E03BC971E7964736F6C6343 STOP ADDMOD 0x1F STOP CALLER "
				},
				"gasEstimates": {
					"creation": {
						"codeDepositCost": "1525400",
						"executionCost": "infinite",
						"totalCost": "infinite"
					},
					"external": {
						"ADMIN()": "370",
						"EMPLOYEE()": "413",
						"MANAGER()": "371",
						"applications(uint256)": "infinite",
						"applyToJob(uint256,string)": "infinite",
						"closeJob(uint256)": "37366",
						"getApplicationCount()": "2463",
						"getJob(uint256)": "infinite",
						"getJobCount()": "2507",
						"grantRole(bytes32,address)": "33702",
						"hasRole(bytes32,address)": "3160",
						"jobs(uint256)": "infinite",
						"postJob(string)": "infinite",
						"revokeRole(bytes32,address)": "31264"
					},
					"internal": {
						"_grantRole(bytes32,address)": "25990"
					}
				},
				"methodIdentifiers": {
					"ADMIN()": "2a0acc6a",
					"EMPLOYEE()": "e7336d14",
					"MANAGER()": "1b2df850",
					"applications(uint256)": "dfefadff",
					"applyToJob(uint256,string)": "3efaea1f",
					"closeJob(uint256)": "1e01abca",
					"getApplicationCount()": "58a6f4ca",
					"getJob(uint256)": "bf22c457",
					"getJobCount()": "b02b4a2f",
					"grantRole(bytes32,address)": "2f2ff15d",
					"hasRole(bytes32,address)": "91d14854",
					"jobs(uint256)": "180aedf3",
					"postJob(string)": "27a6d1d7",
					"revokeRole(bytes32,address)": "d547741f"
				}
			},
			"storageLayout": {
				"storage": [
					{
						"astId": 22,
						"contract": "contracts/CompanyRBAC.sol:CompanyRBAC",
						"label": "_roles",
						"offset": 0,
						"slot": "0",
						"type": "t_mapping(t_bytes32,t_mapping(t_address,t_bool))"
					},
					{
						"astId": 40,
						"contract": "contracts/CompanyRBAC.sol:CompanyRBAC",
						"label": "jobs",
						"offset": 0,
						"slot": "1",
						"type": "t_array(t_struct(Job)29_storage)dyn_storage"
					},
					{
						"astId": 44,
						"contract": "contracts/CompanyRBAC.sol:CompanyRBAC",
						"label": "applications",
						"offset": 0,
						"slot": "2",
						"type": "t_array(t_struct(Application)36_storage)dyn_storage"
					}
				],
				"types": {
					"t_address": {
						"encoding": "inplace",
						"label": "address",
						"numberOfBytes": "20"
					},
					"t_array(t_struct(Application)36_storage)dyn_storage": {
						"base": "t_struct(Application)36_storage",
						"encoding": "dynamic_array",
						"label": "struct CompanyRBAC.Application[]",
						"numberOfBytes": "32"
					},
					"t_array(t_struct(Job)29_storage)dyn_storage": {
						"base": "t_struct(Job)29_storage",
						"encoding": "dynamic_array",
						"label": "struct CompanyRBAC.Job[]",
						"numberOfBytes": "32"
					},
					"t_bool": {
						"encoding": "inplace",
						"label": "bool",
						"numberOfBytes": "1"
					},
					"t_bytes32": {
						"encoding": "inplace",
						"label": "bytes32",
						"numberOfBytes": "32"
					},
					"t_mapping(t_address,t_bool)": {
						"encoding": "mapping",
						"key": "t_address",
						"label": "mapping(address => bool)",
						"numberOfBytes": "32",
						"value": "t_bool"
					},
					"t_mapping(t_bytes32,t_mapping(t_address,t_bool))": {
						"encoding": "mapping",
						"key": "t_bytes32",
						"label": "mapping(bytes32 => mapping(address => bool))",
						"numberOfBytes": "32",
						"value": "t_mapping(t_address,t_bool)"
					},
					"t_string_storage": {
						"encoding": "bytes",
						"label": "string",
						"numberOfBytes": "32"
					},
					"t_struct(Application)36_storage": {
						"encoding": "inplace",
						"label": "struct CompanyRBAC.Application",
						"members": [
							{
								"astId": 31,
								"contract": "contracts/CompanyRBAC.sol:CompanyRBAC",
								"label": "applicant",
								"offset": 0,
								"slot": "0",
								"type": "t_address"
							},
							{
								"astId": 33,
								"contract": "contracts/CompanyRBAC.sol:CompanyRBAC",
								"label": "jobId",
								"offset": 0,
								"slot": "1",
								"type": "t_uint256"
							},
							{
								"astId": 35,
								"contract": "contracts/CompanyRBAC.sol:CompanyRBAC",
								"label": "message",
								"offset": 0,
								"slot": "2",
								"type": "t_string_storage"
							}
						],
						"numberOfBytes": "96"
					},
					"t_struct(Job)29_storage": {
						"encoding": "inplace",
						"label": "struct CompanyRBAC.Job",
						"members": [
							{
								"astId": 24,
								"contract": "contracts/CompanyRBAC.sol:CompanyRBAC",
								"label": "title",
								"offset": 0,
								"slot": "0",
								"type": "t_string_storage"
							},
							{
								"astId": 26,
								"contract": "contracts/CompanyRBAC.sol:CompanyRBAC",
								"label": "postedBy",
								"offset": 0,
								"slot": "1",
								"type": "t_address"
							},
							{
								"astId": 28,
								"contract": "contracts/CompanyRBAC.sol:CompanyRBAC",
								"label": "isOpen",
								"offset": 20,
								"slot": "1",
								"type": "t_bool"
							}
						],
						"numberOfBytes": "64"
					},
					"t_uint256": {
						"encoding": "inplace",
						"label": "uint256",
						"numberOfBytes": "32"
					}
				}
			},
			"userdoc": {
				"kind": "user",
				"methods": {},
				"version": 1
			}
		}
	}
}