{
	"contracts/reentrancyLock.sol": {
		"reentrancyLock": {
			"abi": [
				{
					"inputs": [
						{
							"internalType": "address",
							"name": "",
							"type": "address"
						}
					],
					"name": "balances",
					"outputs": [
						{
							"internalType": "uint256",
							"name": "",
							"type": "uint256"
						}
					],
					"stateMutability": "view",
					"type": "function"
				},
				{
					"inputs": [],
					"name": "deposit",
					"outputs": [],
					"stateMutability": "payable",
					"type": "function"
				},
				{
					"inputs": [
						{
							"internalType": "uint256",
							"name": "amount",
							"type": "uint256"
						}
					],
					"name": "withdraw",
					"outputs": [],
					"stateMutability": "nonpayable",
					"type": "function"
				}
			],
			"devdoc": {
				"kind": "dev",
				"methods": {},
				"version": 1
			},
			"evm": {
				"assembly": "    /* \"contracts/reentrancyLock.sol\":74:842  contract reentrancyLock {... */\n  mstore(0x40, 0x80)\n  callvalue\n  dup1\n  iszero\n  tag_1\n  jumpi\n  revert(0x00, 0x00)\ntag_1:\n  pop\n  dataSize(sub_0)\n  dup1\n  dataOffset(sub_0)\n  0x00\n  codecopy\n  0x00\n  return\nstop\n\nsub_0: assembly {\n        /* \"contracts/reentrancyLock.sol\":74:842  contract reentrancyLock {... */\n      mstore(0x40, 0x80)\n      jumpi(tag_1, lt(calldatasize, 0x04))\n      shr(0xe0, calldataload(0x00))\n      dup1\n      0x27e235e3\n      eq\n      tag_2\n      jumpi\n      dup1\n      0x2e1a7d4d\n      eq\n      tag_3\n      jumpi\n      dup1\n      0xd0e30db0\n      eq\n      tag_4\n      jumpi\n    tag_1:\n      revert(0x00, 0x00)\n        /* \"contracts/reentrancyLock.sol\":131:171  mapping(address => uint) public balances */\n    tag_2:\n      callvalue\n      dup1\n      iszero\n      tag_5\n      jumpi\n      revert(0x00, 0x00)\n    tag_5:\n      pop\n      tag_6\n      0x04\n      dup1\n      calldatasize\n      sub\n      dup2\n      add\n      swap1\n      tag_7\n      swap2\n      swap1\n      tag_8\n      jump\t// in\n    tag_7:\n      tag_9\n      jump\t// in\n    tag_6:\n      mload(0x40)\n      tag_10\n      swap2\n      swap1\n      tag_11\n      jump\t// in\n    tag_10:\n      mload(0x40)\n      dup1\n      swap2\n      sub\n      swap1\n      return\n        /* \"contracts/reentrancyLock.sol\":471:839  function withdraw(uint amount) public nonReentrant {... */\n    tag_3:\n      callvalue\n      dup1\n      iszero\n      tag_12\n      jumpi\n      revert(0x00, 0x00)\n    tag_12:\n      pop\n      tag_13\n      0x04\n      dup1\n      calldatasize\n      sub\n      dup2\n      add\n      swap1\n      tag_14\n      swap2\n      swap1\n      tag_15\n      jump\t// in\n    tag_14:\n      tag_16\n      jump\t// in\n    tag_13:\n      stop\n        /* \"contracts/reentrancyLock.sol\":310:463  function deposit() public payable {... */\n    tag_4:\n      tag_17\n      tag_18\n      jump\t// in\n    tag_17:\n      stop\n        /* \"contracts/reentrancyLock.sol\":131:171  mapping(address => uint) public balances */\n    tag_9:\n      mstore(0x20, 0x01)\n      dup1\n      0x00\n      mstore\n      keccak256(0x00, 0x40)\n      0x00\n      swap2\n      pop\n      swap1\n      pop\n      sload\n      dup2\n      jump\t// out\n        /* \"contracts/reentrancyLock.sol\":471:839  function withdraw(uint amount) public nonReentrant {... */\n    tag_16:\n        /* \"contracts/reentrancyLock.sol\":220:226  locked */\n      0x00\n      0x00\n      swap1\n      sload\n      swap1\n      0x0100\n      exp\n      swap1\n      div\n      0xff\n      and\n        /* \"contracts/reentrancyLock.sol\":219:226  !locked */\n      iszero\n        /* \"contracts/reentrancyLock.sol\":211:245  require(!locked, \"Reentrant call\") */\n      tag_20\n      jumpi\n      mload(0x40)\n      0x08c379a000000000000000000000000000000000000000000000000000000000\n      dup2\n      mstore\n      0x04\n      add\n      tag_21\n      swap1\n      tag_22\n      jump\t// in\n    tag_21:\n      mload(0x40)\n      dup1\n      swap2\n      sub\n      swap1\n      revert\n    tag_20:\n        /* \"contracts/reentrancyLock.sol\":261:265  true */\n      0x01\n        /* \"contracts/reentrancyLock.sol\":252:258  locked */\n      0x00\n      0x00\n        /* \"contracts/reentrancyLock.sol\":252:265  locked = true */\n      0x0100\n      exp\n      dup2\n      sload\n      dup2\n      0xff\n      mul\n      not\n      and\n      swap1\n      dup4\n      iszero\n      iszero\n      mul\n      or\n      swap1\n      sstore\n      pop\n        /* \"contracts/reentrancyLock.sol\":565:571  amount */\n      dup1\n        /* \"contracts/reentrancyLock.sol\":541:549  balances */\n      0x01\n        /* \"contracts/reentrancyLock.sol\":541:561  balances[msg.sender] */\n      0x00\n        /* \"contracts/reentrancyLock.sol\":550:560  msg.sender */\n      caller\n        /* \"contracts/reentrancyLock.sol\":541:561  balances[msg.sender] */\n      0xffffffffffffffffffffffffffffffffffffffff\n      and\n      0xffffffffffffffffffffffffffffffffffffffff\n      and\n      dup2\n      mstore\n      0x20\n      add\n      swap1\n      dup2\n      mstore\n      0x20\n      add\n      0x00\n      keccak256\n      sload\n        /* \"contracts/reentrancyLock.sol\":541:571  balances[msg.sender] >= amount */\n      lt\n      iszero\n        /* \"contracts/reentrancyLock.sol\":533:572  require(balances[msg.sender] >= amount) */\n      tag_24\n      jumpi\n      revert(0x00, 0x00)\n    tag_24:\n        /* \"contracts/reentrancyLock.sol\":657:669  bool success */\n      0x00\n        /* \"contracts/reentrancyLock.sol\":675:685  msg.sender */\n      caller\n        /* \"contracts/reentrancyLock.sol\":675:690  msg.sender.call */\n      0xffffffffffffffffffffffffffffffffffffffff\n      and\n        /* \"contracts/reentrancyLock.sol\":698:704  amount */\n      dup3\n        /* \"contracts/reentrancyLock.sol\":675:709  msg.sender.call{value: amount}(\"\") */\n      mload(0x40)\n      tag_25\n      swap1\n      tag_26\n      jump\t// in\n    tag_25:\n      0x00\n      mload(0x40)\n      dup1\n      dup4\n      sub\n      dup2\n      dup6\n      dup8\n      gas\n      call\n      swap3\n      pop\n      pop\n      pop\n      returndatasize\n      dup1\n      0x00\n      dup2\n      eq\n      tag_29\n      jumpi\n      mload(0x40)\n      swap2\n      pop\n      and(add(returndatasize, 0x3f), not(0x1f))\n      dup3\n      add\n      0x40\n      mstore\n      returndatasize\n      dup3\n      mstore\n      returndatasize\n      0x00\n      0x20\n      dup5\n      add\n      returndatacopy\n      jump(tag_28)\n    tag_29:\n      0x60\n      swap2\n      pop\n    tag_28:\n      pop\n        /* \"contracts/reentrancyLock.sol\":656:709  (bool success, ) = msg.sender.call{value: amount}(\"\") */\n      pop\n      swap1\n      pop\n        /* \"contracts/reentrancyLock.sol\":728:735  success */\n      dup1\n        /* \"contracts/reentrancyLock.sol\":720:736  require(success) */\n      tag_30\n      jumpi\n      revert(0x00, 0x00)\n    tag_30:\n        /* \"contracts/reentrancyLock.sol\":825:831  amount */\n      dup2\n        /* \"contracts/reentrancyLock.sol\":801:809  balances */\n      0x01\n        /* \"contracts/reentrancyLock.sol\":801:821  balances[msg.sender] */\n      0x00\n        /* \"contracts/reentrancyLock.sol\":810:820  msg.sender */\n      caller\n        /* \"contracts/reentrancyLock.sol\":801:821  balances[msg.sender] */\n      0xffffffffffffffffffffffffffffffffffffffff\n      and\n      0xffffffffffffffffffffffffffffffffffffffff\n      and\n      dup2\n      mstore\n      0x20\n      add\n      swap1\n      dup2\n      mstore\n      0x20\n      add\n      0x00\n      keccak256\n      0x00\n        /* \"contracts/reentrancyLock.sol\":801:831  balances[msg.sender] -= amount */\n      dup3\n      dup3\n      sload\n      tag_31\n      swap2\n      swap1\n      tag_32\n      jump\t// in\n    tag_31:\n      swap3\n      pop\n      pop\n      dup2\n      swap1\n      sstore\n      pop\n        /* \"contracts/reentrancyLock.sol\":522:839  {... */\n      pop\n        /* \"contracts/reentrancyLock.sol\":289:294  false */\n      0x00\n        /* \"contracts/reentrancyLock.sol\":280:286  locked */\n      0x00\n      0x00\n        /* \"contracts/reentrancyLock.sol\":280:294  locked = false */\n      0x0100\n      exp\n      dup2\n      sload\n      dup2\n      0xff\n      mul\n      not\n      and\n      swap1\n      dup4\n      iszero\n      iszero\n      mul\n      or\n      swap1\n      sstore\n      pop\n        /* \"contracts/reentrancyLock.sol\":471:839  function withdraw(uint amount) public nonReentrant {... */\n      pop\n      jump\t// out\n        /* \"contracts/reentrancyLock.sol\":310:463  function deposit() public payable {... */\n    tag_18:\n        /* \"contracts/reentrancyLock.sol\":376:385  msg.value */\n      callvalue\n        /* \"contracts/reentrancyLock.sol\":363:372  msg.value */\n      callvalue\n        /* \"contracts/reentrancyLock.sol\":363:385  msg.value == msg.value */\n      eq\n        /* \"contracts/reentrancyLock.sol\":355:411  require(msg.value == msg.value, \"Insufficient ETH sent\") */\n      tag_34\n      jumpi\n      mload(0x40)\n      0x08c379a000000000000000000000000000000000000000000000000000000000\n      dup2\n      mstore\n      0x04\n      add\n      tag_35\n      swap1\n      tag_36\n      jump\t// in\n    tag_35:\n      mload(0x40)\n      dup1\n      swap2\n      sub\n      swap1\n      revert\n    tag_34:\n        /* \"contracts/reentrancyLock.sol\":446:455  msg.value */\n      callvalue\n        /* \"contracts/reentrancyLock.sol\":422:430  balances */\n      0x01\n        /* \"contracts/reentrancyLock.sol\":422:442  balances[msg.sender] */\n      0x00\n        /* \"contracts/reentrancyLock.sol\":431:441  msg.sender */\n      caller\n        /* \"contracts/reentrancyLock.sol\":422:442  balances[msg.sender] */\n      0xffffffffffffffffffffffffffffffffffffffff\n      and\n      0xffffffffffffffffffffffffffffffffffffffff\n      and\n      dup2\n      mstore\n      0x20\n      add\n      swap1\n      dup2\n      mstore\n      0x20\n      add\n      0x00\n      keccak256\n      0x00\n        /* \"contracts/reentrancyLock.sol\":422:455  balances[msg.sender] += msg.value */\n      dup3\n      dup3\n      sload\n      tag_37\n      swap2\n      swap1\n      tag_38\n      jump\t// in\n    tag_37:\n      swap3\n      pop\n      pop\n      dup2\n      swap1\n      sstore\n      pop\n        /* \"contracts/reentrancyLock.sol\":310:463  function deposit() public payable {... */\n      jump\t// out\n        /* \"#utility.yul\":88:205   */\n    tag_40:\n        /* \"#utility.yul\":197:198   */\n      0x00\n        /* \"#utility.yul\":194:195   */\n      0x00\n        /* \"#utility.yul\":187:199   */\n      revert\n        /* \"#utility.yul\":334:460   */\n    tag_42:\n        /* \"#utility.yul\":371:378   */\n      0x00\n        /* \"#utility.yul\":411:453   */\n      0xffffffffffffffffffffffffffffffffffffffff\n        /* \"#utility.yul\":404:409   */\n      dup3\n        /* \"#utility.yul\":400:454   */\n      and\n        /* \"#utility.yul\":389:454   */\n      swap1\n      pop\n        /* \"#utility.yul\":334:460   */\n      swap2\n      swap1\n      pop\n      jump\t// out\n        /* \"#utility.yul\":466:562   */\n    tag_43:\n        /* \"#utility.yul\":503:510   */\n      0x00\n        /* \"#utility.yul\":532:556   */\n      tag_65\n        /* \"#utility.yul\":550:555   */\n      dup3\n        /* \"#utility.yul\":532:556   */\n      tag_42\n      jump\t// in\n    tag_65:\n        /* \"#utility.yul\":521:556   */\n      swap1\n      pop\n        /* \"#utility.yul\":466:562   */\n      swap2\n      swap1\n      pop\n      jump\t// out\n        /* \"#utility.yul\":568:690   */\n    tag_44:\n        /* \"#utility.yul\":641:665   */\n      tag_67\n        /* \"#utility.yul\":659:664   */\n      dup2\n        /* \"#utility.yul\":641:665   */\n      tag_43\n      jump\t// in\n    tag_67:\n        /* \"#utility.yul\":634:639   */\n      dup2\n        /* \"#utility.yul\":631:666   */\n      eq\n        /* \"#utility.yul\":621:684   */\n      tag_68\n      jumpi\n        /* \"#utility.yul\":680:681   */\n      0x00\n        /* \"#utility.yul\":677:678   */\n      0x00\n        /* \"#utility.yul\":670:682   */\n      revert\n        /* \"#utility.yul\":621:684   */\n    tag_68:\n        /* \"#utility.yul\":568:690   */\n      pop\n      jump\t// out\n        /* \"#utility.yul\":696:835   */\n    tag_45:\n        /* \"#utility.yul\":742:747   */\n      0x00\n        /* \"#utility.yul\":780:786   */\n      dup2\n        /* \"#utility.yul\":767:787   */\n      calldataload\n        /* \"#utility.yul\":758:787   */\n      swap1\n      pop\n        /* \"#utility.yul\":796:829   */\n      tag_70\n        /* \"#utility.yul\":823:828   */\n      dup2\n        /* \"#utility.yul\":796:829   */\n      tag_44\n      jump\t// in\n    tag_70:\n        /* \"#utility.yul\":696:835   */\n      swap3\n      swap2\n      pop\n      pop\n      jump\t// out\n        /* \"#utility.yul\":841:1170   */\n    tag_8:\n        /* \"#utility.yul\":900:906   */\n      0x00\n        /* \"#utility.yul\":949:951   */\n      0x20\n        /* \"#utility.yul\":937:946   */\n      dup3\n        /* \"#utility.yul\":928:935   */\n      dup5\n        /* \"#utility.yul\":924:947   */\n      sub\n        /* \"#utility.yul\":920:952   */\n      slt\n        /* \"#utility.yul\":917:1036   */\n      iszero\n      tag_72\n      jumpi\n        /* \"#utility.yul\":955:1034   */\n      tag_73\n      tag_40\n      jump\t// in\n    tag_73:\n        /* \"#utility.yul\":917:1036   */\n    tag_72:\n        /* \"#utility.yul\":1075:1076   */\n      0x00\n        /* \"#utility.yul\":1100:1153   */\n      tag_74\n        /* \"#utility.yul\":1145:1152   */\n      dup5\n        /* \"#utility.yul\":1136:1142   */\n      dup3\n        /* \"#utility.yul\":1125:1134   */\n      dup6\n        /* \"#utility.yul\":1121:1143   */\n      add\n        /* \"#utility.yul\":1100:1153   */\n      tag_45\n      jump\t// in\n    tag_74:\n        /* \"#utility.yul\":1090:1153   */\n      swap2\n      pop\n        /* \"#utility.yul\":1046:1163   */\n      pop\n        /* \"#utility.yul\":841:1170   */\n      swap3\n      swap2\n      pop\n      pop\n      jump\t// out\n        /* \"#utility.yul\":1176:1253   */\n    tag_46:\n        /* \"#utility.yul\":1213:1220   */\n      0x00\n        /* \"#utility.yul\":1242:1247   */\n      dup2\n        /* \"#utility.yul\":1231:1247   */\n      swap1\n      pop\n        /* \"#utility.yul\":1176:1253   */\n      swap2\n      swap1\n      pop\n      jump\t// out\n        /* \"#utility.yul\":1259:1377   */\n    tag_47:\n        /* \"#utility.yul\":1346:1370   */\n      tag_77\n        /* \"#utility.yul\":1364:1369   */\n      dup2\n        /* \"#utility.yul\":1346:1370   */\n      tag_46\n      jump\t// in\n    tag_77:\n        /* \"#utility.yul\":1341:1344   */\n      dup3\n        /* \"#utility.yul\":1334:1371   */\n      mstore\n        /* \"#utility.yul\":1259:1377   */\n      pop\n      pop\n      jump\t// out\n        /* \"#utility.yul\":1383:1605   */\n    tag_11:\n        /* \"#utility.yul\":1476:1480   */\n      0x00\n        /* \"#utility.yul\":1514:1516   */\n      0x20\n        /* \"#utility.yul\":1503:1512   */\n      dup3\n        /* \"#utility.yul\":1499:1517   */\n      add\n        /* \"#utility.yul\":1491:1517   */\n      swap1\n      pop\n        /* \"#utility.yul\":1527:1598   */\n      tag_79\n        /* \"#utility.yul\":1595:1596   */\n      0x00\n        /* \"#utility.yul\":1584:1593   */\n      dup4\n        /* \"#utility.yul\":1580:1597   */\n      add\n        /* \"#utility.yul\":1571:1577   */\n      dup5\n        /* \"#utility.yul\":1527:1598   */\n      tag_47\n      jump\t// in\n    tag_79:\n        /* \"#utility.yul\":1383:1605   */\n      swap3\n      swap2\n      pop\n      pop\n      jump\t// out\n        /* \"#utility.yul\":1611:1733   */\n    tag_48:\n        /* \"#utility.yul\":1684:1708   */\n      tag_81\n        /* \"#utility.yul\":1702:1707   */\n      dup2\n        /* \"#utility.yul\":1684:1708   */\n      tag_46\n      jump\t// in\n    tag_81:\n        /* \"#utility.yul\":1677:1682   */\n      dup2\n        /* \"#utility.yul\":1674:1709   */\n      eq\n        /* \"#utility.yul\":1664:1727   */\n      tag_82\n      jumpi\n        /* \"#utility.yul\":1723:1724   */\n      0x00\n        /* \"#utility.yul\":1720:1721   */\n      0x00\n        /* \"#utility.yul\":1713:1725   */\n      revert\n        /* \"#utility.yul\":1664:1727   */\n    tag_82:\n        /* \"#utility.yul\":1611:1733   */\n      pop\n      jump\t// out\n        /* \"#utility.yul\":1739:1878   */\n    tag_49:\n        /* \"#utility.yul\":1785:1790   */\n      0x00\n        /* \"#utility.yul\":1823:1829   */\n      dup2\n        /* \"#utility.yul\":1810:1830   */\n      calldataload\n        /* \"#utility.yul\":1801:1830   */\n      swap1\n      pop\n        /* \"#utility.yul\":1839:1872   */\n      tag_84\n        /* \"#utility.yul\":1866:1871   */\n      dup2\n        /* \"#utility.yul\":1839:1872   */\n      tag_48\n      jump\t// in\n    tag_84:\n        /* \"#utility.yul\":1739:1878   */\n      swap3\n      swap2\n      pop\n      pop\n      jump\t// out\n        /* \"#utility.yul\":1884:2213   */\n    tag_15:\n        /* \"#utility.yul\":1943:1949   */\n      0x00\n        /* \"#utility.yul\":1992:1994   */\n      0x20\n        /* \"#utility.yul\":1980:1989   */\n      dup3\n        /* \"#utility.yul\":1971:1978   */\n      dup5\n        /* \"#utility.yul\":1967:1990   */\n      sub\n        /* \"#utility.yul\":1963:1995   */\n      slt\n        /* \"#utility.yul\":1960:2079   */\n      iszero\n      tag_86\n      jumpi\n        /* \"#utility.yul\":1998:2077   */\n      tag_87\n      tag_40\n      jump\t// in\n    tag_87:\n        /* \"#utility.yul\":1960:2079   */\n    tag_86:\n        /* \"#utility.yul\":2118:2119   */\n      0x00\n        /* \"#utility.yul\":2143:2196   */\n      tag_88\n        /* \"#utility.yul\":2188:2195   */\n      dup5\n        /* \"#utility.yul\":2179:2185   */\n      dup3\n        /* \"#utility.yul\":2168:2177   */\n      dup6\n        /* \"#utility.yul\":2164:2186   */\n      add\n        /* \"#utility.yul\":2143:2196   */\n      tag_49\n      jump\t// in\n    tag_88:\n        /* \"#utility.yul\":2133:2196   */\n      swap2\n      pop\n        /* \"#utility.yul\":2089:2206   */\n      pop\n        /* \"#utility.yul\":1884:2213   */\n      swap3\n      swap2\n      pop\n      pop\n      jump\t// out\n        /* \"#utility.yul\":2219:2388   */\n    tag_50:\n        /* \"#utility.yul\":2303:2314   */\n      0x00\n        /* \"#utility.yul\":2337:2343   */\n      dup3\n        /* \"#utility.yul\":2332:2335   */\n      dup3\n        /* \"#utility.yul\":2325:2344   */\n      mstore\n        /* \"#utility.yul\":2377:2381   */\n      0x20\n        /* \"#utility.yul\":2372:2375   */\n      dup3\n        /* \"#utility.yul\":2368:2382   */\n      add\n        /* \"#utility.yul\":2353:2382   */\n      swap1\n      pop\n        /* \"#utility.yul\":2219:2388   */\n      swap3\n      swap2\n      pop\n      pop\n      jump\t// out\n        /* \"#utility.yul\":2394:2558   */\n    tag_51:\n        /* \"#utility.yul\":2534:2550   */\n      0x5265656e7472616e742063616c6c000000000000000000000000000000000000\n        /* \"#utility.yul\":2530:2531   */\n      0x00\n        /* \"#utility.yul\":2522:2528   */\n      dup3\n        /* \"#utility.yul\":2518:2532   */\n      add\n        /* \"#utility.yul\":2511:2551   */\n      mstore\n        /* \"#utility.yul\":2394:2558   */\n      pop\n      jump\t// out\n        /* \"#utility.yul\":2564:2930   */\n    tag_52:\n        /* \"#utility.yul\":2706:2709   */\n      0x00\n        /* \"#utility.yul\":2727:2794   */\n      tag_92\n        /* \"#utility.yul\":2791:2793   */\n      0x0e\n        /* \"#utility.yul\":2786:2789   */\n      dup4\n        /* \"#utility.yul\":2727:2794   */\n      tag_50\n      jump\t// in\n    tag_92:\n        /* \"#utility.yul\":2720:2794   */\n      swap2\n      pop\n        /* \"#utility.yul\":2803:2896   */\n      tag_93\n        /* \"#utility.yul\":2892:2895   */\n      dup3\n        /* \"#utility.yul\":2803:2896   */\n      tag_51\n      jump\t// in\n    tag_93:\n        /* \"#utility.yul\":2921:2923   */\n      0x20\n        /* \"#utility.yul\":2916:2919   */\n      dup3\n        /* \"#utility.yul\":2912:2924   */\n      add\n        /* \"#utility.yul\":2905:2924   */\n      swap1\n      pop\n        /* \"#utility.yul\":2564:2930   */\n      swap2\n      swap1\n      pop\n      jump\t// out\n        /* \"#utility.yul\":2936:3355   */\n    tag_22:\n        /* \"#utility.yul\":3102:3106   */\n      0x00\n        /* \"#utility.yul\":3140:3142   */\n      0x20\n        /* \"#utility.yul\":3129:3138   */\n      dup3\n        /* \"#utility.yul\":3125:3143   */\n      add\n        /* \"#utility.yul\":3117:3143   */\n      swap1\n      pop\n        /* \"#utility.yul\":3189:3198   */\n      dup2\n        /* \"#utility.yul\":3183:3187   */\n      dup2\n        /* \"#utility.yul\":3179:3199   */\n      sub\n        /* \"#utility.yul\":3175:3176   */\n      0x00\n        /* \"#utility.yul\":3164:3173   */\n      dup4\n        /* \"#utility.yul\":3160:3177   */\n      add\n        /* \"#utility.yul\":3153:3200   */\n      mstore\n        /* \"#utility.yul\":3217:3348   */\n      tag_95\n        /* \"#utility.yul\":3343:3347   */\n      dup2\n        /* \"#utility.yul\":3217:3348   */\n      tag_52\n      jump\t// in\n    tag_95:\n        /* \"#utility.yul\":3209:3348   */\n      swap1\n      pop\n        /* \"#utility.yul\":2936:3355   */\n      swap2\n      swap1\n      pop\n      jump\t// out\n        /* \"#utility.yul\":3361:3508   */\n    tag_53:\n        /* \"#utility.yul\":3462:3473   */\n      0x00\n        /* \"#utility.yul\":3499:3502   */\n      dup2\n        /* \"#utility.yul\":3484:3502   */\n      swap1\n      pop\n        /* \"#utility.yul\":3361:3508   */\n      swap3\n      swap2\n      pop\n      pop\n      jump\t// out\n        /* \"#utility.yul\":3514:3628   */\n    tag_54:\n      pop\n      jump\t// out\n        /* \"#utility.yul\":3634:4032   */\n    tag_55:\n        /* \"#utility.yul\":3793:3796   */\n      0x00\n        /* \"#utility.yul\":3814:3897   */\n      tag_99\n        /* \"#utility.yul\":3895:3896   */\n      0x00\n        /* \"#utility.yul\":3890:3893   */\n      dup4\n        /* \"#utility.yul\":3814:3897   */\n      tag_53\n      jump\t// in\n    tag_99:\n        /* \"#utility.yul\":3807:3897   */\n      swap2\n      pop\n        /* \"#utility.yul\":3906:3999   */\n      tag_100\n        /* \"#utility.yul\":3995:3998   */\n      dup3\n        /* \"#utility.yul\":3906:3999   */\n      tag_54\n      jump\t// in\n    tag_100:\n        /* \"#utility.yul\":4024:4025   */\n      0x00\n        /* \"#utility.yul\":4019:4022   */\n      dup3\n        /* \"#utility.yul\":4015:4026   */\n      add\n        /* \"#utility.yul\":4008:4026   */\n      swap1\n      pop\n        /* \"#utility.yul\":3634:4032   */\n      swap2\n      swap1\n      pop\n      jump\t// out\n        /* \"#utility.yul\":4038:4417   */\n    tag_26:\n        /* \"#utility.yul\":4222:4225   */\n      0x00\n        /* \"#utility.yul\":4244:4391   */\n      tag_102\n        /* \"#utility.yul\":4387:4390   */\n      dup3\n        /* \"#utility.yul\":4244:4391   */\n      tag_55\n      jump\t// in\n    tag_102:\n        /* \"#utility.yul\":4237:4391   */\n      swap2\n      pop\n        /* \"#utility.yul\":4408:4411   */\n      dup2\n        /* \"#utility.yul\":4401:4411   */\n      swap1\n      pop\n        /* \"#utility.yul\":4038:4417   */\n      swap2\n      swap1\n      pop\n      jump\t// out\n        /* \"#utility.yul\":4423:4603   */\n    tag_56:\n        /* \"#utility.yul\":4471:4548   */\n      0x4e487b7100000000000000000000000000000000000000000000000000000000\n        /* \"#utility.yul\":4468:4469   */\n      0x00\n        /* \"#utility.yul\":4461:4549   */\n      mstore\n        /* \"#utility.yul\":4568:4572   */\n      0x11\n        /* \"#utility.yul\":4565:4566   */\n      0x04\n        /* \"#utility.yul\":4558:4573   */\n      mstore\n        /* \"#utility.yul\":4592:4596   */\n      0x24\n        /* \"#utility.yul\":4589:4590   */\n      0x00\n        /* \"#utility.yul\":4582:4597   */\n      revert\n        /* \"#utility.yul\":4609:4803   */\n    tag_32:\n        /* \"#utility.yul\":4649:4653   */\n      0x00\n        /* \"#utility.yul\":4669:4689   */\n      tag_105\n        /* \"#utility.yul\":4687:4688   */\n      dup3\n        /* \"#utility.yul\":4669:4689   */\n      tag_46\n      jump\t// in\n    tag_105:\n        /* \"#utility.yul\":4664:4689   */\n      swap2\n      pop\n        /* \"#utility.yul\":4703:4723   */\n      tag_106\n        /* \"#utility.yul\":4721:4722   */\n      dup4\n        /* \"#utility.yul\":4703:4723   */\n      tag_46\n      jump\t// in\n    tag_106:\n        /* \"#utility.yul\":4698:4723   */\n      swap3\n      pop\n        /* \"#utility.yul\":4747:4748   */\n      dup3\n        /* \"#utility.yul\":4744:4745   */\n      dup3\n        /* \"#utility.yul\":4740:4749   */\n      sub\n        /* \"#utility.yul\":4732:4749   */\n      swap1\n      pop\n        /* \"#utility.yul\":4771:4772   */\n      dup2\n        /* \"#utility.yul\":4765:4769   */\n      dup2\n        /* \"#utility.yul\":4762:4773   */\n      gt\n        /* \"#utility.yul\":4759:4796   */\n      iszero\n      tag_107\n      jumpi\n        /* \"#utility.yul\":4776:4794   */\n      tag_108\n      tag_56\n      jump\t// in\n    tag_108:\n        /* \"#utility.yul\":4759:4796   */\n    tag_107:\n        /* \"#utility.yul\":4609:4803   */\n      swap3\n      swap2\n      pop\n      pop\n      jump\t// out\n        /* \"#utility.yul\":4809:4980   */\n    tag_57:\n        /* \"#utility.yul\":4949:4972   */\n      0x496e73756666696369656e74204554482073656e740000000000000000000000\n        /* \"#utility.yul\":4945:4946   */\n      0x00\n        /* \"#utility.yul\":4937:4943   */\n      dup3\n        /* \"#utility.yul\":4933:4947   */\n      add\n        /* \"#utility.yul\":4926:4973   */\n      mstore\n        /* \"#utility.yul\":4809:4980   */\n      pop\n      jump\t// out\n        /* \"#utility.yul\":4986:5352   */\n    tag_58:\n        /* \"#utility.yul\":5128:5131   */\n      0x00\n        /* \"#utility.yul\":5149:5216   */\n      tag_111\n        /* \"#utility.yul\":5213:5215   */\n      0x15\n        /* \"#utility.yul\":5208:5211   */\n      dup4\n        /* \"#utility.yul\":5149:5216   */\n      tag_50\n      jump\t// in\n    tag_111:\n        /* \"#utility.yul\":5142:5216   */\n      swap2\n      pop\n        /* \"#utility.yul\":5225:5318   */\n      tag_112\n        /* \"#utility.yul\":5314:5317   */\n      dup3\n        /* \"#utility.yul\":5225:5318   */\n      tag_57\n      jump\t// in\n    tag_112:\n        /* \"#utility.yul\":5343:5345   */\n      0x20\n        /* \"#utility.yul\":5338:5341   */\n      dup3\n        /* \"#utility.yul\":5334:5346   */\n      add\n        /* \"#utility.yul\":5327:5346   */\n      swap1\n      pop\n        /* \"#utility.yul\":4986:5352   */\n      swap2\n      swap1\n      pop\n      jump\t// out\n        /* \"#utility.yul\":5358:5777   */\n    tag_36:\n        /* \"#utility.yul\":5524:5528   */\n      0x00\n        /* \"#utility.yul\":5562:5564   */\n      0x20\n        /* \"#utility.yul\":5551:5560   */\n      dup3\n        /* \"#utility.yul\":5547:5565   */\n      add\n        /* \"#utility.yul\":5539:5565   */\n      swap1\n      pop\n        /* \"#utility.yul\":5611:5620   */\n      dup2\n        /* \"#utility.yul\":5605:5609   */\n      dup2\n        /* \"#utility.yul\":5601:5621   */\n      sub\n        /* \"#utility.yul\":5597:5598   */\n      0x00\n        /* \"#utility.yul\":5586:5595   */\n      dup4\n        /* \"#utility.yul\":5582:5599   */\n      add\n        /* \"#utility.yul\":5575:5622   */\n      mstore\n        /* \"#utility.yul\":5639:5770   */\n      tag_114\n        /* \"#utility.yul\":5765:5769   */\n      dup2\n        /* \"#utility.yul\":5639:5770   */\n      tag_58\n      jump\t// in\n    tag_114:\n        /* \"#utility.yul\":5631:5770   */\n      swap1\n      pop\n        /* \"#utility.yul\":5358:5777   */\n      swap2\n      swap1\n      pop\n      jump\t// out\n        /* \"#utility.yul\":5783:5974   */\n    tag_38:\n        /* \"#utility.yul\":5823:5826   */\n      0x00\n        /* \"#utility.yul\":5842:5862   */\n      tag_116\n        /* \"#utility.yul\":5860:5861   */\n      dup3\n        /* \"#utility.yul\":5842:5862   */\n      tag_46\n      jump\t// in\n    tag_116:\n        /* \"#utility.yul\":5837:5862   */\n      swap2\n      pop\n        /* \"#utility.yul\":5876:5896   */\n      tag_117\n        /* \"#utility.yul\":5894:5895   */\n      dup4\n        /* \"#utility.yul\":5876:5896   */\n      tag_46\n      jump\t// in\n    tag_117:\n        /* \"#utility.yul\":5871:5896   */\n      swap3\n      pop\n        /* \"#utility.yul\":5919:5920   */\n      dup3\n        /* \"#utility.yul\":5916:5917   */\n      dup3\n        /* \"#utility.yul\":5912:5921   */\n      add\n        /* \"#utility.yul\":5905:5921   */\n      swap1\n      pop\n        /* \"#utility.yul\":5940:5943   */\n      dup1\n        /* \"#utility.yul\":5937:5938   */\n      dup3\n        /* \"#utility.yul\":5934:5944   */\n      gt\n        /* \"#utility.yul\":5931:5967   */\n      iszero\n      tag_118\n      jumpi\n        /* \"#utility.yul\":5947:5965   */\n      tag_119\n      tag_56\n      jump\t// in\n    tag_119:\n        /* \"#utility.yul\":5931:5967   */\n    tag_118:\n        /* \"#utility.yul\":5783:5974   */\n      swap3\n      swap2\n      pop\n      pop\n      jump\t// out\n\n    auxdata: 0xa2646970667358221220a18286756cf61f9d5f31622025366baa0b2d3399ce071a19fcec6a554e03a86a64736f6c634300081f0033\n}\n",
				"bytecode": {
					"linkReferences": {},
					"object": "6080604052348015600e575f5ffd5b506105da8061001c5f395ff3fe608060405260043610610033575f3560e01c806327e235e3146100375780632e1a7d4d14610073578063d0e30db01461009b575b5f5ffd5b348015610042575f5ffd5b5061005d6004803603810190610058919061033f565b6100a5565b60405161006a9190610382565b60405180910390f35b34801561007e575f5ffd5b50610099600480360381019061009491906103c5565b6100ba565b005b6100a361024a565b005b6001602052805f5260405f205f915090505481565b5f5f9054906101000a900460ff1615610108576040517f08c379a00000000000000000000000000000000000000000000000000000000081526004016100ff9061044a565b60405180910390fd5b60015f5f6101000a81548160ff0219169083151502179055508060015f3373ffffffffffffffffffffffffffffffffffffffff1673ffffffffffffffffffffffffffffffffffffffff1681526020019081526020015f2054101561016a575f5ffd5b5f3373ffffffffffffffffffffffffffffffffffffffff168260405161018f90610495565b5f6040518083038185875af1925050503d805f81146101c9576040519150601f19603f3d011682016040523d82523d5f602084013e6101ce565b606091505b50509050806101db575f5ffd5b8160015f3373ffffffffffffffffffffffffffffffffffffffff1673ffffffffffffffffffffffffffffffffffffffff1681526020019081526020015f205f82825461022791906104d6565b92505081905550505f5f5f6101000a81548160ff02191690831515021790555050565b34341461028c576040517f08c379a000000000000000000000000000000000000000000000000000000000815260040161028390610553565b60405180910390fd5b3460015f3373ffffffffffffffffffffffffffffffffffffffff1673ffffffffffffffffffffffffffffffffffffffff1681526020019081526020015f205f8282546102d89190610571565b92505081905550565b5f5ffd5b5f73ffffffffffffffffffffffffffffffffffffffff82169050919050565b5f61030e826102e5565b9050919050565b61031e81610304565b8114610328575f5ffd5b50565b5f8135905061033981610315565b92915050565b5f60208284031215610354576103536102e1565b5b5f6103618482850161032b565b91505092915050565b5f819050919050565b61037c8161036a565b82525050565b5f6020820190506103955f830184610373565b92915050565b6103a48161036a565b81146103ae575f5ffd5b50565b5f813590506103bf8161039b565b92915050565b5f602082840312156103da576103d96102e1565b5b5f6103e7848285016103b1565b91505092915050565b5f82825260208201905092915050565b7f5265656e7472616e742063616c6c0000000000000000000000000000000000005f82015250565b5f610434600e836103f0565b915061043f82610400565b602082019050919050565b5f6020820190508181035f83015261046181610428565b9050919050565b5f81905092915050565b50565b5f6104805f83610468565b915061048b82610472565b5f82019050919050565b5f61049f82610475565b9150819050919050565b7f4e487b71000000000000000000000000000000000000000000000000000000005f52601160045260245ffd5b5f6104e08261036a565b91506104eb8361036a565b9250828203905081811115610503576105026104a9565b5b92915050565b7f496e73756666696369656e74204554482073656e7400000000000000000000005f82015250565b5f61053d6015836103f0565b915061054882610509565b602082019050919050565b5f6020820190508181035f83015261056a81610531565b9050919050565b5f61057b8261036a565b91506105868361036a565b925082820190508082111561059e5761059d6104a9565b5b9291505056fea2646970667358221220a18286756cf61f9d5f31622025366baa0b2d3399ce071a19fcec6a554e03a86a64736f6c634300081f0033",
					"opcodes": "PUSH1 0x80 PUSH1 0x40 MSTORE CALLVALUE DUP1 ISZERO PUSH1 0xE JUMPI PUSH0 PUSH0 REVERT JUMPDEST POP PUSH2 0x5DA DUP1 PUSH2 0x1C PUSH0 CODECOPY PUSH0 RETURN INVALID PUSH1 0x80 PUSH1 0x40 MSTORE PUSH1 0x4 CALLDATASIZE LT PUSH2 0x33 JUMPI PUSH0 CALLDATALOAD PUSH1 0xE0 SHR DUP1 PUSH4 0x27E235E3 EQ PUSH2 0x37 JUMPI DUP1 PUSH4 0x2E1A7D4D EQ PUSH2 0x73 JUMPI DUP1 PUSH4 0xD0E30DB0 EQ PUSH2 0x9B JUMPI JUMPDEST PUSH0 PUSH0 REVERT JUMPDEST CALLVALUE DUP1 ISZERO PUSH2 0x42 JUMPI PUSH0 PUSH0 REVERT JUMPDEST POP PUSH2 0x5D PUSH1 0x4 DUP1 CALLDATASIZE SUB DUP2 ADD SWAP1 PUSH2 0x58 SWAP2 SWAP1 PUSH2 0x33F JUMP JUMPDEST PUSH2 0xA5 JUMP JUMPDEST PUSH1 0x40 MLOAD PUSH2 0x6A SWAP2 SWAP1 PUSH2 0x382 JUMP JUMPDEST PUSH1 0x40 MLOAD DUP1 SWAP2 SUB SWAP1 RETURN JUMPDEST CALLVALUE DUP1 ISZERO PUSH2 0x7E JUMPI PUSH0 PUSH0 REVERT JUMPDEST POP PUSH2 0x99 PUSH1 0x4 DUP1 CALLDATASIZE SUB DUP2 ADD SWAP1 PUSH2 0x94 SWAP2 SWAP1 PUSH2 0x3C5 JUMP JUMPDEST PUSH2 0xBA JUMP JUMPDEST STOP JUMPDEST PUSH2 0xA3 PUSH2 0x24A JUMP JUMPDEST STOP JUMPDEST PUSH1 0x1 PUSH1 0x20 MSTORE DUP1 PUSH0 MSTORE PUSH1 0x40 PUSH0 KECCAK256 PUSH0 SWAP2 POP SWAP1 POP SLOAD DUP2 JUMP JUMPDEST PUSH0 PUSH0 SWAP1 SLOAD SWAP1 PUSH2 0x100 EXP SWAP1 DIV PUSH1 0xFF AND ISZERO PUSH2 0x108 JUMPI PUSH1 0x40 MLOAD PUSH32 0x8C379A000000000000000000000000000000000000000000000000000000000 DUP2 MSTORE PUSH1 0x4 ADD PUSH2 0xFF SWAP1 PUSH2 0x44A JUMP JUMPDEST PUSH1 0x40 MLOAD DUP1 SWAP2 SUB SWAP1 REVERT JUMPDEST PUSH1 0x1 PUSH0 PUSH0 PUSH2 0x100 EXP DUP2 SLOAD DUP2 PUSH1 0xFF MUL NOT AND SWAP1 DUP4 ISZERO ISZERO MUL OR SWAP1 SSTORE POP DUP1 PUSH1 0x1 PUSH0 CALLER PUSH20 0xFFFFFFFFFFFFFFFFFFFFFFFFFFFFFFFFFFFFFFFF AND PUSH20 0xFFFFFFFFFFFFFFFFFFFFFFFFFFFFFFFFFFFFFFFF AND DUP2 MSTORE PUSH1 0x20 ADD SWAP1 DUP2 MSTORE PUSH1 0x20 ADD PUSH0 KECCAK256 SLOAD LT ISZERO PUSH2 0x16A JUMPI PUSH0 PUSH0 REVERT JUMPDEST PUSH0 CALLER PUSH20 0xFFFFFFFFFFFFFFFFFFFFFFFFFFFFFFFFFFFFFFFF AND DUP3 PUSH1 0x40 MLOAD PUSH2 0x18F SWAP1 PUSH2 0x495 JUMP JUMPDEST PUSH0 PUSH1 0x40 MLOAD DUP1 DUP4 SUB DUP2 DUP6 DUP8 GAS CALL SWAP3 POP POP POP RETURNDATASIZE DUP1 PUSH0 DUP2 EQ PUSH2 0x1C9 JUMPI PUSH1 0x40 MLOAD SWAP2 POP PUSH1 0x1F NOT PUSH1 0x3F RETURNDATASIZE ADD AND DUP3 ADD PUSH1 0x40 MSTORE RETURNDATASIZE DUP3 MSTORE RETURNDATASIZE PUSH0 PUSH1 0x20 DUP5 ADD RETURNDATACOPY PUSH2 0x1CE JUMP JUMPDEST PUSH1 0x60 SWAP2 POP JUMPDEST POP POP SWAP1 POP DUP1 PUSH2 0x1DB JUMPI PUSH0 PUSH0 REVERT JUMPDEST DUP2 PUSH1 0x1 PUSH0 CALLER PUSH20 0xFFFFFFFFFFFFFFFFFFFFFFFFFFFFFFFFFFFFFFFF AND PUSH20 0xFFFFFFFFFFFFFFFFFFFFFFFFFFFFFFFFFFFFFFFF AND DUP2 MSTORE PUSH1 0x20 ADD SWAP1 DUP2 MSTORE PUSH1 0x20 ADD PUSH0 KECCAK256 PUSH0 DUP3 DUP3 SLOAD PUSH2 0x227 SWAP2 SWAP1 PUSH2 0x4D6 JUMP JUMPDEST SWAP3 POP POP DUP2 SWAP1 SSTORE POP POP PUSH0 PUSH0 PUSH0 PUSH2 0x100 EXP DUP2 SLOAD DUP2 PUSH1 0xFF MUL NOT AND SWAP1 DUP4 ISZERO ISZERO MUL OR SWAP1 SSTORE POP POP JUMP JUMPDEST CALLVALUE CALLVALUE EQ PUSH2 0x28C JUMPI PUSH1 0x40 MLOAD PUSH32 0x8C379A000000000000000000000000000000000000000000000000000000000 DUP2 MSTORE PUSH1 0x4 ADD PUSH2 0x283 SWAP1 PUSH2 0x553 JUMP JUMPDEST PUSH1 0x40 MLOAD DUP1 SWAP2 SUB SWAP1 REVERT JUMPDEST CALLVALUE PUSH1 0x1 PUSH0 CALLER PUSH20 0xFFFFFFFFFFFFFFFFFFFFFFFFFFFFFFFFFFFFFFFF AND PUSH20 0xFFFFFFFFFFFFFFFFFFFFFFFFFFFFFFFFFFFFFFFF AND DUP2 MSTORE PUSH1 0x20 ADD SWAP1 DUP2 MSTORE PUSH1 0x20 ADD PUSH0 KECCAK256 PUSH0 DUP3 DUP3 SLOAD PUSH2 0x2D8 SWAP2 SWAP1 PUSH2 0x571 JUMP JUMPDEST SWAP3 POP POP DUP2 SWAP1 SSTORE POP JUMP JUMPDEST PUSH0 PUSH0 REVERT JUMPDEST PUSH0 PUSH20 0xFFFFFFFFFFFFFFFFFFFFFFFFFFFFFFFFFFFFFFFF DUP3 AND SWAP1 POP SWAP2 SWAP1 POP JUMP JUMPDEST PUSH0 PUSH2 0x30E DUP3 PUSH2 0x2E5 JUMP JUMPDEST SWAP1 POP SWAP2 SWAP1 POP JUMP JUMPDEST PUSH2 0x31E DUP2 PUSH2 0x304 JUMP JUMPDEST DUP2 EQ PUSH2 0x328 JUMPI PUSH0 PUSH0 REVERT JUMPDEST POP JUMP JUMPDEST PUSH0 DUP2 CALLDATALOAD SWAP1 POP PUSH2 0x339 DUP2 PUSH2 0x315 JUMP JUMPDEST SWAP3 SWAP2 POP POP JUMP JUMPDEST PUSH0 PUSH1 0x20 DUP3 DUP5 SUB SLT ISZERO PUSH2 0x354 JUMPI PUSH2 0x353 PUSH2 0x2E1 JUMP JUMPDEST JUMPDEST PUSH0 PUSH2 0x361 DUP5 DUP3 DUP6 ADD PUSH2 0x32B JUMP JUMPDEST SWAP2 POP POP SWAP3 SWAP2 POP POP JUMP JUMPDEST PUSH0 DUP2 SWAP1 POP SWAP2 SWAP1 POP JUMP JUMPDEST PUSH2 0x37C DUP2 PUSH2 0x36A JUMP JUMPDEST DUP3 MSTORE POP POP JUMP JUMPDEST PUSH0 PUSH1 0x20 DUP3 ADD SWAP1 POP PUSH2 0x395 PUSH0 DUP4 ADD DUP5 PUSH2 0x373 JUMP JUMPDEST SWAP3 SWAP2 POP POP JUMP JUMPDEST PUSH2 0x3A4 DUP2 PUSH2 0x36A JUMP JUMPDEST DUP2 EQ PUSH2 0x3AE JUMPI PUSH0 PUSH0 REVERT JUMPDEST POP JUMP JUMPDEST PUSH0 DUP2 CALLDATALOAD SWAP1 POP PUSH2 0x3BF DUP2 PUSH2 0x39B JUMP JUMPDEST SWAP3 SWAP2 POP POP JUMP JUMPDEST PUSH0 PUSH1 0x20 DUP3 DUP5 SUB SLT ISZERO PUSH2 0x3DA JUMPI PUSH2 0x3D9 PUSH2 0x2E1 JUMP JUMPDEST JUMPDEST PUSH0 PUSH2 0x3E7 DUP5 DUP3 DUP6 ADD PUSH2 0x3B1 JUMP JUMPDEST SWAP2 POP POP SWAP3 SWAP2 POP POP JUMP JUMPDEST PUSH0 DUP3 DUP3 MSTORE PUSH1 0x20 DUP3 ADD SWAP1 POP SWAP3 SWAP2 POP POP JUMP JUMPDEST PUSH32 0x5265656E7472616E742063616C6C000000000000000000000000000000000000 PUSH0 DUP3 ADD MSTORE POP JUMP JUMPDEST PUSH0 PUSH2 0x434 PUSH1 0xE DUP4 PUSH2 0x3F0 JUMP JUMPDEST SWAP2 POP PUSH2 0x43F DUP3 PUSH2 0x400 JUMP JUMPDEST PUSH1 0x20 DUP3 ADD SWAP1 POP SWAP2 SWAP1 POP JUMP JUMPDEST PUSH0 PUSH1 0x20 DUP3 ADD SWAP1 POP DUP2 DUP2 SUB PUSH0 DUP4 ADD MSTORE PUSH2 0x461 DUP2 PUSH2 0x428 JUMP JUMPDEST SWAP1 POP SWAP2 SWAP1 POP JUMP JUMPDEST PUSH0 DUP2 SWAP1 POP SWAP3 SWAP2 POP POP JUMP JUMPDEST POP JUMP JUMPDEST PUSH0 PUSH2 0x480 PUSH0 DUP4 PUSH2 0x468 JUMP JUMPDEST SWAP2 POP PUSH2 0x48B DUP3 PUSH2 0x472 JUMP JUMPDEST PUSH0 DUP3 ADD SWAP1 POP SWAP2 SWAP1 POP JUMP JUMPDEST PUSH0 PUSH2 0x49F DUP3 PUSH2 0x475 JUMP JUMPDEST SWAP2 POP DUP2 SWAP1 POP SWAP2 SWAP1 POP JUMP JUMPDEST PUSH32 0x4E487B7100000000000000000000000000000000000000000000000000000000 PUSH0 MSTORE PUSH1 0x11 PUSH1 0x4 MSTORE PUSH1 0x24 PUSH0 REVERT JUMPDEST PUSH0 PUSH2 0x4E0 DUP3 PUSH2 0x36A JUMP JUMPDEST SWAP2 POP PUSH2 0x4EB DUP4 PUSH2 0x36A JUMP JUMPDEST SWAP3 POP DUP3 DUP3 SUB SWAP1 POP DUP2 DUP2 GT ISZERO PUSH2 0x503 JUMPI PUSH2 0x502 PUSH2 0x4A9 JUMP JUMPDEST JUMPDEST SWAP3 SWAP2 POP POP JUMP JUMPDEST PUSH32 0x496E73756666696369656E74204554482073656E740000000000000000000000 PUSH0 DUP3 ADD MSTORE POP JUMP JUMPDEST PUSH0 PUSH2 0x53D PUSH1 0x15 DUP4 PUSH2 0x3F0 JUMP JUMPDEST SWAP2 POP PUSH2 0x548 DUP3 PUSH2 0x509 JUMP JUMPDEST PUSH1 0x20 DUP3 ADD SWAP1 POP SWAP2 SWAP1 POP JUMP JUMPDEST PUSH0 PUSH1 0x20 DUP3 ADD SWAP1 POP DUP2 DUP2 SUB PUSH0 DUP4 ADD MSTORE PUSH2 0x56A DUP2 PUSH2 0x531 JUMP JUMPDEST SWAP1 POP SWAP2 SWAP1 POP JUMP JUMPDEST PUSH0 PUSH2 0x57B DUP3 PUSH2 0x36A JUMP JUMPDEST SWAP2 POP PUSH2 0x586 DUP4 PUSH2 0x36A JUMP JUMPDEST SWAP3 POP DUP3 DUP3 ADD SWAP1 POP DUP1 DUP3 GT ISZERO PUSH2 0x59E JUMPI PUSH2 0x59D PUSH2 0x4A9 JUMP JUMPDEST JUMPDEST SWAP3 SWAP2 POP POP JUMP INVALID LOG2 PUSH5 0x6970667358 0x22 SLT KECCAK256 LOG1 DUP3 DUP7 PUSH22 0x6CF61F9D5F31622025366BAA0B2D3399CE071A19FCEC PUSH11 0x554E03A86A64736F6C6343 STOP ADDMOD 0x1F STOP CALLER "
				},
				"gasEstimates": {
					"creation": {
						"codeDepositCost": "299600",
						"executionCost": "335",
						"totalCost": "299935"
					},
					"external": {
						"balances(address)": "2780",
						"deposit()": "infinite",
						"withdraw(uint256)": "infinite"
					}
				},
				"methodIdentifiers": {
					"balances(address)": "27e235e3",
					"deposit()": "d0e30db0",
					"withdraw(uint256)": "2e1a7d4d"
				}
			},
			"storageLayout": {
				"storage": [
					{
						"astId": 3,
						"contract": "contracts/reentrancyLock.sol:reentrancyLock",
						"label": "locked",
						"offset": 0,
						"slot": "0",
						"type": "t_bool"
					},
					{
						"astId": 7,
						"contract": "contracts/reentrancyLock.sol:reentrancyLock",
						"label": "balances",
						"offset": 0,
						"slot": "1",
						"type": "t_mapping(t_address,t_uint256)"
					}
				],
				"types": {
					"t_address": {
						"encoding": "inplace",
						"label": "address",
						"numberOfBytes": "20"
					},
					"t_bool": {
						"encoding": "inplace",
						"label": "bool",
						"numberOfBytes": "1"
					},
					"t_mapping(t_address,t_uint256)": {
						"encoding": "mapping",
						"key": "t_address",
						"label": "mapping(address => uint256)",
						"numberOfBytes": "32",
						"value": "t_uint256"
					},
					"t_uint256": {
						"encoding": "inplace",
						"label": "uint256",
						"numberOfBytes": "32"
					}
				}
			},
			"userdoc": {
				"kind": "user",
				"methods": {},
				"version": 1
			}
		}
	}
}