{
	"contracts/Event.sol": {
		"Event": {
			"abi": [
				{
					"anonymous": false,
					"inputs": [
						{
							"indexed": true,
							"internalType": "address",
							"name": "sender",
							"type": "address"
						},
						{
							"indexed": false,
							"internalType": "string",
							"name": "message",
							"type": "string"
						}
					],
					"name": "Log",
					"type": "event"
				},
				{
					"inputs": [
						{
							"internalType": "string",
							"name": "message",
							"type": "string"
						}
					],
					"name": "emitLog",
					"outputs": [],
					"stateMutability": "nonpayable",
					"type": "function"
				},
				{
					"inputs": [],
					"name": "test",
					"outputs": [],
					"stateMutability": "nonpayable",
					"type": "function"
				}
			],
			"devdoc": {
				"kind": "dev",
				"methods": {},
				"version": 1
			},
			"evm": {
				"assembly": "    /* \"contracts/Event.sol\":60:552  contract Event {... */\n  mstore(0x40, 0x80)\n  callvalue\n  dup1\n  iszero\n  tag_1\n  jumpi\n  revert(0x00, 0x00)\ntag_1:\n  pop\n  dataSize(sub_0)\n  dup1\n  dataOffset(sub_0)\n  0x00\n  codecopy\n  0x00\n  return\nstop\n\nsub_0: assembly {\n        /* \"contracts/Event.sol\":60:552  contract Event {... */\n      mstore(0x40, 0x80)\n      callvalue\n      dup1\n      iszero\n      tag_1\n      jumpi\n      revert(0x00, 0x00)\n    tag_1:\n      pop\n      jumpi(tag_2, lt(calldatasize, 0x04))\n      shr(0xe0, calldataload(0x00))\n      dup1\n      0x2e3c2a4d\n      eq\n      tag_3\n      jumpi\n      dup1\n      0xf8a8fd6d\n      eq\n      tag_4\n      jumpi\n    tag_2:\n      revert(0x00, 0x00)\n        /* \"contracts/Event.sol\":413:549  function emitLog(string memory message) public {... */\n    tag_3:\n      tag_5\n      0x04\n      dup1\n      calldatasize\n      sub\n      dup2\n      add\n      swap1\n      tag_6\n      swap2\n      swap1\n      tag_7\n      jump\t// in\n    tag_6:\n      tag_8\n      jump\t// in\n    tag_5:\n      stop\n        /* \"contracts/Event.sol\":238:307  function test() public {... */\n    tag_4:\n      tag_9\n      tag_10\n      jump\t// in\n    tag_9:\n      stop\n        /* \"contracts/Event.sol\":413:549  function emitLog(string memory message) public {... */\n    tag_8:\n        /* \"contracts/Event.sol\":474:484  msg.sender */\n      caller\n        /* \"contracts/Event.sol\":470:494  Log(msg.sender, message) */\n      0xffffffffffffffffffffffffffffffffffffffff\n      and\n      0x0738f4da267a110d810e6e89fc59e46be6de0c37b1d5cd559b267dc3688e74e0\n        /* \"contracts/Event.sol\":486:493  message */\n      dup3\n        /* \"contracts/Event.sol\":470:494  Log(msg.sender, message) */\n      mload(0x40)\n      tag_12\n      swap2\n      swap1\n      tag_13\n      jump\t// in\n    tag_12:\n      mload(0x40)\n      dup1\n      swap2\n      sub\n      swap1\n      log2\n        /* \"contracts/Event.sol\":508:518  msg.sender */\n      caller\n        /* \"contracts/Event.sol\":504:544  Log(msg.sender, \"Im learning Solidity!\") */\n      0xffffffffffffffffffffffffffffffffffffffff\n      and\n      0x0738f4da267a110d810e6e89fc59e46be6de0c37b1d5cd559b267dc3688e74e0\n      mload(0x40)\n      tag_14\n      swap1\n      tag_15\n      jump\t// in\n    tag_14:\n      mload(0x40)\n      dup1\n      swap2\n      sub\n      swap1\n      log2\n        /* \"contracts/Event.sol\":413:549  function emitLog(string memory message) public {... */\n      pop\n      jump\t// out\n        /* \"contracts/Event.sol\":238:307  function test() public {... */\n    tag_10:\n        /* \"contracts/Event.sol\":275:285  msg.sender */\n      caller\n        /* \"contracts/Event.sol\":271:302  Log(msg.sender, \"Hello World!\") */\n      0xffffffffffffffffffffffffffffffffffffffff\n      and\n      0x0738f4da267a110d810e6e89fc59e46be6de0c37b1d5cd559b267dc3688e74e0\n      mload(0x40)\n      tag_17\n      swap1\n      tag_18\n      jump\t// in\n    tag_17:\n      mload(0x40)\n      dup1\n      swap2\n      sub\n      swap1\n      log2\n        /* \"contracts/Event.sol\":238:307  function test() public {... */\n      jump\t// out\n        /* \"#utility.yul\":7:82   */\n    tag_19:\n        /* \"#utility.yul\":40:46   */\n      0x00\n        /* \"#utility.yul\":73:75   */\n      0x40\n        /* \"#utility.yul\":67:76   */\n      mload\n        /* \"#utility.yul\":57:76   */\n      swap1\n      pop\n        /* \"#utility.yul\":7:82   */\n      swap1\n      jump\t// out\n        /* \"#utility.yul\":88:205   */\n    tag_20:\n        /* \"#utility.yul\":197:198   */\n      0x00\n        /* \"#utility.yul\":194:195   */\n      0x00\n        /* \"#utility.yul\":187:199   */\n      revert\n        /* \"#utility.yul\":211:328   */\n    tag_21:\n        /* \"#utility.yul\":320:321   */\n      0x00\n        /* \"#utility.yul\":317:318   */\n      0x00\n        /* \"#utility.yul\":310:322   */\n      revert\n        /* \"#utility.yul\":334:451   */\n    tag_22:\n        /* \"#utility.yul\":443:444   */\n      0x00\n        /* \"#utility.yul\":440:441   */\n      0x00\n        /* \"#utility.yul\":433:445   */\n      revert\n        /* \"#utility.yul\":457:574   */\n    tag_23:\n        /* \"#utility.yul\":566:567   */\n      0x00\n        /* \"#utility.yul\":563:564   */\n      0x00\n        /* \"#utility.yul\":556:568   */\n      revert\n        /* \"#utility.yul\":580:682   */\n    tag_24:\n        /* \"#utility.yul\":621:627   */\n      0x00\n        /* \"#utility.yul\":672:674   */\n      0x1f\n        /* \"#utility.yul\":668:675   */\n      not\n        /* \"#utility.yul\":663:665   */\n      0x1f\n        /* \"#utility.yul\":656:661   */\n      dup4\n        /* \"#utility.yul\":652:666   */\n      add\n        /* \"#utility.yul\":648:676   */\n      and\n        /* \"#utility.yul\":638:676   */\n      swap1\n      pop\n        /* \"#utility.yul\":580:682   */\n      swap2\n      swap1\n      pop\n      jump\t// out\n        /* \"#utility.yul\":688:868   */\n    tag_25:\n        /* \"#utility.yul\":736:813   */\n      0x4e487b7100000000000000000000000000000000000000000000000000000000\n        /* \"#utility.yul\":733:734   */\n      0x00\n        /* \"#utility.yul\":726:814   */\n      mstore\n        /* \"#utility.yul\":833:837   */\n      0x41\n        /* \"#utility.yul\":830:831   */\n      0x04\n        /* \"#utility.yul\":823:838   */\n      mstore\n        /* \"#utility.yul\":857:861   */\n      0x24\n        /* \"#utility.yul\":854:855   */\n      0x00\n        /* \"#utility.yul\":847:862   */\n      revert\n        /* \"#utility.yul\":874:1155   */\n    tag_26:\n        /* \"#utility.yul\":957:984   */\n      tag_49\n        /* \"#utility.yul\":979:983   */\n      dup3\n        /* \"#utility.yul\":957:984   */\n      tag_24\n      jump\t// in\n    tag_49:\n        /* \"#utility.yul\":949:955   */\n      dup2\n        /* \"#utility.yul\":945:985   */\n      add\n        /* \"#utility.yul\":1087:1093   */\n      dup2\n        /* \"#utility.yul\":1075:1085   */\n      dup2\n        /* \"#utility.yul\":1072:1094   */\n      lt\n        /* \"#utility.yul\":1051:1069   */\n      0xffffffffffffffff\n        /* \"#utility.yul\":1039:1049   */\n      dup3\n        /* \"#utility.yul\":1036:1070   */\n      gt\n        /* \"#utility.yul\":1033:1095   */\n      or\n        /* \"#utility.yul\":1030:1118   */\n      iszero\n      tag_50\n      jumpi\n        /* \"#utility.yul\":1098:1116   */\n      tag_51\n      tag_25\n      jump\t// in\n    tag_51:\n        /* \"#utility.yul\":1030:1118   */\n    tag_50:\n        /* \"#utility.yul\":1138:1148   */\n      dup1\n        /* \"#utility.yul\":1134:1136   */\n      0x40\n        /* \"#utility.yul\":1127:1149   */\n      mstore\n        /* \"#utility.yul\":917:1155   */\n      pop\n        /* \"#utility.yul\":874:1155   */\n      pop\n      pop\n      jump\t// out\n        /* \"#utility.yul\":1161:1290   */\n    tag_27:\n        /* \"#utility.yul\":1195:1201   */\n      0x00\n        /* \"#utility.yul\":1222:1242   */\n      tag_53\n      tag_19\n      jump\t// in\n    tag_53:\n        /* \"#utility.yul\":1212:1242   */\n      swap1\n      pop\n        /* \"#utility.yul\":1251:1284   */\n      tag_54\n        /* \"#utility.yul\":1279:1283   */\n      dup3\n        /* \"#utility.yul\":1271:1277   */\n      dup3\n        /* \"#utility.yul\":1251:1284   */\n      tag_26\n      jump\t// in\n    tag_54:\n        /* \"#utility.yul\":1161:1290   */\n      swap2\n      swap1\n      pop\n      jump\t// out\n        /* \"#utility.yul\":1296:1604   */\n    tag_28:\n        /* \"#utility.yul\":1358:1362   */\n      0x00\n        /* \"#utility.yul\":1448:1466   */\n      0xffffffffffffffff\n        /* \"#utility.yul\":1440:1446   */\n      dup3\n        /* \"#utility.yul\":1437:1467   */\n      gt\n        /* \"#utility.yul\":1434:1490   */\n      iszero\n      tag_56\n      jumpi\n        /* \"#utility.yul\":1470:1488   */\n      tag_57\n      tag_25\n      jump\t// in\n    tag_57:\n        /* \"#utility.yul\":1434:1490   */\n    tag_56:\n        /* \"#utility.yul\":1508:1537   */\n      tag_58\n        /* \"#utility.yul\":1530:1536   */\n      dup3\n        /* \"#utility.yul\":1508:1537   */\n      tag_24\n      jump\t// in\n    tag_58:\n        /* \"#utility.yul\":1500:1537   */\n      swap1\n      pop\n        /* \"#utility.yul\":1592:1596   */\n      0x20\n        /* \"#utility.yul\":1586:1590   */\n      dup2\n        /* \"#utility.yul\":1582:1597   */\n      add\n        /* \"#utility.yul\":1574:1597   */\n      swap1\n      pop\n        /* \"#utility.yul\":1296:1604   */\n      swap2\n      swap1\n      pop\n      jump\t// out\n        /* \"#utility.yul\":1610:1758   */\n    tag_29:\n        /* \"#utility.yul\":1708:1714   */\n      dup3\n        /* \"#utility.yul\":1703:1706   */\n      dup2\n        /* \"#utility.yul\":1698:1701   */\n      dup4\n        /* \"#utility.yul\":1685:1715   */\n      calldatacopy\n        /* \"#utility.yul\":1749:1750   */\n      0x00\n        /* \"#utility.yul\":1740:1746   */\n      dup4\n        /* \"#utility.yul\":1735:1738   */\n      dup4\n        /* \"#utility.yul\":1731:1747   */\n      add\n        /* \"#utility.yul\":1724:1751   */\n      mstore\n        /* \"#utility.yul\":1610:1758   */\n      pop\n      pop\n      pop\n      jump\t// out\n        /* \"#utility.yul\":1764:2189   */\n    tag_30:\n        /* \"#utility.yul\":1842:1847   */\n      0x00\n        /* \"#utility.yul\":1867:1933   */\n      tag_61\n        /* \"#utility.yul\":1883:1932   */\n      tag_62\n        /* \"#utility.yul\":1925:1931   */\n      dup5\n        /* \"#utility.yul\":1883:1932   */\n      tag_28\n      jump\t// in\n    tag_62:\n        /* \"#utility.yul\":1867:1933   */\n      tag_27\n      jump\t// in\n    tag_61:\n        /* \"#utility.yul\":1858:1933   */\n      swap1\n      pop\n        /* \"#utility.yul\":1956:1962   */\n      dup3\n        /* \"#utility.yul\":1949:1954   */\n      dup2\n        /* \"#utility.yul\":1942:1963   */\n      mstore\n        /* \"#utility.yul\":1994:1998   */\n      0x20\n        /* \"#utility.yul\":1987:1992   */\n      dup2\n        /* \"#utility.yul\":1983:1999   */\n      add\n        /* \"#utility.yul\":2032:2035   */\n      dup5\n        /* \"#utility.yul\":2023:2029   */\n      dup5\n        /* \"#utility.yul\":2018:2021   */\n      dup5\n        /* \"#utility.yul\":2014:2030   */\n      add\n        /* \"#utility.yul\":2011:2036   */\n      gt\n        /* \"#utility.yul\":2008:2120   */\n      iszero\n      tag_63\n      jumpi\n        /* \"#utility.yul\":2039:2118   */\n      tag_64\n      tag_23\n      jump\t// in\n    tag_64:\n        /* \"#utility.yul\":2008:2120   */\n    tag_63:\n        /* \"#utility.yul\":2129:2183   */\n      tag_65\n        /* \"#utility.yul\":2176:2182   */\n      dup5\n        /* \"#utility.yul\":2171:2174   */\n      dup3\n        /* \"#utility.yul\":2166:2169   */\n      dup6\n        /* \"#utility.yul\":2129:2183   */\n      tag_29\n      jump\t// in\n    tag_65:\n        /* \"#utility.yul\":1848:2189   */\n      pop\n        /* \"#utility.yul\":1764:2189   */\n      swap4\n      swap3\n      pop\n      pop\n      pop\n      jump\t// out\n        /* \"#utility.yul\":2209:2549   */\n    tag_31:\n        /* \"#utility.yul\":2265:2270   */\n      0x00\n        /* \"#utility.yul\":2314:2317   */\n      dup3\n        /* \"#utility.yul\":2307:2311   */\n      0x1f\n        /* \"#utility.yul\":2299:2305   */\n      dup4\n        /* \"#utility.yul\":2295:2312   */\n      add\n        /* \"#utility.yul\":2291:2318   */\n      slt\n        /* \"#utility.yul\":2281:2403   */\n      tag_67\n      jumpi\n        /* \"#utility.yul\":2322:2401   */\n      tag_68\n      tag_22\n      jump\t// in\n    tag_68:\n        /* \"#utility.yul\":2281:2403   */\n    tag_67:\n        /* \"#utility.yul\":2439:2445   */\n      dup2\n        /* \"#utility.yul\":2426:2446   */\n      calldataload\n        /* \"#utility.yul\":2464:2543   */\n      tag_69\n        /* \"#utility.yul\":2539:2542   */\n      dup5\n        /* \"#utility.yul\":2531:2537   */\n      dup3\n        /* \"#utility.yul\":2524:2528   */\n      0x20\n        /* \"#utility.yul\":2516:2522   */\n      dup7\n        /* \"#utility.yul\":2512:2529   */\n      add\n        /* \"#utility.yul\":2464:2543   */\n      tag_30\n      jump\t// in\n    tag_69:\n        /* \"#utility.yul\":2455:2543   */\n      swap2\n      pop\n        /* \"#utility.yul\":2271:2549   */\n      pop\n        /* \"#utility.yul\":2209:2549   */\n      swap3\n      swap2\n      pop\n      pop\n      jump\t// out\n        /* \"#utility.yul\":2555:3064   */\n    tag_7:\n        /* \"#utility.yul\":2624:2630   */\n      0x00\n        /* \"#utility.yul\":2673:2675   */\n      0x20\n        /* \"#utility.yul\":2661:2670   */\n      dup3\n        /* \"#utility.yul\":2652:2659   */\n      dup5\n        /* \"#utility.yul\":2648:2671   */\n      sub\n        /* \"#utility.yul\":2644:2676   */\n      slt\n        /* \"#utility.yul\":2641:2760   */\n      iszero\n      tag_71\n      jumpi\n        /* \"#utility.yul\":2679:2758   */\n      tag_72\n      tag_20\n      jump\t// in\n    tag_72:\n        /* \"#utility.yul\":2641:2760   */\n    tag_71:\n        /* \"#utility.yul\":2827:2828   */\n      0x00\n        /* \"#utility.yul\":2816:2825   */\n      dup3\n        /* \"#utility.yul\":2812:2829   */\n      add\n        /* \"#utility.yul\":2799:2830   */\n      calldataload\n        /* \"#utility.yul\":2857:2875   */\n      0xffffffffffffffff\n        /* \"#utility.yul\":2849:2855   */\n      dup2\n        /* \"#utility.yul\":2846:2876   */\n      gt\n        /* \"#utility.yul\":2843:2960   */\n      iszero\n      tag_73\n      jumpi\n        /* \"#utility.yul\":2879:2958   */\n      tag_74\n      tag_21\n      jump\t// in\n    tag_74:\n        /* \"#utility.yul\":2843:2960   */\n    tag_73:\n        /* \"#utility.yul\":2984:3047   */\n      tag_75\n        /* \"#utility.yul\":3039:3046   */\n      dup5\n        /* \"#utility.yul\":3030:3036   */\n      dup3\n        /* \"#utility.yul\":3019:3028   */\n      dup6\n        /* \"#utility.yul\":3015:3037   */\n      add\n        /* \"#utility.yul\":2984:3047   */\n      tag_31\n      jump\t// in\n    tag_75:\n        /* \"#utility.yul\":2974:3047   */\n      swap2\n      pop\n        /* \"#utility.yul\":2770:3057   */\n      pop\n        /* \"#utility.yul\":2555:3064   */\n      swap3\n      swap2\n      pop\n      pop\n      jump\t// out\n        /* \"#utility.yul\":3070:3169   */\n    tag_32:\n        /* \"#utility.yul\":3122:3128   */\n      0x00\n        /* \"#utility.yul\":3156:3161   */\n      dup2\n        /* \"#utility.yul\":3150:3162   */\n      mload\n        /* \"#utility.yul\":3140:3162   */\n      swap1\n      pop\n        /* \"#utility.yul\":3070:3169   */\n      swap2\n      swap1\n      pop\n      jump\t// out\n        /* \"#utility.yul\":3175:3344   */\n    tag_33:\n        /* \"#utility.yul\":3259:3270   */\n      0x00\n        /* \"#utility.yul\":3293:3299   */\n      dup3\n        /* \"#utility.yul\":3288:3291   */\n      dup3\n        /* \"#utility.yul\":3281:3300   */\n      mstore\n        /* \"#utility.yul\":3333:3337   */\n      0x20\n        /* \"#utility.yul\":3328:3331   */\n      dup3\n        /* \"#utility.yul\":3324:3338   */\n      add\n        /* \"#utility.yul\":3309:3338   */\n      swap1\n      pop\n        /* \"#utility.yul\":3175:3344   */\n      swap3\n      swap2\n      pop\n      pop\n      jump\t// out\n        /* \"#utility.yul\":3350:3489   */\n    tag_34:\n        /* \"#utility.yul\":3439:3445   */\n      dup3\n        /* \"#utility.yul\":3434:3437   */\n      dup2\n        /* \"#utility.yul\":3429:3432   */\n      dup4\n        /* \"#utility.yul\":3423:3446   */\n      mcopy\n        /* \"#utility.yul\":3480:3481   */\n      0x00\n        /* \"#utility.yul\":3471:3477   */\n      dup4\n        /* \"#utility.yul\":3466:3469   */\n      dup4\n        /* \"#utility.yul\":3462:3478   */\n      add\n        /* \"#utility.yul\":3455:3482   */\n      mstore\n        /* \"#utility.yul\":3350:3489   */\n      pop\n      pop\n      pop\n      jump\t// out\n        /* \"#utility.yul\":3495:3872   */\n    tag_35:\n        /* \"#utility.yul\":3583:3586   */\n      0x00\n        /* \"#utility.yul\":3611:3650   */\n      tag_80\n        /* \"#utility.yul\":3644:3649   */\n      dup3\n        /* \"#utility.yul\":3611:3650   */\n      tag_32\n      jump\t// in\n    tag_80:\n        /* \"#utility.yul\":3666:3737   */\n      tag_81\n        /* \"#utility.yul\":3730:3736   */\n      dup2\n        /* \"#utility.yul\":3725:3728   */\n      dup6\n        /* \"#utility.yul\":3666:3737   */\n      tag_33\n      jump\t// in\n    tag_81:\n        /* \"#utility.yul\":3659:3737   */\n      swap4\n      pop\n        /* \"#utility.yul\":3746:3811   */\n      tag_82\n        /* \"#utility.yul\":3804:3810   */\n      dup2\n        /* \"#utility.yul\":3799:3802   */\n      dup6\n        /* \"#utility.yul\":3792:3796   */\n      0x20\n        /* \"#utility.yul\":3785:3790   */\n      dup7\n        /* \"#utility.yul\":3781:3797   */\n      add\n        /* \"#utility.yul\":3746:3811   */\n      tag_34\n      jump\t// in\n    tag_82:\n        /* \"#utility.yul\":3836:3865   */\n      tag_83\n        /* \"#utility.yul\":3858:3864   */\n      dup2\n        /* \"#utility.yul\":3836:3865   */\n      tag_24\n      jump\t// in\n    tag_83:\n        /* \"#utility.yul\":3831:3834   */\n      dup5\n        /* \"#utility.yul\":3827:3866   */\n      add\n        /* \"#utility.yul\":3820:3866   */\n      swap2\n      pop\n        /* \"#utility.yul\":3587:3872   */\n      pop\n        /* \"#utility.yul\":3495:3872   */\n      swap3\n      swap2\n      pop\n      pop\n      jump\t// out\n        /* \"#utility.yul\":3878:4191   */\n    tag_13:\n        /* \"#utility.yul\":3991:3995   */\n      0x00\n        /* \"#utility.yul\":4029:4031   */\n      0x20\n        /* \"#utility.yul\":4018:4027   */\n      dup3\n        /* \"#utility.yul\":4014:4032   */\n      add\n        /* \"#utility.yul\":4006:4032   */\n      swap1\n      pop\n        /* \"#utility.yul\":4078:4087   */\n      dup2\n        /* \"#utility.yul\":4072:4076   */\n      dup2\n        /* \"#utility.yul\":4068:4088   */\n      sub\n        /* \"#utility.yul\":4064:4065   */\n      0x00\n        /* \"#utility.yul\":4053:4062   */\n      dup4\n        /* \"#utility.yul\":4049:4066   */\n      add\n        /* \"#utility.yul\":4042:4089   */\n      mstore\n        /* \"#utility.yul\":4106:4184   */\n      tag_85\n        /* \"#utility.yul\":4179:4183   */\n      dup2\n        /* \"#utility.yul\":4170:4176   */\n      dup5\n        /* \"#utility.yul\":4106:4184   */\n      tag_35\n      jump\t// in\n    tag_85:\n        /* \"#utility.yul\":4098:4184   */\n      swap1\n      pop\n        /* \"#utility.yul\":3878:4191   */\n      swap3\n      swap2\n      pop\n      pop\n      jump\t// out\n        /* \"#utility.yul\":4197:4368   */\n    tag_36:\n        /* \"#utility.yul\":4337:4360   */\n      0x496d206c6561726e696e6720536f6c6964697479210000000000000000000000\n        /* \"#utility.yul\":4333:4334   */\n      0x00\n        /* \"#utility.yul\":4325:4331   */\n      dup3\n        /* \"#utility.yul\":4321:4335   */\n      add\n        /* \"#utility.yul\":4314:4361   */\n      mstore\n        /* \"#utility.yul\":4197:4368   */\n      pop\n      jump\t// out\n        /* \"#utility.yul\":4374:4740   */\n    tag_37:\n        /* \"#utility.yul\":4516:4519   */\n      0x00\n        /* \"#utility.yul\":4537:4604   */\n      tag_88\n        /* \"#utility.yul\":4601:4603   */\n      0x15\n        /* \"#utility.yul\":4596:4599   */\n      dup4\n        /* \"#utility.yul\":4537:4604   */\n      tag_33\n      jump\t// in\n    tag_88:\n        /* \"#utility.yul\":4530:4604   */\n      swap2\n      pop\n        /* \"#utility.yul\":4613:4706   */\n      tag_89\n        /* \"#utility.yul\":4702:4705   */\n      dup3\n        /* \"#utility.yul\":4613:4706   */\n      tag_36\n      jump\t// in\n    tag_89:\n        /* \"#utility.yul\":4731:4733   */\n      0x20\n        /* \"#utility.yul\":4726:4729   */\n      dup3\n        /* \"#utility.yul\":4722:4734   */\n      add\n        /* \"#utility.yul\":4715:4734   */\n      swap1\n      pop\n        /* \"#utility.yul\":4374:4740   */\n      swap2\n      swap1\n      pop\n      jump\t// out\n        /* \"#utility.yul\":4746:5165   */\n    tag_15:\n        /* \"#utility.yul\":4912:4916   */\n      0x00\n        /* \"#utility.yul\":4950:4952   */\n      0x20\n        /* \"#utility.yul\":4939:4948   */\n      dup3\n        /* \"#utility.yul\":4935:4953   */\n      add\n        /* \"#utility.yul\":4927:4953   */\n      swap1\n      pop\n        /* \"#utility.yul\":4999:5008   */\n      dup2\n        /* \"#utility.yul\":4993:4997   */\n      dup2\n        /* \"#utility.yul\":4989:5009   */\n      sub\n        /* \"#utility.yul\":4985:4986   */\n      0x00\n        /* \"#utility.yul\":4974:4983   */\n      dup4\n        /* \"#utility.yul\":4970:4987   */\n      add\n        /* \"#utility.yul\":4963:5010   */\n      mstore\n        /* \"#utility.yul\":5027:5158   */\n      tag_91\n        /* \"#utility.yul\":5153:5157   */\n      dup2\n        /* \"#utility.yul\":5027:5158   */\n      tag_37\n      jump\t// in\n    tag_91:\n        /* \"#utility.yul\":5019:5158   */\n      swap1\n      pop\n        /* \"#utility.yul\":4746:5165   */\n      swap2\n      swap1\n      pop\n      jump\t// out\n        /* \"#utility.yul\":5171:5333   */\n    tag_38:\n        /* \"#utility.yul\":5311:5325   */\n      0x48656c6c6f20576f726c64210000000000000000000000000000000000000000\n        /* \"#utility.yul\":5307:5308   */\n      0x00\n        /* \"#utility.yul\":5299:5305   */\n      dup3\n        /* \"#utility.yul\":5295:5309   */\n      add\n        /* \"#utility.yul\":5288:5326   */\n      mstore\n        /* \"#utility.yul\":5171:5333   */\n      pop\n      jump\t// out\n        /* \"#utility.yul\":5339:5705   */\n    tag_39:\n        /* \"#utility.yul\":5481:5484   */\n      0x00\n        /* \"#utility.yul\":5502:5569   */\n      tag_94\n        /* \"#utility.yul\":5566:5568   */\n      0x0c\n        /* \"#utility.yul\":5561:5564   */\n      dup4\n        /* \"#utility.yul\":5502:5569   */\n      tag_33\n      jump\t// in\n    tag_94:\n        /* \"#utility.yul\":5495:5569   */\n      swap2\n      pop\n        /* \"#utility.yul\":5578:5671   */\n      tag_95\n        /* \"#utility.yul\":5667:5670   */\n      dup3\n        /* \"#utility.yul\":5578:5671   */\n      tag_38\n      jump\t// in\n    tag_95:\n        /* \"#utility.yul\":5696:5698   */\n      0x20\n        /* \"#utility.yul\":5691:5694   */\n      dup3\n        /* \"#utility.yul\":5687:5699   */\n      add\n        /* \"#utility.yul\":5680:5699   */\n      swap1\n      pop\n        /* \"#utility.yul\":5339:5705   */\n      swap2\n      swap1\n      pop\n      jump\t// out\n        /* \"#utility.yul\":5711:6130   */\n    tag_18:\n        /* \"#utility.yul\":5877:5881   */\n      0x00\n        /* \"#utility.yul\":5915:5917   */\n      0x20\n        /* \"#utility.yul\":5904:5913   */\n      dup3\n        /* \"#utility.yul\":5900:5918   */\n      add\n        /* \"#utility.yul\":5892:5918   */\n      swap1\n      pop\n        /* \"#utility.yul\":5964:5973   */\n      dup2\n        /* \"#utility.yul\":5958:5962   */\n      dup2\n        /* \"#utility.yul\":5954:5974   */\n      sub\n        /* \"#utility.yul\":5950:5951   */\n      0x00\n        /* \"#utility.yul\":5939:5948   */\n      dup4\n        /* \"#utility.yul\":5935:5952   */\n      add\n        /* \"#utility.yul\":5928:5975   */\n      mstore\n        /* \"#utility.yul\":5992:6123   */\n      tag_97\n        /* \"#utility.yul\":6118:6122   */\n      dup2\n        /* \"#utility.yul\":5992:6123   */\n      tag_39\n      jump\t// in\n    tag_97:\n        /* \"#utility.yul\":5984:6123   */\n      swap1\n      pop\n        /* \"#utility.yul\":5711:6130   */\n      swap2\n      swap1\n      pop\n      jump\t// out\n\n    auxdata: 0xa2646970667358221220999315821fbf7a5618ca90be2ceb68df314cfb835a33ab83f284dafebb54112164736f6c634300081f0033\n}\n",
				"bytecode": {
					"linkReferences": {},
					"object": "6080604052348015600e575f5ffd5b506104638061001c5f395ff3fe608060405234801561000f575f5ffd5b5060043610610034575f3560e01c80632e3c2a4d14610038578063f8a8fd6d14610054575b5f5ffd5b610052600480360381019061004d9190610296565b61005e565b005b61005c6100fb565b005b3373ffffffffffffffffffffffffffffffffffffffff167f0738f4da267a110d810e6e89fc59e46be6de0c37b1d5cd559b267dc3688e74e0826040516100a4919061033d565b60405180910390a23373ffffffffffffffffffffffffffffffffffffffff167f0738f4da267a110d810e6e89fc59e46be6de0c37b1d5cd559b267dc3688e74e06040516100f0906103a7565b60405180910390a250565b3373ffffffffffffffffffffffffffffffffffffffff167f0738f4da267a110d810e6e89fc59e46be6de0c37b1d5cd559b267dc3688e74e060405161013f9061040f565b60405180910390a2565b5f604051905090565b5f5ffd5b5f5ffd5b5f5ffd5b5f5ffd5b5f601f19601f8301169050919050565b7f4e487b71000000000000000000000000000000000000000000000000000000005f52604160045260245ffd5b6101a882610162565b810181811067ffffffffffffffff821117156101c7576101c6610172565b5b80604052505050565b5f6101d9610149565b90506101e5828261019f565b919050565b5f67ffffffffffffffff82111561020457610203610172565b5b61020d82610162565b9050602081019050919050565b828183375f83830152505050565b5f61023a610235846101ea565b6101d0565b9050828152602081018484840111156102565761025561015e565b5b61026184828561021a565b509392505050565b5f82601f83011261027d5761027c61015a565b5b813561028d848260208601610228565b91505092915050565b5f602082840312156102ab576102aa610152565b5b5f82013567ffffffffffffffff8111156102c8576102c7610156565b5b6102d484828501610269565b91505092915050565b5f81519050919050565b5f82825260208201905092915050565b8281835e5f83830152505050565b5f61030f826102dd565b61031981856102e7565b93506103298185602086016102f7565b61033281610162565b840191505092915050565b5f6020820190508181035f8301526103558184610305565b905092915050565b7f496d206c6561726e696e6720536f6c69646974792100000000000000000000005f82015250565b5f6103916015836102e7565b915061039c8261035d565b602082019050919050565b5f6020820190508181035f8301526103be81610385565b9050919050565b7f48656c6c6f20576f726c642100000000000000000000000000000000000000005f82015250565b5f6103f9600c836102e7565b9150610404826103c5565b602082019050919050565b5f6020820190508181035f830152610426816103ed565b905091905056fea2646970667358221220999315821fbf7a5618ca90be2ceb68df314cfb835a33ab83f284dafebb54112164736f6c634300081f0033",
					"opcodes": "PUSH1 0x80 PUSH1 0x40 MSTORE CALLVALUE DUP1 ISZERO PUSH1 0xE JUMPI PUSH0 PUSH0 REVERT JUMPDEST POP PUSH2 0x463 DUP1 PUSH2 0x1C PUSH0 CODECOPY PUSH0 RETURN INVALID PUSH1 0x80 PUSH1 0x40 MSTORE CALLVALUE DUP1 ISZERO PUSH2 0xF JUMPI PUSH0 PUSH0 REVERT JUMPDEST POP PUSH1 0x4 CALLDATASIZE LT PUSH2 0x34 JUMPI PUSH0 CALLDATALOAD PUSH1 0xE0 SHR DUP1 PUSH4 0x2E3C2A4D EQ PUSH2 0x38 JUMPI DUP1 PUSH4 0xF8A8FD6D EQ PUSH2 0x54 JUMPI JUMPDEST PUSH0 PUSH0 REVERT JUMPDEST PUSH2 0x52 PUSH1 0x4 DUP1 CALLDATASIZE SUB DUP2 ADD SWAP1 PUSH2 0x4D SWAP2 SWAP1 PUSH2 0x296 JUMP JUMPDEST PUSH2 0x5E JUMP JUMPDEST STOP JUMPDEST PUSH2 0x5C PUSH2 0xFB JUMP JUMPDEST STOP JUMPDEST CALLER PUSH20 0xFFFFFFFFFFFFFFFFFFFFFFFFFFFFFFFFFFFFFFFF AND PUSH32 0x738F4DA267A110D810E6E89FC59E46BE6DE0C37B1D5CD559B267DC3688E74E0 DUP3 PUSH1 0x40 MLOAD PUSH2 0xA4 SWAP2 SWAP1 PUSH2 0x33D JUMP JUMPDEST PUSH1 0x40 MLOAD DUP1 SWAP2 SUB SWAP1 LOG2 CALLER PUSH20 0xFFFFFFFFFFFFFFFFFFFFFFFFFFFFFFFFFFFFFFFF AND PUSH32 0x738F4DA267A110D810E6E89FC59E46BE6DE0C37B1D5CD559B267DC3688E74E0 PUSH1 0x40 MLOAD PUSH2 0xF0 SWAP1 PUSH2 0x3A7 JUMP JUMPDEST PUSH1 0x40 MLOAD DUP1 SWAP2 SUB SWAP1 LOG2 POP JUMP JUMPDEST CALLER PUSH20 0xFFFFFFFFFFFFFFFFFFFFFFFFFFFFFFFFFFFFFFFF AND PUSH32 0x738F4DA267A110D810E6E89FC59E46BE6DE0C37B1D5CD559B267DC3688E74E0 PUSH1 0x40 MLOAD PUSH2 0x13F SWAP1 PUSH2 0x40F JUMP JUMPDEST PUSH1 0x40 MLOAD DUP1 SWAP2 SUB SWAP1 LOG2 JUMP JUMPDEST PUSH0 PUSH1 0x40 MLOAD SWAP1 POP SWAP1 JUMP JUMPDEST PUSH0 PUSH0 REVERT JUMPDEST PUSH0 PUSH0 REVERT JUMPDEST PUSH0 PUSH0 REVERT JUMPDEST PUSH0 PUSH0 REVERT JUMPDEST PUSH0 PUSH1 0x1F NOT PUSH1 0x1F DUP4 ADD AND SWAP1 POP SWAP2 SWAP1 POP JUMP JUMPDEST PUSH32 0x4E487B7100000000000000000000000000000000000000000000000000000000 PUSH0 MSTORE PUSH1 0x41 PUSH1 0x4 MSTORE PUSH1 0x24 PUSH0 REVERT JUMPDEST PUSH2 0x1A8 DUP3 PUSH2 0x162 JUMP JUMPDEST DUP2 ADD DUP2 DUP2 LT PUSH8 0xFFFFFFFFFFFFFFFF DUP3 GT OR ISZERO PUSH2 0x1C7 JUMPI PUSH2 0x1C6 PUSH2 0x172 JUMP JUMPDEST JUMPDEST DUP1 PUSH1 0x40 MSTORE POP POP POP JUMP JUMPDEST PUSH0 PUSH2 0x1D9 PUSH2 0x149 JUMP JUMPDEST SWAP1 POP PUSH2 0x1E5 DUP3 DUP3 PUSH2 0x19F JUMP JUMPDEST SWAP2 SWAP1 POP JUMP JUMPDEST PUSH0 PUSH8 0xFFFFFFFFFFFFFFFF DUP3 GT ISZERO PUSH2 0x204 JUMPI PUSH2 0x203 PUSH2 0x172 JUMP JUMPDEST JUMPDEST PUSH2 0x20D DUP3 PUSH2 0x162 JUMP JUMPDEST SWAP1 POP PUSH1 0x20 DUP2 ADD SWAP1 POP SWAP2 SWAP1 POP JUMP JUMPDEST DUP3 DUP2 DUP4 CALLDATACOPY PUSH0 DUP4 DUP4 ADD MSTORE POP POP POP JUMP JUMPDEST PUSH0 PUSH2 0x23A PUSH2 0x235 DUP5 PUSH2 0x1EA JUMP JUMPDEST PUSH2 0x1D0 JUMP JUMPDEST SWAP1 POP DUP3 DUP2 MSTORE PUSH1 0x20 DUP2 ADD DUP5 DUP5 DUP5 ADD GT ISZERO PUSH2 0x256 JUMPI PUSH2 0x255 PUSH2 0x15E JUMP JUMPDEST JUMPDEST PUSH2 0x261 DUP5 DUP3 DUP6 PUSH2 0x21A JUMP JUMPDEST POP SWAP4 SWAP3 POP POP POP JUMP JUMPDEST PUSH0 DUP3 PUSH1 0x1F DUP4 ADD SLT PUSH2 0x27D JUMPI PUSH2 0x27C PUSH2 0x15A JUMP JUMPDEST JUMPDEST DUP2 CALLDATALOAD PUSH2 0x28D DUP5 DUP3 PUSH1 0x20 DUP7 ADD PUSH2 0x228 JUMP JUMPDEST SWAP2 POP POP SWAP3 SWAP2 POP POP JUMP JUMPDEST PUSH0 PUSH1 0x20 DUP3 DUP5 SUB SLT ISZERO PUSH2 0x2AB JUMPI PUSH2 0x2AA PUSH2 0x152 JUMP JUMPDEST JUMPDEST PUSH0 DUP3 ADD CALLDATALOAD PUSH8 0xFFFFFFFFFFFFFFFF DUP2 GT ISZERO PUSH2 0x2C8 JUMPI PUSH2 0x2C7 PUSH2 0x156 JUMP JUMPDEST JUMPDEST PUSH2 0x2D4 DUP5 DUP3 DUP6 ADD PUSH2 0x269 JUMP JUMPDEST SWAP2 POP POP SWAP3 SWAP2 POP POP JUMP JUMPDEST PUSH0 DUP2 MLOAD SWAP1 POP SWAP2 SWAP1 POP JUMP JUMPDEST PUSH0 DUP3 DUP3 MSTORE PUSH1 0x20 DUP3 ADD SWAP1 POP SWAP3 SWAP2 POP POP JUMP JUMPDEST DUP3 DUP2 DUP4 MCOPY PUSH0 DUP4 DUP4 ADD MSTORE POP POP POP JUMP JUMPDEST PUSH0 PUSH2 0x30F DUP3 PUSH2 0x2DD JUMP JUMPDEST PUSH2 0x319 DUP2 DUP6 PUSH2 0x2E7 JUMP JUMPDEST SWAP4 POP PUSH2 0x329 DUP2 DUP6 PUSH1 0x20 DUP7 ADD PUSH2 0x2F7 JUMP JUMPDEST PUSH2 0x332 DUP2 PUSH2 0x162 JUMP JUMPDEST DUP5 ADD SWAP2 POP POP SWAP3 SWAP2 POP POP JUMP JUMPDEST PUSH0 PUSH1 0x20 DUP3 ADD SWAP1 POP DUP2 DUP2 SUB PUSH0 DUP4 ADD MSTORE PUSH2 0x355 DUP2 DUP5 PUSH2 0x305 JUMP JUMPDEST SWAP1 POP SWAP3 SWAP2 POP POP JUMP JUMPDEST PUSH32 0x496D206C6561726E696E6720536F6C6964697479210000000000000000000000 PUSH0 DUP3 ADD MSTORE POP JUMP JUMPDEST PUSH0 PUSH2 0x391 PUSH1 0x15 DUP4 PUSH2 0x2E7 JUMP JUMPDEST SWAP2 POP PUSH2 0x39C DUP3 PUSH2 0x35D JUMP JUMPDEST PUSH1 0x20 DUP3 ADD SWAP1 POP SWAP2 SWAP1 POP JUMP JUMPDEST PUSH0 PUSH1 0x20 DUP3 ADD SWAP1 POP DUP2 DUP2 SUB PUSH0 DUP4 ADD MSTORE PUSH2 0x3BE DUP2 PUSH2 0x385 JUMP JUMPDEST SWAP1 POP SWAP2 SWAP1 POP JUMP JUMPDEST PUSH32 0x48656C6C6F20576F726C64210000000000000000000000000000000000000000 PUSH0 DUP3 ADD MSTORE POP JUMP JUMPDEST PUSH0 PUSH2 0x3F9 PUSH1 0xC DUP4 PUSH2 0x2E7 JUMP JUMPDEST SWAP2 POP PUSH2 0x404 DUP3 PUSH2 0x3C5 JUMP JUMPDEST PUSH1 0x20 DUP3 ADD SWAP1 POP SWAP2 SWAP1 POP JUMP JUMPDEST PUSH0 PUSH1 0x20 DUP3 ADD SWAP1 POP DUP2 DUP2 SUB PUSH0 DUP4 ADD MSTORE PUSH2 0x426 DUP2 PUSH2 0x3ED JUMP JUMPDEST SWAP1 POP SWAP2 SWAP1 POP JUMP INVALID LOG2 PUSH5 0x6970667358 0x22 SLT KECCAK256 SWAP10 SWAP4 ISZERO DUP3 0x1F 0xBF PUSH27 0x5618CA90BE2CEB68DF314CFB835A33AB83F284DAFEBB5411216473 PUSH16 0x6C634300081F00330000000000000000 "
				},
				"gasEstimates": {
					"creation": {
						"codeDepositCost": "224600",
						"executionCost": "267",
						"totalCost": "224867"
					},
					"external": {
						"emitLog(string)": "infinite",
						"test()": "2323"
					}
				},
				"methodIdentifiers": {
					"emitLog(string)": "2e3c2a4d",
					"test()": "f8a8fd6d"
				}
			},
			"storageLayout": {
				"storage": [],
				"types": null
			},
			"userdoc": {
				"kind": "user",
				"methods": {},
				"version": 1
			}
		}
	}
}