{
	"contracts/VaultLogic.sol": {
		"VaultLogic": {
			"abi": [
				{
					"inputs": [],
					"name": "balance",
					"outputs": [
						{
							"internalType": "uint256",
							"name": "",
							"type": "uint256"
						}
					],
					"stateMutability": "view",
					"type": "function"
				},
				{
					"inputs": [],
					"name": "deposit",
					"outputs": [],
					"stateMutability": "payable",
					"type": "function"
				},
				{
					"inputs": [
						{
							"internalType": "address",
							"name": "_owner",
							"type": "address"
						}
					],
					"name": "initialize",
					"outputs": [],
					"stateMutability": "nonpayable",
					"type": "function"
				},
				{
					"inputs": [],
					"name": "owner",
					"outputs": [
						{
							"internalType": "address",
							"name": "",
							"type": "address"
						}
					],
					"stateMutability": "view",
					"type": "function"
				}
			],
			"devdoc": {
				"kind": "dev",
				"methods": {},
				"version": 1
			},
			"evm": {
				"assembly": "    /* \"contracts/VaultLogic.sol\":60:567  contract VaultLogic {... */\n  mstore(0x40, 0x80)\n  callvalue\n  dup1\n  iszero\n  tag_1\n  jumpi\n  revert(0x00, 0x00)\ntag_1:\n  pop\n  dataSize(sub_0)\n  dup1\n  dataOffset(sub_0)\n  0x00\n  codecopy\n  0x00\n  return\nstop\n\nsub_0: assembly {\n        /* \"contracts/VaultLogic.sol\":60:567  contract VaultLogic {... */\n      mstore(0x40, 0x80)\n      jumpi(tag_1, lt(calldatasize, 0x04))\n      shr(0xe0, calldataload(0x00))\n      dup1\n      0x8da5cb5b\n      eq\n      tag_2\n      jumpi\n      dup1\n      0xb69ef8a8\n      eq\n      tag_3\n      jumpi\n      dup1\n      0xc4d66de8\n      eq\n      tag_4\n      jumpi\n      dup1\n      0xd0e30db0\n      eq\n      tag_5\n      jumpi\n    tag_1:\n      revert(0x00, 0x00)\n        /* \"contracts/VaultLogic.sol\":128:148  address public owner */\n    tag_2:\n      callvalue\n      dup1\n      iszero\n      tag_6\n      jumpi\n      revert(0x00, 0x00)\n    tag_6:\n      pop\n      tag_7\n      tag_8\n      jump\t// in\n    tag_7:\n      mload(0x40)\n      tag_9\n      swap2\n      swap1\n      tag_10\n      jump\t// in\n    tag_9:\n      mload(0x40)\n      dup1\n      swap2\n      sub\n      swap1\n      return\n        /* \"contracts/VaultLogic.sol\":87:109  uint256 public balance */\n    tag_3:\n      callvalue\n      dup1\n      iszero\n      tag_11\n      jumpi\n      revert(0x00, 0x00)\n    tag_11:\n      pop\n      tag_12\n      tag_13\n      jump\t// in\n    tag_12:\n      mload(0x40)\n      tag_14\n      swap2\n      swap1\n      tag_15\n      jump\t// in\n    tag_14:\n      mload(0x40)\n      dup1\n      swap2\n      sub\n      swap1\n      return\n        /* \"contracts/VaultLogic.sol\":245:429  function initialize(address _owner) external {... */\n    tag_4:\n      callvalue\n      dup1\n      iszero\n      tag_16\n      jumpi\n      revert(0x00, 0x00)\n    tag_16:\n      pop\n      tag_17\n      0x04\n      dup1\n      calldatasize\n      sub\n      dup2\n      add\n      swap1\n      tag_18\n      swap2\n      swap1\n      tag_19\n      jump\t// in\n    tag_18:\n      tag_20\n      jump\t// in\n    tag_17:\n      stop\n        /* \"contracts/VaultLogic.sol\":437:564  function deposit() payable external {... */\n    tag_5:\n      tag_21\n      tag_22\n      jump\t// in\n    tag_21:\n      stop\n        /* \"contracts/VaultLogic.sol\":128:148  address public owner */\n    tag_8:\n      0x01\n      0x00\n      swap1\n      sload\n      swap1\n      0x0100\n      exp\n      swap1\n      div\n      0xffffffffffffffffffffffffffffffffffffffff\n      and\n      dup2\n      jump\t// out\n        /* \"contracts/VaultLogic.sol\":87:109  uint256 public balance */\n    tag_13:\n      sload(0x00)\n      dup2\n      jump\t// out\n        /* \"contracts/VaultLogic.sol\":245:429  function initialize(address _owner) external {... */\n    tag_20:\n        /* \"contracts/VaultLogic.sol\":310:321  initialized */\n      0x01\n      0x14\n      swap1\n      sload\n      swap1\n      0x0100\n      exp\n      swap1\n      div\n      0xff\n      and\n        /* \"contracts/VaultLogic.sol\":309:321  !initialized */\n      iszero\n        /* \"contracts/VaultLogic.sol\":301:345  require(!initialized, \"Already initialized\") */\n      tag_24\n      jumpi\n      mload(0x40)\n      0x08c379a000000000000000000000000000000000000000000000000000000000\n      dup2\n      mstore\n      0x04\n      add\n      tag_25\n      swap1\n      tag_26\n      jump\t// in\n    tag_25:\n      mload(0x40)\n      dup1\n      swap2\n      sub\n      swap1\n      revert\n    tag_24:\n        /* \"contracts/VaultLogic.sol\":364:370  _owner */\n      dup1\n        /* \"contracts/VaultLogic.sol\":356:361  owner */\n      0x01\n      0x00\n        /* \"contracts/VaultLogic.sol\":356:370  owner = _owner */\n      0x0100\n      exp\n      dup2\n      sload\n      dup2\n      0xffffffffffffffffffffffffffffffffffffffff\n      mul\n      not\n      and\n      swap1\n      dup4\n      0xffffffffffffffffffffffffffffffffffffffff\n      and\n      mul\n      or\n      swap1\n      sstore\n      pop\n        /* \"contracts/VaultLogic.sol\":391:392  0 */\n      0x00\n        /* \"contracts/VaultLogic.sol\":381:388  balance */\n      0x00\n        /* \"contracts/VaultLogic.sol\":381:392  balance = 0 */\n      dup2\n      swap1\n      sstore\n      pop\n        /* \"contracts/VaultLogic.sol\":417:421  true */\n      0x01\n        /* \"contracts/VaultLogic.sol\":403:414  initialized */\n      dup1\n      0x14\n        /* \"contracts/VaultLogic.sol\":403:421  initialized = true */\n      0x0100\n      exp\n      dup2\n      sload\n      dup2\n      0xff\n      mul\n      not\n      and\n      swap1\n      dup4\n      iszero\n      iszero\n      mul\n      or\n      swap1\n      sstore\n      pop\n        /* \"contracts/VaultLogic.sol\":245:429  function initialize(address _owner) external {... */\n      pop\n      jump\t// out\n        /* \"contracts/VaultLogic.sol\":437:564  function deposit() payable external {... */\n    tag_22:\n        /* \"contracts/VaultLogic.sol\":506:511  owner */\n      0x01\n      0x00\n      swap1\n      sload\n      swap1\n      0x0100\n      exp\n      swap1\n      div\n      0xffffffffffffffffffffffffffffffffffffffff\n      and\n        /* \"contracts/VaultLogic.sol\":492:511  msg.sender == owner */\n      0xffffffffffffffffffffffffffffffffffffffff\n      and\n        /* \"contracts/VaultLogic.sol\":492:502  msg.sender */\n      caller\n        /* \"contracts/VaultLogic.sol\":492:511  msg.sender == owner */\n      0xffffffffffffffffffffffffffffffffffffffff\n      and\n      eq\n        /* \"contracts/VaultLogic.sol\":484:525  require(msg.sender == owner, \"Not owner\") */\n      tag_28\n      jumpi\n      mload(0x40)\n      0x08c379a000000000000000000000000000000000000000000000000000000000\n      dup2\n      mstore\n      0x04\n      add\n      tag_29\n      swap1\n      tag_30\n      jump\t// in\n    tag_29:\n      mload(0x40)\n      dup1\n      swap2\n      sub\n      swap1\n      revert\n    tag_28:\n        /* \"contracts/VaultLogic.sol\":547:556  msg.value */\n      callvalue\n        /* \"contracts/VaultLogic.sol\":536:543  balance */\n      0x00\n      0x00\n        /* \"contracts/VaultLogic.sol\":536:556  balance += msg.value */\n      dup3\n      dup3\n      sload\n      tag_31\n      swap2\n      swap1\n      tag_32\n      jump\t// in\n    tag_31:\n      swap3\n      pop\n      pop\n      dup2\n      swap1\n      sstore\n      pop\n        /* \"contracts/VaultLogic.sol\":437:564  function deposit() payable external {... */\n      jump\t// out\n        /* \"#utility.yul\":7:133   */\n    tag_33:\n        /* \"#utility.yul\":44:51   */\n      0x00\n        /* \"#utility.yul\":84:126   */\n      0xffffffffffffffffffffffffffffffffffffffff\n        /* \"#utility.yul\":77:82   */\n      dup3\n        /* \"#utility.yul\":73:127   */\n      and\n        /* \"#utility.yul\":62:127   */\n      swap1\n      pop\n        /* \"#utility.yul\":7:133   */\n      swap2\n      swap1\n      pop\n      jump\t// out\n        /* \"#utility.yul\":139:235   */\n    tag_34:\n        /* \"#utility.yul\":176:183   */\n      0x00\n        /* \"#utility.yul\":205:229   */\n      tag_52\n        /* \"#utility.yul\":223:228   */\n      dup3\n        /* \"#utility.yul\":205:229   */\n      tag_33\n      jump\t// in\n    tag_52:\n        /* \"#utility.yul\":194:229   */\n      swap1\n      pop\n        /* \"#utility.yul\":139:235   */\n      swap2\n      swap1\n      pop\n      jump\t// out\n        /* \"#utility.yul\":241:359   */\n    tag_35:\n        /* \"#utility.yul\":328:352   */\n      tag_54\n        /* \"#utility.yul\":346:351   */\n      dup2\n        /* \"#utility.yul\":328:352   */\n      tag_34\n      jump\t// in\n    tag_54:\n        /* \"#utility.yul\":323:326   */\n      dup3\n        /* \"#utility.yul\":316:353   */\n      mstore\n        /* \"#utility.yul\":241:359   */\n      pop\n      pop\n      jump\t// out\n        /* \"#utility.yul\":365:587   */\n    tag_10:\n        /* \"#utility.yul\":458:462   */\n      0x00\n        /* \"#utility.yul\":496:498   */\n      0x20\n        /* \"#utility.yul\":485:494   */\n      dup3\n        /* \"#utility.yul\":481:499   */\n      add\n        /* \"#utility.yul\":473:499   */\n      swap1\n      pop\n        /* \"#utility.yul\":509:580   */\n      tag_56\n        /* \"#utility.yul\":577:578   */\n      0x00\n        /* \"#utility.yul\":566:575   */\n      dup4\n        /* \"#utility.yul\":562:579   */\n      add\n        /* \"#utility.yul\":553:559   */\n      dup5\n        /* \"#utility.yul\":509:580   */\n      tag_35\n      jump\t// in\n    tag_56:\n        /* \"#utility.yul\":365:587   */\n      swap3\n      swap2\n      pop\n      pop\n      jump\t// out\n        /* \"#utility.yul\":593:670   */\n    tag_36:\n        /* \"#utility.yul\":630:637   */\n      0x00\n        /* \"#utility.yul\":659:664   */\n      dup2\n        /* \"#utility.yul\":648:664   */\n      swap1\n      pop\n        /* \"#utility.yul\":593:670   */\n      swap2\n      swap1\n      pop\n      jump\t// out\n        /* \"#utility.yul\":676:794   */\n    tag_37:\n        /* \"#utility.yul\":763:787   */\n      tag_59\n        /* \"#utility.yul\":781:786   */\n      dup2\n        /* \"#utility.yul\":763:787   */\n      tag_36\n      jump\t// in\n    tag_59:\n        /* \"#utility.yul\":758:761   */\n      dup3\n        /* \"#utility.yul\":751:788   */\n      mstore\n        /* \"#utility.yul\":676:794   */\n      pop\n      pop\n      jump\t// out\n        /* \"#utility.yul\":800:1022   */\n    tag_15:\n        /* \"#utility.yul\":893:897   */\n      0x00\n        /* \"#utility.yul\":931:933   */\n      0x20\n        /* \"#utility.yul\":920:929   */\n      dup3\n        /* \"#utility.yul\":916:934   */\n      add\n        /* \"#utility.yul\":908:934   */\n      swap1\n      pop\n        /* \"#utility.yul\":944:1015   */\n      tag_61\n        /* \"#utility.yul\":1012:1013   */\n      0x00\n        /* \"#utility.yul\":1001:1010   */\n      dup4\n        /* \"#utility.yul\":997:1014   */\n      add\n        /* \"#utility.yul\":988:994   */\n      dup5\n        /* \"#utility.yul\":944:1015   */\n      tag_37\n      jump\t// in\n    tag_61:\n        /* \"#utility.yul\":800:1022   */\n      swap3\n      swap2\n      pop\n      pop\n      jump\t// out\n        /* \"#utility.yul\":1109:1226   */\n    tag_39:\n        /* \"#utility.yul\":1218:1219   */\n      0x00\n        /* \"#utility.yul\":1215:1216   */\n      0x00\n        /* \"#utility.yul\":1208:1220   */\n      revert\n        /* \"#utility.yul\":1355:1477   */\n    tag_41:\n        /* \"#utility.yul\":1428:1452   */\n      tag_66\n        /* \"#utility.yul\":1446:1451   */\n      dup2\n        /* \"#utility.yul\":1428:1452   */\n      tag_34\n      jump\t// in\n    tag_66:\n        /* \"#utility.yul\":1421:1426   */\n      dup2\n        /* \"#utility.yul\":1418:1453   */\n      eq\n        /* \"#utility.yul\":1408:1471   */\n      tag_67\n      jumpi\n        /* \"#utility.yul\":1467:1468   */\n      0x00\n        /* \"#utility.yul\":1464:1465   */\n      0x00\n        /* \"#utility.yul\":1457:1469   */\n      revert\n        /* \"#utility.yul\":1408:1471   */\n    tag_67:\n        /* \"#utility.yul\":1355:1477   */\n      pop\n      jump\t// out\n        /* \"#utility.yul\":1483:1622   */\n    tag_42:\n        /* \"#utility.yul\":1529:1534   */\n      0x00\n        /* \"#utility.yul\":1567:1573   */\n      dup2\n        /* \"#utility.yul\":1554:1574   */\n      calldataload\n        /* \"#utility.yul\":1545:1574   */\n      swap1\n      pop\n        /* \"#utility.yul\":1583:1616   */\n      tag_69\n        /* \"#utility.yul\":1610:1615   */\n      dup2\n        /* \"#utility.yul\":1583:1616   */\n      tag_41\n      jump\t// in\n    tag_69:\n        /* \"#utility.yul\":1483:1622   */\n      swap3\n      swap2\n      pop\n      pop\n      jump\t// out\n        /* \"#utility.yul\":1628:1957   */\n    tag_19:\n        /* \"#utility.yul\":1687:1693   */\n      0x00\n        /* \"#utility.yul\":1736:1738   */\n      0x20\n        /* \"#utility.yul\":1724:1733   */\n      dup3\n        /* \"#utility.yul\":1715:1722   */\n      dup5\n        /* \"#utility.yul\":1711:1734   */\n      sub\n        /* \"#utility.yul\":1707:1739   */\n      slt\n        /* \"#utility.yul\":1704:1823   */\n      iszero\n      tag_71\n      jumpi\n        /* \"#utility.yul\":1742:1821   */\n      tag_72\n      tag_39\n      jump\t// in\n    tag_72:\n        /* \"#utility.yul\":1704:1823   */\n    tag_71:\n        /* \"#utility.yul\":1862:1863   */\n      0x00\n        /* \"#utility.yul\":1887:1940   */\n      tag_73\n        /* \"#utility.yul\":1932:1939   */\n      dup5\n        /* \"#utility.yul\":1923:1929   */\n      dup3\n        /* \"#utility.yul\":1912:1921   */\n      dup6\n        /* \"#utility.yul\":1908:1930   */\n      add\n        /* \"#utility.yul\":1887:1940   */\n      tag_42\n      jump\t// in\n    tag_73:\n        /* \"#utility.yul\":1877:1940   */\n      swap2\n      pop\n        /* \"#utility.yul\":1833:1950   */\n      pop\n        /* \"#utility.yul\":1628:1957   */\n      swap3\n      swap2\n      pop\n      pop\n      jump\t// out\n        /* \"#utility.yul\":1963:2132   */\n    tag_43:\n        /* \"#utility.yul\":2047:2058   */\n      0x00\n        /* \"#utility.yul\":2081:2087   */\n      dup3\n        /* \"#utility.yul\":2076:2079   */\n      dup3\n        /* \"#utility.yul\":2069:2088   */\n      mstore\n        /* \"#utility.yul\":2121:2125   */\n      0x20\n        /* \"#utility.yul\":2116:2119   */\n      dup3\n        /* \"#utility.yul\":2112:2126   */\n      add\n        /* \"#utility.yul\":2097:2126   */\n      swap1\n      pop\n        /* \"#utility.yul\":1963:2132   */\n      swap3\n      swap2\n      pop\n      pop\n      jump\t// out\n        /* \"#utility.yul\":2138:2307   */\n    tag_44:\n        /* \"#utility.yul\":2278:2299   */\n      0x416c726561647920696e697469616c697a656400000000000000000000000000\n        /* \"#utility.yul\":2274:2275   */\n      0x00\n        /* \"#utility.yul\":2266:2272   */\n      dup3\n        /* \"#utility.yul\":2262:2276   */\n      add\n        /* \"#utility.yul\":2255:2300   */\n      mstore\n        /* \"#utility.yul\":2138:2307   */\n      pop\n      jump\t// out\n        /* \"#utility.yul\":2313:2679   */\n    tag_45:\n        /* \"#utility.yul\":2455:2458   */\n      0x00\n        /* \"#utility.yul\":2476:2543   */\n      tag_77\n        /* \"#utility.yul\":2540:2542   */\n      0x13\n        /* \"#utility.yul\":2535:2538   */\n      dup4\n        /* \"#utility.yul\":2476:2543   */\n      tag_43\n      jump\t// in\n    tag_77:\n        /* \"#utility.yul\":2469:2543   */\n      swap2\n      pop\n        /* \"#utility.yul\":2552:2645   */\n      tag_78\n        /* \"#utility.yul\":2641:2644   */\n      dup3\n        /* \"#utility.yul\":2552:2645   */\n      tag_44\n      jump\t// in\n    tag_78:\n        /* \"#utility.yul\":2670:2672   */\n      0x20\n        /* \"#utility.yul\":2665:2668   */\n      dup3\n        /* \"#utility.yul\":2661:2673   */\n      add\n        /* \"#utility.yul\":2654:2673   */\n      swap1\n      pop\n        /* \"#utility.yul\":2313:2679   */\n      swap2\n      swap1\n      pop\n      jump\t// out\n        /* \"#utility.yul\":2685:3104   */\n    tag_26:\n        /* \"#utility.yul\":2851:2855   */\n      0x00\n        /* \"#utility.yul\":2889:2891   */\n      0x20\n        /* \"#utility.yul\":2878:2887   */\n      dup3\n        /* \"#utility.yul\":2874:2892   */\n      add\n        /* \"#utility.yul\":2866:2892   */\n      swap1\n      pop\n        /* \"#utility.yul\":2938:2947   */\n      dup2\n        /* \"#utility.yul\":2932:2936   */\n      dup2\n        /* \"#utility.yul\":2928:2948   */\n      sub\n        /* \"#utility.yul\":2924:2925   */\n      0x00\n        /* \"#utility.yul\":2913:2922   */\n      dup4\n        /* \"#utility.yul\":2909:2926   */\n      add\n        /* \"#utility.yul\":2902:2949   */\n      mstore\n        /* \"#utility.yul\":2966:3097   */\n      tag_80\n        /* \"#utility.yul\":3092:3096   */\n      dup2\n        /* \"#utility.yul\":2966:3097   */\n      tag_45\n      jump\t// in\n    tag_80:\n        /* \"#utility.yul\":2958:3097   */\n      swap1\n      pop\n        /* \"#utility.yul\":2685:3104   */\n      swap2\n      swap1\n      pop\n      jump\t// out\n        /* \"#utility.yul\":3110:3269   */\n    tag_46:\n        /* \"#utility.yul\":3250:3261   */\n      0x4e6f74206f776e65720000000000000000000000000000000000000000000000\n        /* \"#utility.yul\":3246:3247   */\n      0x00\n        /* \"#utility.yul\":3238:3244   */\n      dup3\n        /* \"#utility.yul\":3234:3248   */\n      add\n        /* \"#utility.yul\":3227:3262   */\n      mstore\n        /* \"#utility.yul\":3110:3269   */\n      pop\n      jump\t// out\n        /* \"#utility.yul\":3275:3640   */\n    tag_47:\n        /* \"#utility.yul\":3417:3420   */\n      0x00\n        /* \"#utility.yul\":3438:3504   */\n      tag_83\n        /* \"#utility.yul\":3502:3503   */\n      0x09\n        /* \"#utility.yul\":3497:3500   */\n      dup4\n        /* \"#utility.yul\":3438:3504   */\n      tag_43\n      jump\t// in\n    tag_83:\n        /* \"#utility.yul\":3431:3504   */\n      swap2\n      pop\n        /* \"#utility.yul\":3513:3606   */\n      tag_84\n        /* \"#utility.yul\":3602:3605   */\n      dup3\n        /* \"#utility.yul\":3513:3606   */\n      tag_46\n      jump\t// in\n    tag_84:\n        /* \"#utility.yul\":3631:3633   */\n      0x20\n        /* \"#utility.yul\":3626:3629   */\n      dup3\n        /* \"#utility.yul\":3622:3634   */\n      add\n        /* \"#utility.yul\":3615:3634   */\n      swap1\n      pop\n        /* \"#utility.yul\":3275:3640   */\n      swap2\n      swap1\n      pop\n      jump\t// out\n        /* \"#utility.yul\":3646:4065   */\n    tag_30:\n        /* \"#utility.yul\":3812:3816   */\n      0x00\n        /* \"#utility.yul\":3850:3852   */\n      0x20\n        /* \"#utility.yul\":3839:3848   */\n      dup3\n        /* \"#utility.yul\":3835:3853   */\n      add\n        /* \"#utility.yul\":3827:3853   */\n      swap1\n      pop\n        /* \"#utility.yul\":3899:3908   */\n      dup2\n        /* \"#utility.yul\":3893:3897   */\n      dup2\n        /* \"#utility.yul\":3889:3909   */\n      sub\n        /* \"#utility.yul\":3885:3886   */\n      0x00\n        /* \"#utility.yul\":3874:3883   */\n      dup4\n        /* \"#utility.yul\":3870:3887   */\n      add\n        /* \"#utility.yul\":3863:3910   */\n      mstore\n        /* \"#utility.yul\":3927:4058   */\n      tag_86\n        /* \"#utility.yul\":4053:4057   */\n      dup2\n        /* \"#utility.yul\":3927:4058   */\n      tag_47\n      jump\t// in\n    tag_86:\n        /* \"#utility.yul\":3919:4058   */\n      swap1\n      pop\n        /* \"#utility.yul\":3646:4065   */\n      swap2\n      swap1\n      pop\n      jump\t// out\n        /* \"#utility.yul\":4071:4251   */\n    tag_48:\n        /* \"#utility.yul\":4119:4196   */\n      0x4e487b7100000000000000000000000000000000000000000000000000000000\n        /* \"#utility.yul\":4116:4117   */\n      0x00\n        /* \"#utility.yul\":4109:4197   */\n      mstore\n        /* \"#utility.yul\":4216:4220   */\n      0x11\n        /* \"#utility.yul\":4213:4214   */\n      0x04\n        /* \"#utility.yul\":4206:4221   */\n      mstore\n        /* \"#utility.yul\":4240:4244   */\n      0x24\n        /* \"#utility.yul\":4237:4238   */\n      0x00\n        /* \"#utility.yul\":4230:4245   */\n      revert\n        /* \"#utility.yul\":4257:4448   */\n    tag_32:\n        /* \"#utility.yul\":4297:4300   */\n      0x00\n        /* \"#utility.yul\":4316:4336   */\n      tag_89\n        /* \"#utility.yul\":4334:4335   */\n      dup3\n        /* \"#utility.yul\":4316:4336   */\n      tag_36\n      jump\t// in\n    tag_89:\n        /* \"#utility.yul\":4311:4336   */\n      swap2\n      pop\n        /* \"#utility.yul\":4350:4370   */\n      tag_90\n        /* \"#utility.yul\":4368:4369   */\n      dup4\n        /* \"#utility.yul\":4350:4370   */\n      tag_36\n      jump\t// in\n    tag_90:\n        /* \"#utility.yul\":4345:4370   */\n      swap3\n      pop\n        /* \"#utility.yul\":4393:4394   */\n      dup3\n        /* \"#utility.yul\":4390:4391   */\n      dup3\n        /* \"#utility.yul\":4386:4395   */\n      add\n        /* \"#utility.yul\":4379:4395   */\n      swap1\n      pop\n        /* \"#utility.yul\":4414:4417   */\n      dup1\n        /* \"#utility.yul\":4411:4412   */\n      dup3\n        /* \"#utility.yul\":4408:4418   */\n      gt\n        /* \"#utility.yul\":4405:4441   */\n      iszero\n      tag_91\n      jumpi\n        /* \"#utility.yul\":4421:4439   */\n      tag_92\n      tag_48\n      jump\t// in\n    tag_92:\n        /* \"#utility.yul\":4405:4441   */\n    tag_91:\n        /* \"#utility.yul\":4257:4448   */\n      swap3\n      swap2\n      pop\n      pop\n      jump\t// out\n\n    auxdata: 0xa26469706673582212203f0ee893fc61a72fdad95e1cbbcd3d48c5fa7b2944ae7f2c927852c234cdad8664736f6c634300081f0033\n}\n",
				"bytecode": {
					"linkReferences": {},
					"object": "6080604052348015600e575f5ffd5b506104a58061001c5f395ff3fe60806040526004361061003e575f3560e01c80638da5cb5b14610042578063b69ef8a81461006c578063c4d66de814610096578063d0e30db0146100be575b5f5ffd5b34801561004d575f5ffd5b506100566100c8565b604051610063919061028c565b60405180910390f35b348015610077575f5ffd5b506100806100ed565b60405161008d91906102bd565b60405180910390f35b3480156100a1575f5ffd5b506100bc60048036038101906100b79190610304565b6100f2565b005b6100c66101a5565b005b60015f9054906101000a900473ffffffffffffffffffffffffffffffffffffffff1681565b5f5481565b600160149054906101000a900460ff1615610142576040517f08c379a000000000000000000000000000000000000000000000000000000000815260040161013990610389565b60405180910390fd5b8060015f6101000a81548173ffffffffffffffffffffffffffffffffffffffff021916908373ffffffffffffffffffffffffffffffffffffffff1602179055505f5f8190555060018060146101000a81548160ff02191690831515021790555050565b60015f9054906101000a900473ffffffffffffffffffffffffffffffffffffffff1673ffffffffffffffffffffffffffffffffffffffff163373ffffffffffffffffffffffffffffffffffffffff1614610234576040517f08c379a000000000000000000000000000000000000000000000000000000000815260040161022b906103f1565b60405180910390fd5b345f5f828254610244919061043c565b92505081905550565b5f73ffffffffffffffffffffffffffffffffffffffff82169050919050565b5f6102768261024d565b9050919050565b6102868161026c565b82525050565b5f60208201905061029f5f83018461027d565b92915050565b5f819050919050565b6102b7816102a5565b82525050565b5f6020820190506102d05f8301846102ae565b92915050565b5f5ffd5b6102e38161026c565b81146102ed575f5ffd5b50565b5f813590506102fe816102da565b92915050565b5f60208284031215610319576103186102d6565b5b5f610326848285016102f0565b91505092915050565b5f82825260208201905092915050565b7f416c726561647920696e697469616c697a6564000000000000000000000000005f82015250565b5f61037360138361032f565b915061037e8261033f565b602082019050919050565b5f6020820190508181035f8301526103a081610367565b9050919050565b7f4e6f74206f776e657200000000000000000000000000000000000000000000005f82015250565b5f6103db60098361032f565b91506103e6826103a7565b602082019050919050565b5f6020820190508181035f830152610408816103cf565b9050919050565b7f4e487b71000000000000000000000000000000000000000000000000000000005f52601160045260245ffd5b5f610446826102a5565b9150610451836102a5565b92508282019050808211156104695761046861040f565b5b9291505056fea26469706673582212203f0ee893fc61a72fdad95e1cbbcd3d48c5fa7b2944ae7f2c927852c234cdad8664736f6c634300081f0033",
					"opcodes": "PUSH1 0x80 PUSH1 0x40 MSTORE CALLVALUE DUP1 ISZERO PUSH1 0xE JUMPI PUSH0 PUSH0 REVERT JUMPDEST POP PUSH2 0x4A5 DUP1 PUSH2 0x1C PUSH0 CODECOPY PUSH0 RETURN INVALID PUSH1 0x80 PUSH1 0x40 MSTORE PUSH1 0x4 CALLDATASIZE LT PUSH2 0x3E JUMPI PUSH0 CALLDATALOAD PUSH1 0xE0 SHR DUP1 PUSH4 0x8DA5CB5B EQ PUSH2 0x42 JUMPI DUP1 PUSH4 0xB69EF8A8 EQ PUSH2 0x6C JUMPI DUP1 PUSH4 0xC4D66DE8 EQ PUSH2 0x96 JUMPI DUP1 PUSH4 0xD0E30DB0 EQ PUSH2 0xBE JUMPI JUMPDEST PUSH0 PUSH0 REVERT JUMPDEST CALLVALUE DUP1 ISZERO PUSH2 0x4D JUMPI PUSH0 PUSH0 REVERT JUMPDEST POP PUSH2 0x56 PUSH2 0xC8 JUMP JUMPDEST PUSH1 0x40 MLOAD PUSH2 0x63 SWAP2 SWAP1 PUSH2 0x28C JUMP JUMPDEST PUSH1 0x40 MLOAD DUP1 SWAP2 SUB SWAP1 RETURN JUMPDEST CALLVALUE DUP1 ISZERO PUSH2 0x77 JUMPI PUSH0 PUSH0 REVERT JUMPDEST POP PUSH2 0x80 PUSH2 0xED JUMP JUMPDEST PUSH1 0x40 MLOAD PUSH2 0x8D SWAP2 SWAP1 PUSH2 0x2BD JUMP JUMPDEST PUSH1 0x40 MLOAD DUP1 SWAP2 SUB SWAP1 RETURN JUMPDEST CALLVALUE DUP1 ISZERO PUSH2 0xA1 JUMPI PUSH0 PUSH0 REVERT JUMPDEST POP PUSH2 0xBC PUSH1 0x4 DUP1 CALLDATASIZE SUB DUP2 ADD SWAP1 PUSH2 0xB7 SWAP2 SWAP1 PUSH2 0x304 JUMP JUMPDEST PUSH2 0xF2 JUMP JUMPDEST STOP JUMPDEST PUSH2 0xC6 PUSH2 0x1A5 JUMP JUMPDEST STOP JUMPDEST PUSH1 0x1 PUSH0 SWAP1 SLOAD SWAP1 PUSH2 0x100 EXP SWAP1 DIV PUSH20 0xFFFFFFFFFFFFFFFFFFFFFFFFFFFFFFFFFFFFFFFF AND DUP2 JUMP JUMPDEST PUSH0 SLOAD DUP2 JUMP JUMPDEST PUSH1 0x1 PUSH1 0x14 SWAP1 SLOAD SWAP1 PUSH2 0x100 EXP SWAP1 DIV PUSH1 0xFF AND ISZERO PUSH2 0x142 JUMPI PUSH1 0x40 MLOAD PUSH32 0x8C379A000000000000000000000000000000000000000000000000000000000 DUP2 MSTORE PUSH1 0x4 ADD PUSH2 0x139 SWAP1 PUSH2 0x389 JUMP JUMPDEST PUSH1 0x40 MLOAD DUP1 SWAP2 SUB SWAP1 REVERT JUMPDEST DUP1 PUSH1 0x1 PUSH0 PUSH2 0x100 EXP DUP2 SLOAD DUP2 PUSH20 0xFFFFFFFFFFFFFFFFFFFFFFFFFFFFFFFFFFFFFFFF MUL NOT AND SWAP1 DUP4 PUSH20 0xFFFFFFFFFFFFFFFFFFFFFFFFFFFFFFFFFFFFFFFF AND MUL OR SWAP1 SSTORE POP PUSH0 PUSH0 DUP2 SWAP1 SSTORE POP PUSH1 0x1 DUP1 PUSH1 0x14 PUSH2 0x100 EXP DUP2 SLOAD DUP2 PUSH1 0xFF MUL NOT AND SWAP1 DUP4 ISZERO ISZERO MUL OR SWAP1 SSTORE POP POP JUMP JUMPDEST PUSH1 0x1 PUSH0 SWAP1 SLOAD SWAP1 PUSH2 0x100 EXP SWAP1 DIV PUSH20 0xFFFFFFFFFFFFFFFFFFFFFFFFFFFFFFFFFFFFFFFF AND PUSH20 0xFFFFFFFFFFFFFFFFFFFFFFFFFFFFFFFFFFFFFFFF AND CALLER PUSH20 0xFFFFFFFFFFFFFFFFFFFFFFFFFFFFFFFFFFFFFFFF AND EQ PUSH2 0x234 JUMPI PUSH1 0x40 MLOAD PUSH32 0x8C379A000000000000000000000000000000000000000000000000000000000 DUP2 MSTORE PUSH1 0x4 ADD PUSH2 0x22B SWAP1 PUSH2 0x3F1 JUMP JUMPDEST PUSH1 0x40 MLOAD DUP1 SWAP2 SUB SWAP1 REVERT JUMPDEST CALLVALUE PUSH0 PUSH0 DUP3 DUP3 SLOAD PUSH2 0x244 SWAP2 SWAP1 PUSH2 0x43C JUMP JUMPDEST SWAP3 POP POP DUP2 SWAP1 SSTORE POP JUMP JUMPDEST PUSH0 PUSH20 0xFFFFFFFFFFFFFFFFFFFFFFFFFFFFFFFFFFFFFFFF DUP3 AND SWAP1 POP SWAP2 SWAP1 POP JUMP JUMPDEST PUSH0 PUSH2 0x276 DUP3 PUSH2 0x24D JUMP JUMPDEST SWAP1 POP SWAP2 SWAP1 POP JUMP JUMPDEST PUSH2 0x286 DUP2 PUSH2 0x26C JUMP JUMPDEST DUP3 MSTORE POP POP JUMP JUMPDEST PUSH0 PUSH1 0x20 DUP3 ADD SWAP1 POP PUSH2 0x29F PUSH0 DUP4 ADD DUP5 PUSH2 0x27D JUMP JUMPDEST SWAP3 SWAP2 POP POP JUMP JUMPDEST PUSH0 DUP2 SWAP1 POP SWAP2 SWAP1 POP JUMP JUMPDEST PUSH2 0x2B7 DUP2 PUSH2 0x2A5 JUMP JUMPDEST DUP3 MSTORE POP POP JUMP JUMPDEST PUSH0 PUSH1 0x20 DUP3 ADD SWAP1 POP PUSH2 0x2D0 PUSH0 DUP4 ADD DUP5 PUSH2 0x2AE JUMP JUMPDEST SWAP3 SWAP2 POP POP JUMP JUMPDEST PUSH0 PUSH0 REVERT JUMPDEST PUSH2 0x2E3 DUP2 PUSH2 0x26C JUMP JUMPDEST DUP2 EQ PUSH2 0x2ED JUMPI PUSH0 PUSH0 REVERT JUMPDEST POP JUMP JUMPDEST PUSH0 DUP2 CALLDATALOAD SWAP1 POP PUSH2 0x2FE DUP2 PUSH2 0x2DA JUMP JUMPDEST SWAP3 SWAP2 POP POP JUMP JUMPDEST PUSH0 PUSH1 0x20 DUP3 DUP5 SUB SLT ISZERO PUSH2 0x319 JUMPI PUSH2 0x318 PUSH2 0x2D6 JUMP JUMPDEST JUMPDEST PUSH0 PUSH2 0x326 DUP5 DUP3 DUP6 ADD PUSH2 0x2F0 JUMP JUMPDEST SWAP2 POP POP SWAP3 SWAP2 POP POP JUMP JUMPDEST PUSH0 DUP3 DUP3 MSTORE PUSH1 0x20 DUP3 ADD SWAP1 POP SWAP3 SWAP2 POP POP JUMP JUMPDEST PUSH32 0x416C726561647920696E697469616C697A656400000000000000000000000000 PUSH0 DUP3 ADD MSTORE POP JUMP JUMPDEST PUSH0 PUSH2 0x373 PUSH1 0x13 DUP4 PUSH2 0x32F JUMP JUMPDEST SWAP2 POP PUSH2 0x37E DUP3 PUSH2 0x33F JUMP JUMPDEST PUSH1 0x20 DUP3 ADD SWAP1 POP SWAP2 SWAP1 POP JUMP JUMPDEST PUSH0 PUSH1 0x20 DUP3 ADD SWAP1 POP DUP2 DUP2 SUB PUSH0 DUP4 ADD MSTORE PUSH2 0x3A0 DUP2 PUSH2 0x367 JUMP JUMPDEST SWAP1 POP SWAP2 SWAP1 POP JUMP JUMPDEST PUSH32 0x4E6F74206F776E65720000000000000000000000000000000000000000000000 PUSH0 DUP3 ADD MSTORE POP JUMP JUMPDEST PUSH0 PUSH2 0x3DB PUSH1 0x9 DUP4 PUSH2 0x32F JUMP JUMPDEST SWAP2 POP PUSH2 0x3E6 DUP3 PUSH2 0x3A7 JUMP JUMPDEST PUSH1 0x20 DUP3 ADD SWAP1 POP SWAP2 SWAP1 POP JUMP JUMPDEST PUSH0 PUSH1 0x20 DUP3 ADD SWAP1 POP DUP2 DUP2 SUB PUSH0 DUP4 ADD MSTORE PUSH2 0x408 DUP2 PUSH2 0x3CF JUMP JUMPDEST SWAP1 POP SWAP2 SWAP1 POP JUMP JUMPDEST PUSH32 0x4E487B7100000000000000000000000000000000000000000000000000000000 PUSH0 MSTORE PUSH1 0x11 PUSH1 0x4 MSTORE PUSH1 0x24 PUSH0 REVERT JUMPDEST PUSH0 PUSH2 0x446 DUP3 PUSH2 0x2A5 JUMP JUMPDEST SWAP2 POP PUSH2 0x451 DUP4 PUSH2 0x2A5 JUMP JUMPDEST SWAP3 POP DUP3 DUP3 ADD SWAP1 POP DUP1 DUP3 GT ISZERO PUSH2 0x469 JUMPI PUSH2 0x468 PUSH2 0x40F JUMP JUMPDEST JUMPDEST SWAP3 SWAP2 POP POP JUMP INVALID LOG2 PUSH5 0x6970667358 0x22 SLT KECCAK256 EXTCODEHASH 0xE 0xE8 SWAP4 0xFC PUSH2 0xA72F 0xDA 0xD9 MCOPY SHR 0xBB 0xCD RETURNDATASIZE BASEFEE 0xC5 STATICCALL PUSH28 0x2944AE7F2C927852C234CDAD8664736F6C634300081F003300000000 "
				},
				"gasEstimates": {
					"creation": {
						"codeDepositCost": "237800",
						"executionCost": "279",
						"totalCost": "238079"
					},
					"external": {
						"balance()": "2424",
						"deposit()": "infinite",
						"initialize(address)": "56272",
						"owner()": "2486"
					}
				},
				"methodIdentifiers": {
					"balance()": "b69ef8a8",
					"deposit()": "d0e30db0",
					"initialize(address)": "c4d66de8",
					"owner()": "8da5cb5b"
				}
			},
			"storageLayout": {
				"storage": [
					{
						"astId": 3,
						"contract": "contracts/VaultLogic.sol:VaultLogic",
						"label": "balance",
						"offset": 0,
						"slot": "0",
						"type": "t_uint256"
					},
					{
						"astId": 5,
						"contract": "contracts/VaultLogic.sol:VaultLogic",
						"label": "owner",
						"offset": 0,
						"slot": "1",
						"type": "t_address"
					},
					{
						"astId": 7,
						"contract": "contracts/VaultLogic.sol:VaultLogic",
						"label": "initialized",
						"offset": 20,
						"slot": "1",
						"type": "t_bool"
					}
				],
				"types": {
					"t_address": {
						"encoding": "inplace",
						"label": "address",
						"numberOfBytes": "20"
					},
					"t_bool": {
						"encoding": "inplace",
						"label": "bool",
						"numberOfBytes": "1"
					},
					"t_uint256": {
						"encoding": "inplace",
						"label": "uint256",
						"numberOfBytes": "32"
					}
				}
			},
			"userdoc": {
				"kind": "user",
				"methods": {},
				"version": 1
			}
		}
	}
}