{
	"contracts/TypeConversion.sol": {
		"TypeConversion": {
			"abi": [
				{
					"inputs": [],
					"stateMutability": "nonpayable",
					"type": "constructor"
				},
				{
					"inputs": [
						{
							"internalType": "address",
							"name": "_addr",
							"type": "address"
						}
					],
					"name": "convertToPayable",
					"outputs": [
						{
							"internalType": "address payable",
							"name": "",
							"type": "address"
						}
					],
					"stateMutability": "pure",
					"type": "function"
				},
				{
					"inputs": [],
					"name": "owner",
					"outputs": [
						{
							"internalType": "address payable",
							"name": "",
							"type": "address"
						}
					],
					"stateMutability": "view",
					"type": "function"
				}
			],
			"devdoc": {
				"kind": "dev",
				"methods": {},
				"version": 1
			},
			"evm": {
				"assembly": "    /* \"contracts/TypeConversion.sol\":74:332  contract TypeConversion {... */\n  mstore(0x40, 0x80)\n    /* \"contracts/TypeConversion.sol\":142:202  constructor() {... */\n  callvalue\n  dup1\n  iszero\n  tag_1\n  jumpi\n  revert(0x00, 0x00)\ntag_1:\n  pop\n    /* \"contracts/TypeConversion.sol\":183:193  msg.sender */\n  caller\n    /* \"contracts/TypeConversion.sol\":167:172  owner */\n  0x00\n  0x00\n    /* \"contracts/TypeConversion.sol\":167:194  owner = payable(msg.sender) */\n  0x0100\n  exp\n  dup2\n  sload\n  dup2\n  0xffffffffffffffffffffffffffffffffffffffff\n  mul\n  not\n  and\n  swap1\n  dup4\n  0xffffffffffffffffffffffffffffffffffffffff\n  and\n  mul\n  or\n  swap1\n  sstore\n  pop\n    /* \"contracts/TypeConversion.sol\":74:332  contract TypeConversion {... */\n  dataSize(sub_0)\n  dup1\n  dataOffset(sub_0)\n  0x00\n  codecopy\n  0x00\n  return\nstop\n\nsub_0: assembly {\n        /* \"contracts/TypeConversion.sol\":74:332  contract TypeConversion {... */\n      mstore(0x40, 0x80)\n      callvalue\n      dup1\n      iszero\n      tag_1\n      jumpi\n      revert(0x00, 0x00)\n    tag_1:\n      pop\n      jumpi(tag_2, lt(calldatasize, 0x04))\n      shr(0xe0, calldataload(0x00))\n      dup1\n      0x8da5cb5b\n      eq\n      tag_3\n      jumpi\n      dup1\n      0xd8a1e6e2\n      eq\n      tag_4\n      jumpi\n    tag_2:\n      revert(0x00, 0x00)\n        /* \"contracts/TypeConversion.sol\":105:133  address payable public owner */\n    tag_3:\n      tag_5\n      tag_6\n      jump\t// in\n    tag_5:\n      mload(0x40)\n      tag_7\n      swap2\n      swap1\n      tag_8\n      jump\t// in\n    tag_7:\n      mload(0x40)\n      dup1\n      swap2\n      sub\n      swap1\n      return\n        /* \"contracts/TypeConversion.sol\":210:329  function convertToPayable(address _addr) public pure returns (address payable) {... */\n    tag_4:\n      tag_9\n      0x04\n      dup1\n      calldatasize\n      sub\n      dup2\n      add\n      swap1\n      tag_10\n      swap2\n      swap1\n      tag_11\n      jump\t// in\n    tag_10:\n      tag_12\n      jump\t// in\n    tag_9:\n      mload(0x40)\n      tag_13\n      swap2\n      swap1\n      tag_8\n      jump\t// in\n    tag_13:\n      mload(0x40)\n      dup1\n      swap2\n      sub\n      swap1\n      return\n        /* \"contracts/TypeConversion.sol\":105:133  address payable public owner */\n    tag_6:\n      0x00\n      0x00\n      swap1\n      sload\n      swap1\n      0x0100\n      exp\n      swap1\n      div\n      0xffffffffffffffffffffffffffffffffffffffff\n      and\n      dup2\n      jump\t// out\n        /* \"contracts/TypeConversion.sol\":210:329  function convertToPayable(address _addr) public pure returns (address payable) {... */\n    tag_12:\n        /* \"contracts/TypeConversion.sol\":272:287  address payable */\n      0x00\n        /* \"contracts/TypeConversion.sol\":315:320  _addr */\n      dup2\n        /* \"contracts/TypeConversion.sol\":300:321  return payable(_addr) */\n      swap1\n      pop\n        /* \"contracts/TypeConversion.sol\":210:329  function convertToPayable(address _addr) public pure returns (address payable) {... */\n      swap2\n      swap1\n      pop\n      jump\t// out\n        /* \"#utility.yul\":7:133   */\n    tag_15:\n        /* \"#utility.yul\":44:51   */\n      0x00\n        /* \"#utility.yul\":84:126   */\n      0xffffffffffffffffffffffffffffffffffffffff\n        /* \"#utility.yul\":77:82   */\n      dup3\n        /* \"#utility.yul\":73:127   */\n      and\n        /* \"#utility.yul\":62:127   */\n      swap1\n      pop\n        /* \"#utility.yul\":7:133   */\n      swap2\n      swap1\n      pop\n      jump\t// out\n        /* \"#utility.yul\":139:243   */\n    tag_16:\n        /* \"#utility.yul\":184:191   */\n      0x00\n        /* \"#utility.yul\":213:237   */\n      tag_27\n        /* \"#utility.yul\":231:236   */\n      dup3\n        /* \"#utility.yul\":213:237   */\n      tag_15\n      jump\t// in\n    tag_27:\n        /* \"#utility.yul\":202:237   */\n      swap1\n      pop\n        /* \"#utility.yul\":139:243   */\n      swap2\n      swap1\n      pop\n      jump\t// out\n        /* \"#utility.yul\":249:391   */\n    tag_17:\n        /* \"#utility.yul\":352:384   */\n      tag_29\n        /* \"#utility.yul\":378:383   */\n      dup2\n        /* \"#utility.yul\":352:384   */\n      tag_16\n      jump\t// in\n    tag_29:\n        /* \"#utility.yul\":347:350   */\n      dup3\n        /* \"#utility.yul\":340:385   */\n      mstore\n        /* \"#utility.yul\":249:391   */\n      pop\n      pop\n      jump\t// out\n        /* \"#utility.yul\":397:651   */\n    tag_8:\n        /* \"#utility.yul\":506:510   */\n      0x00\n        /* \"#utility.yul\":544:546   */\n      0x20\n        /* \"#utility.yul\":533:542   */\n      dup3\n        /* \"#utility.yul\":529:547   */\n      add\n        /* \"#utility.yul\":521:547   */\n      swap1\n      pop\n        /* \"#utility.yul\":557:644   */\n      tag_31\n        /* \"#utility.yul\":641:642   */\n      0x00\n        /* \"#utility.yul\":630:639   */\n      dup4\n        /* \"#utility.yul\":626:643   */\n      add\n        /* \"#utility.yul\":617:623   */\n      dup5\n        /* \"#utility.yul\":557:644   */\n      tag_17\n      jump\t// in\n    tag_31:\n        /* \"#utility.yul\":397:651   */\n      swap3\n      swap2\n      pop\n      pop\n      jump\t// out\n        /* \"#utility.yul\":738:855   */\n    tag_19:\n        /* \"#utility.yul\":847:848   */\n      0x00\n        /* \"#utility.yul\":844:845   */\n      0x00\n        /* \"#utility.yul\":837:849   */\n      revert\n        /* \"#utility.yul\":984:1080   */\n    tag_21:\n        /* \"#utility.yul\":1021:1028   */\n      0x00\n        /* \"#utility.yul\":1050:1074   */\n      tag_36\n        /* \"#utility.yul\":1068:1073   */\n      dup3\n        /* \"#utility.yul\":1050:1074   */\n      tag_15\n      jump\t// in\n    tag_36:\n        /* \"#utility.yul\":1039:1074   */\n      swap1\n      pop\n        /* \"#utility.yul\":984:1080   */\n      swap2\n      swap1\n      pop\n      jump\t// out\n        /* \"#utility.yul\":1086:1208   */\n    tag_22:\n        /* \"#utility.yul\":1159:1183   */\n      tag_38\n        /* \"#utility.yul\":1177:1182   */\n      dup2\n        /* \"#utility.yul\":1159:1183   */\n      tag_21\n      jump\t// in\n    tag_38:\n        /* \"#utility.yul\":1152:1157   */\n      dup2\n        /* \"#utility.yul\":1149:1184   */\n      eq\n        /* \"#utility.yul\":1139:1202   */\n      tag_39\n      jumpi\n        /* \"#utility.yul\":1198:1199   */\n      0x00\n        /* \"#utility.yul\":1195:1196   */\n      0x00\n        /* \"#utility.yul\":1188:1200   */\n      revert\n        /* \"#utility.yul\":1139:1202   */\n    tag_39:\n        /* \"#utility.yul\":1086:1208   */\n      pop\n      jump\t// out\n        /* \"#utility.yul\":1214:1353   */\n    tag_23:\n        /* \"#utility.yul\":1260:1265   */\n      0x00\n        /* \"#utility.yul\":1298:1304   */\n      dup2\n        /* \"#utility.yul\":1285:1305   */\n      calldataload\n        /* \"#utility.yul\":1276:1305   */\n      swap1\n      pop\n        /* \"#utility.yul\":1314:1347   */\n      tag_41\n        /* \"#utility.yul\":1341:1346   */\n      dup2\n        /* \"#utility.yul\":1314:1347   */\n      tag_22\n      jump\t// in\n    tag_41:\n        /* \"#utility.yul\":1214:1353   */\n      swap3\n      swap2\n      pop\n      pop\n      jump\t// out\n        /* \"#utility.yul\":1359:1688   */\n    tag_11:\n        /* \"#utility.yul\":1418:1424   */\n      0x00\n        /* \"#utility.yul\":1467:1469   */\n      0x20\n        /* \"#utility.yul\":1455:1464   */\n      dup3\n        /* \"#utility.yul\":1446:1453   */\n      dup5\n        /* \"#utility.yul\":1442:1465   */\n      sub\n        /* \"#utility.yul\":1438:1470   */\n      slt\n        /* \"#utility.yul\":1435:1554   */\n      iszero\n      tag_43\n      jumpi\n        /* \"#utility.yul\":1473:1552   */\n      tag_44\n      tag_19\n      jump\t// in\n    tag_44:\n        /* \"#utility.yul\":1435:1554   */\n    tag_43:\n        /* \"#utility.yul\":1593:1594   */\n      0x00\n        /* \"#utility.yul\":1618:1671   */\n      tag_45\n        /* \"#utility.yul\":1663:1670   */\n      dup5\n        /* \"#utility.yul\":1654:1660   */\n      dup3\n        /* \"#utility.yul\":1643:1652   */\n      dup6\n        /* \"#utility.yul\":1639:1661   */\n      add\n        /* \"#utility.yul\":1618:1671   */\n      tag_23\n      jump\t// in\n    tag_45:\n        /* \"#utility.yul\":1608:1671   */\n      swap2\n      pop\n        /* \"#utility.yul\":1564:1681   */\n      pop\n        /* \"#utility.yul\":1359:1688   */\n      swap3\n      swap2\n      pop\n      pop\n      jump\t// out\n\n    auxdata: 0xa2646970667358221220bd4ae1aaaae6bddc292b96a79d561f5edcdb4dec504ae4ebdf2439bf005c65c764736f6c634300081f0033\n}\n",
				"bytecode": {
					"linkReferences": {},
					"object": "6080604052348015600e575f5ffd5b50335f5f6101000a81548173ffffffffffffffffffffffffffffffffffffffff021916908373ffffffffffffffffffffffffffffffffffffffff1602179055506101ab8061005b5f395ff3fe608060405234801561000f575f5ffd5b5060043610610034575f3560e01c80638da5cb5b14610038578063d8a1e6e214610056575b5f5ffd5b610040610086565b60405161004d91906100f2565b60405180910390f35b610070600480360381019061006b919061014a565b6100aa565b60405161007d91906100f2565b60405180910390f35b5f5f9054906101000a900473ffffffffffffffffffffffffffffffffffffffff1681565b5f819050919050565b5f73ffffffffffffffffffffffffffffffffffffffff82169050919050565b5f6100dc826100b3565b9050919050565b6100ec816100d2565b82525050565b5f6020820190506101055f8301846100e3565b92915050565b5f5ffd5b5f610119826100b3565b9050919050565b6101298161010f565b8114610133575f5ffd5b50565b5f8135905061014481610120565b92915050565b5f6020828403121561015f5761015e61010b565b5b5f61016c84828501610136565b9150509291505056fea2646970667358221220bd4ae1aaaae6bddc292b96a79d561f5edcdb4dec504ae4ebdf2439bf005c65c764736f6c634300081f0033",
					"opcodes": "PUSH1 0x80 PUSH1 0x40 MSTORE CALLVALUE DUP1 ISZERO PUSH1 0xE JUMPI PUSH0 PUSH0 REVERT JUMPDEST POP CALLER PUSH0 PUSH0 PUSH2 0x100 EXP DUP2 SLOAD DUP2 PUSH20 0xFFFFFFFFFFFFFFFFFFFFFFFFFFFFFFFFFFFFFFFF MUL NOT AND SWAP1 DUP4 PUSH20 0xFFFFFFFFFFFFFFFFFFFFFFFFFFFFFFFFFFFFFFFF AND MUL OR SWAP1 SSTORE POP PUSH2 0x1AB DUP1 PUSH2 0x5B PUSH0 CODECOPY PUSH0 RETURN INVALID PUSH1 0x80 PUSH1 0x40 MSTORE CALLVALUE DUP1 ISZERO PUSH2 0xF JUMPI PUSH0 PUSH0 REVERT JUMPDEST POP PUSH1 0x4 CALLDATASIZE LT PUSH2 0x34 JUMPI PUSH0 CALLDATALOAD PUSH1 0xE0 SHR DUP1 PUSH4 0x8DA5CB5B EQ PUSH2 0x38 JUMPI DUP1 PUSH4 0xD8A1E6E2 EQ PUSH2 0x56 JUMPI JUMPDEST PUSH0 PUSH0 REVERT JUMPDEST PUSH2 0x40 PUSH2 0x86 JUMP JUMPDEST PUSH1 0x40 MLOAD PUSH2 0x4D SWAP2 SWAP1 PUSH2 0xF2 JUMP JUMPDEST PUSH1 0x40 MLOAD DUP1 SWAP2 SUB SWAP1 RETURN JUMPDEST PUSH2 0x70 PUSH1 0x4 DUP1 CALLDATASIZE SUB DUP2 ADD SWAP1 PUSH2 0x6B SWAP2 SWAP1 PUSH2 0x14A JUMP JUMPDEST PUSH2 0xAA JUMP JUMPDEST PUSH1 0x40 MLOAD PUSH2 0x7D SWAP2 SWAP1 PUSH2 0xF2 JUMP JUMPDEST PUSH1 0x40 MLOAD DUP1 SWAP2 SUB SWAP1 RETURN JUMPDEST PUSH0 PUSH0 SWAP1 SLOAD SWAP1 PUSH2 0x100 EXP SWAP1 DIV PUSH20 0xFFFFFFFFFFFFFFFFFFFFFFFFFFFFFFFFFFFFFFFF AND DUP2 JUMP JUMPDEST PUSH0 DUP2 SWAP1 POP SWAP2 SWAP1 POP JUMP JUMPDEST PUSH0 PUSH20 0xFFFFFFFFFFFFFFFFFFFFFFFFFFFFFFFFFFFFFFFF DUP3 AND SWAP1 POP SWAP2 SWAP1 POP JUMP JUMPDEST PUSH0 PUSH2 0xDC DUP3 PUSH2 0xB3 JUMP JUMPDEST SWAP1 POP SWAP2 SWAP1 POP JUMP JUMPDEST PUSH2 0xEC DUP2 PUSH2 0xD2 JUMP JUMPDEST DUP3 MSTORE POP POP JUMP JUMPDEST PUSH0 PUSH1 0x20 DUP3 ADD SWAP1 POP PUSH2 0x105 PUSH0 DUP4 ADD DUP5 PUSH2 0xE3 JUMP JUMPDEST SWAP3 SWAP2 POP POP JUMP JUMPDEST PUSH0 PUSH0 REVERT JUMPDEST PUSH0 PUSH2 0x119 DUP3 PUSH2 0xB3 JUMP JUMPDEST SWAP1 POP SWAP2 SWAP1 POP JUMP JUMPDEST PUSH2 0x129 DUP2 PUSH2 0x10F JUMP JUMPDEST DUP2 EQ PUSH2 0x133 JUMPI PUSH0 PUSH0 REVERT JUMPDEST POP JUMP JUMPDEST PUSH0 DUP2 CALLDATALOAD SWAP1 POP PUSH2 0x144 DUP2 PUSH2 0x120 JUMP JUMPDEST SWAP3 SWAP2 POP POP JUMP JUMPDEST PUSH0 PUSH1 0x20 DUP3 DUP5 SUB SLT ISZERO PUSH2 0x15F JUMPI PUSH2 0x15E PUSH2 0x10B JUMP JUMPDEST JUMPDEST PUSH0 PUSH2 0x16C DUP5 DUP3 DUP6 ADD PUSH2 0x136 JUMP JUMPDEST SWAP2 POP POP SWAP3 SWAP2 POP POP JUMP INVALID LOG2 PUSH5 0x6970667358 0x22 SLT KECCAK256 0xBD BLOBBASEFEE RJUMPI 0xAAAA DUPN 0xBD 0xDC 0x29 0x2B SWAP7 0xA7 SWAP14 JUMP 0x1F MCOPY 0xDC 0xDB 0x4D EOFCREATE 0x50 BLOBBASEFEE RETF 0xEB 0xDF 0x24 CODECOPY 0xBF STOP TLOAD PUSH6 0xC764736F6C63 NUMBER STOP ADDMOD 0x1F STOP CALLER "
				},
				"gasEstimates": {
					"creation": {
						"codeDepositCost": "85400",
						"executionCost": "24397",
						"totalCost": "109797"
					},
					"external": {
						"convertToPayable(address)": "infinite",
						"owner()": "2485"
					}
				},
				"methodIdentifiers": {
					"convertToPayable(address)": "d8a1e6e2",
					"owner()": "8da5cb5b"
				}
			},
			"storageLayout": {
				"storage": [
					{
						"astId": 3,
						"contract": "contracts/TypeConversion.sol:TypeConversion",
						"label": "owner",
						"offset": 0,
						"slot": "0",
						"type": "t_address_payable"
					}
				],
				"types": {
					"t_address_payable": {
						"encoding": "inplace",
						"label": "address payable",
						"numberOfBytes": "20"
					}
				}
			},
			"userdoc": {
				"kind": "user",
				"methods": {},
				"version": 1
			}
		}
	}
}