{
	"contracts/OwnerWithdraw.sol": {
		"OwnerWithdraw": {
			"abi": [
				{
					"inputs": [],
					"stateMutability": "nonpayable",
					"type": "constructor"
				},
				{
					"inputs": [],
					"name": "deposit",
					"outputs": [],
					"stateMutability": "payable",
					"type": "function"
				},
				{
					"inputs": [
						{
							"internalType": "address",
							"name": "",
							"type": "address"
						}
					],
					"name": "deposits",
					"outputs": [
						{
							"internalType": "uint256",
							"name": "",
							"type": "uint256"
						}
					],
					"stateMutability": "view",
					"type": "function"
				},
				{
					"inputs": [],
					"name": "getBalance",
					"outputs": [
						{
							"internalType": "uint256",
							"name": "",
							"type": "uint256"
						}
					],
					"stateMutability": "view",
					"type": "function"
				},
				{
					"inputs": [],
					"name": "owner",
					"outputs": [
						{
							"internalType": "address payable",
							"name": "",
							"type": "address"
						}
					],
					"stateMutability": "view",
					"type": "function"
				},
				{
					"inputs": [
						{
							"internalType": "uint256",
							"name": "_amount",
							"type": "uint256"
						}
					],
					"name": "withdraw",
					"outputs": [],
					"stateMutability": "nonpayable",
					"type": "function"
				}
			],
			"devdoc": {
				"kind": "dev",
				"methods": {},
				"version": 1
			},
			"evm": {
				"assembly": "    /* \"contracts/OwnerWithdraw.sol\":57:688  contract OwnerWithdraw {... */\n  mstore(0x40, 0x80)\n    /* \"contracts/OwnerWithdraw.sol\":121:179  constructor() {... */\n  callvalue\n  dup1\n  iszero\n  tag_1\n  jumpi\n  revert(0x00, 0x00)\ntag_1:\n  pop\n    /* \"contracts/OwnerWithdraw.sol\":161:171  msg.sender */\n  caller\n    /* \"contracts/OwnerWithdraw.sol\":145:150  owner */\n  0x00\n  0x00\n    /* \"contracts/OwnerWithdraw.sol\":145:172  owner = payable(msg.sender) */\n  0x0100\n  exp\n  dup2\n  sload\n  dup2\n  0xffffffffffffffffffffffffffffffffffffffff\n  mul\n  not\n  and\n  swap1\n  dup4\n  0xffffffffffffffffffffffffffffffffffffffff\n  and\n  mul\n  or\n  swap1\n  sstore\n  pop\n    /* \"contracts/OwnerWithdraw.sol\":57:688  contract OwnerWithdraw {... */\n  dataSize(sub_0)\n  dup1\n  dataOffset(sub_0)\n  0x00\n  codecopy\n  0x00\n  return\nstop\n\nsub_0: assembly {\n        /* \"contracts/OwnerWithdraw.sol\":57:688  contract OwnerWithdraw {... */\n      mstore(0x40, 0x80)\n      jumpi(tag_1, lt(calldatasize, 0x04))\n      shr(0xe0, calldataload(0x00))\n      dup1\n      0x12065fe0\n      eq\n      tag_2\n      jumpi\n      dup1\n      0x2e1a7d4d\n      eq\n      tag_3\n      jumpi\n      dup1\n      0x8da5cb5b\n      eq\n      tag_4\n      jumpi\n      dup1\n      0xd0e30db0\n      eq\n      tag_5\n      jumpi\n      dup1\n      0xfc7e286d\n      eq\n      tag_6\n      jumpi\n    tag_1:\n      revert(0x00, 0x00)\n        /* \"contracts/OwnerWithdraw.sol\":590:686  function getBalance() external view returns (uint) {... */\n    tag_2:\n      callvalue\n      dup1\n      iszero\n      tag_7\n      jumpi\n      revert(0x00, 0x00)\n    tag_7:\n      pop\n      tag_8\n      tag_9\n      jump\t// in\n    tag_8:\n      mload(0x40)\n      tag_10\n      swap2\n      swap1\n      tag_11\n      jump\t// in\n    tag_10:\n      mload(0x40)\n      dup1\n      swap2\n      sub\n      swap1\n      return\n        /* \"contracts/OwnerWithdraw.sol\":380:585  function withdraw(uint _amount) external {... */\n    tag_3:\n      callvalue\n      dup1\n      iszero\n      tag_12\n      jumpi\n      revert(0x00, 0x00)\n    tag_12:\n      pop\n      tag_13\n      0x04\n      dup1\n      calldatasize\n      sub\n      dup2\n      add\n      swap1\n      tag_14\n      swap2\n      swap1\n      tag_15\n      jump\t// in\n    tag_14:\n      tag_16\n      jump\t// in\n    tag_13:\n      stop\n        /* \"contracts/OwnerWithdraw.sol\":86:114  address payable public owner */\n    tag_4:\n      callvalue\n      dup1\n      iszero\n      tag_17\n      jumpi\n      revert(0x00, 0x00)\n    tag_17:\n      pop\n      tag_18\n      tag_19\n      jump\t// in\n    tag_18:\n      mload(0x40)\n      tag_20\n      swap2\n      swap1\n      tag_21\n      jump\t// in\n    tag_20:\n      mload(0x40)\n      dup1\n      swap2\n      sub\n      swap1\n      return\n        /* \"contracts/OwnerWithdraw.sol\":232:374  function deposit() external payable {... */\n    tag_5:\n      tag_22\n      tag_23\n      jump\t// in\n    tag_22:\n      stop\n        /* \"contracts/OwnerWithdraw.sol\":185:225  mapping(address => uint) public deposits */\n    tag_6:\n      callvalue\n      dup1\n      iszero\n      tag_24\n      jumpi\n      revert(0x00, 0x00)\n    tag_24:\n      pop\n      tag_25\n      0x04\n      dup1\n      calldatasize\n      sub\n      dup2\n      add\n      swap1\n      tag_26\n      swap2\n      swap1\n      tag_27\n      jump\t// in\n    tag_26:\n      tag_28\n      jump\t// in\n    tag_25:\n      mload(0x40)\n      tag_29\n      swap2\n      swap1\n      tag_11\n      jump\t// in\n    tag_29:\n      mload(0x40)\n      dup1\n      swap2\n      sub\n      swap1\n      return\n        /* \"contracts/OwnerWithdraw.sol\":590:686  function getBalance() external view returns (uint) {... */\n    tag_9:\n        /* \"contracts/OwnerWithdraw.sol\":635:639  uint */\n      0x00\n        /* \"contracts/OwnerWithdraw.sol\":658:679  address(this).balance */\n      selfbalance\n        /* \"contracts/OwnerWithdraw.sol\":651:679  return address(this).balance */\n      swap1\n      pop\n        /* \"contracts/OwnerWithdraw.sol\":590:686  function getBalance() external view returns (uint) {... */\n      swap1\n      jump\t// out\n        /* \"contracts/OwnerWithdraw.sol\":380:585  function withdraw(uint _amount) external {... */\n    tag_16:\n        /* \"contracts/OwnerWithdraw.sol\":448:458  msg.sender */\n      caller\n        /* \"contracts/OwnerWithdraw.sol\":439:458  owner == msg.sender */\n      0xffffffffffffffffffffffffffffffffffffffff\n      and\n        /* \"contracts/OwnerWithdraw.sol\":439:444  owner */\n      0x00\n      0x00\n      swap1\n      sload\n      swap1\n      0x0100\n      exp\n      swap1\n      div\n      0xffffffffffffffffffffffffffffffffffffffff\n      and\n        /* \"contracts/OwnerWithdraw.sol\":439:458  owner == msg.sender */\n      0xffffffffffffffffffffffffffffffffffffffff\n      and\n      eq\n        /* \"contracts/OwnerWithdraw.sol\":431:473  require(owner == msg.sender, \"Not Owner!\") */\n      tag_32\n      jumpi\n      mload(0x40)\n      0x08c379a000000000000000000000000000000000000000000000000000000000\n      dup2\n      mstore\n      0x04\n      add\n      tag_33\n      swap1\n      tag_34\n      jump\t// in\n    tag_33:\n      mload(0x40)\n      dup1\n      swap2\n      sub\n      swap1\n      revert\n    tag_32:\n        /* \"contracts/OwnerWithdraw.sol\":484:496  bool success */\n      0x00\n        /* \"contracts/OwnerWithdraw.sol\":502:507  owner */\n      0x00\n      0x00\n      swap1\n      sload\n      swap1\n      0x0100\n      exp\n      swap1\n      div\n      0xffffffffffffffffffffffffffffffffffffffff\n      and\n        /* \"contracts/OwnerWithdraw.sol\":502:512  owner.call */\n      0xffffffffffffffffffffffffffffffffffffffff\n      and\n        /* \"contracts/OwnerWithdraw.sol\":520:527  _amount */\n      dup3\n        /* \"contracts/OwnerWithdraw.sol\":502:532  owner.call{value: _amount}(\"\") */\n      mload(0x40)\n      tag_35\n      swap1\n      tag_36\n      jump\t// in\n    tag_35:\n      0x00\n      mload(0x40)\n      dup1\n      dup4\n      sub\n      dup2\n      dup6\n      dup8\n      gas\n      call\n      swap3\n      pop\n      pop\n      pop\n      returndatasize\n      dup1\n      0x00\n      dup2\n      eq\n      tag_39\n      jumpi\n      mload(0x40)\n      swap2\n      pop\n      and(add(returndatasize, 0x3f), not(0x1f))\n      dup3\n      add\n      0x40\n      mstore\n      returndatasize\n      dup3\n      mstore\n      returndatasize\n      0x00\n      0x20\n      dup5\n      add\n      returndatacopy\n      jump(tag_38)\n    tag_39:\n      0x60\n      swap2\n      pop\n    tag_38:\n      pop\n        /* \"contracts/OwnerWithdraw.sol\":483:532  (bool success, ) = owner.call{value: _amount}(\"\") */\n      pop\n      swap1\n      pop\n        /* \"contracts/OwnerWithdraw.sol\":550:557  success */\n      dup1\n        /* \"contracts/OwnerWithdraw.sol\":542:578  require(success, \"Transfer Failed!\") */\n      tag_40\n      jumpi\n      mload(0x40)\n      0x08c379a000000000000000000000000000000000000000000000000000000000\n      dup2\n      mstore\n      0x04\n      add\n      tag_41\n      swap1\n      tag_42\n      jump\t// in\n    tag_41:\n      mload(0x40)\n      dup1\n      swap2\n      sub\n      swap1\n      revert\n    tag_40:\n        /* \"contracts/OwnerWithdraw.sol\":421:585  {... */\n      pop\n        /* \"contracts/OwnerWithdraw.sol\":380:585  function withdraw(uint _amount) external {... */\n      pop\n      jump\t// out\n        /* \"contracts/OwnerWithdraw.sol\":86:114  address payable public owner */\n    tag_19:\n      0x00\n      0x00\n      swap1\n      sload\n      swap1\n      0x0100\n      exp\n      swap1\n      div\n      0xffffffffffffffffffffffffffffffffffffffff\n      and\n      dup2\n      jump\t// out\n        /* \"contracts/OwnerWithdraw.sol\":232:374  function deposit() external payable {... */\n    tag_23:\n        /* \"contracts/OwnerWithdraw.sol\":298:299  0 */\n      0x00\n        /* \"contracts/OwnerWithdraw.sol\":286:295  msg.value */\n      callvalue\n        /* \"contracts/OwnerWithdraw.sol\":286:299  msg.value > 0 */\n      gt\n        /* \"contracts/OwnerWithdraw.sol\":278:324  require(msg.value > 0, \"Must send some Ether\") */\n      tag_44\n      jumpi\n      mload(0x40)\n      0x08c379a000000000000000000000000000000000000000000000000000000000\n      dup2\n      mstore\n      0x04\n      add\n      tag_45\n      swap1\n      tag_46\n      jump\t// in\n    tag_45:\n      mload(0x40)\n      dup1\n      swap2\n      sub\n      swap1\n      revert\n    tag_44:\n        /* \"contracts/OwnerWithdraw.sol\":358:367  msg.value */\n      callvalue\n        /* \"contracts/OwnerWithdraw.sol\":334:342  deposits */\n      0x01\n        /* \"contracts/OwnerWithdraw.sol\":334:354  deposits[msg.sender] */\n      0x00\n        /* \"contracts/OwnerWithdraw.sol\":343:353  msg.sender */\n      caller\n        /* \"contracts/OwnerWithdraw.sol\":334:354  deposits[msg.sender] */\n      0xffffffffffffffffffffffffffffffffffffffff\n      and\n      0xffffffffffffffffffffffffffffffffffffffff\n      and\n      dup2\n      mstore\n      0x20\n      add\n      swap1\n      dup2\n      mstore\n      0x20\n      add\n      0x00\n      keccak256\n      0x00\n        /* \"contracts/OwnerWithdraw.sol\":334:367  deposits[msg.sender] += msg.value */\n      dup3\n      dup3\n      sload\n      tag_47\n      swap2\n      swap1\n      tag_48\n      jump\t// in\n    tag_47:\n      swap3\n      pop\n      pop\n      dup2\n      swap1\n      sstore\n      pop\n        /* \"contracts/OwnerWithdraw.sol\":232:374  function deposit() external payable {... */\n      jump\t// out\n        /* \"contracts/OwnerWithdraw.sol\":185:225  mapping(address => uint) public deposits */\n    tag_28:\n      mstore(0x20, 0x01)\n      dup1\n      0x00\n      mstore\n      keccak256(0x00, 0x40)\n      0x00\n      swap2\n      pop\n      swap1\n      pop\n      sload\n      dup2\n      jump\t// out\n        /* \"#utility.yul\":7:84   */\n    tag_49:\n        /* \"#utility.yul\":44:51   */\n      0x00\n        /* \"#utility.yul\":73:78   */\n      dup2\n        /* \"#utility.yul\":62:78   */\n      swap1\n      pop\n        /* \"#utility.yul\":7:84   */\n      swap2\n      swap1\n      pop\n      jump\t// out\n        /* \"#utility.yul\":90:208   */\n    tag_50:\n        /* \"#utility.yul\":177:201   */\n      tag_76\n        /* \"#utility.yul\":195:200   */\n      dup2\n        /* \"#utility.yul\":177:201   */\n      tag_49\n      jump\t// in\n    tag_76:\n        /* \"#utility.yul\":172:175   */\n      dup3\n        /* \"#utility.yul\":165:202   */\n      mstore\n        /* \"#utility.yul\":90:208   */\n      pop\n      pop\n      jump\t// out\n        /* \"#utility.yul\":214:436   */\n    tag_11:\n        /* \"#utility.yul\":307:311   */\n      0x00\n        /* \"#utility.yul\":345:347   */\n      0x20\n        /* \"#utility.yul\":334:343   */\n      dup3\n        /* \"#utility.yul\":330:348   */\n      add\n        /* \"#utility.yul\":322:348   */\n      swap1\n      pop\n        /* \"#utility.yul\":358:429   */\n      tag_78\n        /* \"#utility.yul\":426:427   */\n      0x00\n        /* \"#utility.yul\":415:424   */\n      dup4\n        /* \"#utility.yul\":411:428   */\n      add\n        /* \"#utility.yul\":402:408   */\n      dup5\n        /* \"#utility.yul\":358:429   */\n      tag_50\n      jump\t// in\n    tag_78:\n        /* \"#utility.yul\":214:436   */\n      swap3\n      swap2\n      pop\n      pop\n      jump\t// out\n        /* \"#utility.yul\":523:640   */\n    tag_52:\n        /* \"#utility.yul\":632:633   */\n      0x00\n        /* \"#utility.yul\":629:630   */\n      0x00\n        /* \"#utility.yul\":622:634   */\n      revert\n        /* \"#utility.yul\":769:891   */\n    tag_54:\n        /* \"#utility.yul\":842:866   */\n      tag_83\n        /* \"#utility.yul\":860:865   */\n      dup2\n        /* \"#utility.yul\":842:866   */\n      tag_49\n      jump\t// in\n    tag_83:\n        /* \"#utility.yul\":835:840   */\n      dup2\n        /* \"#utility.yul\":832:867   */\n      eq\n        /* \"#utility.yul\":822:885   */\n      tag_84\n      jumpi\n        /* \"#utility.yul\":881:882   */\n      0x00\n        /* \"#utility.yul\":878:879   */\n      0x00\n        /* \"#utility.yul\":871:883   */\n      revert\n        /* \"#utility.yul\":822:885   */\n    tag_84:\n        /* \"#utility.yul\":769:891   */\n      pop\n      jump\t// out\n        /* \"#utility.yul\":897:1036   */\n    tag_55:\n        /* \"#utility.yul\":943:948   */\n      0x00\n        /* \"#utility.yul\":981:987   */\n      dup2\n        /* \"#utility.yul\":968:988   */\n      calldataload\n        /* \"#utility.yul\":959:988   */\n      swap1\n      pop\n        /* \"#utility.yul\":997:1030   */\n      tag_86\n        /* \"#utility.yul\":1024:1029   */\n      dup2\n        /* \"#utility.yul\":997:1030   */\n      tag_54\n      jump\t// in\n    tag_86:\n        /* \"#utility.yul\":897:1036   */\n      swap3\n      swap2\n      pop\n      pop\n      jump\t// out\n        /* \"#utility.yul\":1042:1371   */\n    tag_15:\n        /* \"#utility.yul\":1101:1107   */\n      0x00\n        /* \"#utility.yul\":1150:1152   */\n      0x20\n        /* \"#utility.yul\":1138:1147   */\n      dup3\n        /* \"#utility.yul\":1129:1136   */\n      dup5\n        /* \"#utility.yul\":1125:1148   */\n      sub\n        /* \"#utility.yul\":1121:1153   */\n      slt\n        /* \"#utility.yul\":1118:1237   */\n      iszero\n      tag_88\n      jumpi\n        /* \"#utility.yul\":1156:1235   */\n      tag_89\n      tag_52\n      jump\t// in\n    tag_89:\n        /* \"#utility.yul\":1118:1237   */\n    tag_88:\n        /* \"#utility.yul\":1276:1277   */\n      0x00\n        /* \"#utility.yul\":1301:1354   */\n      tag_90\n        /* \"#utility.yul\":1346:1353   */\n      dup5\n        /* \"#utility.yul\":1337:1343   */\n      dup3\n        /* \"#utility.yul\":1326:1335   */\n      dup6\n        /* \"#utility.yul\":1322:1344   */\n      add\n        /* \"#utility.yul\":1301:1354   */\n      tag_55\n      jump\t// in\n    tag_90:\n        /* \"#utility.yul\":1291:1354   */\n      swap2\n      pop\n        /* \"#utility.yul\":1247:1364   */\n      pop\n        /* \"#utility.yul\":1042:1371   */\n      swap3\n      swap2\n      pop\n      pop\n      jump\t// out\n        /* \"#utility.yul\":1377:1503   */\n    tag_56:\n        /* \"#utility.yul\":1414:1421   */\n      0x00\n        /* \"#utility.yul\":1454:1496   */\n      0xffffffffffffffffffffffffffffffffffffffff\n        /* \"#utility.yul\":1447:1452   */\n      dup3\n        /* \"#utility.yul\":1443:1497   */\n      and\n        /* \"#utility.yul\":1432:1497   */\n      swap1\n      pop\n        /* \"#utility.yul\":1377:1503   */\n      swap2\n      swap1\n      pop\n      jump\t// out\n        /* \"#utility.yul\":1509:1613   */\n    tag_57:\n        /* \"#utility.yul\":1554:1561   */\n      0x00\n        /* \"#utility.yul\":1583:1607   */\n      tag_93\n        /* \"#utility.yul\":1601:1606   */\n      dup3\n        /* \"#utility.yul\":1583:1607   */\n      tag_56\n      jump\t// in\n    tag_93:\n        /* \"#utility.yul\":1572:1607   */\n      swap1\n      pop\n        /* \"#utility.yul\":1509:1613   */\n      swap2\n      swap1\n      pop\n      jump\t// out\n        /* \"#utility.yul\":1619:1761   */\n    tag_58:\n        /* \"#utility.yul\":1722:1754   */\n      tag_95\n        /* \"#utility.yul\":1748:1753   */\n      dup2\n        /* \"#utility.yul\":1722:1754   */\n      tag_57\n      jump\t// in\n    tag_95:\n        /* \"#utility.yul\":1717:1720   */\n      dup3\n        /* \"#utility.yul\":1710:1755   */\n      mstore\n        /* \"#utility.yul\":1619:1761   */\n      pop\n      pop\n      jump\t// out\n        /* \"#utility.yul\":1767:2021   */\n    tag_21:\n        /* \"#utility.yul\":1876:1880   */\n      0x00\n        /* \"#utility.yul\":1914:1916   */\n      0x20\n        /* \"#utility.yul\":1903:1912   */\n      dup3\n        /* \"#utility.yul\":1899:1917   */\n      add\n        /* \"#utility.yul\":1891:1917   */\n      swap1\n      pop\n        /* \"#utility.yul\":1927:2014   */\n      tag_97\n        /* \"#utility.yul\":2011:2012   */\n      0x00\n        /* \"#utility.yul\":2000:2009   */\n      dup4\n        /* \"#utility.yul\":1996:2013   */\n      add\n        /* \"#utility.yul\":1987:1993   */\n      dup5\n        /* \"#utility.yul\":1927:2014   */\n      tag_58\n      jump\t// in\n    tag_97:\n        /* \"#utility.yul\":1767:2021   */\n      swap3\n      swap2\n      pop\n      pop\n      jump\t// out\n        /* \"#utility.yul\":2027:2123   */\n    tag_59:\n        /* \"#utility.yul\":2064:2071   */\n      0x00\n        /* \"#utility.yul\":2093:2117   */\n      tag_99\n        /* \"#utility.yul\":2111:2116   */\n      dup3\n        /* \"#utility.yul\":2093:2117   */\n      tag_56\n      jump\t// in\n    tag_99:\n        /* \"#utility.yul\":2082:2117   */\n      swap1\n      pop\n        /* \"#utility.yul\":2027:2123   */\n      swap2\n      swap1\n      pop\n      jump\t// out\n        /* \"#utility.yul\":2129:2251   */\n    tag_60:\n        /* \"#utility.yul\":2202:2226   */\n      tag_101\n        /* \"#utility.yul\":2220:2225   */\n      dup2\n        /* \"#utility.yul\":2202:2226   */\n      tag_59\n      jump\t// in\n    tag_101:\n        /* \"#utility.yul\":2195:2200   */\n      dup2\n        /* \"#utility.yul\":2192:2227   */\n      eq\n        /* \"#utility.yul\":2182:2245   */\n      tag_102\n      jumpi\n        /* \"#utility.yul\":2241:2242   */\n      0x00\n        /* \"#utility.yul\":2238:2239   */\n      0x00\n        /* \"#utility.yul\":2231:2243   */\n      revert\n        /* \"#utility.yul\":2182:2245   */\n    tag_102:\n        /* \"#utility.yul\":2129:2251   */\n      pop\n      jump\t// out\n        /* \"#utility.yul\":2257:2396   */\n    tag_61:\n        /* \"#utility.yul\":2303:2308   */\n      0x00\n        /* \"#utility.yul\":2341:2347   */\n      dup2\n        /* \"#utility.yul\":2328:2348   */\n      calldataload\n        /* \"#utility.yul\":2319:2348   */\n      swap1\n      pop\n        /* \"#utility.yul\":2357:2390   */\n      tag_104\n        /* \"#utility.yul\":2384:2389   */\n      dup2\n        /* \"#utility.yul\":2357:2390   */\n      tag_60\n      jump\t// in\n    tag_104:\n        /* \"#utility.yul\":2257:2396   */\n      swap3\n      swap2\n      pop\n      pop\n      jump\t// out\n        /* \"#utility.yul\":2402:2731   */\n    tag_27:\n        /* \"#utility.yul\":2461:2467   */\n      0x00\n        /* \"#utility.yul\":2510:2512   */\n      0x20\n        /* \"#utility.yul\":2498:2507   */\n      dup3\n        /* \"#utility.yul\":2489:2496   */\n      dup5\n        /* \"#utility.yul\":2485:2508   */\n      sub\n        /* \"#utility.yul\":2481:2513   */\n      slt\n        /* \"#utility.yul\":2478:2597   */\n      iszero\n      tag_106\n      jumpi\n        /* \"#utility.yul\":2516:2595   */\n      tag_107\n      tag_52\n      jump\t// in\n    tag_107:\n        /* \"#utility.yul\":2478:2597   */\n    tag_106:\n        /* \"#utility.yul\":2636:2637   */\n      0x00\n        /* \"#utility.yul\":2661:2714   */\n      tag_108\n        /* \"#utility.yul\":2706:2713   */\n      dup5\n        /* \"#utility.yul\":2697:2703   */\n      dup3\n        /* \"#utility.yul\":2686:2695   */\n      dup6\n        /* \"#utility.yul\":2682:2704   */\n      add\n        /* \"#utility.yul\":2661:2714   */\n      tag_61\n      jump\t// in\n    tag_108:\n        /* \"#utility.yul\":2651:2714   */\n      swap2\n      pop\n        /* \"#utility.yul\":2607:2724   */\n      pop\n        /* \"#utility.yul\":2402:2731   */\n      swap3\n      swap2\n      pop\n      pop\n      jump\t// out\n        /* \"#utility.yul\":2737:2906   */\n    tag_62:\n        /* \"#utility.yul\":2821:2832   */\n      0x00\n        /* \"#utility.yul\":2855:2861   */\n      dup3\n        /* \"#utility.yul\":2850:2853   */\n      dup3\n        /* \"#utility.yul\":2843:2862   */\n      mstore\n        /* \"#utility.yul\":2895:2899   */\n      0x20\n        /* \"#utility.yul\":2890:2893   */\n      dup3\n        /* \"#utility.yul\":2886:2900   */\n      add\n        /* \"#utility.yul\":2871:2900   */\n      swap1\n      pop\n        /* \"#utility.yul\":2737:2906   */\n      swap3\n      swap2\n      pop\n      pop\n      jump\t// out\n        /* \"#utility.yul\":2912:3072   */\n    tag_63:\n        /* \"#utility.yul\":3052:3064   */\n      0x4e6f74204f776e65722100000000000000000000000000000000000000000000\n        /* \"#utility.yul\":3048:3049   */\n      0x00\n        /* \"#utility.yul\":3040:3046   */\n      dup3\n        /* \"#utility.yul\":3036:3050   */\n      add\n        /* \"#utility.yul\":3029:3065   */\n      mstore\n        /* \"#utility.yul\":2912:3072   */\n      pop\n      jump\t// out\n        /* \"#utility.yul\":3078:3444   */\n    tag_64:\n        /* \"#utility.yul\":3220:3223   */\n      0x00\n        /* \"#utility.yul\":3241:3308   */\n      tag_112\n        /* \"#utility.yul\":3305:3307   */\n      0x0a\n        /* \"#utility.yul\":3300:3303   */\n      dup4\n        /* \"#utility.yul\":3241:3308   */\n      tag_62\n      jump\t// in\n    tag_112:\n        /* \"#utility.yul\":3234:3308   */\n      swap2\n      pop\n        /* \"#utility.yul\":3317:3410   */\n      tag_113\n        /* \"#utility.yul\":3406:3409   */\n      dup3\n        /* \"#utility.yul\":3317:3410   */\n      tag_63\n      jump\t// in\n    tag_113:\n        /* \"#utility.yul\":3435:3437   */\n      0x20\n        /* \"#utility.yul\":3430:3433   */\n      dup3\n        /* \"#utility.yul\":3426:3438   */\n      add\n        /* \"#utility.yul\":3419:3438   */\n      swap1\n      pop\n        /* \"#utility.yul\":3078:3444   */\n      swap2\n      swap1\n      pop\n      jump\t// out\n        /* \"#utility.yul\":3450:3869   */\n    tag_34:\n        /* \"#utility.yul\":3616:3620   */\n      0x00\n        /* \"#utility.yul\":3654:3656   */\n      0x20\n        /* \"#utility.yul\":3643:3652   */\n      dup3\n        /* \"#utility.yul\":3639:3657   */\n      add\n        /* \"#utility.yul\":3631:3657   */\n      swap1\n      pop\n        /* \"#utility.yul\":3703:3712   */\n      dup2\n        /* \"#utility.yul\":3697:3701   */\n      dup2\n        /* \"#utility.yul\":3693:3713   */\n      sub\n        /* \"#utility.yul\":3689:3690   */\n      0x00\n        /* \"#utility.yul\":3678:3687   */\n      dup4\n        /* \"#utility.yul\":3674:3691   */\n      add\n        /* \"#utility.yul\":3667:3714   */\n      mstore\n        /* \"#utility.yul\":3731:3862   */\n      tag_115\n        /* \"#utility.yul\":3857:3861   */\n      dup2\n        /* \"#utility.yul\":3731:3862   */\n      tag_64\n      jump\t// in\n    tag_115:\n        /* \"#utility.yul\":3723:3862   */\n      swap1\n      pop\n        /* \"#utility.yul\":3450:3869   */\n      swap2\n      swap1\n      pop\n      jump\t// out\n        /* \"#utility.yul\":3875:4022   */\n    tag_65:\n        /* \"#utility.yul\":3976:3987   */\n      0x00\n        /* \"#utility.yul\":4013:4016   */\n      dup2\n        /* \"#utility.yul\":3998:4016   */\n      swap1\n      pop\n        /* \"#utility.yul\":3875:4022   */\n      swap3\n      swap2\n      pop\n      pop\n      jump\t// out\n        /* \"#utility.yul\":4028:4142   */\n    tag_66:\n      pop\n      jump\t// out\n        /* \"#utility.yul\":4148:4546   */\n    tag_67:\n        /* \"#utility.yul\":4307:4310   */\n      0x00\n        /* \"#utility.yul\":4328:4411   */\n      tag_119\n        /* \"#utility.yul\":4409:4410   */\n      0x00\n        /* \"#utility.yul\":4404:4407   */\n      dup4\n        /* \"#utility.yul\":4328:4411   */\n      tag_65\n      jump\t// in\n    tag_119:\n        /* \"#utility.yul\":4321:4411   */\n      swap2\n      pop\n        /* \"#utility.yul\":4420:4513   */\n      tag_120\n        /* \"#utility.yul\":4509:4512   */\n      dup3\n        /* \"#utility.yul\":4420:4513   */\n      tag_66\n      jump\t// in\n    tag_120:\n        /* \"#utility.yul\":4538:4539   */\n      0x00\n        /* \"#utility.yul\":4533:4536   */\n      dup3\n        /* \"#utility.yul\":4529:4540   */\n      add\n        /* \"#utility.yul\":4522:4540   */\n      swap1\n      pop\n        /* \"#utility.yul\":4148:4546   */\n      swap2\n      swap1\n      pop\n      jump\t// out\n        /* \"#utility.yul\":4552:4931   */\n    tag_36:\n        /* \"#utility.yul\":4736:4739   */\n      0x00\n        /* \"#utility.yul\":4758:4905   */\n      tag_122\n        /* \"#utility.yul\":4901:4904   */\n      dup3\n        /* \"#utility.yul\":4758:4905   */\n      tag_67\n      jump\t// in\n    tag_122:\n        /* \"#utility.yul\":4751:4905   */\n      swap2\n      pop\n        /* \"#utility.yul\":4922:4925   */\n      dup2\n        /* \"#utility.yul\":4915:4925   */\n      swap1\n      pop\n        /* \"#utility.yul\":4552:4931   */\n      swap2\n      swap1\n      pop\n      jump\t// out\n        /* \"#utility.yul\":4937:5103   */\n    tag_68:\n        /* \"#utility.yul\":5077:5095   */\n      0x5472616e73666572204661696c65642100000000000000000000000000000000\n        /* \"#utility.yul\":5073:5074   */\n      0x00\n        /* \"#utility.yul\":5065:5071   */\n      dup3\n        /* \"#utility.yul\":5061:5075   */\n      add\n        /* \"#utility.yul\":5054:5096   */\n      mstore\n        /* \"#utility.yul\":4937:5103   */\n      pop\n      jump\t// out\n        /* \"#utility.yul\":5109:5475   */\n    tag_69:\n        /* \"#utility.yul\":5251:5254   */\n      0x00\n        /* \"#utility.yul\":5272:5339   */\n      tag_125\n        /* \"#utility.yul\":5336:5338   */\n      0x10\n        /* \"#utility.yul\":5331:5334   */\n      dup4\n        /* \"#utility.yul\":5272:5339   */\n      tag_62\n      jump\t// in\n    tag_125:\n        /* \"#utility.yul\":5265:5339   */\n      swap2\n      pop\n        /* \"#utility.yul\":5348:5441   */\n      tag_126\n        /* \"#utility.yul\":5437:5440   */\n      dup3\n        /* \"#utility.yul\":5348:5441   */\n      tag_68\n      jump\t// in\n    tag_126:\n        /* \"#utility.yul\":5466:5468   */\n      0x20\n        /* \"#utility.yul\":5461:5464   */\n      dup3\n        /* \"#utility.yul\":5457:5469   */\n      add\n        /* \"#utility.yul\":5450:5469   */\n      swap1\n      pop\n        /* \"#utility.yul\":5109:5475   */\n      swap2\n      swap1\n      pop\n      jump\t// out\n        /* \"#utility.yul\":5481:5900   */\n    tag_42:\n        /* \"#utility.yul\":5647:5651   */\n      0x00\n        /* \"#utility.yul\":5685:5687   */\n      0x20\n        /* \"#utility.yul\":5674:5683   */\n      dup3\n        /* \"#utility.yul\":5670:5688   */\n      add\n        /* \"#utility.yul\":5662:5688   */\n      swap1\n      pop\n        /* \"#utility.yul\":5734:5743   */\n      dup2\n        /* \"#utility.yul\":5728:5732   */\n      dup2\n        /* \"#utility.yul\":5724:5744   */\n      sub\n        /* \"#utility.yul\":5720:5721   */\n      0x00\n        /* \"#utility.yul\":5709:5718   */\n      dup4\n        /* \"#utility.yul\":5705:5722   */\n      add\n        /* \"#utility.yul\":5698:5745   */\n      mstore\n        /* \"#utility.yul\":5762:5893   */\n      tag_128\n        /* \"#utility.yul\":5888:5892   */\n      dup2\n        /* \"#utility.yul\":5762:5893   */\n      tag_69\n      jump\t// in\n    tag_128:\n        /* \"#utility.yul\":5754:5893   */\n      swap1\n      pop\n        /* \"#utility.yul\":5481:5900   */\n      swap2\n      swap1\n      pop\n      jump\t// out\n        /* \"#utility.yul\":5906:6076   */\n    tag_70:\n        /* \"#utility.yul\":6046:6068   */\n      0x4d7573742073656e6420736f6d65204574686572000000000000000000000000\n        /* \"#utility.yul\":6042:6043   */\n      0x00\n        /* \"#utility.yul\":6034:6040   */\n      dup3\n        /* \"#utility.yul\":6030:6044   */\n      add\n        /* \"#utility.yul\":6023:6069   */\n      mstore\n        /* \"#utility.yul\":5906:6076   */\n      pop\n      jump\t// out\n        /* \"#utility.yul\":6082:6448   */\n    tag_71:\n        /* \"#utility.yul\":6224:6227   */\n      0x00\n        /* \"#utility.yul\":6245:6312   */\n      tag_131\n        /* \"#utility.yul\":6309:6311   */\n      0x14\n        /* \"#utility.yul\":6304:6307   */\n      dup4\n        /* \"#utility.yul\":6245:6312   */\n      tag_62\n      jump\t// in\n    tag_131:\n        /* \"#utility.yul\":6238:6312   */\n      swap2\n      pop\n        /* \"#utility.yul\":6321:6414   */\n      tag_132\n        /* \"#utility.yul\":6410:6413   */\n      dup3\n        /* \"#utility.yul\":6321:6414   */\n      tag_70\n      jump\t// in\n    tag_132:\n        /* \"#utility.yul\":6439:6441   */\n      0x20\n        /* \"#utility.yul\":6434:6437   */\n      dup3\n        /* \"#utility.yul\":6430:6442   */\n      add\n        /* \"#utility.yul\":6423:6442   */\n      swap1\n      pop\n        /* \"#utility.yul\":6082:6448   */\n      swap2\n      swap1\n      pop\n      jump\t// out\n        /* \"#utility.yul\":6454:6873   */\n    tag_46:\n        /* \"#utility.yul\":6620:6624   */\n      0x00\n        /* \"#utility.yul\":6658:6660   */\n      0x20\n        /* \"#utility.yul\":6647:6656   */\n      dup3\n        /* \"#utility.yul\":6643:6661   */\n      add\n        /* \"#utility.yul\":6635:6661   */\n      swap1\n      pop\n        /* \"#utility.yul\":6707:6716   */\n      dup2\n        /* \"#utility.yul\":6701:6705   */\n      dup2\n        /* \"#utility.yul\":6697:6717   */\n      sub\n        /* \"#utility.yul\":6693:6694   */\n      0x00\n        /* \"#utility.yul\":6682:6691   */\n      dup4\n        /* \"#utility.yul\":6678:6695   */\n      add\n        /* \"#utility.yul\":6671:6718   */\n      mstore\n        /* \"#utility.yul\":6735:6866   */\n      tag_134\n        /* \"#utility.yul\":6861:6865   */\n      dup2\n        /* \"#utility.yul\":6735:6866   */\n      tag_71\n      jump\t// in\n    tag_134:\n        /* \"#utility.yul\":6727:6866   */\n      swap1\n      pop\n        /* \"#utility.yul\":6454:6873   */\n      swap2\n      swap1\n      pop\n      jump\t// out\n        /* \"#utility.yul\":6879:7059   */\n    tag_72:\n        /* \"#utility.yul\":6927:7004   */\n      0x4e487b7100000000000000000000000000000000000000000000000000000000\n        /* \"#utility.yul\":6924:6925   */\n      0x00\n        /* \"#utility.yul\":6917:7005   */\n      mstore\n        /* \"#utility.yul\":7024:7028   */\n      0x11\n        /* \"#utility.yul\":7021:7022   */\n      0x04\n        /* \"#utility.yul\":7014:7029   */\n      mstore\n        /* \"#utility.yul\":7048:7052   */\n      0x24\n        /* \"#utility.yul\":7045:7046   */\n      0x00\n        /* \"#utility.yul\":7038:7053   */\n      revert\n        /* \"#utility.yul\":7065:7256   */\n    tag_48:\n        /* \"#utility.yul\":7105:7108   */\n      0x00\n        /* \"#utility.yul\":7124:7144   */\n      tag_137\n        /* \"#utility.yul\":7142:7143   */\n      dup3\n        /* \"#utility.yul\":7124:7144   */\n      tag_49\n      jump\t// in\n    tag_137:\n        /* \"#utility.yul\":7119:7144   */\n      swap2\n      pop\n        /* \"#utility.yul\":7158:7178   */\n      tag_138\n        /* \"#utility.yul\":7176:7177   */\n      dup4\n        /* \"#utility.yul\":7158:7178   */\n      tag_49\n      jump\t// in\n    tag_138:\n        /* \"#utility.yul\":7153:7178   */\n      swap3\n      pop\n        /* \"#utility.yul\":7201:7202   */\n      dup3\n        /* \"#utility.yul\":7198:7199   */\n      dup3\n        /* \"#utility.yul\":7194:7203   */\n      add\n        /* \"#utility.yul\":7187:7203   */\n      swap1\n      pop\n        /* \"#utility.yul\":7222:7225   */\n      dup1\n        /* \"#utility.yul\":7219:7220   */\n      dup3\n        /* \"#utility.yul\":7216:7226   */\n      gt\n        /* \"#utility.yul\":7213:7249   */\n      iszero\n      tag_139\n      jumpi\n        /* \"#utility.yul\":7229:7247   */\n      tag_140\n      tag_72\n      jump\t// in\n    tag_140:\n        /* \"#utility.yul\":7213:7249   */\n    tag_139:\n        /* \"#utility.yul\":7065:7256   */\n      swap3\n      swap2\n      pop\n      pop\n      jump\t// out\n\n    auxdata: 0xa26469706673582212207d1746bc7eacfcde1e106b3a15119c542dde00c8350c94aa414191551cb18d8664736f6c634300081f0033\n}\n",
				"bytecode": {
					"linkReferences": {},
					"object": "6080604052348015600e575f5ffd5b50335f5f6101000a81548173ffffffffffffffffffffffffffffffffffffffff021916908373ffffffffffffffffffffffffffffffffffffffff1602179055506106a78061005b5f395ff3fe608060405260043610610049575f3560e01c806312065fe01461004d5780632e1a7d4d146100775780638da5cb5b1461009f578063d0e30db0146100c9578063fc7e286d146100d3575b5f5ffd5b348015610058575f5ffd5b5061006161010f565b60405161006e9190610358565b60405180910390f35b348015610082575f5ffd5b5061009d6004803603810190610098919061039f565b610116565b005b3480156100aa575f5ffd5b506100b3610270565b6040516100c09190610409565b60405180910390f35b6100d1610294565b005b3480156100de575f5ffd5b506100f960048036038101906100f4919061045d565b61032b565b6040516101069190610358565b60405180910390f35b5f47905090565b3373ffffffffffffffffffffffffffffffffffffffff165f5f9054906101000a900473ffffffffffffffffffffffffffffffffffffffff1673ffffffffffffffffffffffffffffffffffffffff16146101a4576040517f08c379a000000000000000000000000000000000000000000000000000000000815260040161019b906104e2565b60405180910390fd5b5f5f5f9054906101000a900473ffffffffffffffffffffffffffffffffffffffff1673ffffffffffffffffffffffffffffffffffffffff16826040516101e99061052d565b5f6040518083038185875af1925050503d805f8114610223576040519150601f19603f3d011682016040523d82523d5f602084013e610228565b606091505b505090508061026c576040517f08c379a00000000000000000000000000000000000000000000000000000000081526004016102639061058b565b60405180910390fd5b5050565b5f5f9054906101000a900473ffffffffffffffffffffffffffffffffffffffff1681565b5f34116102d6576040517f08c379a00000000000000000000000000000000000000000000000000000000081526004016102cd906105f3565b60405180910390fd5b3460015f3373ffffffffffffffffffffffffffffffffffffffff1673ffffffffffffffffffffffffffffffffffffffff1681526020019081526020015f205f828254610322919061063e565b92505081905550565b6001602052805f5260405f205f915090505481565b5f819050919050565b61035281610340565b82525050565b5f60208201905061036b5f830184610349565b92915050565b5f5ffd5b61037e81610340565b8114610388575f5ffd5b50565b5f8135905061039981610375565b92915050565b5f602082840312156103b4576103b3610371565b5b5f6103c18482850161038b565b91505092915050565b5f73ffffffffffffffffffffffffffffffffffffffff82169050919050565b5f6103f3826103ca565b9050919050565b610403816103e9565b82525050565b5f60208201905061041c5f8301846103fa565b92915050565b5f61042c826103ca565b9050919050565b61043c81610422565b8114610446575f5ffd5b50565b5f8135905061045781610433565b92915050565b5f6020828403121561047257610471610371565b5b5f61047f84828501610449565b91505092915050565b5f82825260208201905092915050565b7f4e6f74204f776e657221000000000000000000000000000000000000000000005f82015250565b5f6104cc600a83610488565b91506104d782610498565b602082019050919050565b5f6020820190508181035f8301526104f9816104c0565b9050919050565b5f81905092915050565b50565b5f6105185f83610500565b91506105238261050a565b5f82019050919050565b5f6105378261050d565b9150819050919050565b7f5472616e73666572204661696c656421000000000000000000000000000000005f82015250565b5f610575601083610488565b915061058082610541565b602082019050919050565b5f6020820190508181035f8301526105a281610569565b9050919050565b7f4d7573742073656e6420736f6d652045746865720000000000000000000000005f82015250565b5f6105dd601483610488565b91506105e8826105a9565b602082019050919050565b5f6020820190508181035f83015261060a816105d1565b9050919050565b7f4e487b71000000000000000000000000000000000000000000000000000000005f52601160045260245ffd5b5f61064882610340565b915061065383610340565b925082820190508082111561066b5761066a610611565b5b9291505056fea26469706673582212207d1746bc7eacfcde1e106b3a15119c542dde00c8350c94aa414191551cb18d8664736f6c634300081f0033",
					"opcodes": "PUSH1 0x80 PUSH1 0x40 MSTORE CALLVALUE DUP1 ISZERO PUSH1 0xE JUMPI PUSH0 PUSH0 REVERT JUMPDEST POP CALLER PUSH0 PUSH0 PUSH2 0x100 EXP DUP2 SLOAD DUP2 PUSH20 0xFFFFFFFFFFFFFFFFFFFFFFFFFFFFFFFFFFFFFFFF MUL NOT AND SWAP1 DUP4 PUSH20 0xFFFFFFFFFFFFFFFFFFFFFFFFFFFFFFFFFFFFFFFF AND MUL OR SWAP1 SSTORE POP PUSH2 0x6A7 DUP1 PUSH2 0x5B PUSH0 CODECOPY PUSH0 RETURN INVALID PUSH1 0x80 PUSH1 0x40 MSTORE PUSH1 0x4 CALLDATASIZE LT PUSH2 0x49 JUMPI PUSH0 CALLDATALOAD PUSH1 0xE0 SHR DUP1 PUSH4 0x12065FE0 EQ PUSH2 0x4D JUMPI DUP1 PUSH4 0x2E1A7D4D EQ PUSH2 0x77 JUMPI DUP1 PUSH4 0x8DA5CB5B EQ PUSH2 0x9F JUMPI DUP1 PUSH4 0xD0E30DB0 EQ PUSH2 0xC9 JUMPI DUP1 PUSH4 0xFC7E286D EQ PUSH2 0xD3 JUMPI JUMPDEST PUSH0 PUSH0 REVERT JUMPDEST CALLVALUE DUP1 ISZERO PUSH2 0x58 JUMPI PUSH0 PUSH0 REVERT JUMPDEST POP PUSH2 0x61 PUSH2 0x10F JUMP JUMPDEST PUSH1 0x40 MLOAD PUSH2 0x6E SWAP2 SWAP1 PUSH2 0x358 JUMP JUMPDEST PUSH1 0x40 MLOAD DUP1 SWAP2 SUB SWAP1 RETURN JUMPDEST CALLVALUE DUP1 ISZERO PUSH2 0x82 JUMPI PUSH0 PUSH0 REVERT JUMPDEST POP PUSH2 0x9D PUSH1 0x4 DUP1 CALLDATASIZE SUB DUP2 ADD SWAP1 PUSH2 0x98 SWAP2 SWAP1 PUSH2 0x39F JUMP JUMPDEST PUSH2 0x116 JUMP JUMPDEST STOP JUMPDEST CALLVALUE DUP1 ISZERO PUSH2 0xAA JUMPI PUSH0 PUSH0 REVERT JUMPDEST POP PUSH2 0xB3 PUSH2 0x270 JUMP JUMPDEST PUSH1 0x40 MLOAD PUSH2 0xC0 SWAP2 SWAP1 PUSH2 0x409 JUMP JUMPDEST PUSH1 0x40 MLOAD DUP1 SWAP2 SUB SWAP1 RETURN JUMPDEST PUSH2 0xD1 PUSH2 0x294 JUMP JUMPDEST STOP JUMPDEST CALLVALUE DUP1 ISZERO PUSH2 0xDE JUMPI PUSH0 PUSH0 REVERT JUMPDEST POP PUSH2 0xF9 PUSH1 0x4 DUP1 CALLDATASIZE SUB DUP2 ADD SWAP1 PUSH2 0xF4 SWAP2 SWAP1 PUSH2 0x45D JUMP JUMPDEST PUSH2 0x32B JUMP JUMPDEST PUSH1 0x40 MLOAD PUSH2 0x106 SWAP2 SWAP1 PUSH2 0x358 JUMP JUMPDEST PUSH1 0x40 MLOAD DUP1 SWAP2 SUB SWAP1 RETURN JUMPDEST PUSH0 SELFBALANCE SWAP1 POP SWAP1 JUMP JUMPDEST CALLER PUSH20 0xFFFFFFFFFFFFFFFFFFFFFFFFFFFFFFFFFFFFFFFF AND PUSH0 PUSH0 SWAP1 SLOAD SWAP1 PUSH2 0x100 EXP SWAP1 DIV PUSH20 0xFFFFFFFFFFFFFFFFFFFFFFFFFFFFFFFFFFFFFFFF AND PUSH20 0xFFFFFFFFFFFFFFFFFFFFFFFFFFFFFFFFFFFFFFFF AND EQ PUSH2 0x1A4 JUMPI PUSH1 0x40 MLOAD PUSH32 0x8C379A000000000000000000000000000000000000000000000000000000000 DUP2 MSTORE PUSH1 0x4 ADD PUSH2 0x19B SWAP1 PUSH2 0x4E2 JUMP JUMPDEST PUSH1 0x40 MLOAD DUP1 SWAP2 SUB SWAP1 REVERT JUMPDEST PUSH0 PUSH0 PUSH0 SWAP1 SLOAD SWAP1 PUSH2 0x100 EXP SWAP1 DIV PUSH20 0xFFFFFFFFFFFFFFFFFFFFFFFFFFFFFFFFFFFFFFFF AND PUSH20 0xFFFFFFFFFFFFFFFFFFFFFFFFFFFFFFFFFFFFFFFF AND DUP3 PUSH1 0x40 MLOAD PUSH2 0x1E9 SWAP1 PUSH2 0x52D JUMP JUMPDEST PUSH0 PUSH1 0x40 MLOAD DUP1 DUP4 SUB DUP2 DUP6 DUP8 GAS CALL SWAP3 POP POP POP RETURNDATASIZE DUP1 PUSH0 DUP2 EQ PUSH2 0x223 JUMPI PUSH1 0x40 MLOAD SWAP2 POP PUSH1 0x1F NOT PUSH1 0x3F RETURNDATASIZE ADD AND DUP3 ADD PUSH1 0x40 MSTORE RETURNDATASIZE DUP3 MSTORE RETURNDATASIZE PUSH0 PUSH1 0x20 DUP5 ADD RETURNDATACOPY PUSH2 0x228 JUMP JUMPDEST PUSH1 0x60 SWAP2 POP JUMPDEST POP POP SWAP1 POP DUP1 PUSH2 0x26C JUMPI PUSH1 0x40 MLOAD PUSH32 0x8C379A000000000000000000000000000000000000000000000000000000000 DUP2 MSTORE PUSH1 0x4 ADD PUSH2 0x263 SWAP1 PUSH2 0x58B JUMP JUMPDEST PUSH1 0x40 MLOAD DUP1 SWAP2 SUB SWAP1 REVERT JUMPDEST POP POP JUMP JUMPDEST PUSH0 PUSH0 SWAP1 SLOAD SWAP1 PUSH2 0x100 EXP SWAP1 DIV PUSH20 0xFFFFFFFFFFFFFFFFFFFFFFFFFFFFFFFFFFFFFFFF AND DUP2 JUMP JUMPDEST PUSH0 CALLVALUE GT PUSH2 0x2D6 JUMPI PUSH1 0x40 MLOAD PUSH32 0x8C379A000000000000000000000000000000000000000000000000000000000 DUP2 MSTORE PUSH1 0x4 ADD PUSH2 0x2CD SWAP1 PUSH2 0x5F3 JUMP JUMPDEST PUSH1 0x40 MLOAD DUP1 SWAP2 SUB SWAP1 REVERT JUMPDEST CALLVALUE PUSH1 0x1 PUSH0 CALLER PUSH20 0xFFFFFFFFFFFFFFFFFFFFFFFFFFFFFFFFFFFFFFFF AND PUSH20 0xFFFFFFFFFFFFFFFFFFFFFFFFFFFFFFFFFFFFFFFF AND DUP2 MSTORE PUSH1 0x20 ADD SWAP1 DUP2 MSTORE PUSH1 0x20 ADD PUSH0 KECCAK256 PUSH0 DUP3 DUP3 SLOAD PUSH2 0x322 SWAP2 SWAP1 PUSH2 0x63E JUMP JUMPDEST SWAP3 POP POP DUP2 SWAP1 SSTORE POP JUMP JUMPDEST PUSH1 0x1 PUSH1 0x20 MSTORE DUP1 PUSH0 MSTORE PUSH1 0x40 PUSH0 KECCAK256 PUSH0 SWAP2 POP SWAP1 POP SLOAD DUP2 JUMP JUMPDEST PUSH0 DUP2 SWAP1 POP SWAP2 SWAP1 POP JUMP JUMPDEST PUSH2 0x352 DUP2 PUSH2 0x340 JUMP JUMPDEST DUP3 MSTORE POP POP JUMP JUMPDEST PUSH0 PUSH1 0x20 DUP3 ADD SWAP1 POP PUSH2 0x36B PUSH0 DUP4 ADD DUP5 PUSH2 0x349 JUMP JUMPDEST SWAP3 SWAP2 POP POP JUMP JUMPDEST PUSH0 PUSH0 REVERT JUMPDEST PUSH2 0x37E DUP2 PUSH2 0x340 JUMP JUMPDEST DUP2 EQ PUSH2 0x388 JUMPI PUSH0 PUSH0 REVERT JUMPDEST POP JUMP JUMPDEST PUSH0 DUP2 CALLDATALOAD SWAP1 POP PUSH2 0x399 DUP2 PUSH2 0x375 JUMP JUMPDEST SWAP3 SWAP2 POP POP JUMP JUMPDEST PUSH0 PUSH1 0x20 DUP3 DUP5 SUB SLT ISZERO PUSH2 0x3B4 JUMPI PUSH2 0x3B3 PUSH2 0x371 JUMP JUMPDEST JUMPDEST PUSH0 PUSH2 0x3C1 DUP5 DUP3 DUP6 ADD PUSH2 0x38B JUMP JUMPDEST SWAP2 POP POP SWAP3 SWAP2 POP POP JUMP JUMPDEST PUSH0 PUSH20 0xFFFFFFFFFFFFFFFFFFFFFFFFFFFFFFFFFFFFFFFF DUP3 AND SWAP1 POP SWAP2 SWAP1 POP JUMP JUMPDEST PUSH0 PUSH2 0x3F3 DUP3 PUSH2 0x3CA JUMP JUMPDEST SWAP1 POP SWAP2 SWAP1 POP JUMP JUMPDEST PUSH2 0x403 DUP2 PUSH2 0x3E9 JUMP JUMPDEST DUP3 MSTORE POP POP JUMP JUMPDEST PUSH0 PUSH1 0x20 DUP3 ADD SWAP1 POP PUSH2 0x41C PUSH0 DUP4 ADD DUP5 PUSH2 0x3FA JUMP JUMPDEST SWAP3 SWAP2 POP POP JUMP JUMPDEST PUSH0 PUSH2 0x42C DUP3 PUSH2 0x3CA JUMP JUMPDEST SWAP1 POP SWAP2 SWAP1 POP JUMP JUMPDEST PUSH2 0x43C DUP2 PUSH2 0x422 JUMP JUMPDEST DUP2 EQ PUSH2 0x446 JUMPI PUSH0 PUSH0 REVERT JUMPDEST POP JUMP JUMPDEST PUSH0 DUP2 CALLDATALOAD SWAP1 POP PUSH2 0x457 DUP2 PUSH2 0x433 JUMP JUMPDEST SWAP3 SWAP2 POP POP JUMP JUMPDEST PUSH0 PUSH1 0x20 DUP3 DUP5 SUB SLT ISZERO PUSH2 0x472 JUMPI PUSH2 0x471 PUSH2 0x371 JUMP JUMPDEST JUMPDEST PUSH0 PUSH2 0x47F DUP5 DUP3 DUP6 ADD PUSH2 0x449 JUMP JUMPDEST SWAP2 POP POP SWAP3 SWAP2 POP POP JUMP JUMPDEST PUSH0 DUP3 DUP3 MSTORE PUSH1 0x20 DUP3 ADD SWAP1 POP SWAP3 SWAP2 POP POP JUMP JUMPDEST PUSH32 0x4E6F74204F776E65722100000000000000000000000000000000000000000000 PUSH0 DUP3 ADD MSTORE POP JUMP JUMPDEST PUSH0 PUSH2 0x4CC PUSH1 0xA DUP4 PUSH2 0x488 JUMP JUMPDEST SWAP2 POP PUSH2 0x4D7 DUP3 PUSH2 0x498 JUMP JUMPDEST PUSH1 0x20 DUP3 ADD SWAP1 POP SWAP2 SWAP1 POP JUMP JUMPDEST PUSH0 PUSH1 0x20 DUP3 ADD SWAP1 POP DUP2 DUP2 SUB PUSH0 DUP4 ADD MSTORE PUSH2 0x4F9 DUP2 PUSH2 0x4C0 JUMP JUMPDEST SWAP1 POP SWAP2 SWAP1 POP JUMP JUMPDEST PUSH0 DUP2 SWAP1 POP SWAP3 SWAP2 POP POP JUMP JUMPDEST POP JUMP JUMPDEST PUSH0 PUSH2 0x518 PUSH0 DUP4 PUSH2 0x500 JUMP JUMPDEST SWAP2 POP PUSH2 0x523 DUP3 PUSH2 0x50A JUMP JUMPDEST PUSH0 DUP3 ADD SWAP1 POP SWAP2 SWAP1 POP JUMP JUMPDEST PUSH0 PUSH2 0x537 DUP3 PUSH2 0x50D JUMP JUMPDEST SWAP2 POP DUP2 SWAP1 POP SWAP2 SWAP1 POP JUMP JUMPDEST PUSH32 0x5472616E73666572204661696C65642100000000000000000000000000000000 PUSH0 DUP3 ADD MSTORE POP JUMP JUMPDEST PUSH0 PUSH2 0x575 PUSH1 0x10 DUP4 PUSH2 0x488 JUMP JUMPDEST SWAP2 POP PUSH2 0x580 DUP3 PUSH2 0x541 JUMP JUMPDEST PUSH1 0x20 DUP3 ADD SWAP1 POP SWAP2 SWAP1 POP JUMP JUMPDEST PUSH0 PUSH1 0x20 DUP3 ADD SWAP1 POP DUP2 DUP2 SUB PUSH0 DUP4 ADD MSTORE PUSH2 0x5A2 DUP2 PUSH2 0x569 JUMP JUMPDEST SWAP1 POP SWAP2 SWAP1 POP JUMP JUMPDEST PUSH32 0x4D7573742073656E6420736F6D65204574686572000000000000000000000000 PUSH0 DUP3 ADD MSTORE POP JUMP JUMPDEST PUSH0 PUSH2 0x5DD PUSH1 0x14 DUP4 PUSH2 0x488 JUMP JUMPDEST SWAP2 POP PUSH2 0x5E8 DUP3 PUSH2 0x5A9 JUMP JUMPDEST PUSH1 0x20 DUP3 ADD SWAP1 POP SWAP2 SWAP1 POP JUMP JUMPDEST PUSH0 PUSH1 0x20 DUP3 ADD SWAP1 POP DUP2 DUP2 SUB PUSH0 DUP4 ADD MSTORE PUSH2 0x60A DUP2 PUSH2 0x5D1 JUMP JUMPDEST SWAP1 POP SWAP2 SWAP1 POP JUMP JUMPDEST PUSH32 0x4E487B7100000000000000000000000000000000000000000000000000000000 PUSH0 MSTORE PUSH1 0x11 PUSH1 0x4 MSTORE PUSH1 0x24 PUSH0 REVERT JUMPDEST PUSH0 PUSH2 0x648 DUP3 PUSH2 0x340 JUMP JUMPDEST SWAP2 POP PUSH2 0x653 DUP4 PUSH2 0x340 JUMP JUMPDEST SWAP3 POP DUP3 DUP3 ADD SWAP1 POP DUP1 DUP3 GT ISZERO PUSH2 0x66B JUMPI PUSH2 0x66A PUSH2 0x611 JUMP JUMPDEST JUMPDEST SWAP3 SWAP2 POP POP JUMP INVALID LOG2 PUSH5 0x6970667358 0x22 SLT KECCAK256 PUSH30 0x1746BC7EACFCDE1E106B3A15119C542DDE00C8350C94AA414191551CB18D DUP7 PUSH5 0x736F6C6343 STOP ADDMOD 0x1F STOP CALLER "
				},
				"gasEstimates": {
					"creation": {
						"codeDepositCost": "340600",
						"executionCost": "24642",
						"totalCost": "365242"
					},
					"external": {
						"deposit()": "infinite",
						"deposits(address)": "2868",
						"getBalance()": "312",
						"owner()": "2529",
						"withdraw(uint256)": "infinite"
					}
				},
				"methodIdentifiers": {
					"deposit()": "d0e30db0",
					"deposits(address)": "fc7e286d",
					"getBalance()": "12065fe0",
					"owner()": "8da5cb5b",
					"withdraw(uint256)": "2e1a7d4d"
				}
			},
			"storageLayout": {
				"storage": [
					{
						"astId": 3,
						"contract": "contracts/OwnerWithdraw.sol:OwnerWithdraw",
						"label": "owner",
						"offset": 0,
						"slot": "0",
						"type": "t_address_payable"
					},
					{
						"astId": 19,
						"contract": "contracts/OwnerWithdraw.sol:OwnerWithdraw",
						"label": "deposits",
						"offset": 0,
						"slot": "1",
						"type": "t_mapping(t_address,t_uint256)"
					}
				],
				"types": {
					"t_address": {
						"encoding": "inplace",
						"label": "address",
						"numberOfBytes": "20"
					},
					"t_address_payable": {
						"encoding": "inplace",
						"label": "address payable",
						"numberOfBytes": "20"
					},
					"t_mapping(t_address,t_uint256)": {
						"encoding": "mapping",
						"key": "t_address",
						"label": "mapping(address => uint256)",
						"numberOfBytes": "32",
						"value": "t_uint256"
					},
					"t_uint256": {
						"encoding": "inplace",
						"label": "uint256",
						"numberOfBytes": "32"
					}
				}
			},
			"userdoc": {
				"kind": "user",
				"methods": {},
				"version": 1
			}
		}
	}
}