{
	"contracts/structure.sol": {
		"structure": {
			"abi": [
				{
					"inputs": [],
					"name": "getDetails",
					"outputs": [
						{
							"internalType": "string",
							"name": "",
							"type": "string"
						},
						{
							"internalType": "uint256",
							"name": "",
							"type": "uint256"
						},
						{
							"internalType": "uint256",
							"name": "",
							"type": "uint256"
						}
					],
					"stateMutability": "view",
					"type": "function"
				},
				{
					"inputs": [],
					"name": "getPerson",
					"outputs": [
						{
							"internalType": "string",
							"name": "",
							"type": "string"
						}
					],
					"stateMutability": "view",
					"type": "function"
				},
				{
					"inputs": [],
					"name": "p1",
					"outputs": [
						{
							"internalType": "string",
							"name": "name",
							"type": "string"
						},
						{
							"internalType": "uint256",
							"name": "pincode",
							"type": "uint256"
						},
						{
							"internalType": "uint256",
							"name": "age",
							"type": "uint256"
						}
					],
					"stateMutability": "view",
					"type": "function"
				},
				{
					"inputs": [],
					"name": "setName",
					"outputs": [],
					"stateMutability": "nonpayable",
					"type": "function"
				}
			],
			"devdoc": {
				"kind": "dev",
				"methods": {},
				"version": 1
			},
			"evm": {
				"assembly": "    /* \"contracts/structure.sol\":74:540  contract structure {... */\n  mstore(0x40, 0x80)\n    /* \"contracts/structure.sol\":213:236  Person(\"Shaan\", 35, 21) */\n  mload(0x40)\n  dup1\n  0x60\n  add\n  0x40\n  mstore\n  dup1\n  mload(0x40)\n  dup1\n  0x40\n  add\n  0x40\n  mstore\n  dup1\n  0x05\n  dup2\n  mstore\n  0x20\n  add\n  0x536861616e000000000000000000000000000000000000000000000000000000\n  dup2\n  mstore\n  pop\n  dup2\n  mstore\n  0x20\n  add\n    /* \"contracts/structure.sol\":229:231  35 */\n  0x23\n    /* \"contracts/structure.sol\":213:236  Person(\"Shaan\", 35, 21) */\n  dup2\n  mstore\n  0x20\n  add\n    /* \"contracts/structure.sol\":233:235  21 */\n  0x15\n    /* \"contracts/structure.sol\":213:236  Person(\"Shaan\", 35, 21) */\n  dup2\n  mstore\n  pop\n    /* \"contracts/structure.sol\":194:236  Person public p1 = Person(\"Shaan\", 35, 21) */\n  0x00\n  0x00\n  dup3\n  add\n  mload\n  dup2\n  0x00\n  add\n  swap1\n  dup2\n  tag_1\n  swap2\n  swap1\n  tag_2\n  jump\t// in\ntag_1:\n  pop\n  0x20\n  dup3\n  add\n  mload\n  dup2\n  0x01\n  add\n  sstore\n  0x40\n  dup3\n  add\n  mload\n  dup2\n  0x02\n  add\n  sstore\n  pop\n  pop\n    /* \"contracts/structure.sol\":74:540  contract structure {... */\n  callvalue\n  dup1\n  iszero\n  tag_3\n  jumpi\n  revert(0x00, 0x00)\ntag_3:\n  pop\n  jump(tag_4)\n    /* \"#utility.yul\":7:106   */\ntag_5:\n    /* \"#utility.yul\":59:65   */\n  0x00\n    /* \"#utility.yul\":93:98   */\n  dup2\n    /* \"#utility.yul\":87:99   */\n  mload\n    /* \"#utility.yul\":77:99   */\n  swap1\n  pop\n    /* \"#utility.yul\":7:106   */\n  swap2\n  swap1\n  pop\n  jump\t// out\n    /* \"#utility.yul\":112:292   */\ntag_6:\n    /* \"#utility.yul\":160:237   */\n  0x4e487b7100000000000000000000000000000000000000000000000000000000\n    /* \"#utility.yul\":157:158   */\n  0x00\n    /* \"#utility.yul\":150:238   */\n  mstore\n    /* \"#utility.yul\":257:261   */\n  0x41\n    /* \"#utility.yul\":254:255   */\n  0x04\n    /* \"#utility.yul\":247:262   */\n  mstore\n    /* \"#utility.yul\":281:285   */\n  0x24\n    /* \"#utility.yul\":278:279   */\n  0x00\n    /* \"#utility.yul\":271:286   */\n  revert\n    /* \"#utility.yul\":298:478   */\ntag_7:\n    /* \"#utility.yul\":346:423   */\n  0x4e487b7100000000000000000000000000000000000000000000000000000000\n    /* \"#utility.yul\":343:344   */\n  0x00\n    /* \"#utility.yul\":336:424   */\n  mstore\n    /* \"#utility.yul\":443:447   */\n  0x22\n    /* \"#utility.yul\":440:441   */\n  0x04\n    /* \"#utility.yul\":433:448   */\n  mstore\n    /* \"#utility.yul\":467:471   */\n  0x24\n    /* \"#utility.yul\":464:465   */\n  0x00\n    /* \"#utility.yul\":457:472   */\n  revert\n    /* \"#utility.yul\":484:804   */\ntag_8:\n    /* \"#utility.yul\":528:534   */\n  0x00\n    /* \"#utility.yul\":565:566   */\n  0x02\n    /* \"#utility.yul\":559:563   */\n  dup3\n    /* \"#utility.yul\":555:567   */\n  div\n    /* \"#utility.yul\":545:567   */\n  swap1\n  pop\n    /* \"#utility.yul\":612:613   */\n  0x01\n    /* \"#utility.yul\":606:610   */\n  dup3\n    /* \"#utility.yul\":602:614   */\n  and\n    /* \"#utility.yul\":633:651   */\n  dup1\n    /* \"#utility.yul\":623:704   */\n  tag_30\n  jumpi\n    /* \"#utility.yul\":689:693   */\n  0x7f\n    /* \"#utility.yul\":681:687   */\n  dup3\n    /* \"#utility.yul\":677:694   */\n  and\n    /* \"#utility.yul\":667:694   */\n  swap2\n  pop\n    /* \"#utility.yul\":623:704   */\ntag_30:\n    /* \"#utility.yul\":751:753   */\n  0x20\n    /* \"#utility.yul\":743:749   */\n  dup3\n    /* \"#utility.yul\":740:754   */\n  lt\n    /* \"#utility.yul\":720:738   */\n  dup2\n    /* \"#utility.yul\":717:755   */\n  sub\n    /* \"#utility.yul\":714:798   */\n  tag_31\n  jumpi\n    /* \"#utility.yul\":770:788   */\n  tag_32\n  tag_7\n  jump\t// in\ntag_32:\n    /* \"#utility.yul\":714:798   */\ntag_31:\n    /* \"#utility.yul\":535:804   */\n  pop\n    /* \"#utility.yul\":484:804   */\n  swap2\n  swap1\n  pop\n  jump\t// out\n    /* \"#utility.yul\":810:951   */\ntag_9:\n    /* \"#utility.yul\":859:863   */\n  0x00\n    /* \"#utility.yul\":882:885   */\n  dup2\n    /* \"#utility.yul\":874:885   */\n  swap1\n  pop\n    /* \"#utility.yul\":905:908   */\n  dup2\n    /* \"#utility.yul\":902:903   */\n  0x00\n    /* \"#utility.yul\":895:909   */\n  mstore\n    /* \"#utility.yul\":939:943   */\n  0x20\n    /* \"#utility.yul\":936:937   */\n  0x00\n    /* \"#utility.yul\":926:944   */\n  keccak256\n    /* \"#utility.yul\":918:944   */\n  swap1\n  pop\n    /* \"#utility.yul\":810:951   */\n  swap2\n  swap1\n  pop\n  jump\t// out\n    /* \"#utility.yul\":957:1050   */\ntag_10:\n    /* \"#utility.yul\":994:1000   */\n  0x00\n    /* \"#utility.yul\":1041:1043   */\n  0x20\n    /* \"#utility.yul\":1036:1038   */\n  0x1f\n    /* \"#utility.yul\":1029:1034   */\n  dup4\n    /* \"#utility.yul\":1025:1039   */\n  add\n    /* \"#utility.yul\":1021:1044   */\n  div\n    /* \"#utility.yul\":1011:1044   */\n  swap1\n  pop\n    /* \"#utility.yul\":957:1050   */\n  swap2\n  swap1\n  pop\n  jump\t// out\n    /* \"#utility.yul\":1056:1163   */\ntag_11:\n    /* \"#utility.yul\":1100:1108   */\n  0x00\n    /* \"#utility.yul\":1150:1155   */\n  dup3\n    /* \"#utility.yul\":1144:1148   */\n  dup3\n    /* \"#utility.yul\":1140:1156   */\n  shl\n    /* \"#utility.yul\":1119:1156   */\n  swap1\n  pop\n    /* \"#utility.yul\":1056:1163   */\n  swap3\n  swap2\n  pop\n  pop\n  jump\t// out\n    /* \"#utility.yul\":1169:1562   */\ntag_12:\n    /* \"#utility.yul\":1238:1244   */\n  0x00\n    /* \"#utility.yul\":1288:1289   */\n  0x08\n    /* \"#utility.yul\":1276:1286   */\n  dup4\n    /* \"#utility.yul\":1272:1290   */\n  mul\n    /* \"#utility.yul\":1311:1408   */\n  tag_37\n    /* \"#utility.yul\":1341:1407   */\n  0xffffffffffffffffffffffffffffffffffffffffffffffffffffffffffffffff\n    /* \"#utility.yul\":1330:1339   */\n  dup3\n    /* \"#utility.yul\":1311:1408   */\n  tag_11\n  jump\t// in\ntag_37:\n    /* \"#utility.yul\":1429:1468   */\n  tag_38\n    /* \"#utility.yul\":1459:1467   */\n  dup7\n    /* \"#utility.yul\":1448:1457   */\n  dup4\n    /* \"#utility.yul\":1429:1468   */\n  tag_11\n  jump\t// in\ntag_38:\n    /* \"#utility.yul\":1417:1468   */\n  swap6\n  pop\n    /* \"#utility.yul\":1501:1505   */\n  dup1\n    /* \"#utility.yul\":1497:1506   */\n  not\n    /* \"#utility.yul\":1490:1495   */\n  dup5\n    /* \"#utility.yul\":1486:1507   */\n  and\n    /* \"#utility.yul\":1477:1507   */\n  swap4\n  pop\n    /* \"#utility.yul\":1550:1554   */\n  dup1\n    /* \"#utility.yul\":1540:1548   */\n  dup7\n    /* \"#utility.yul\":1536:1555   */\n  and\n    /* \"#utility.yul\":1529:1534   */\n  dup5\n    /* \"#utility.yul\":1526:1556   */\n  or\n    /* \"#utility.yul\":1516:1556   */\n  swap3\n  pop\n    /* \"#utility.yul\":1245:1562   */\n  pop\n  pop\n    /* \"#utility.yul\":1169:1562   */\n  swap4\n  swap3\n  pop\n  pop\n  pop\n  jump\t// out\n    /* \"#utility.yul\":1568:1645   */\ntag_13:\n    /* \"#utility.yul\":1605:1612   */\n  0x00\n    /* \"#utility.yul\":1634:1639   */\n  dup2\n    /* \"#utility.yul\":1623:1639   */\n  swap1\n  pop\n    /* \"#utility.yul\":1568:1645   */\n  swap2\n  swap1\n  pop\n  jump\t// out\n    /* \"#utility.yul\":1651:1711   */\ntag_14:\n    /* \"#utility.yul\":1679:1682   */\n  0x00\n    /* \"#utility.yul\":1700:1705   */\n  dup2\n    /* \"#utility.yul\":1693:1705   */\n  swap1\n  pop\n    /* \"#utility.yul\":1651:1711   */\n  swap2\n  swap1\n  pop\n  jump\t// out\n    /* \"#utility.yul\":1717:1859   */\ntag_15:\n    /* \"#utility.yul\":1767:1776   */\n  0x00\n    /* \"#utility.yul\":1800:1853   */\n  tag_42\n    /* \"#utility.yul\":1818:1852   */\n  tag_43\n    /* \"#utility.yul\":1827:1851   */\n  tag_44\n    /* \"#utility.yul\":1845:1850   */\n  dup5\n    /* \"#utility.yul\":1827:1851   */\n  tag_13\n  jump\t// in\ntag_44:\n    /* \"#utility.yul\":1818:1852   */\n  tag_14\n  jump\t// in\ntag_43:\n    /* \"#utility.yul\":1800:1853   */\n  tag_13\n  jump\t// in\ntag_42:\n    /* \"#utility.yul\":1787:1853   */\n  swap1\n  pop\n    /* \"#utility.yul\":1717:1859   */\n  swap2\n  swap1\n  pop\n  jump\t// out\n    /* \"#utility.yul\":1865:1940   */\ntag_16:\n    /* \"#utility.yul\":1908:1911   */\n  0x00\n    /* \"#utility.yul\":1929:1934   */\n  dup2\n    /* \"#utility.yul\":1922:1934   */\n  swap1\n  pop\n    /* \"#utility.yul\":1865:1940   */\n  swap2\n  swap1\n  pop\n  jump\t// out\n    /* \"#utility.yul\":1946:2215   */\ntag_17:\n    /* \"#utility.yul\":2056:2095   */\n  tag_47\n    /* \"#utility.yul\":2087:2094   */\n  dup4\n    /* \"#utility.yul\":2056:2095   */\n  tag_15\n  jump\t// in\ntag_47:\n    /* \"#utility.yul\":2117:2208   */\n  tag_48\n    /* \"#utility.yul\":2166:2207   */\n  tag_49\n    /* \"#utility.yul\":2190:2206   */\n  dup3\n    /* \"#utility.yul\":2166:2207   */\n  tag_16\n  jump\t// in\ntag_49:\n    /* \"#utility.yul\":2158:2164   */\n  dup5\n    /* \"#utility.yul\":2151:2155   */\n  dup5\n    /* \"#utility.yul\":2145:2156   */\n  sload\n    /* \"#utility.yul\":2117:2208   */\n  tag_12\n  jump\t// in\ntag_48:\n    /* \"#utility.yul\":2111:2115   */\n  dup3\n    /* \"#utility.yul\":2104:2209   */\n  sstore\n    /* \"#utility.yul\":2022:2215   */\n  pop\n    /* \"#utility.yul\":1946:2215   */\n  pop\n  pop\n  pop\n  jump\t// out\n    /* \"#utility.yul\":2221:2294   */\ntag_18:\n    /* \"#utility.yul\":2266:2269   */\n  0x00\n    /* \"#utility.yul\":2287:2288   */\n  0x00\n    /* \"#utility.yul\":2280:2288   */\n  swap1\n  pop\n    /* \"#utility.yul\":2221:2294   */\n  swap1\n  jump\t// out\n    /* \"#utility.yul\":2300:2489   */\ntag_19:\n    /* \"#utility.yul\":2377:2409   */\n  tag_52\n  tag_18\n  jump\t// in\ntag_52:\n    /* \"#utility.yul\":2418:2483   */\n  tag_53\n    /* \"#utility.yul\":2476:2482   */\n  dup2\n    /* \"#utility.yul\":2468:2474   */\n  dup5\n    /* \"#utility.yul\":2462:2466   */\n  dup5\n    /* \"#utility.yul\":2418:2483   */\n  tag_17\n  jump\t// in\ntag_53:\n    /* \"#utility.yul\":2353:2489   */\n  pop\n    /* \"#utility.yul\":2300:2489   */\n  pop\n  pop\n  jump\t// out\n    /* \"#utility.yul\":2495:2681   */\ntag_20:\n    /* \"#utility.yul\":2555:2675   */\ntag_55:\n    /* \"#utility.yul\":2572:2575   */\n  dup2\n    /* \"#utility.yul\":2565:2570   */\n  dup2\n    /* \"#utility.yul\":2562:2576   */\n  lt\n    /* \"#utility.yul\":2555:2675   */\n  iszero\n  tag_57\n  jumpi\n    /* \"#utility.yul\":2626:2665   */\n  tag_58\n    /* \"#utility.yul\":2663:2664   */\n  0x00\n    /* \"#utility.yul\":2656:2661   */\n  dup3\n    /* \"#utility.yul\":2626:2665   */\n  tag_19\n  jump\t// in\ntag_58:\n    /* \"#utility.yul\":2599:2600   */\n  0x01\n    /* \"#utility.yul\":2592:2597   */\n  dup2\n    /* \"#utility.yul\":2588:2601   */\n  add\n    /* \"#utility.yul\":2579:2601   */\n  swap1\n  pop\n    /* \"#utility.yul\":2555:2675   */\n  jump(tag_55)\ntag_57:\n    /* \"#utility.yul\":2495:2681   */\n  pop\n  pop\n  jump\t// out\n    /* \"#utility.yul\":2687:3230   */\ntag_21:\n    /* \"#utility.yul\":2788:2790   */\n  0x1f\n    /* \"#utility.yul\":2783:2786   */\n  dup3\n    /* \"#utility.yul\":2780:2791   */\n  gt\n    /* \"#utility.yul\":2777:3223   */\n  iszero\n  tag_60\n  jumpi\n    /* \"#utility.yul\":2822:2860   */\n  tag_61\n    /* \"#utility.yul\":2854:2859   */\n  dup2\n    /* \"#utility.yul\":2822:2860   */\n  tag_9\n  jump\t// in\ntag_61:\n    /* \"#utility.yul\":2906:2935   */\n  tag_62\n    /* \"#utility.yul\":2924:2934   */\n  dup5\n    /* \"#utility.yul\":2906:2935   */\n  tag_10\n  jump\t// in\ntag_62:\n    /* \"#utility.yul\":2896:2904   */\n  dup2\n    /* \"#utility.yul\":2892:2936   */\n  add\n    /* \"#utility.yul\":3089:3091   */\n  0x20\n    /* \"#utility.yul\":3077:3087   */\n  dup6\n    /* \"#utility.yul\":3074:3092   */\n  lt\n    /* \"#utility.yul\":3071:3120   */\n  iszero\n  tag_63\n  jumpi\n    /* \"#utility.yul\":3110:3118   */\n  dup2\n    /* \"#utility.yul\":3095:3118   */\n  swap1\n  pop\n    /* \"#utility.yul\":3071:3120   */\ntag_63:\n    /* \"#utility.yul\":3133:3213   */\n  tag_64\n    /* \"#utility.yul\":3189:3211   */\n  tag_65\n    /* \"#utility.yul\":3207:3210   */\n  dup6\n    /* \"#utility.yul\":3189:3211   */\n  tag_10\n  jump\t// in\ntag_65:\n    /* \"#utility.yul\":3179:3187   */\n  dup4\n    /* \"#utility.yul\":3175:3212   */\n  add\n    /* \"#utility.yul\":3162:3173   */\n  dup3\n    /* \"#utility.yul\":3133:3213   */\n  tag_20\n  jump\t// in\ntag_64:\n    /* \"#utility.yul\":2792:3223   */\n  pop\n  pop\n    /* \"#utility.yul\":2777:3223   */\ntag_60:\n    /* \"#utility.yul\":2687:3230   */\n  pop\n  pop\n  pop\n  jump\t// out\n    /* \"#utility.yul\":3236:3353   */\ntag_22:\n    /* \"#utility.yul\":3290:3298   */\n  0x00\n    /* \"#utility.yul\":3340:3345   */\n  dup3\n    /* \"#utility.yul\":3334:3338   */\n  dup3\n    /* \"#utility.yul\":3330:3346   */\n  shr\n    /* \"#utility.yul\":3309:3346   */\n  swap1\n  pop\n    /* \"#utility.yul\":3236:3353   */\n  swap3\n  swap2\n  pop\n  pop\n  jump\t// out\n    /* \"#utility.yul\":3359:3528   */\ntag_23:\n    /* \"#utility.yul\":3403:3409   */\n  0x00\n    /* \"#utility.yul\":3436:3487   */\n  tag_68\n    /* \"#utility.yul\":3484:3485   */\n  0x00\n    /* \"#utility.yul\":3480:3486   */\n  not\n    /* \"#utility.yul\":3472:3477   */\n  dup5\n    /* \"#utility.yul\":3469:3470   */\n  0x08\n    /* \"#utility.yul\":3465:3478   */\n  mul\n    /* \"#utility.yul\":3436:3487   */\n  tag_22\n  jump\t// in\ntag_68:\n    /* \"#utility.yul\":3432:3488   */\n  not\n    /* \"#utility.yul\":3517:3521   */\n  dup1\n    /* \"#utility.yul\":3511:3515   */\n  dup4\n    /* \"#utility.yul\":3507:3522   */\n  and\n    /* \"#utility.yul\":3497:3522   */\n  swap2\n  pop\n    /* \"#utility.yul\":3410:3528   */\n  pop\n    /* \"#utility.yul\":3359:3528   */\n  swap3\n  swap2\n  pop\n  pop\n  jump\t// out\n    /* \"#utility.yul\":3533:3828   */\ntag_24:\n    /* \"#utility.yul\":3609:3613   */\n  0x00\n    /* \"#utility.yul\":3755:3784   */\n  tag_70\n    /* \"#utility.yul\":3780:3783   */\n  dup4\n    /* \"#utility.yul\":3774:3778   */\n  dup4\n    /* \"#utility.yul\":3755:3784   */\n  tag_23\n  jump\t// in\ntag_70:\n    /* \"#utility.yul\":3747:3784   */\n  swap2\n  pop\n    /* \"#utility.yul\":3817:3820   */\n  dup3\n    /* \"#utility.yul\":3814:3815   */\n  0x02\n    /* \"#utility.yul\":3810:3821   */\n  mul\n    /* \"#utility.yul\":3804:3808   */\n  dup3\n    /* \"#utility.yul\":3801:3822   */\n  or\n    /* \"#utility.yul\":3793:3822   */\n  swap1\n  pop\n    /* \"#utility.yul\":3533:3828   */\n  swap3\n  swap2\n  pop\n  pop\n  jump\t// out\n    /* \"#utility.yul\":3833:5228   */\ntag_2:\n    /* \"#utility.yul\":3950:3987   */\n  tag_72\n    /* \"#utility.yul\":3983:3986   */\n  dup3\n    /* \"#utility.yul\":3950:3987   */\n  tag_5\n  jump\t// in\ntag_72:\n    /* \"#utility.yul\":4052:4070   */\n  0xffffffffffffffff\n    /* \"#utility.yul\":4044:4050   */\n  dup2\n    /* \"#utility.yul\":4041:4071   */\n  gt\n    /* \"#utility.yul\":4038:4094   */\n  iszero\n  tag_73\n  jumpi\n    /* \"#utility.yul\":4074:4092   */\n  tag_74\n  tag_6\n  jump\t// in\ntag_74:\n    /* \"#utility.yul\":4038:4094   */\ntag_73:\n    /* \"#utility.yul\":4118:4156   */\n  tag_75\n    /* \"#utility.yul\":4150:4154   */\n  dup3\n    /* \"#utility.yul\":4144:4155   */\n  sload\n    /* \"#utility.yul\":4118:4156   */\n  tag_8\n  jump\t// in\ntag_75:\n    /* \"#utility.yul\":4203:4270   */\n  tag_76\n    /* \"#utility.yul\":4263:4269   */\n  dup3\n    /* \"#utility.yul\":4255:4261   */\n  dup3\n    /* \"#utility.yul\":4249:4253   */\n  dup6\n    /* \"#utility.yul\":4203:4270   */\n  tag_21\n  jump\t// in\ntag_76:\n    /* \"#utility.yul\":4297:4298   */\n  0x00\n    /* \"#utility.yul\":4321:4325   */\n  0x20\n    /* \"#utility.yul\":4308:4325   */\n  swap1\n  pop\n    /* \"#utility.yul\":4353:4355   */\n  0x1f\n    /* \"#utility.yul\":4345:4351   */\n  dup4\n    /* \"#utility.yul\":4342:4356   */\n  gt\n    /* \"#utility.yul\":4370:4371   */\n  0x01\n    /* \"#utility.yul\":4365:4983   */\n  dup2\n  eq\n  tag_78\n  jumpi\n    /* \"#utility.yul\":5027:5028   */\n  0x00\n    /* \"#utility.yul\":5044:5050   */\n  dup5\n    /* \"#utility.yul\":5041:5118   */\n  iszero\n  tag_79\n  jumpi\n    /* \"#utility.yul\":5093:5102   */\n  dup3\n    /* \"#utility.yul\":5088:5091   */\n  dup8\n    /* \"#utility.yul\":5084:5103   */\n  add\n    /* \"#utility.yul\":5078:5104   */\n  mload\n    /* \"#utility.yul\":5069:5104   */\n  swap1\n  pop\n    /* \"#utility.yul\":5041:5118   */\ntag_79:\n    /* \"#utility.yul\":5144:5211   */\n  tag_80\n    /* \"#utility.yul\":5204:5210   */\n  dup6\n    /* \"#utility.yul\":5197:5202   */\n  dup3\n    /* \"#utility.yul\":5144:5211   */\n  tag_24\n  jump\t// in\ntag_80:\n    /* \"#utility.yul\":5138:5142   */\n  dup7\n    /* \"#utility.yul\":5131:5212   */\n  sstore\n    /* \"#utility.yul\":5000:5222   */\n  pop\n    /* \"#utility.yul\":4335:5222   */\n  jump(tag_77)\n    /* \"#utility.yul\":4365:4983   */\ntag_78:\n    /* \"#utility.yul\":4417:4421   */\n  0x1f\n    /* \"#utility.yul\":4413:4422   */\n  not\n    /* \"#utility.yul\":4405:4411   */\n  dup5\n    /* \"#utility.yul\":4401:4423   */\n  and\n    /* \"#utility.yul\":4451:4488   */\n  tag_81\n    /* \"#utility.yul\":4483:4487   */\n  dup7\n    /* \"#utility.yul\":4451:4488   */\n  tag_9\n  jump\t// in\ntag_81:\n    /* \"#utility.yul\":4510:4511   */\n  0x00\n    /* \"#utility.yul\":4524:4732   */\ntag_82:\n    /* \"#utility.yul\":4538:4545   */\n  dup3\n    /* \"#utility.yul\":4535:4536   */\n  dup2\n    /* \"#utility.yul\":4532:4546   */\n  lt\n    /* \"#utility.yul\":4524:4732   */\n  iszero\n  tag_84\n  jumpi\n    /* \"#utility.yul\":4617:4626   */\n  dup5\n    /* \"#utility.yul\":4612:4615   */\n  dup10\n    /* \"#utility.yul\":4608:4627   */\n  add\n    /* \"#utility.yul\":4602:4628   */\n  mload\n    /* \"#utility.yul\":4594:4600   */\n  dup3\n    /* \"#utility.yul\":4587:4629   */\n  sstore\n    /* \"#utility.yul\":4668:4669   */\n  0x01\n    /* \"#utility.yul\":4660:4666   */\n  dup3\n    /* \"#utility.yul\":4656:4670   */\n  add\n    /* \"#utility.yul\":4646:4670   */\n  swap2\n  pop\n    /* \"#utility.yul\":4715:4717   */\n  0x20\n    /* \"#utility.yul\":4704:4713   */\n  dup6\n    /* \"#utility.yul\":4700:4718   */\n  add\n    /* \"#utility.yul\":4687:4718   */\n  swap5\n  pop\n    /* \"#utility.yul\":4561:4565   */\n  0x20\n    /* \"#utility.yul\":4558:4559   */\n  dup2\n    /* \"#utility.yul\":4554:4566   */\n  add\n    /* \"#utility.yul\":4549:4566   */\n  swap1\n  pop\n    /* \"#utility.yul\":4524:4732   */\n  jump(tag_82)\ntag_84:\n    /* \"#utility.yul\":4760:4766   */\n  dup7\n    /* \"#utility.yul\":4751:4758   */\n  dup4\n    /* \"#utility.yul\":4748:4767   */\n  lt\n    /* \"#utility.yul\":4745:4924   */\n  iszero\n  tag_85\n  jumpi\n    /* \"#utility.yul\":4818:4827   */\n  dup5\n    /* \"#utility.yul\":4813:4816   */\n  dup10\n    /* \"#utility.yul\":4809:4828   */\n  add\n    /* \"#utility.yul\":4803:4829   */\n  mload\n    /* \"#utility.yul\":4861:4909   */\n  tag_86\n    /* \"#utility.yul\":4903:4907   */\n  0x1f\n    /* \"#utility.yul\":4895:4901   */\n  dup10\n    /* \"#utility.yul\":4891:4908   */\n  and\n    /* \"#utility.yul\":4880:4889   */\n  dup3\n    /* \"#utility.yul\":4861:4909   */\n  tag_23\n  jump\t// in\ntag_86:\n    /* \"#utility.yul\":4853:4859   */\n  dup4\n    /* \"#utility.yul\":4846:4910   */\n  sstore\n    /* \"#utility.yul\":4768:4924   */\n  pop\n    /* \"#utility.yul\":4745:4924   */\ntag_85:\n    /* \"#utility.yul\":4970:4971   */\n  0x01\n    /* \"#utility.yul\":4966:4967   */\n  0x02\n    /* \"#utility.yul\":4958:4964   */\n  dup9\n    /* \"#utility.yul\":4954:4968   */\n  mul\n    /* \"#utility.yul\":4950:4972   */\n  add\n    /* \"#utility.yul\":4944:4948   */\n  dup9\n    /* \"#utility.yul\":4937:4973   */\n  sstore\n    /* \"#utility.yul\":4372:4983   */\n  pop\n  pop\n  pop\n    /* \"#utility.yul\":4335:5222   */\ntag_77:\n  pop\n    /* \"#utility.yul\":3925:5228   */\n  pop\n  pop\n  pop\n    /* \"#utility.yul\":3833:5228   */\n  pop\n  pop\n  jump\t// out\n    /* \"contracts/structure.sol\":74:540  contract structure {... */\ntag_4:\n  dataSize(sub_0)\n  dup1\n  dataOffset(sub_0)\n  0x00\n  codecopy\n  0x00\n  return\nstop\n\nsub_0: assembly {\n        /* \"contracts/structure.sol\":74:540  contract structure {... */\n      mstore(0x40, 0x80)\n      callvalue\n      dup1\n      iszero\n      tag_1\n      jumpi\n      revert(0x00, 0x00)\n    tag_1:\n      pop\n      jumpi(tag_2, lt(calldatasize, 0x04))\n      shr(0xe0, calldataload(0x00))\n      dup1\n      0x2bf0f81c\n      eq\n      tag_3\n      jumpi\n      dup1\n      0x8ec4dc95\n      eq\n      tag_4\n      jumpi\n      dup1\n      0xc2a2747b\n      eq\n      tag_5\n      jumpi\n      dup1\n      0xfbbf93a0\n      eq\n      tag_6\n      jumpi\n    tag_2:\n      revert(0x00, 0x00)\n        /* \"contracts/structure.sol\":477:537  function setName() public {... */\n    tag_3:\n      tag_7\n      tag_8\n      jump\t// in\n    tag_7:\n      stop\n        /* \"contracts/structure.sol\":245:336  function getPerson() public view returns(string memory) {... */\n    tag_4:\n      tag_9\n      tag_10\n      jump\t// in\n    tag_9:\n      mload(0x40)\n      tag_11\n      swap2\n      swap1\n      tag_12\n      jump\t// in\n    tag_11:\n      mload(0x40)\n      dup1\n      swap2\n      sub\n      swap1\n      return\n        /* \"contracts/structure.sol\":194:236  Person public p1 = Person(\"Shaan\", 35, 21) */\n    tag_5:\n      tag_13\n      tag_14\n      jump\t// in\n    tag_13:\n      mload(0x40)\n      tag_15\n      swap4\n      swap3\n      swap2\n      swap1\n      tag_16\n      jump\t// in\n    tag_15:\n      mload(0x40)\n      dup1\n      swap2\n      sub\n      swap1\n      return\n        /* \"contracts/structure.sol\":344:469  function getDetails() public view returns (string memory, uint, uint) {... */\n    tag_6:\n      tag_17\n      tag_18\n      jump\t// in\n    tag_17:\n      mload(0x40)\n      tag_19\n      swap4\n      swap3\n      swap2\n      swap1\n      tag_16\n      jump\t// in\n    tag_19:\n      mload(0x40)\n      dup1\n      swap2\n      sub\n      swap1\n      return\n        /* \"contracts/structure.sol\":477:537  function setName() public {... */\n    tag_8:\n        /* \"contracts/structure.sol\":514:529  p1.name = \"Som\" */\n      mload(0x40)\n      dup1\n      0x40\n      add\n      0x40\n      mstore\n      dup1\n      0x03\n      dup2\n      mstore\n      0x20\n      add\n      0x536f6d0000000000000000000000000000000000000000000000000000000000\n      dup2\n      mstore\n      pop\n        /* \"contracts/structure.sol\":514:516  p1 */\n      0x00\n        /* \"contracts/structure.sol\":514:521  p1.name */\n      0x00\n      add\n        /* \"contracts/structure.sol\":514:529  p1.name = \"Som\" */\n      swap1\n      dup2\n      tag_21\n      swap2\n      swap1\n      tag_22\n      jump\t// in\n    tag_21:\n      pop\n        /* \"contracts/structure.sol\":477:537  function setName() public {... */\n      jump\t// out\n        /* \"contracts/structure.sol\":245:336  function getPerson() public view returns(string memory) {... */\n    tag_10:\n        /* \"contracts/structure.sol\":286:299  string memory */\n      0x60\n        /* \"contracts/structure.sol\":320:322  p1 */\n      0x00\n        /* \"contracts/structure.sol\":320:327  p1.name */\n      0x00\n      add\n        /* \"contracts/structure.sol\":312:328  return (p1.name) */\n      dup1\n      sload\n      tag_24\n      swap1\n      tag_25\n      jump\t// in\n    tag_24:\n      dup1\n      0x1f\n      add\n      0x20\n      dup1\n      swap2\n      div\n      mul\n      0x20\n      add\n      mload(0x40)\n      swap1\n      dup2\n      add\n      0x40\n      mstore\n      dup1\n      swap3\n      swap2\n      swap1\n      dup2\n      dup2\n      mstore\n      0x20\n      add\n      dup3\n      dup1\n      sload\n      tag_26\n      swap1\n      tag_25\n      jump\t// in\n    tag_26:\n      dup1\n      iszero\n      tag_27\n      jumpi\n      dup1\n      0x1f\n      lt\n      tag_28\n      jumpi\n      0x0100\n      dup1\n      dup4\n      sload\n      div\n      mul\n      dup4\n      mstore\n      swap2\n      0x20\n      add\n      swap2\n      jump(tag_27)\n    tag_28:\n      dup3\n      add\n      swap2\n      swap1\n      0x00\n      mstore\n      keccak256(0x00, 0x20)\n      swap1\n    tag_29:\n      dup2\n      sload\n      dup2\n      mstore\n      swap1\n      0x01\n      add\n      swap1\n      0x20\n      add\n      dup1\n      dup4\n      gt\n      tag_29\n      jumpi\n      dup3\n      swap1\n      sub\n      0x1f\n      and\n      dup3\n      add\n      swap2\n    tag_27:\n      pop\n      pop\n      pop\n      pop\n      pop\n      swap1\n      pop\n        /* \"contracts/structure.sol\":245:336  function getPerson() public view returns(string memory) {... */\n      swap1\n      jump\t// out\n        /* \"contracts/structure.sol\":194:236  Person public p1 = Person(\"Shaan\", 35, 21) */\n    tag_14:\n      0x00\n      dup1\n      0x00\n      add\n      dup1\n      sload\n      tag_30\n      swap1\n      tag_25\n      jump\t// in\n    tag_30:\n      dup1\n      0x1f\n      add\n      0x20\n      dup1\n      swap2\n      div\n      mul\n      0x20\n      add\n      mload(0x40)\n      swap1\n      dup2\n      add\n      0x40\n      mstore\n      dup1\n      swap3\n      swap2\n      swap1\n      dup2\n      dup2\n      mstore\n      0x20\n      add\n      dup3\n      dup1\n      sload\n      tag_31\n      swap1\n      tag_25\n      jump\t// in\n    tag_31:\n      dup1\n      iszero\n      tag_32\n      jumpi\n      dup1\n      0x1f\n      lt\n      tag_33\n      jumpi\n      0x0100\n      dup1\n      dup4\n      sload\n      div\n      mul\n      dup4\n      mstore\n      swap2\n      0x20\n      add\n      swap2\n      jump(tag_32)\n    tag_33:\n      dup3\n      add\n      swap2\n      swap1\n      0x00\n      mstore\n      keccak256(0x00, 0x20)\n      swap1\n    tag_34:\n      dup2\n      sload\n      dup2\n      mstore\n      swap1\n      0x01\n      add\n      swap1\n      0x20\n      add\n      dup1\n      dup4\n      gt\n      tag_34\n      jumpi\n      dup3\n      swap1\n      sub\n      0x1f\n      and\n      dup3\n      add\n      swap2\n    tag_32:\n      pop\n      pop\n      pop\n      pop\n      pop\n      swap1\n      dup1\n      0x01\n      add\n      sload\n      swap1\n      dup1\n      0x02\n      add\n      sload\n      swap1\n      pop\n      dup4\n      jump\t// out\n        /* \"contracts/structure.sol\":344:469  function getDetails() public view returns (string memory, uint, uint) {... */\n    tag_18:\n        /* \"contracts/structure.sol\":387:400  string memory */\n      0x60\n        /* \"contracts/structure.sol\":402:406  uint */\n      0x00\n        /* \"contracts/structure.sol\":408:412  uint */\n      0x00\n        /* \"contracts/structure.sol\":433:435  p1 */\n      0x00\n        /* \"contracts/structure.sol\":433:440  p1.name */\n      0x00\n      add\n        /* \"contracts/structure.sol\":442:444  p1 */\n      0x00\n        /* \"contracts/structure.sol\":442:452  p1.pincode */\n      0x01\n      add\n      sload\n        /* \"contracts/structure.sol\":454:456  p1 */\n      0x00\n        /* \"contracts/structure.sol\":454:460  p1.age */\n      0x02\n      add\n      sload\n        /* \"contracts/structure.sol\":425:461  return (p1.name, p1.pincode, p1.age) */\n      dup3\n      dup1\n      sload\n      tag_36\n      swap1\n      tag_25\n      jump\t// in\n    tag_36:\n      dup1\n      0x1f\n      add\n      0x20\n      dup1\n      swap2\n      div\n      mul\n      0x20\n      add\n      mload(0x40)\n      swap1\n      dup2\n      add\n      0x40\n      mstore\n      dup1\n      swap3\n      swap2\n      swap1\n      dup2\n      dup2\n      mstore\n      0x20\n      add\n      dup3\n      dup1\n      sload\n      tag_37\n      swap1\n      tag_25\n      jump\t// in\n    tag_37:\n      dup1\n      iszero\n      tag_38\n      jumpi\n      dup1\n      0x1f\n      lt\n      tag_39\n      jumpi\n      0x0100\n      dup1\n      dup4\n      sload\n      div\n      mul\n      dup4\n      mstore\n      swap2\n      0x20\n      add\n      swap2\n      jump(tag_38)\n    tag_39:\n      dup3\n      add\n      swap2\n      swap1\n      0x00\n      mstore\n      keccak256(0x00, 0x20)\n      swap1\n    tag_40:\n      dup2\n      sload\n      dup2\n      mstore\n      swap1\n      0x01\n      add\n      swap1\n      0x20\n      add\n      dup1\n      dup4\n      gt\n      tag_40\n      jumpi\n      dup3\n      swap1\n      sub\n      0x1f\n      and\n      dup3\n      add\n      swap2\n    tag_38:\n      pop\n      pop\n      pop\n      pop\n      pop\n      swap3\n      pop\n      swap3\n      pop\n      swap3\n      pop\n      swap3\n      pop\n        /* \"contracts/structure.sol\":344:469  function getDetails() public view returns (string memory, uint, uint) {... */\n      swap1\n      swap2\n      swap3\n      jump\t// out\n        /* \"#utility.yul\":7:106   */\n    tag_41:\n        /* \"#utility.yul\":59:65   */\n      0x00\n        /* \"#utility.yul\":93:98   */\n      dup2\n        /* \"#utility.yul\":87:99   */\n      mload\n        /* \"#utility.yul\":77:99   */\n      swap1\n      pop\n        /* \"#utility.yul\":7:106   */\n      swap2\n      swap1\n      pop\n      jump\t// out\n        /* \"#utility.yul\":112:281   */\n    tag_42:\n        /* \"#utility.yul\":196:207   */\n      0x00\n        /* \"#utility.yul\":230:236   */\n      dup3\n        /* \"#utility.yul\":225:228   */\n      dup3\n        /* \"#utility.yul\":218:237   */\n      mstore\n        /* \"#utility.yul\":270:274   */\n      0x20\n        /* \"#utility.yul\":265:268   */\n      dup3\n        /* \"#utility.yul\":261:275   */\n      add\n        /* \"#utility.yul\":246:275   */\n      swap1\n      pop\n        /* \"#utility.yul\":112:281   */\n      swap3\n      swap2\n      pop\n      pop\n      jump\t// out\n        /* \"#utility.yul\":287:426   */\n    tag_43:\n        /* \"#utility.yul\":376:382   */\n      dup3\n        /* \"#utility.yul\":371:374   */\n      dup2\n        /* \"#utility.yul\":366:369   */\n      dup4\n        /* \"#utility.yul\":360:383   */\n      mcopy\n        /* \"#utility.yul\":417:418   */\n      0x00\n        /* \"#utility.yul\":408:414   */\n      dup4\n        /* \"#utility.yul\":403:406   */\n      dup4\n        /* \"#utility.yul\":399:415   */\n      add\n        /* \"#utility.yul\":392:419   */\n      mstore\n        /* \"#utility.yul\":287:426   */\n      pop\n      pop\n      pop\n      jump\t// out\n        /* \"#utility.yul\":432:534   */\n    tag_44:\n        /* \"#utility.yul\":473:479   */\n      0x00\n        /* \"#utility.yul\":524:526   */\n      0x1f\n        /* \"#utility.yul\":520:527   */\n      not\n        /* \"#utility.yul\":515:517   */\n      0x1f\n        /* \"#utility.yul\":508:513   */\n      dup4\n        /* \"#utility.yul\":504:518   */\n      add\n        /* \"#utility.yul\":500:528   */\n      and\n        /* \"#utility.yul\":490:528   */\n      swap1\n      pop\n        /* \"#utility.yul\":432:534   */\n      swap2\n      swap1\n      pop\n      jump\t// out\n        /* \"#utility.yul\":540:917   */\n    tag_45:\n        /* \"#utility.yul\":628:631   */\n      0x00\n        /* \"#utility.yul\":656:695   */\n      tag_71\n        /* \"#utility.yul\":689:694   */\n      dup3\n        /* \"#utility.yul\":656:695   */\n      tag_41\n      jump\t// in\n    tag_71:\n        /* \"#utility.yul\":711:782   */\n      tag_72\n        /* \"#utility.yul\":775:781   */\n      dup2\n        /* \"#utility.yul\":770:773   */\n      dup6\n        /* \"#utility.yul\":711:782   */\n      tag_42\n      jump\t// in\n    tag_72:\n        /* \"#utility.yul\":704:782   */\n      swap4\n      pop\n        /* \"#utility.yul\":791:856   */\n      tag_73\n        /* \"#utility.yul\":849:855   */\n      dup2\n        /* \"#utility.yul\":844:847   */\n      dup6\n        /* \"#utility.yul\":837:841   */\n      0x20\n        /* \"#utility.yul\":830:835   */\n      dup7\n        /* \"#utility.yul\":826:842   */\n      add\n        /* \"#utility.yul\":791:856   */\n      tag_43\n      jump\t// in\n    tag_73:\n        /* \"#utility.yul\":881:910   */\n      tag_74\n        /* \"#utility.yul\":903:909   */\n      dup2\n        /* \"#utility.yul\":881:910   */\n      tag_44\n      jump\t// in\n    tag_74:\n        /* \"#utility.yul\":876:879   */\n      dup5\n        /* \"#utility.yul\":872:911   */\n      add\n        /* \"#utility.yul\":865:911   */\n      swap2\n      pop\n        /* \"#utility.yul\":632:917   */\n      pop\n        /* \"#utility.yul\":540:917   */\n      swap3\n      swap2\n      pop\n      pop\n      jump\t// out\n        /* \"#utility.yul\":923:1236   */\n    tag_12:\n        /* \"#utility.yul\":1036:1040   */\n      0x00\n        /* \"#utility.yul\":1074:1076   */\n      0x20\n        /* \"#utility.yul\":1063:1072   */\n      dup3\n        /* \"#utility.yul\":1059:1077   */\n      add\n        /* \"#utility.yul\":1051:1077   */\n      swap1\n      pop\n        /* \"#utility.yul\":1123:1132   */\n      dup2\n        /* \"#utility.yul\":1117:1121   */\n      dup2\n        /* \"#utility.yul\":1113:1133   */\n      sub\n        /* \"#utility.yul\":1109:1110   */\n      0x00\n        /* \"#utility.yul\":1098:1107   */\n      dup4\n        /* \"#utility.yul\":1094:1111   */\n      add\n        /* \"#utility.yul\":1087:1134   */\n      mstore\n        /* \"#utility.yul\":1151:1229   */\n      tag_76\n        /* \"#utility.yul\":1224:1228   */\n      dup2\n        /* \"#utility.yul\":1215:1221   */\n      dup5\n        /* \"#utility.yul\":1151:1229   */\n      tag_45\n      jump\t// in\n    tag_76:\n        /* \"#utility.yul\":1143:1229   */\n      swap1\n      pop\n        /* \"#utility.yul\":923:1236   */\n      swap3\n      swap2\n      pop\n      pop\n      jump\t// out\n        /* \"#utility.yul\":1242:1319   */\n    tag_46:\n        /* \"#utility.yul\":1279:1286   */\n      0x00\n        /* \"#utility.yul\":1308:1313   */\n      dup2\n        /* \"#utility.yul\":1297:1313   */\n      swap1\n      pop\n        /* \"#utility.yul\":1242:1319   */\n      swap2\n      swap1\n      pop\n      jump\t// out\n        /* \"#utility.yul\":1325:1443   */\n    tag_47:\n        /* \"#utility.yul\":1412:1436   */\n      tag_79\n        /* \"#utility.yul\":1430:1435   */\n      dup2\n        /* \"#utility.yul\":1412:1436   */\n      tag_46\n      jump\t// in\n    tag_79:\n        /* \"#utility.yul\":1407:1410   */\n      dup3\n        /* \"#utility.yul\":1400:1437   */\n      mstore\n        /* \"#utility.yul\":1325:1443   */\n      pop\n      pop\n      jump\t// out\n        /* \"#utility.yul\":1449:1982   */\n    tag_16:\n        /* \"#utility.yul\":1618:1622   */\n      0x00\n        /* \"#utility.yul\":1656:1658   */\n      0x60\n        /* \"#utility.yul\":1645:1654   */\n      dup3\n        /* \"#utility.yul\":1641:1659   */\n      add\n        /* \"#utility.yul\":1633:1659   */\n      swap1\n      pop\n        /* \"#utility.yul\":1705:1714   */\n      dup2\n        /* \"#utility.yul\":1699:1703   */\n      dup2\n        /* \"#utility.yul\":1695:1715   */\n      sub\n        /* \"#utility.yul\":1691:1692   */\n      0x00\n        /* \"#utility.yul\":1680:1689   */\n      dup4\n        /* \"#utility.yul\":1676:1693   */\n      add\n        /* \"#utility.yul\":1669:1716   */\n      mstore\n        /* \"#utility.yul\":1733:1811   */\n      tag_81\n        /* \"#utility.yul\":1806:1810   */\n      dup2\n        /* \"#utility.yul\":1797:1803   */\n      dup7\n        /* \"#utility.yul\":1733:1811   */\n      tag_45\n      jump\t// in\n    tag_81:\n        /* \"#utility.yul\":1725:1811   */\n      swap1\n      pop\n        /* \"#utility.yul\":1821:1893   */\n      tag_82\n        /* \"#utility.yul\":1889:1891   */\n      0x20\n        /* \"#utility.yul\":1878:1887   */\n      dup4\n        /* \"#utility.yul\":1874:1892   */\n      add\n        /* \"#utility.yul\":1865:1871   */\n      dup6\n        /* \"#utility.yul\":1821:1893   */\n      tag_47\n      jump\t// in\n    tag_82:\n        /* \"#utility.yul\":1903:1975   */\n      tag_83\n        /* \"#utility.yul\":1971:1973   */\n      0x40\n        /* \"#utility.yul\":1960:1969   */\n      dup4\n        /* \"#utility.yul\":1956:1974   */\n      add\n        /* \"#utility.yul\":1947:1953   */\n      dup5\n        /* \"#utility.yul\":1903:1975   */\n      tag_47\n      jump\t// in\n    tag_83:\n        /* \"#utility.yul\":1449:1982   */\n      swap5\n      swap4\n      pop\n      pop\n      pop\n      pop\n      jump\t// out\n        /* \"#utility.yul\":1988:2168   */\n    tag_48:\n        /* \"#utility.yul\":2036:2113   */\n      0x4e487b7100000000000000000000000000000000000000000000000000000000\n        /* \"#utility.yul\":2033:2034   */\n      0x00\n        /* \"#utility.yul\":2026:2114   */\n      mstore\n        /* \"#utility.yul\":2133:2137   */\n      0x41\n        /* \"#utility.yul\":2130:2131   */\n      0x04\n        /* \"#utility.yul\":2123:2138   */\n      mstore\n        /* \"#utility.yul\":2157:2161   */\n      0x24\n        /* \"#utility.yul\":2154:2155   */\n      0x00\n        /* \"#utility.yul\":2147:2162   */\n      revert\n        /* \"#utility.yul\":2174:2354   */\n    tag_49:\n        /* \"#utility.yul\":2222:2299   */\n      0x4e487b7100000000000000000000000000000000000000000000000000000000\n        /* \"#utility.yul\":2219:2220   */\n      0x00\n        /* \"#utility.yul\":2212:2300   */\n      mstore\n        /* \"#utility.yul\":2319:2323   */\n      0x22\n        /* \"#utility.yul\":2316:2317   */\n      0x04\n        /* \"#utility.yul\":2309:2324   */\n      mstore\n        /* \"#utility.yul\":2343:2347   */\n      0x24\n        /* \"#utility.yul\":2340:2341   */\n      0x00\n        /* \"#utility.yul\":2333:2348   */\n      revert\n        /* \"#utility.yul\":2360:2680   */\n    tag_25:\n        /* \"#utility.yul\":2404:2410   */\n      0x00\n        /* \"#utility.yul\":2441:2442   */\n      0x02\n        /* \"#utility.yul\":2435:2439   */\n      dup3\n        /* \"#utility.yul\":2431:2443   */\n      div\n        /* \"#utility.yul\":2421:2443   */\n      swap1\n      pop\n        /* \"#utility.yul\":2488:2489   */\n      0x01\n        /* \"#utility.yul\":2482:2486   */\n      dup3\n        /* \"#utility.yul\":2478:2490   */\n      and\n        /* \"#utility.yul\":2509:2527   */\n      dup1\n        /* \"#utility.yul\":2499:2580   */\n      tag_87\n      jumpi\n        /* \"#utility.yul\":2565:2569   */\n      0x7f\n        /* \"#utility.yul\":2557:2563   */\n      dup3\n        /* \"#utility.yul\":2553:2570   */\n      and\n        /* \"#utility.yul\":2543:2570   */\n      swap2\n      pop\n        /* \"#utility.yul\":2499:2580   */\n    tag_87:\n        /* \"#utility.yul\":2627:2629   */\n      0x20\n        /* \"#utility.yul\":2619:2625   */\n      dup3\n        /* \"#utility.yul\":2616:2630   */\n      lt\n        /* \"#utility.yul\":2596:2614   */\n      dup2\n        /* \"#utility.yul\":2593:2631   */\n      sub\n        /* \"#utility.yul\":2590:2674   */\n      tag_88\n      jumpi\n        /* \"#utility.yul\":2646:2664   */\n      tag_89\n      tag_49\n      jump\t// in\n    tag_89:\n        /* \"#utility.yul\":2590:2674   */\n    tag_88:\n        /* \"#utility.yul\":2411:2680   */\n      pop\n        /* \"#utility.yul\":2360:2680   */\n      swap2\n      swap1\n      pop\n      jump\t// out\n        /* \"#utility.yul\":2686:2827   */\n    tag_50:\n        /* \"#utility.yul\":2735:2739   */\n      0x00\n        /* \"#utility.yul\":2758:2761   */\n      dup2\n        /* \"#utility.yul\":2750:2761   */\n      swap1\n      pop\n        /* \"#utility.yul\":2781:2784   */\n      dup2\n        /* \"#utility.yul\":2778:2779   */\n      0x00\n        /* \"#utility.yul\":2771:2785   */\n      mstore\n        /* \"#utility.yul\":2815:2819   */\n      0x20\n        /* \"#utility.yul\":2812:2813   */\n      0x00\n        /* \"#utility.yul\":2802:2820   */\n      keccak256\n        /* \"#utility.yul\":2794:2820   */\n      swap1\n      pop\n        /* \"#utility.yul\":2686:2827   */\n      swap2\n      swap1\n      pop\n      jump\t// out\n        /* \"#utility.yul\":2833:2926   */\n    tag_51:\n        /* \"#utility.yul\":2870:2876   */\n      0x00\n        /* \"#utility.yul\":2917:2919   */\n      0x20\n        /* \"#utility.yul\":2912:2914   */\n      0x1f\n        /* \"#utility.yul\":2905:2910   */\n      dup4\n        /* \"#utility.yul\":2901:2915   */\n      add\n        /* \"#utility.yul\":2897:2920   */\n      div\n        /* \"#utility.yul\":2887:2920   */\n      swap1\n      pop\n        /* \"#utility.yul\":2833:2926   */\n      swap2\n      swap1\n      pop\n      jump\t// out\n        /* \"#utility.yul\":2932:3039   */\n    tag_52:\n        /* \"#utility.yul\":2976:2984   */\n      0x00\n        /* \"#utility.yul\":3026:3031   */\n      dup3\n        /* \"#utility.yul\":3020:3024   */\n      dup3\n        /* \"#utility.yul\":3016:3032   */\n      shl\n        /* \"#utility.yul\":2995:3032   */\n      swap1\n      pop\n        /* \"#utility.yul\":2932:3039   */\n      swap3\n      swap2\n      pop\n      pop\n      jump\t// out\n        /* \"#utility.yul\":3045:3438   */\n    tag_53:\n        /* \"#utility.yul\":3114:3120   */\n      0x00\n        /* \"#utility.yul\":3164:3165   */\n      0x08\n        /* \"#utility.yul\":3152:3162   */\n      dup4\n        /* \"#utility.yul\":3148:3166   */\n      mul\n        /* \"#utility.yul\":3187:3284   */\n      tag_94\n        /* \"#utility.yul\":3217:3283   */\n      0xffffffffffffffffffffffffffffffffffffffffffffffffffffffffffffffff\n        /* \"#utility.yul\":3206:3215   */\n      dup3\n        /* \"#utility.yul\":3187:3284   */\n      tag_52\n      jump\t// in\n    tag_94:\n        /* \"#utility.yul\":3305:3344   */\n      tag_95\n        /* \"#utility.yul\":3335:3343   */\n      dup7\n        /* \"#utility.yul\":3324:3333   */\n      dup4\n        /* \"#utility.yul\":3305:3344   */\n      tag_52\n      jump\t// in\n    tag_95:\n        /* \"#utility.yul\":3293:3344   */\n      swap6\n      pop\n        /* \"#utility.yul\":3377:3381   */\n      dup1\n        /* \"#utility.yul\":3373:3382   */\n      not\n        /* \"#utility.yul\":3366:3371   */\n      dup5\n        /* \"#utility.yul\":3362:3383   */\n      and\n        /* \"#utility.yul\":3353:3383   */\n      swap4\n      pop\n        /* \"#utility.yul\":3426:3430   */\n      dup1\n        /* \"#utility.yul\":3416:3424   */\n      dup7\n        /* \"#utility.yul\":3412:3431   */\n      and\n        /* \"#utility.yul\":3405:3410   */\n      dup5\n        /* \"#utility.yul\":3402:3432   */\n      or\n        /* \"#utility.yul\":3392:3432   */\n      swap3\n      pop\n        /* \"#utility.yul\":3121:3438   */\n      pop\n      pop\n        /* \"#utility.yul\":3045:3438   */\n      swap4\n      swap3\n      pop\n      pop\n      pop\n      jump\t// out\n        /* \"#utility.yul\":3444:3504   */\n    tag_54:\n        /* \"#utility.yul\":3472:3475   */\n      0x00\n        /* \"#utility.yul\":3493:3498   */\n      dup2\n        /* \"#utility.yul\":3486:3498   */\n      swap1\n      pop\n        /* \"#utility.yul\":3444:3504   */\n      swap2\n      swap1\n      pop\n      jump\t// out\n        /* \"#utility.yul\":3510:3652   */\n    tag_55:\n        /* \"#utility.yul\":3560:3569   */\n      0x00\n        /* \"#utility.yul\":3593:3646   */\n      tag_98\n        /* \"#utility.yul\":3611:3645   */\n      tag_99\n        /* \"#utility.yul\":3620:3644   */\n      tag_100\n        /* \"#utility.yul\":3638:3643   */\n      dup5\n        /* \"#utility.yul\":3620:3644   */\n      tag_46\n      jump\t// in\n    tag_100:\n        /* \"#utility.yul\":3611:3645   */\n      tag_54\n      jump\t// in\n    tag_99:\n        /* \"#utility.yul\":3593:3646   */\n      tag_46\n      jump\t// in\n    tag_98:\n        /* \"#utility.yul\":3580:3646   */\n      swap1\n      pop\n        /* \"#utility.yul\":3510:3652   */\n      swap2\n      swap1\n      pop\n      jump\t// out\n        /* \"#utility.yul\":3658:3733   */\n    tag_56:\n        /* \"#utility.yul\":3701:3704   */\n      0x00\n        /* \"#utility.yul\":3722:3727   */\n      dup2\n        /* \"#utility.yul\":3715:3727   */\n      swap1\n      pop\n        /* \"#utility.yul\":3658:3733   */\n      swap2\n      swap1\n      pop\n      jump\t// out\n        /* \"#utility.yul\":3739:4008   */\n    tag_57:\n        /* \"#utility.yul\":3849:3888   */\n      tag_103\n        /* \"#utility.yul\":3880:3887   */\n      dup4\n        /* \"#utility.yul\":3849:3888   */\n      tag_55\n      jump\t// in\n    tag_103:\n        /* \"#utility.yul\":3910:4001   */\n      tag_104\n        /* \"#utility.yul\":3959:4000   */\n      tag_105\n        /* \"#utility.yul\":3983:3999   */\n      dup3\n        /* \"#utility.yul\":3959:4000   */\n      tag_56\n      jump\t// in\n    tag_105:\n        /* \"#utility.yul\":3951:3957   */\n      dup5\n        /* \"#utility.yul\":3944:3948   */\n      dup5\n        /* \"#utility.yul\":3938:3949   */\n      sload\n        /* \"#utility.yul\":3910:4001   */\n      tag_53\n      jump\t// in\n    tag_104:\n        /* \"#utility.yul\":3904:3908   */\n      dup3\n        /* \"#utility.yul\":3897:4002   */\n      sstore\n        /* \"#utility.yul\":3815:4008   */\n      pop\n        /* \"#utility.yul\":3739:4008   */\n      pop\n      pop\n      pop\n      jump\t// out\n        /* \"#utility.yul\":4014:4087   */\n    tag_58:\n        /* \"#utility.yul\":4059:4062   */\n      0x00\n        /* \"#utility.yul\":4080:4081   */\n      0x00\n        /* \"#utility.yul\":4073:4081   */\n      swap1\n      pop\n        /* \"#utility.yul\":4014:4087   */\n      swap1\n      jump\t// out\n        /* \"#utility.yul\":4093:4282   */\n    tag_59:\n        /* \"#utility.yul\":4170:4202   */\n      tag_108\n      tag_58\n      jump\t// in\n    tag_108:\n        /* \"#utility.yul\":4211:4276   */\n      tag_109\n        /* \"#utility.yul\":4269:4275   */\n      dup2\n        /* \"#utility.yul\":4261:4267   */\n      dup5\n        /* \"#utility.yul\":4255:4259   */\n      dup5\n        /* \"#utility.yul\":4211:4276   */\n      tag_57\n      jump\t// in\n    tag_109:\n        /* \"#utility.yul\":4146:4282   */\n      pop\n        /* \"#utility.yul\":4093:4282   */\n      pop\n      pop\n      jump\t// out\n        /* \"#utility.yul\":4288:4474   */\n    tag_60:\n        /* \"#utility.yul\":4348:4468   */\n    tag_111:\n        /* \"#utility.yul\":4365:4368   */\n      dup2\n        /* \"#utility.yul\":4358:4363   */\n      dup2\n        /* \"#utility.yul\":4355:4369   */\n      lt\n        /* \"#utility.yul\":4348:4468   */\n      iszero\n      tag_113\n      jumpi\n        /* \"#utility.yul\":4419:4458   */\n      tag_114\n        /* \"#utility.yul\":4456:4457   */\n      0x00\n        /* \"#utility.yul\":4449:4454   */\n      dup3\n        /* \"#utility.yul\":4419:4458   */\n      tag_59\n      jump\t// in\n    tag_114:\n        /* \"#utility.yul\":4392:4393   */\n      0x01\n        /* \"#utility.yul\":4385:4390   */\n      dup2\n        /* \"#utility.yul\":4381:4394   */\n      add\n        /* \"#utility.yul\":4372:4394   */\n      swap1\n      pop\n        /* \"#utility.yul\":4348:4468   */\n      jump(tag_111)\n    tag_113:\n        /* \"#utility.yul\":4288:4474   */\n      pop\n      pop\n      jump\t// out\n        /* \"#utility.yul\":4480:5023   */\n    tag_61:\n        /* \"#utility.yul\":4581:4583   */\n      0x1f\n        /* \"#utility.yul\":4576:4579   */\n      dup3\n        /* \"#utility.yul\":4573:4584   */\n      gt\n        /* \"#utility.yul\":4570:5016   */\n      iszero\n      tag_116\n      jumpi\n        /* \"#utility.yul\":4615:4653   */\n      tag_117\n        /* \"#utility.yul\":4647:4652   */\n      dup2\n        /* \"#utility.yul\":4615:4653   */\n      tag_50\n      jump\t// in\n    tag_117:\n        /* \"#utility.yul\":4699:4728   */\n      tag_118\n        /* \"#utility.yul\":4717:4727   */\n      dup5\n        /* \"#utility.yul\":4699:4728   */\n      tag_51\n      jump\t// in\n    tag_118:\n        /* \"#utility.yul\":4689:4697   */\n      dup2\n        /* \"#utility.yul\":4685:4729   */\n      add\n        /* \"#utility.yul\":4882:4884   */\n      0x20\n        /* \"#utility.yul\":4870:4880   */\n      dup6\n        /* \"#utility.yul\":4867:4885   */\n      lt\n        /* \"#utility.yul\":4864:4913   */\n      iszero\n      tag_119\n      jumpi\n        /* \"#utility.yul\":4903:4911   */\n      dup2\n        /* \"#utility.yul\":4888:4911   */\n      swap1\n      pop\n        /* \"#utility.yul\":4864:4913   */\n    tag_119:\n        /* \"#utility.yul\":4926:5006   */\n      tag_120\n        /* \"#utility.yul\":4982:5004   */\n      tag_121\n        /* \"#utility.yul\":5000:5003   */\n      dup6\n        /* \"#utility.yul\":4982:5004   */\n      tag_51\n      jump\t// in\n    tag_121:\n        /* \"#utility.yul\":4972:4980   */\n      dup4\n        /* \"#utility.yul\":4968:5005   */\n      add\n        /* \"#utility.yul\":4955:4966   */\n      dup3\n        /* \"#utility.yul\":4926:5006   */\n      tag_60\n      jump\t// in\n    tag_120:\n        /* \"#utility.yul\":4585:5016   */\n      pop\n      pop\n        /* \"#utility.yul\":4570:5016   */\n    tag_116:\n        /* \"#utility.yul\":4480:5023   */\n      pop\n      pop\n      pop\n      jump\t// out\n        /* \"#utility.yul\":5029:5146   */\n    tag_62:\n        /* \"#utility.yul\":5083:5091   */\n      0x00\n        /* \"#utility.yul\":5133:5138   */\n      dup3\n        /* \"#utility.yul\":5127:5131   */\n      dup3\n        /* \"#utility.yul\":5123:5139   */\n      shr\n        /* \"#utility.yul\":5102:5139   */\n      swap1\n      pop\n        /* \"#utility.yul\":5029:5146   */\n      swap3\n      swap2\n      pop\n      pop\n      jump\t// out\n        /* \"#utility.yul\":5152:5321   */\n    tag_63:\n        /* \"#utility.yul\":5196:5202   */\n      0x00\n        /* \"#utility.yul\":5229:5280   */\n      tag_124\n        /* \"#utility.yul\":5277:5278   */\n      0x00\n        /* \"#utility.yul\":5273:5279   */\n      not\n        /* \"#utility.yul\":5265:5270   */\n      dup5\n        /* \"#utility.yul\":5262:5263   */\n      0x08\n        /* \"#utility.yul\":5258:5271   */\n      mul\n        /* \"#utility.yul\":5229:5280   */\n      tag_62\n      jump\t// in\n    tag_124:\n        /* \"#utility.yul\":5225:5281   */\n      not\n        /* \"#utility.yul\":5310:5314   */\n      dup1\n        /* \"#utility.yul\":5304:5308   */\n      dup4\n        /* \"#utility.yul\":5300:5315   */\n      and\n        /* \"#utility.yul\":5290:5315   */\n      swap2\n      pop\n        /* \"#utility.yul\":5203:5321   */\n      pop\n        /* \"#utility.yul\":5152:5321   */\n      swap3\n      swap2\n      pop\n      pop\n      jump\t// out\n        /* \"#utility.yul\":5326:5621   */\n    tag_64:\n        /* \"#utility.yul\":5402:5406   */\n      0x00\n        /* \"#utility.yul\":5548:5577   */\n      tag_126\n        /* \"#utility.yul\":5573:5576   */\n      dup4\n        /* \"#utility.yul\":5567:5571   */\n      dup4\n        /* \"#utility.yul\":5548:5577   */\n      tag_63\n      jump\t// in\n    tag_126:\n        /* \"#utility.yul\":5540:5577   */\n      swap2\n      pop\n        /* \"#utility.yul\":5610:5613   */\n      dup3\n        /* \"#utility.yul\":5607:5608   */\n      0x02\n        /* \"#utility.yul\":5603:5614   */\n      mul\n        /* \"#utility.yul\":5597:5601   */\n      dup3\n        /* \"#utility.yul\":5594:5615   */\n      or\n        /* \"#utility.yul\":5586:5615   */\n      swap1\n      pop\n        /* \"#utility.yul\":5326:5621   */\n      swap3\n      swap2\n      pop\n      pop\n      jump\t// out\n        /* \"#utility.yul\":5626:7021   */\n    tag_22:\n        /* \"#utility.yul\":5743:5780   */\n      tag_128\n        /* \"#utility.yul\":5776:5779   */\n      dup3\n        /* \"#utility.yul\":5743:5780   */\n      tag_41\n      jump\t// in\n    tag_128:\n        /* \"#utility.yul\":5845:5863   */\n      0xffffffffffffffff\n        /* \"#utility.yul\":5837:5843   */\n      dup2\n        /* \"#utility.yul\":5834:5864   */\n      gt\n        /* \"#utility.yul\":5831:5887   */\n      iszero\n      tag_129\n      jumpi\n        /* \"#utility.yul\":5867:5885   */\n      tag_130\n      tag_48\n      jump\t// in\n    tag_130:\n        /* \"#utility.yul\":5831:5887   */\n    tag_129:\n        /* \"#utility.yul\":5911:5949   */\n      tag_131\n        /* \"#utility.yul\":5943:5947   */\n      dup3\n        /* \"#utility.yul\":5937:5948   */\n      sload\n        /* \"#utility.yul\":5911:5949   */\n      tag_25\n      jump\t// in\n    tag_131:\n        /* \"#utility.yul\":5996:6063   */\n      tag_132\n        /* \"#utility.yul\":6056:6062   */\n      dup3\n        /* \"#utility.yul\":6048:6054   */\n      dup3\n        /* \"#utility.yul\":6042:6046   */\n      dup6\n        /* \"#utility.yul\":5996:6063   */\n      tag_61\n      jump\t// in\n    tag_132:\n        /* \"#utility.yul\":6090:6091   */\n      0x00\n        /* \"#utility.yul\":6114:6118   */\n      0x20\n        /* \"#utility.yul\":6101:6118   */\n      swap1\n      pop\n        /* \"#utility.yul\":6146:6148   */\n      0x1f\n        /* \"#utility.yul\":6138:6144   */\n      dup4\n        /* \"#utility.yul\":6135:6149   */\n      gt\n        /* \"#utility.yul\":6163:6164   */\n      0x01\n        /* \"#utility.yul\":6158:6776   */\n      dup2\n      eq\n      tag_134\n      jumpi\n        /* \"#utility.yul\":6820:6821   */\n      0x00\n        /* \"#utility.yul\":6837:6843   */\n      dup5\n        /* \"#utility.yul\":6834:6911   */\n      iszero\n      tag_135\n      jumpi\n        /* \"#utility.yul\":6886:6895   */\n      dup3\n        /* \"#utility.yul\":6881:6884   */\n      dup8\n        /* \"#utility.yul\":6877:6896   */\n      add\n        /* \"#utility.yul\":6871:6897   */\n      mload\n        /* \"#utility.yul\":6862:6897   */\n      swap1\n      pop\n        /* \"#utility.yul\":6834:6911   */\n    tag_135:\n        /* \"#utility.yul\":6937:7004   */\n      tag_136\n        /* \"#utility.yul\":6997:7003   */\n      dup6\n        /* \"#utility.yul\":6990:6995   */\n      dup3\n        /* \"#utility.yul\":6937:7004   */\n      tag_64\n      jump\t// in\n    tag_136:\n        /* \"#utility.yul\":6931:6935   */\n      dup7\n        /* \"#utility.yul\":6924:7005   */\n      sstore\n        /* \"#utility.yul\":6793:7015   */\n      pop\n        /* \"#utility.yul\":6128:7015   */\n      jump(tag_133)\n        /* \"#utility.yul\":6158:6776   */\n    tag_134:\n        /* \"#utility.yul\":6210:6214   */\n      0x1f\n        /* \"#utility.yul\":6206:6215   */\n      not\n        /* \"#utility.yul\":6198:6204   */\n      dup5\n        /* \"#utility.yul\":6194:6216   */\n      and\n        /* \"#utility.yul\":6244:6281   */\n      tag_137\n        /* \"#utility.yul\":6276:6280   */\n      dup7\n        /* \"#utility.yul\":6244:6281   */\n      tag_50\n      jump\t// in\n    tag_137:\n        /* \"#utility.yul\":6303:6304   */\n      0x00\n        /* \"#utility.yul\":6317:6525   */\n    tag_138:\n        /* \"#utility.yul\":6331:6338   */\n      dup3\n        /* \"#utility.yul\":6328:6329   */\n      dup2\n        /* \"#utility.yul\":6325:6339   */\n      lt\n        /* \"#utility.yul\":6317:6525   */\n      iszero\n      tag_140\n      jumpi\n        /* \"#utility.yul\":6410:6419   */\n      dup5\n        /* \"#utility.yul\":6405:6408   */\n      dup10\n        /* \"#utility.yul\":6401:6420   */\n      add\n        /* \"#utility.yul\":6395:6421   */\n      mload\n        /* \"#utility.yul\":6387:6393   */\n      dup3\n        /* \"#utility.yul\":6380:6422   */\n      sstore\n        /* \"#utility.yul\":6461:6462   */\n      0x01\n        /* \"#utility.yul\":6453:6459   */\n      dup3\n        /* \"#utility.yul\":6449:6463   */\n      add\n        /* \"#utility.yul\":6439:6463   */\n      swap2\n      pop\n        /* \"#utility.yul\":6508:6510   */\n      0x20\n        /* \"#utility.yul\":6497:6506   */\n      dup6\n        /* \"#utility.yul\":6493:6511   */\n      add\n        /* \"#utility.yul\":6480:6511   */\n      swap5\n      pop\n        /* \"#utility.yul\":6354:6358   */\n      0x20\n        /* \"#utility.yul\":6351:6352   */\n      dup2\n        /* \"#utility.yul\":6347:6359   */\n      add\n        /* \"#utility.yul\":6342:6359   */\n      swap1\n      pop\n        /* \"#utility.yul\":6317:6525   */\n      jump(tag_138)\n    tag_140:\n        /* \"#utility.yul\":6553:6559   */\n      dup7\n        /* \"#utility.yul\":6544:6551   */\n      dup4\n        /* \"#utility.yul\":6541:6560   */\n      lt\n        /* \"#utility.yul\":6538:6717   */\n      iszero\n      tag_141\n      jumpi\n        /* \"#utility.yul\":6611:6620   */\n      dup5\n        /* \"#utility.yul\":6606:6609   */\n      dup10\n        /* \"#utility.yul\":6602:6621   */\n      add\n        /* \"#utility.yul\":6596:6622   */\n      mload\n        /* \"#utility.yul\":6654:6702   */\n      tag_142\n        /* \"#utility.yul\":6696:6700   */\n      0x1f\n        /* \"#utility.yul\":6688:6694   */\n      dup10\n        /* \"#utility.yul\":6684:6701   */\n      and\n        /* \"#utility.yul\":6673:6682   */\n      dup3\n        /* \"#utility.yul\":6654:6702   */\n      tag_63\n      jump\t// in\n    tag_142:\n        /* \"#utility.yul\":6646:6652   */\n      dup4\n        /* \"#utility.yul\":6639:6703   */\n      sstore\n        /* \"#utility.yul\":6561:6717   */\n      pop\n        /* \"#utility.yul\":6538:6717   */\n    tag_141:\n        /* \"#utility.yul\":6763:6764   */\n      0x01\n        /* \"#utility.yul\":6759:6760   */\n      0x02\n        /* \"#utility.yul\":6751:6757   */\n      dup9\n        /* \"#utility.yul\":6747:6761   */\n      mul\n        /* \"#utility.yul\":6743:6765   */\n      add\n        /* \"#utility.yul\":6737:6741   */\n      dup9\n        /* \"#utility.yul\":6730:6766   */\n      sstore\n        /* \"#utility.yul\":6165:6776   */\n      pop\n      pop\n      pop\n        /* \"#utility.yul\":6128:7015   */\n    tag_133:\n      pop\n        /* \"#utility.yul\":5718:7021   */\n      pop\n      pop\n      pop\n        /* \"#utility.yul\":5626:7021   */\n      pop\n      pop\n      jump\t// out\n\n    auxdata: 0xa26469706673582212200a3f54798489c5a2ed96dcefcc2e830848d511783ba421927ffd6b665cda846d64736f6c634300081f0033\n}\n",
				"bytecode": {
					"linkReferences": {},
					"object": "608060405260405180606001604052806040518060400160405280600581526020017f536861616e00000000000000000000000000000000000000000000000000000081525081526020016023815260200160158152505f5f820151815f01908161006a91906102cf565b506020820151816001015560408201518160020155505034801561008c575f5ffd5b5061039e565b5f81519050919050565b7f4e487b71000000000000000000000000000000000000000000000000000000005f52604160045260245ffd5b7f4e487b71000000000000000000000000000000000000000000000000000000005f52602260045260245ffd5b5f600282049050600182168061010d57607f821691505b6020821081036101205761011f6100c9565b5b50919050565b5f819050815f5260205f209050919050565b5f6020601f8301049050919050565b5f82821b905092915050565b5f600883026101827fffffffffffffffffffffffffffffffffffffffffffffffffffffffffffffffff82610147565b61018c8683610147565b95508019841693508086168417925050509392505050565b5f819050919050565b5f819050919050565b5f6101d06101cb6101c6846101a4565b6101ad565b6101a4565b9050919050565b5f819050919050565b6101e9836101b6565b6101fd6101f5826101d7565b848454610153565b825550505050565b5f5f905090565b610214610205565b61021f8184846101e0565b505050565b5b81811015610242576102375f8261020c565b600181019050610225565b5050565b601f8211156102875761025881610126565b61026184610138565b81016020851015610270578190505b61028461027c85610138565b830182610224565b50505b505050565b5f82821c905092915050565b5f6102a75f198460080261028c565b1980831691505092915050565b5f6102bf8383610298565b9150826002028217905092915050565b6102d882610092565b67ffffffffffffffff8111156102f1576102f061009c565b5b6102fb82546100f6565b610306828285610246565b5f60209050601f831160018114610337575f8415610325578287015190505b61032f85826102b4565b865550610396565b601f19841661034586610126565b5f5b8281101561036c57848901518255600182019150602085019450602081019050610347565b868310156103895784890151610385601f891682610298565b8355505b6001600288020188555050505b505050505050565b6106e4806103ab5f395ff3fe608060405234801561000f575f5ffd5b506004361061004a575f3560e01c80632bf0f81c1461004e5780638ec4dc9514610058578063c2a2747b14610076578063fbbf93a014610096575b5f5ffd5b6100566100b6565b005b6100606100fe565b60405161006d9190610341565b60405180910390f35b61007e61018f565b60405161008d93929190610379565b60405180910390f35b61009e61022b565b6040516100ad93929190610379565b60405180910390f35b6040518060400160405280600381526020017f536f6d00000000000000000000000000000000000000000000000000000000008152505f5f0190816100fb91906105df565b50565b60605f5f01805461010e9061040f565b80601f016020809104026020016040519081016040528092919081815260200182805461013a9061040f565b80156101855780601f1061015c57610100808354040283529160200191610185565b820191905f5260205f20905b81548152906001019060200180831161016857829003601f168201915b5050505050905090565b5f805f01805461019e9061040f565b80601f01602080910402602001604051908101604052809291908181526020018280546101ca9061040f565b80156102155780601f106101ec57610100808354040283529160200191610215565b820191905f5260205f20905b8154815290600101906020018083116101f857829003601f168201915b5050505050908060010154908060020154905083565b60605f5f5f5f015f600101545f600201548280546102489061040f565b80601f01602080910402602001604051908101604052809291908181526020018280546102749061040f565b80156102bf5780601f10610296576101008083540402835291602001916102bf565b820191905f5260205f20905b8154815290600101906020018083116102a257829003601f168201915b50505050509250925092509250909192565b5f81519050919050565b5f82825260208201905092915050565b8281835e5f83830152505050565b5f601f19601f8301169050919050565b5f610313826102d1565b61031d81856102db565b935061032d8185602086016102eb565b610336816102f9565b840191505092915050565b5f6020820190508181035f8301526103598184610309565b905092915050565b5f819050919050565b61037381610361565b82525050565b5f6060820190508181035f8301526103918186610309565b90506103a0602083018561036a565b6103ad604083018461036a565b949350505050565b7f4e487b71000000000000000000000000000000000000000000000000000000005f52604160045260245ffd5b7f4e487b71000000000000000000000000000000000000000000000000000000005f52602260045260245ffd5b5f600282049050600182168061042657607f821691505b602082108103610439576104386103e2565b5b50919050565b5f819050815f5260205f209050919050565b5f6020601f8301049050919050565b5f82821b905092915050565b5f6008830261049b7fffffffffffffffffffffffffffffffffffffffffffffffffffffffffffffffff82610460565b6104a58683610460565b95508019841693508086168417925050509392505050565b5f819050919050565b5f6104e06104db6104d684610361565b6104bd565b610361565b9050919050565b5f819050919050565b6104f9836104c6565b61050d610505826104e7565b84845461046c565b825550505050565b5f5f905090565b610524610515565b61052f8184846104f0565b505050565b5b81811015610552576105475f8261051c565b600181019050610535565b5050565b601f821115610597576105688161043f565b61057184610451565b81016020851015610580578190505b61059461058c85610451565b830182610534565b50505b505050565b5f82821c905092915050565b5f6105b75f198460080261059c565b1980831691505092915050565b5f6105cf83836105a8565b9150826002028217905092915050565b6105e8826102d1565b67ffffffffffffffff811115610601576106006103b5565b5b61060b825461040f565b610616828285610556565b5f60209050601f831160018114610647575f8415610635578287015190505b61063f85826105c4565b8655506106a6565b601f1984166106558661043f565b5f5b8281101561067c57848901518255600182019150602085019450602081019050610657565b868310156106995784890151610695601f8916826105a8565b8355505b6001600288020188555050505b50505050505056fea26469706673582212200a3f54798489c5a2ed96dcefcc2e830848d511783ba421927ffd6b665cda846d64736f6c634300081f0033",
					"opcodes": "PUSH1 0x80 PUSH1 0x40 MSTORE PUSH1 0x40 MLOAD DUP1 PUSH1 0x60 ADD PUSH1 0x40 MSTORE DUP1 PUSH1 0x40 MLOAD DUP1 PUSH1 0x40 ADD PUSH1 0x40 MSTORE DUP1 PUSH1 0x5 DUP2 MSTORE PUSH1 0x20 ADD PUSH32 0x536861616E000000000000000000000000000000000000000000000000000000 DUP2 MSTORE POP DUP2 MSTORE PUSH1 0x20 ADD PUSH1 0x23 DUP2 MSTORE PUSH1 0x20 ADD PUSH1 0x15 DUP2 MSTORE POP PUSH0 PUSH0 DUP3 ADD MLOAD DUP2 PUSH0 ADD SWAP1 DUP2 PUSH2 0x6A SWAP2 SWAP1 PUSH2 0x2CF JUMP JUMPDEST POP PUSH1 0x20 DUP3 ADD MLOAD DUP2 PUSH1 0x1 ADD SSTORE PUSH1 0x40 DUP3 ADD MLOAD DUP2 PUSH1 0x2 ADD SSTORE POP POP CALLVALUE DUP1 ISZERO PUSH2 0x8C JUMPI PUSH0 PUSH0 REVERT JUMPDEST POP PUSH2 0x39E JUMP JUMPDEST PUSH0 DUP2 MLOAD SWAP1 POP SWAP2 SWAP1 POP JUMP JUMPDEST PUSH32 0x4E487B7100000000000000000000000000000000000000000000000000000000 PUSH0 MSTORE PUSH1 0x41 PUSH1 0x4 MSTORE PUSH1 0x24 PUSH0 REVERT JUMPDEST PUSH32 0x4E487B7100000000000000000000000000000000000000000000000000000000 PUSH0 MSTORE PUSH1 0x22 PUSH1 0x4 MSTORE PUSH1 0x24 PUSH0 REVERT JUMPDEST PUSH0 PUSH1 0x2 DUP3 DIV SWAP1 POP PUSH1 0x1 DUP3 AND DUP1 PUSH2 0x10D JUMPI PUSH1 0x7F DUP3 AND SWAP2 POP JUMPDEST PUSH1 0x20 DUP3 LT DUP2 SUB PUSH2 0x120 JUMPI PUSH2 0x11F PUSH2 0xC9 JUMP JUMPDEST JUMPDEST POP SWAP2 SWAP1 POP JUMP JUMPDEST PUSH0 DUP2 SWAP1 POP DUP2 PUSH0 MSTORE PUSH1 0x20 PUSH0 KECCAK256 SWAP1 POP SWAP2 SWAP1 POP JUMP JUMPDEST PUSH0 PUSH1 0x20 PUSH1 0x1F DUP4 ADD DIV SWAP1 POP SWAP2 SWAP1 POP JUMP JUMPDEST PUSH0 DUP3 DUP3 SHL SWAP1 POP SWAP3 SWAP2 POP POP JUMP JUMPDEST PUSH0 PUSH1 0x8 DUP4 MUL PUSH2 0x182 PUSH32 0xFFFFFFFFFFFFFFFFFFFFFFFFFFFFFFFFFFFFFFFFFFFFFFFFFFFFFFFFFFFFFFFF DUP3 PUSH2 0x147 JUMP JUMPDEST PUSH2 0x18C DUP7 DUP4 PUSH2 0x147 JUMP JUMPDEST SWAP6 POP DUP1 NOT DUP5 AND SWAP4 POP DUP1 DUP7 AND DUP5 OR SWAP3 POP POP POP SWAP4 SWAP3 POP POP POP JUMP JUMPDEST PUSH0 DUP2 SWAP1 POP SWAP2 SWAP1 POP JUMP JUMPDEST PUSH0 DUP2 SWAP1 POP SWAP2 SWAP1 POP JUMP JUMPDEST PUSH0 PUSH2 0x1D0 PUSH2 0x1CB PUSH2 0x1C6 DUP5 PUSH2 0x1A4 JUMP JUMPDEST PUSH2 0x1AD JUMP JUMPDEST PUSH2 0x1A4 JUMP JUMPDEST SWAP1 POP SWAP2 SWAP1 POP JUMP JUMPDEST PUSH0 DUP2 SWAP1 POP SWAP2 SWAP1 POP JUMP JUMPDEST PUSH2 0x1E9 DUP4 PUSH2 0x1B6 JUMP JUMPDEST PUSH2 0x1FD PUSH2 0x1F5 DUP3 PUSH2 0x1D7 JUMP JUMPDEST DUP5 DUP5 SLOAD PUSH2 0x153 JUMP JUMPDEST DUP3 SSTORE POP POP POP POP JUMP JUMPDEST PUSH0 PUSH0 SWAP1 POP SWAP1 JUMP JUMPDEST PUSH2 0x214 PUSH2 0x205 JUMP JUMPDEST PUSH2 0x21F DUP2 DUP5 DUP5 PUSH2 0x1E0 JUMP JUMPDEST POP POP POP JUMP JUMPDEST JUMPDEST DUP2 DUP2 LT ISZERO PUSH2 0x242 JUMPI PUSH2 0x237 PUSH0 DUP3 PUSH2 0x20C JUMP JUMPDEST PUSH1 0x1 DUP2 ADD SWAP1 POP PUSH2 0x225 JUMP JUMPDEST POP POP JUMP JUMPDEST PUSH1 0x1F DUP3 GT ISZERO PUSH2 0x287 JUMPI PUSH2 0x258 DUP2 PUSH2 0x126 JUMP JUMPDEST PUSH2 0x261 DUP5 PUSH2 0x138 JUMP JUMPDEST DUP2 ADD PUSH1 0x20 DUP6 LT ISZERO PUSH2 0x270 JUMPI DUP2 SWAP1 POP JUMPDEST PUSH2 0x284 PUSH2 0x27C DUP6 PUSH2 0x138 JUMP JUMPDEST DUP4 ADD DUP3 PUSH2 0x224 JUMP JUMPDEST POP POP JUMPDEST POP POP POP JUMP JUMPDEST PUSH0 DUP3 DUP3 SHR SWAP1 POP SWAP3 SWAP2 POP POP JUMP JUMPDEST PUSH0 PUSH2 0x2A7 PUSH0 NOT DUP5 PUSH1 0x8 MUL PUSH2 0x28C JUMP JUMPDEST NOT DUP1 DUP4 AND SWAP2 POP POP SWAP3 SWAP2 POP POP JUMP JUMPDEST PUSH0 PUSH2 0x2BF DUP4 DUP4 PUSH2 0x298 JUMP JUMPDEST SWAP2 POP DUP3 PUSH1 0x2 MUL DUP3 OR SWAP1 POP SWAP3 SWAP2 POP POP JUMP JUMPDEST PUSH2 0x2D8 DUP3 PUSH2 0x92 JUMP JUMPDEST PUSH8 0xFFFFFFFFFFFFFFFF DUP2 GT ISZERO PUSH2 0x2F1 JUMPI PUSH2 0x2F0 PUSH2 0x9C JUMP JUMPDEST JUMPDEST PUSH2 0x2FB DUP3 SLOAD PUSH2 0xF6 JUMP JUMPDEST PUSH2 0x306 DUP3 DUP3 DUP6 PUSH2 0x246 JUMP JUMPDEST PUSH0 PUSH1 0x20 SWAP1 POP PUSH1 0x1F DUP4 GT PUSH1 0x1 DUP2 EQ PUSH2 0x337 JUMPI PUSH0 DUP5 ISZERO PUSH2 0x325 JUMPI DUP3 DUP8 ADD MLOAD SWAP1 POP JUMPDEST PUSH2 0x32F DUP6 DUP3 PUSH2 0x2B4 JUMP JUMPDEST DUP7 SSTORE POP PUSH2 0x396 JUMP JUMPDEST PUSH1 0x1F NOT DUP5 AND PUSH2 0x345 DUP7 PUSH2 0x126 JUMP JUMPDEST PUSH0 JUMPDEST DUP3 DUP2 LT ISZERO PUSH2 0x36C JUMPI DUP5 DUP10 ADD MLOAD DUP3 SSTORE PUSH1 0x1 DUP3 ADD SWAP2 POP PUSH1 0x20 DUP6 ADD SWAP5 POP PUSH1 0x20 DUP2 ADD SWAP1 POP PUSH2 0x347 JUMP JUMPDEST DUP7 DUP4 LT ISZERO PUSH2 0x389 JUMPI DUP5 DUP10 ADD MLOAD PUSH2 0x385 PUSH1 0x1F DUP10 AND DUP3 PUSH2 0x298 JUMP JUMPDEST DUP4 SSTORE POP JUMPDEST PUSH1 0x1 PUSH1 0x2 DUP9 MUL ADD DUP9 SSTORE POP POP POP JUMPDEST POP POP POP POP POP POP JUMP JUMPDEST PUSH2 0x6E4 DUP1 PUSH2 0x3AB PUSH0 CODECOPY PUSH0 RETURN INVALID PUSH1 0x80 PUSH1 0x40 MSTORE CALLVALUE DUP1 ISZERO PUSH2 0xF JUMPI PUSH0 PUSH0 REVERT JUMPDEST POP PUSH1 0x4 CALLDATASIZE LT PUSH2 0x4A JUMPI PUSH0 CALLDATALOAD PUSH1 0xE0 SHR DUP1 PUSH4 0x2BF0F81C EQ PUSH2 0x4E JUMPI DUP1 PUSH4 0x8EC4DC95 EQ PUSH2 0x58 JUMPI DUP1 PUSH4 0xC2A2747B EQ PUSH2 0x76 JUMPI DUP1 PUSH4 0xFBBF93A0 EQ PUSH2 0x96 JUMPI JUMPDEST PUSH0 PUSH0 REVERT JUMPDEST PUSH2 0x56 PUSH2 0xB6 JUMP JUMPDEST STOP JUMPDEST PUSH2 0x60 PUSH2 0xFE JUMP JUMPDEST PUSH1 0x40 MLOAD PUSH2 0x6D SWAP2 SWAP1 PUSH2 0x341 JUMP JUMPDEST PUSH1 0x40 MLOAD DUP1 SWAP2 SUB SWAP1 RETURN JUMPDEST PUSH2 0x7E PUSH2 0x18F JUMP JUMPDEST PUSH1 0x40 MLOAD PUSH2 0x8D SWAP4 SWAP3 SWAP2 SWAP1 PUSH2 0x379 JUMP JUMPDEST PUSH1 0x40 MLOAD DUP1 SWAP2 SUB SWAP1 RETURN JUMPDEST PUSH2 0x9E PUSH2 0x22B JUMP JUMPDEST PUSH1 0x40 MLOAD PUSH2 0xAD SWAP4 SWAP3 SWAP2 SWAP1 PUSH2 0x379 JUMP JUMPDEST PUSH1 0x40 MLOAD DUP1 SWAP2 SUB SWAP1 RETURN JUMPDEST PUSH1 0x40 MLOAD DUP1 PUSH1 0x40 ADD PUSH1 0x40 MSTORE DUP1 PUSH1 0x3 DUP2 MSTORE PUSH1 0x20 ADD PUSH32 0x536F6D0000000000000000000000000000000000000000000000000000000000 DUP2 MSTORE POP PUSH0 PUSH0 ADD SWAP1 DUP2 PUSH2 0xFB SWAP2 SWAP1 PUSH2 0x5DF JUMP JUMPDEST POP JUMP JUMPDEST PUSH1 0x60 PUSH0 PUSH0 ADD DUP1 SLOAD PUSH2 0x10E SWAP1 PUSH2 0x40F JUMP JUMPDEST DUP1 PUSH1 0x1F ADD PUSH1 0x20 DUP1 SWAP2 DIV MUL PUSH1 0x20 ADD PUSH1 0x40 MLOAD SWAP1 DUP2 ADD PUSH1 0x40 MSTORE DUP1 SWAP3 SWAP2 SWAP1 DUP2 DUP2 MSTORE PUSH1 0x20 ADD DUP3 DUP1 SLOAD PUSH2 0x13A SWAP1 PUSH2 0x40F JUMP JUMPDEST DUP1 ISZERO PUSH2 0x185 JUMPI DUP1 PUSH1 0x1F LT PUSH2 0x15C JUMPI PUSH2 0x100 DUP1 DUP4 SLOAD DIV MUL DUP4 MSTORE SWAP2 PUSH1 0x20 ADD SWAP2 PUSH2 0x185 JUMP JUMPDEST DUP3 ADD SWAP2 SWAP1 PUSH0 MSTORE PUSH1 0x20 PUSH0 KECCAK256 SWAP1 JUMPDEST DUP2 SLOAD DUP2 MSTORE SWAP1 PUSH1 0x1 ADD SWAP1 PUSH1 0x20 ADD DUP1 DUP4 GT PUSH2 0x168 JUMPI DUP3 SWAP1 SUB PUSH1 0x1F AND DUP3 ADD SWAP2 JUMPDEST POP POP POP POP POP SWAP1 POP SWAP1 JUMP JUMPDEST PUSH0 DUP1 PUSH0 ADD DUP1 SLOAD PUSH2 0x19E SWAP1 PUSH2 0x40F JUMP JUMPDEST DUP1 PUSH1 0x1F ADD PUSH1 0x20 DUP1 SWAP2 DIV MUL PUSH1 0x20 ADD PUSH1 0x40 MLOAD SWAP1 DUP2 ADD PUSH1 0x40 MSTORE DUP1 SWAP3 SWAP2 SWAP1 DUP2 DUP2 MSTORE PUSH1 0x20 ADD DUP3 DUP1 SLOAD PUSH2 0x1CA SWAP1 PUSH2 0x40F JUMP JUMPDEST DUP1 ISZERO PUSH2 0x215 JUMPI DUP1 PUSH1 0x1F LT PUSH2 0x1EC JUMPI PUSH2 0x100 DUP1 DUP4 SLOAD DIV MUL DUP4 MSTORE SWAP2 PUSH1 0x20 ADD SWAP2 PUSH2 0x215 JUMP JUMPDEST DUP3 ADD SWAP2 SWAP1 PUSH0 MSTORE PUSH1 0x20 PUSH0 KECCAK256 SWAP1 JUMPDEST DUP2 SLOAD DUP2 MSTORE SWAP1 PUSH1 0x1 ADD SWAP1 PUSH1 0x20 ADD DUP1 DUP4 GT PUSH2 0x1F8 JUMPI DUP3 SWAP1 SUB PUSH1 0x1F AND DUP3 ADD SWAP2 JUMPDEST POP POP POP POP POP SWAP1 DUP1 PUSH1 0x1 ADD SLOAD SWAP1 DUP1 PUSH1 0x2 ADD SLOAD SWAP1 POP DUP4 JUMP JUMPDEST PUSH1 0x60 PUSH0 PUSH0 PUSH0 PUSH0 ADD PUSH0 PUSH1 0x1 ADD SLOAD PUSH0 PUSH1 0x2 ADD SLOAD DUP3 DUP1 SLOAD PUSH2 0x248 SWAP1 PUSH2 0x40F JUMP JUMPDEST DUP1 PUSH1 0x1F ADD PUSH1 0x20 DUP1 SWAP2 DIV MUL PUSH1 0x20 ADD PUSH1 0x40 MLOAD SWAP1 DUP2 ADD PUSH1 0x40 MSTORE DUP1 SWAP3 SWAP2 SWAP1 DUP2 DUP2 MSTORE PUSH1 0x20 ADD DUP3 DUP1 SLOAD PUSH2 0x274 SWAP1 PUSH2 0x40F JUMP JUMPDEST DUP1 ISZERO PUSH2 0x2BF JUMPI DUP1 PUSH1 0x1F LT PUSH2 0x296 JUMPI PUSH2 0x100 DUP1 DUP4 SLOAD DIV MUL DUP4 MSTORE SWAP2 PUSH1 0x20 ADD SWAP2 PUSH2 0x2BF JUMP JUMPDEST DUP3 ADD SWAP2 SWAP1 PUSH0 MSTORE PUSH1 0x20 PUSH0 KECCAK256 SWAP1 JUMPDEST DUP2 SLOAD DUP2 MSTORE SWAP1 PUSH1 0x1 ADD SWAP1 PUSH1 0x20 ADD DUP1 DUP4 GT PUSH2 0x2A2 JUMPI DUP3 SWAP1 SUB PUSH1 0x1F AND DUP3 ADD SWAP2 JUMPDEST POP POP POP POP POP SWAP3 POP SWAP3 POP SWAP3 POP SWAP3 POP SWAP1 SWAP2 SWAP3 JUMP JUMPDEST PUSH0 DUP2 MLOAD SWAP1 POP SWAP2 SWAP1 POP JUMP JUMPDEST PUSH0 DUP3 DUP3 MSTORE PUSH1 0x20 DUP3 ADD SWAP1 POP SWAP3 SWAP2 POP POP JUMP JUMPDEST DUP3 DUP2 DUP4 MCOPY PUSH0 DUP4 DUP4 ADD MSTORE POP POP POP JUMP JUMPDEST PUSH0 PUSH1 0x1F NOT PUSH1 0x1F DUP4 ADD AND SWAP1 POP SWAP2 SWAP1 POP JUMP JUMPDEST PUSH0 PUSH2 0x313 DUP3 PUSH2 0x2D1 JUMP JUMPDEST PUSH2 0x31D DUP2 DUP6 PUSH2 0x2DB JUMP JUMPDEST SWAP4 POP PUSH2 0x32D DUP2 DUP6 PUSH1 0x20 DUP7 ADD PUSH2 0x2EB JUMP JUMPDEST PUSH2 0x336 DUP2 PUSH2 0x2F9 JUMP JUMPDEST DUP5 ADD SWAP2 POP POP SWAP3 SWAP2 POP POP JUMP JUMPDEST PUSH0 PUSH1 0x20 DUP3 ADD SWAP1 POP DUP2 DUP2 SUB PUSH0 DUP4 ADD MSTORE PUSH2 0x359 DUP2 DUP5 PUSH2 0x309 JUMP JUMPDEST SWAP1 POP SWAP3 SWAP2 POP POP JUMP JUMPDEST PUSH0 DUP2 SWAP1 POP SWAP2 SWAP1 POP JUMP JUMPDEST PUSH2 0x373 DUP2 PUSH2 0x361 JUMP JUMPDEST DUP3 MSTORE POP POP JUMP JUMPDEST PUSH0 PUSH1 0x60 DUP3 ADD SWAP1 POP DUP2 DUP2 SUB PUSH0 DUP4 ADD MSTORE PUSH2 0x391 DUP2 DUP7 PUSH2 0x309 JUMP JUMPDEST SWAP1 POP PUSH2 0x3A0 PUSH1 0x20 DUP4 ADD DUP6 PUSH2 0x36A JUMP JUMPDEST PUSH2 0x3AD PUSH1 0x40 DUP4 ADD DUP5 PUSH2 0x36A JUMP JUMPDEST SWAP5 SWAP4 POP POP POP POP JUMP JUMPDEST PUSH32 0x4E487B7100000000000000000000000000000000000000000000000000000000 PUSH0 MSTORE PUSH1 0x41 PUSH1 0x4 MSTORE PUSH1 0x24 PUSH0 REVERT JUMPDEST PUSH32 0x4E487B7100000000000000000000000000000000000000000000000000000000 PUSH0 MSTORE PUSH1 0x22 PUSH1 0x4 MSTORE PUSH1 0x24 PUSH0 REVERT JUMPDEST PUSH0 PUSH1 0x2 DUP3 DIV SWAP1 POP PUSH1 0x1 DUP3 AND DUP1 PUSH2 0x426 JUMPI PUSH1 0x7F DUP3 AND SWAP2 POP JUMPDEST PUSH1 0x20 DUP3 LT DUP2 SUB PUSH2 0x439 JUMPI PUSH2 0x438 PUSH2 0x3E2 JUMP JUMPDEST JUMPDEST POP SWAP2 SWAP1 POP JUMP JUMPDEST PUSH0 DUP2 SWAP1 POP DUP2 PUSH0 MSTORE PUSH1 0x20 PUSH0 KECCAK256 SWAP1 POP SWAP2 SWAP1 POP JUMP JUMPDEST PUSH0 PUSH1 0x20 PUSH1 0x1F DUP4 ADD DIV SWAP1 POP SWAP2 SWAP1 POP JUMP JUMPDEST PUSH0 DUP3 DUP3 SHL SWAP1 POP SWAP3 SWAP2 POP POP JUMP JUMPDEST PUSH0 PUSH1 0x8 DUP4 MUL PUSH2 0x49B PUSH32 0xFFFFFFFFFFFFFFFFFFFFFFFFFFFFFFFFFFFFFFFFFFFFFFFFFFFFFFFFFFFFFFFF DUP3 PUSH2 0x460 JUMP JUMPDEST PUSH2 0x4A5 DUP7 DUP4 PUSH2 0x460 JUMP JUMPDEST SWAP6 POP DUP1 NOT DUP5 AND SWAP4 POP DUP1 DUP7 AND DUP5 OR SWAP3 POP POP POP SWAP4 SWAP3 POP POP POP JUMP JUMPDEST PUSH0 DUP2 SWAP1 POP SWAP2 SWAP1 POP JUMP JUMPDEST PUSH0 PUSH2 0x4E0 PUSH2 0x4DB PUSH2 0x4D6 DUP5 PUSH2 0x361 JUMP JUMPDEST PUSH2 0x4BD JUMP JUMPDEST PUSH2 0x361 JUMP JUMPDEST SWAP1 POP SWAP2 SWAP1 POP JUMP JUMPDEST PUSH0 DUP2 SWAP1 POP SWAP2 SWAP1 POP JUMP JUMPDEST PUSH2 0x4F9 DUP4 PUSH2 0x4C6 JUMP JUMPDEST PUSH2 0x50D PUSH2 0x505 DUP3 PUSH2 0x4E7 JUMP JUMPDEST DUP5 DUP5 SLOAD PUSH2 0x46C JUMP JUMPDEST DUP3 SSTORE POP POP POP POP JUMP JUMPDEST PUSH0 PUSH0 SWAP1 POP SWAP1 JUMP JUMPDEST PUSH2 0x524 PUSH2 0x515 JUMP JUMPDEST PUSH2 0x52F DUP2 DUP5 DUP5 PUSH2 0x4F0 JUMP JUMPDEST POP POP POP JUMP JUMPDEST JUMPDEST DUP2 DUP2 LT ISZERO PUSH2 0x552 JUMPI PUSH2 0x547 PUSH0 DUP3 PUSH2 0x51C JUMP JUMPDEST PUSH1 0x1 DUP2 ADD SWAP1 POP PUSH2 0x535 JUMP JUMPDEST POP POP JUMP JUMPDEST PUSH1 0x1F DUP3 GT ISZERO PUSH2 0x597 JUMPI PUSH2 0x568 DUP2 PUSH2 0x43F JUMP JUMPDEST PUSH2 0x571 DUP5 PUSH2 0x451 JUMP JUMPDEST DUP2 ADD PUSH1 0x20 DUP6 LT ISZERO PUSH2 0x580 JUMPI DUP2 SWAP1 POP JUMPDEST PUSH2 0x594 PUSH2 0x58C DUP6 PUSH2 0x451 JUMP JUMPDEST DUP4 ADD DUP3 PUSH2 0x534 JUMP JUMPDEST POP POP JUMPDEST POP POP POP JUMP JUMPDEST PUSH0 DUP3 DUP3 SHR SWAP1 POP SWAP3 SWAP2 POP POP JUMP JUMPDEST PUSH0 PUSH2 0x5B7 PUSH0 NOT DUP5 PUSH1 0x8 MUL PUSH2 0x59C JUMP JUMPDEST NOT DUP1 DUP4 AND SWAP2 POP POP SWAP3 SWAP2 POP POP JUMP JUMPDEST PUSH0 PUSH2 0x5CF DUP4 DUP4 PUSH2 0x5A8 JUMP JUMPDEST SWAP2 POP DUP3 PUSH1 0x2 MUL DUP3 OR SWAP1 POP SWAP3 SWAP2 POP POP JUMP JUMPDEST PUSH2 0x5E8 DUP3 PUSH2 0x2D1 JUMP JUMPDEST PUSH8 0xFFFFFFFFFFFFFFFF DUP2 GT ISZERO PUSH2 0x601 JUMPI PUSH2 0x600 PUSH2 0x3B5 JUMP JUMPDEST JUMPDEST PUSH2 0x60B DUP3 SLOAD PUSH2 0x40F JUMP JUMPDEST PUSH2 0x616 DUP3 DUP3 DUP6 PUSH2 0x556 JUMP JUMPDEST PUSH0 PUSH1 0x20 SWAP1 POP PUSH1 0x1F DUP4 GT PUSH1 0x1 DUP2 EQ PUSH2 0x647 JUMPI PUSH0 DUP5 ISZERO PUSH2 0x635 JUMPI DUP3 DUP8 ADD MLOAD SWAP1 POP JUMPDEST PUSH2 0x63F DUP6 DUP3 PUSH2 0x5C4 JUMP JUMPDEST DUP7 SSTORE POP PUSH2 0x6A6 JUMP JUMPDEST PUSH1 0x1F NOT DUP5 AND PUSH2 0x655 DUP7 PUSH2 0x43F JUMP JUMPDEST PUSH0 JUMPDEST DUP3 DUP2 LT ISZERO PUSH2 0x67C JUMPI DUP5 DUP10 ADD MLOAD DUP3 SSTORE PUSH1 0x1 DUP3 ADD SWAP2 POP PUSH1 0x20 DUP6 ADD SWAP5 POP PUSH1 0x20 DUP2 ADD SWAP1 POP PUSH2 0x657 JUMP JUMPDEST DUP7 DUP4 LT ISZERO PUSH2 0x699 JUMPI DUP5 DUP10 ADD MLOAD PUSH2 0x695 PUSH1 0x1F DUP10 AND DUP3 PUSH2 0x5A8 JUMP JUMPDEST DUP4 SSTORE POP JUMPDEST PUSH1 0x1 PUSH1 0x2 DUP9 MUL ADD DUP9 SSTORE POP POP POP JUMPDEST POP POP POP POP POP POP JUMP INVALID LOG2 PUSH5 0x6970667358 0x22 SLT KECCAK256 EXP EXTCODEHASH SLOAD PUSH26 0x8489C5A2ED96DCEFCC2E830848D511783BA421927FFD6B665CDA DUP5 PUSH14 0x64736F6C634300081F0033000000 "
				},
				"gasEstimates": {
					"creation": {
						"codeDepositCost": "352800",
						"executionCost": "infinite",
						"totalCost": "infinite"
					},
					"external": {
						"getDetails()": "infinite",
						"getPerson()": "infinite",
						"p1()": "infinite",
						"setName()": "infinite"
					}
				},
				"methodIdentifiers": {
					"getDetails()": "fbbf93a0",
					"getPerson()": "8ec4dc95",
					"p1()": "c2a2747b",
					"setName()": "2bf0f81c"
				}
			},
			"storageLayout": {
				"storage": [
					{
						"astId": 16,
						"contract": "contracts/structure.sol:structure",
						"label": "p1",
						"offset": 0,
						"slot": "0",
						"type": "t_struct(Person)8_storage"
					}
				],
				"types": {
					"t_string_storage": {
						"encoding": "bytes",
						"label": "string",
						"numberOfBytes": "32"
					},
					"t_struct(Person)8_storage": {
						"encoding": "inplace",
						"label": "struct structure.Person",
						"members": [
							{
								"astId": 3,
								"contract": "contracts/structure.sol:structure",
								"label": "name",
								"offset": 0,
								"slot": "0",
								"type": "t_string_storage"
							},
							{
								"astId": 5,
								"contract": "contracts/structure.sol:structure",
								"label": "pincode",
								"offset": 0,
								"slot": "1",
								"type": "t_uint256"
							},
							{
								"astId": 7,
								"contract": "contracts/structure.sol:structure",
								"label": "age",
								"offset": 0,
								"slot": "2",
								"type": "t_uint256"
							}
						],
						"numberOfBytes": "96"
					},
					"t_uint256": {
						"encoding": "inplace",
						"label": "uint256",
						"numberOfBytes": "32"
					}
				}
			},
			"userdoc": {
				"kind": "user",
				"methods": {},
				"version": 1
			}
		}
	}
}