{
	"contracts/Proxy.sol": {
		"Proxy": {
			"abi": [
				{
					"inputs": [
						{
							"internalType": "address",
							"name": "logger",
							"type": "address"
						}
					],
					"name": "forward",
					"outputs": [],
					"stateMutability": "nonpayable",
					"type": "function"
				},
				{
					"inputs": [],
					"name": "lastCaller",
					"outputs": [
						{
							"internalType": "address",
							"name": "",
							"type": "address"
						}
					],
					"stateMutability": "view",
					"type": "function"
				}
			],
			"devdoc": {
				"kind": "dev",
				"methods": {},
				"version": 1
			},
			"evm": {
				"assembly": "    /* \"contracts/Proxy.sol\":86:436  contract Proxy {... */\n  mstore(0x40, 0x80)\n  callvalue\n  dup1\n  iszero\n  tag_1\n  jumpi\n  revert(0x00, 0x00)\ntag_1:\n  pop\n  dataSize(sub_0)\n  dup1\n  dataOffset(sub_0)\n  0x00\n  codecopy\n  0x00\n  return\nstop\n\nsub_0: assembly {\n        /* \"contracts/Proxy.sol\":86:436  contract Proxy {... */\n      mstore(0x40, 0x80)\n      callvalue\n      dup1\n      iszero\n      tag_1\n      jumpi\n      revert(0x00, 0x00)\n    tag_1:\n      pop\n      jumpi(tag_2, lt(calldatasize, 0x04))\n      shr(0xe0, calldataload(0x00))\n      dup1\n      0x101e8952\n      eq\n      tag_3\n      jumpi\n      dup1\n      0x2113522a\n      eq\n      tag_4\n      jumpi\n    tag_2:\n      revert(0x00, 0x00)\n        /* \"contracts/Proxy.sol\":153:433  function forward(address logger) external {... */\n    tag_3:\n      tag_5\n      0x04\n      dup1\n      calldatasize\n      sub\n      dup2\n      add\n      swap1\n      tag_6\n      swap2\n      swap1\n      tag_7\n      jump\t// in\n    tag_6:\n      tag_8\n      jump\t// in\n    tag_5:\n      stop\n        /* \"contracts/Proxy.sol\":108:133  address public lastCaller */\n    tag_4:\n      tag_9\n      tag_10\n      jump\t// in\n    tag_9:\n      mload(0x40)\n      tag_11\n      swap2\n      swap1\n      tag_12\n      jump\t// in\n    tag_11:\n      mload(0x40)\n      dup1\n      swap2\n      sub\n      swap1\n      return\n        /* \"contracts/Proxy.sol\":153:433  function forward(address logger) external {... */\n    tag_8:\n        /* \"contracts/Proxy.sol\":331:337  logger */\n      dup1\n        /* \"contracts/Proxy.sol\":331:350  logger.delegatecall */\n      0xffffffffffffffffffffffffffffffffffffffff\n      and\n        /* \"contracts/Proxy.sol\":388:413  Logger.logCaller.selector */\n      shl(0xe0, 0x73cd4836)\n        /* \"contracts/Proxy.sol\":365:414  abi.encodeWithSelector(Logger.logCaller.selector) */\n      add(0x24, mload(0x40))\n      mload(0x40)\n      0x20\n      dup2\n      dup4\n      sub\n      sub\n      dup2\n      mstore\n      swap1\n      0x40\n      mstore\n      swap1\n      not(0xffffffffffffffffffffffffffffffffffffffffffffffffffffffff)\n      and\n      0x20\n      dup3\n      add\n      dup1\n      mload\n      0xffffffffffffffffffffffffffffffffffffffffffffffffffffffff\n      dup4\n      dup2\n      dup4\n      and\n      or\n      dup4\n      mstore\n      pop\n      pop\n      pop\n      pop\n        /* \"contracts/Proxy.sol\":331:425  logger.delegatecall(... */\n      mload(0x40)\n      tag_14\n      swap2\n      swap1\n      tag_15\n      jump\t// in\n    tag_14:\n      0x00\n      mload(0x40)\n      dup1\n      dup4\n      sub\n      dup2\n      dup6\n      gas\n      delegatecall\n      swap2\n      pop\n      pop\n      returndatasize\n      dup1\n      0x00\n      dup2\n      eq\n      tag_18\n      jumpi\n      mload(0x40)\n      swap2\n      pop\n      and(add(returndatasize, 0x3f), not(0x1f))\n      dup3\n      add\n      0x40\n      mstore\n      returndatasize\n      dup3\n      mstore\n      returndatasize\n      0x00\n      0x20\n      dup5\n      add\n      returndatacopy\n      jump(tag_17)\n    tag_18:\n      0x60\n      swap2\n      pop\n    tag_17:\n      pop\n      pop\n      pop\n        /* \"contracts/Proxy.sol\":153:433  function forward(address logger) external {... */\n      pop\n      jump\t// out\n        /* \"contracts/Proxy.sol\":108:133  address public lastCaller */\n    tag_10:\n      0x00\n      0x00\n      swap1\n      sload\n      swap1\n      0x0100\n      exp\n      swap1\n      div\n      0xffffffffffffffffffffffffffffffffffffffff\n      and\n      dup2\n      jump\t// out\n        /* \"#utility.yul\":88:205   */\n    tag_20:\n        /* \"#utility.yul\":197:198   */\n      0x00\n        /* \"#utility.yul\":194:195   */\n      0x00\n        /* \"#utility.yul\":187:199   */\n      revert\n        /* \"#utility.yul\":334:460   */\n    tag_22:\n        /* \"#utility.yul\":371:378   */\n      0x00\n        /* \"#utility.yul\":411:453   */\n      0xffffffffffffffffffffffffffffffffffffffff\n        /* \"#utility.yul\":404:409   */\n      dup3\n        /* \"#utility.yul\":400:454   */\n      and\n        /* \"#utility.yul\":389:454   */\n      swap1\n      pop\n        /* \"#utility.yul\":334:460   */\n      swap2\n      swap1\n      pop\n      jump\t// out\n        /* \"#utility.yul\":466:562   */\n    tag_23:\n        /* \"#utility.yul\":503:510   */\n      0x00\n        /* \"#utility.yul\":532:556   */\n      tag_37\n        /* \"#utility.yul\":550:555   */\n      dup3\n        /* \"#utility.yul\":532:556   */\n      tag_22\n      jump\t// in\n    tag_37:\n        /* \"#utility.yul\":521:556   */\n      swap1\n      pop\n        /* \"#utility.yul\":466:562   */\n      swap2\n      swap1\n      pop\n      jump\t// out\n        /* \"#utility.yul\":568:690   */\n    tag_24:\n        /* \"#utility.yul\":641:665   */\n      tag_39\n        /* \"#utility.yul\":659:664   */\n      dup2\n        /* \"#utility.yul\":641:665   */\n      tag_23\n      jump\t// in\n    tag_39:\n        /* \"#utility.yul\":634:639   */\n      dup2\n        /* \"#utility.yul\":631:666   */\n      eq\n        /* \"#utility.yul\":621:684   */\n      tag_40\n      jumpi\n        /* \"#utility.yul\":680:681   */\n      0x00\n        /* \"#utility.yul\":677:678   */\n      0x00\n        /* \"#utility.yul\":670:682   */\n      revert\n        /* \"#utility.yul\":621:684   */\n    tag_40:\n        /* \"#utility.yul\":568:690   */\n      pop\n      jump\t// out\n        /* \"#utility.yul\":696:835   */\n    tag_25:\n        /* \"#utility.yul\":742:747   */\n      0x00\n        /* \"#utility.yul\":780:786   */\n      dup2\n        /* \"#utility.yul\":767:787   */\n      calldataload\n        /* \"#utility.yul\":758:787   */\n      swap1\n      pop\n        /* \"#utility.yul\":796:829   */\n      tag_42\n        /* \"#utility.yul\":823:828   */\n      dup2\n        /* \"#utility.yul\":796:829   */\n      tag_24\n      jump\t// in\n    tag_42:\n        /* \"#utility.yul\":696:835   */\n      swap3\n      swap2\n      pop\n      pop\n      jump\t// out\n        /* \"#utility.yul\":841:1170   */\n    tag_7:\n        /* \"#utility.yul\":900:906   */\n      0x00\n        /* \"#utility.yul\":949:951   */\n      0x20\n        /* \"#utility.yul\":937:946   */\n      dup3\n        /* \"#utility.yul\":928:935   */\n      dup5\n        /* \"#utility.yul\":924:947   */\n      sub\n        /* \"#utility.yul\":920:952   */\n      slt\n        /* \"#utility.yul\":917:1036   */\n      iszero\n      tag_44\n      jumpi\n        /* \"#utility.yul\":955:1034   */\n      tag_45\n      tag_20\n      jump\t// in\n    tag_45:\n        /* \"#utility.yul\":917:1036   */\n    tag_44:\n        /* \"#utility.yul\":1075:1076   */\n      0x00\n        /* \"#utility.yul\":1100:1153   */\n      tag_46\n        /* \"#utility.yul\":1145:1152   */\n      dup5\n        /* \"#utility.yul\":1136:1142   */\n      dup3\n        /* \"#utility.yul\":1125:1134   */\n      dup6\n        /* \"#utility.yul\":1121:1143   */\n      add\n        /* \"#utility.yul\":1100:1153   */\n      tag_25\n      jump\t// in\n    tag_46:\n        /* \"#utility.yul\":1090:1153   */\n      swap2\n      pop\n        /* \"#utility.yul\":1046:1163   */\n      pop\n        /* \"#utility.yul\":841:1170   */\n      swap3\n      swap2\n      pop\n      pop\n      jump\t// out\n        /* \"#utility.yul\":1176:1294   */\n    tag_26:\n        /* \"#utility.yul\":1263:1287   */\n      tag_48\n        /* \"#utility.yul\":1281:1286   */\n      dup2\n        /* \"#utility.yul\":1263:1287   */\n      tag_23\n      jump\t// in\n    tag_48:\n        /* \"#utility.yul\":1258:1261   */\n      dup3\n        /* \"#utility.yul\":1251:1288   */\n      mstore\n        /* \"#utility.yul\":1176:1294   */\n      pop\n      pop\n      jump\t// out\n        /* \"#utility.yul\":1300:1522   */\n    tag_12:\n        /* \"#utility.yul\":1393:1397   */\n      0x00\n        /* \"#utility.yul\":1431:1433   */\n      0x20\n        /* \"#utility.yul\":1420:1429   */\n      dup3\n        /* \"#utility.yul\":1416:1434   */\n      add\n        /* \"#utility.yul\":1408:1434   */\n      swap1\n      pop\n        /* \"#utility.yul\":1444:1515   */\n      tag_50\n        /* \"#utility.yul\":1512:1513   */\n      0x00\n        /* \"#utility.yul\":1501:1510   */\n      dup4\n        /* \"#utility.yul\":1497:1514   */\n      add\n        /* \"#utility.yul\":1488:1494   */\n      dup5\n        /* \"#utility.yul\":1444:1515   */\n      tag_26\n      jump\t// in\n    tag_50:\n        /* \"#utility.yul\":1300:1522   */\n      swap3\n      swap2\n      pop\n      pop\n      jump\t// out\n        /* \"#utility.yul\":1528:1626   */\n    tag_27:\n        /* \"#utility.yul\":1579:1585   */\n      0x00\n        /* \"#utility.yul\":1613:1618   */\n      dup2\n        /* \"#utility.yul\":1607:1619   */\n      mload\n        /* \"#utility.yul\":1597:1619   */\n      swap1\n      pop\n        /* \"#utility.yul\":1528:1626   */\n      swap2\n      swap1\n      pop\n      jump\t// out\n        /* \"#utility.yul\":1632:1779   */\n    tag_28:\n        /* \"#utility.yul\":1733:1744   */\n      0x00\n        /* \"#utility.yul\":1770:1773   */\n      dup2\n        /* \"#utility.yul\":1755:1773   */\n      swap1\n      pop\n        /* \"#utility.yul\":1632:1779   */\n      swap3\n      swap2\n      pop\n      pop\n      jump\t// out\n        /* \"#utility.yul\":1785:1924   */\n    tag_29:\n        /* \"#utility.yul\":1874:1880   */\n      dup3\n        /* \"#utility.yul\":1869:1872   */\n      dup2\n        /* \"#utility.yul\":1864:1867   */\n      dup4\n        /* \"#utility.yul\":1858:1881   */\n      mcopy\n        /* \"#utility.yul\":1915:1916   */\n      0x00\n        /* \"#utility.yul\":1906:1912   */\n      dup4\n        /* \"#utility.yul\":1901:1904   */\n      dup4\n        /* \"#utility.yul\":1897:1913   */\n      add\n        /* \"#utility.yul\":1890:1917   */\n      mstore\n        /* \"#utility.yul\":1785:1924   */\n      pop\n      pop\n      pop\n      jump\t// out\n        /* \"#utility.yul\":1930:2316   */\n    tag_30:\n        /* \"#utility.yul\":2034:2037   */\n      0x00\n        /* \"#utility.yul\":2062:2100   */\n      tag_55\n        /* \"#utility.yul\":2094:2099   */\n      dup3\n        /* \"#utility.yul\":2062:2100   */\n      tag_27\n      jump\t// in\n    tag_55:\n        /* \"#utility.yul\":2116:2204   */\n      tag_56\n        /* \"#utility.yul\":2197:2203   */\n      dup2\n        /* \"#utility.yul\":2192:2195   */\n      dup6\n        /* \"#utility.yul\":2116:2204   */\n      tag_28\n      jump\t// in\n    tag_56:\n        /* \"#utility.yul\":2109:2204   */\n      swap4\n      pop\n        /* \"#utility.yul\":2213:2278   */\n      tag_57\n        /* \"#utility.yul\":2271:2277   */\n      dup2\n        /* \"#utility.yul\":2266:2269   */\n      dup6\n        /* \"#utility.yul\":2259:2263   */\n      0x20\n        /* \"#utility.yul\":2252:2257   */\n      dup7\n        /* \"#utility.yul\":2248:2264   */\n      add\n        /* \"#utility.yul\":2213:2278   */\n      tag_29\n      jump\t// in\n    tag_57:\n        /* \"#utility.yul\":2303:2309   */\n      dup1\n        /* \"#utility.yul\":2298:2301   */\n      dup5\n        /* \"#utility.yul\":2294:2310   */\n      add\n        /* \"#utility.yul\":2287:2310   */\n      swap2\n      pop\n        /* \"#utility.yul\":2038:2316   */\n      pop\n        /* \"#utility.yul\":1930:2316   */\n      swap3\n      swap2\n      pop\n      pop\n      jump\t// out\n        /* \"#utility.yul\":2322:2593   */\n    tag_15:\n        /* \"#utility.yul\":2452:2455   */\n      0x00\n        /* \"#utility.yul\":2474:2567   */\n      tag_59\n        /* \"#utility.yul\":2563:2566   */\n      dup3\n        /* \"#utility.yul\":2554:2560   */\n      dup5\n        /* \"#utility.yul\":2474:2567   */\n      tag_30\n      jump\t// in\n    tag_59:\n        /* \"#utility.yul\":2467:2567   */\n      swap2\n      pop\n        /* \"#utility.yul\":2584:2587   */\n      dup2\n        /* \"#utility.yul\":2577:2587   */\n      swap1\n      pop\n        /* \"#utility.yul\":2322:2593   */\n      swap3\n      swap2\n      pop\n      pop\n      jump\t// out\n\n    auxdata: 0xa264697066735822122005d5c30214b452ec902aca98b20a5ea6dd98ccf5ea40c6771ba86bb31601655e64736f6c634300081f0033\n}\n",
				"bytecode": {
					"linkReferences": {},
					"object": "6080604052348015600e575f5ffd5b506102b78061001c5f395ff3fe608060405234801561000f575f5ffd5b5060043610610034575f3560e01c8063101e8952146100385780632113522a14610054575b5f5ffd5b610052600480360381019061004d91906101c6565b610072565b005b61005c610144565b6040516100699190610200565b60405180910390f35b8073ffffffffffffffffffffffffffffffffffffffff166373cd483660e01b604051602401604051602081830303815290604052907bffffffffffffffffffffffffffffffffffffffffffffffffffffffff19166020820180517bffffffffffffffffffffffffffffffffffffffffffffffffffffffff8381831617835250505050604051610101919061026b565b5f60405180830381855af49150503d805f8114610139576040519150601f19603f3d011682016040523d82523d5f602084013e61013e565b606091505b50505050565b5f5f9054906101000a900473ffffffffffffffffffffffffffffffffffffffff1681565b5f5ffd5b5f73ffffffffffffffffffffffffffffffffffffffff82169050919050565b5f6101958261016c565b9050919050565b6101a58161018b565b81146101af575f5ffd5b50565b5f813590506101c08161019c565b92915050565b5f602082840312156101db576101da610168565b5b5f6101e8848285016101b2565b91505092915050565b6101fa8161018b565b82525050565b5f6020820190506102135f8301846101f1565b92915050565b5f81519050919050565b5f81905092915050565b8281835e5f83830152505050565b5f61024582610219565b61024f8185610223565b935061025f81856020860161022d565b80840191505092915050565b5f610276828461023b565b91508190509291505056fea264697066735822122005d5c30214b452ec902aca98b20a5ea6dd98ccf5ea40c6771ba86bb31601655e64736f6c634300081f0033",
					"opcodes": "PUSH1 0x80 PUSH1 0x40 MSTORE CALLVALUE DUP1 ISZERO PUSH1 0xE JUMPI PUSH0 PUSH0 REVERT JUMPDEST POP PUSH2 0x2B7 DUP1 PUSH2 0x1C PUSH0 CODECOPY PUSH0 RETURN INVALID PUSH1 0x80 PUSH1 0x40 MSTORE CALLVALUE DUP1 ISZERO PUSH2 0xF JUMPI PUSH0 PUSH0 REVERT JUMPDEST POP PUSH1 0x4 CALLDATASIZE LT PUSH2 0x34 JUMPI PUSH0 CALLDATALOAD PUSH1 0xE0 SHR DUP1 PUSH4 0x101E8952 EQ PUSH2 0x38 JUMPI DUP1 PUSH4 0x2113522A EQ PUSH2 0x54 JUMPI JUMPDEST PUSH0 PUSH0 REVERT JUMPDEST PUSH2 0x52 PUSH1 0x4 DUP1 CALLDATASIZE SUB DUP2 ADD SWAP1 PUSH2 0x4D SWAP2 SWAP1 PUSH2 0x1C6 JUMP JUMPDEST PUSH2 0x72 JUMP JUMPDEST STOP JUMPDEST PUSH2 0x5C PUSH2 0x144 JUMP JUMPDEST PUSH1 0x40 MLOAD PUSH2 0x69 SWAP2 SWAP1 PUSH2 0x200 JUMP JUMPDEST PUSH1 0x40 MLOAD DUP1 SWAP2 SUB SWAP1 RETURN JUMPDEST DUP1 PUSH20 0xFFFFFFFFFFFFFFFFFFFFFFFFFFFFFFFFFFFFFFFF AND PUSH4 0x73CD4836 PUSH1 0xE0 SHL PUSH1 0x40 MLOAD PUSH1 0x24 ADD PUSH1 0x40 MLOAD PUSH1 0x20 DUP2 DUP4 SUB SUB DUP2 MSTORE SWAP1 PUSH1 0x40 MSTORE SWAP1 PUSH28 0xFFFFFFFFFFFFFFFFFFFFFFFFFFFFFFFFFFFFFFFFFFFFFFFFFFFFFFFF NOT AND PUSH1 0x20 DUP3 ADD DUP1 MLOAD PUSH28 0xFFFFFFFFFFFFFFFFFFFFFFFFFFFFFFFFFFFFFFFFFFFFFFFFFFFFFFFF DUP4 DUP2 DUP4 AND OR DUP4 MSTORE POP POP POP POP PUSH1 0x40 MLOAD PUSH2 0x101 SWAP2 SWAP1 PUSH2 0x26B JUMP JUMPDEST PUSH0 PUSH1 0x40 MLOAD DUP1 DUP4 SUB DUP2 DUP6 GAS DELEGATECALL SWAP2 POP POP RETURNDATASIZE DUP1 PUSH0 DUP2 EQ PUSH2 0x139 JUMPI PUSH1 0x40 MLOAD SWAP2 POP PUSH1 0x1F NOT PUSH1 0x3F RETURNDATASIZE ADD AND DUP3 ADD PUSH1 0x40 MSTORE RETURNDATASIZE DUP3 MSTORE RETURNDATASIZE PUSH0 PUSH1 0x20 DUP5 ADD RETURNDATACOPY PUSH2 0x13E JUMP JUMPDEST PUSH1 0x60 SWAP2 POP JUMPDEST POP POP POP POP JUMP JUMPDEST PUSH0 PUSH0 SWAP1 SLOAD SWAP1 PUSH2 0x100 EXP SWAP1 DIV PUSH20 0xFFFFFFFFFFFFFFFFFFFFFFFFFFFFFFFFFFFFFFFF AND DUP2 JUMP JUMPDEST PUSH0 PUSH0 REVERT JUMPDEST PUSH0 PUSH20 0xFFFFFFFFFFFFFFFFFFFFFFFFFFFFFFFFFFFFFFFF DUP3 AND SWAP1 POP SWAP2 SWAP1 POP JUMP JUMPDEST PUSH0 PUSH2 0x195 DUP3 PUSH2 0x16C JUMP JUMPDEST SWAP1 POP SWAP2 SWAP1 POP JUMP JUMPDEST PUSH2 0x1A5 DUP2 PUSH2 0x18B JUMP JUMPDEST DUP2 EQ PUSH2 0x1AF JUMPI PUSH0 PUSH0 REVERT JUMPDEST POP JUMP JUMPDEST PUSH0 DUP2 CALLDATALOAD SWAP1 POP PUSH2 0x1C0 DUP2 PUSH2 0x19C JUMP JUMPDEST SWAP3 SWAP2 POP POP JUMP JUMPDEST PUSH0 PUSH1 0x20 DUP3 DUP5 SUB SLT ISZERO PUSH2 0x1DB JUMPI PUSH2 0x1DA PUSH2 0x168 JUMP JUMPDEST JUMPDEST PUSH0 PUSH2 0x1E8 DUP5 DUP3 DUP6 ADD PUSH2 0x1B2 JUMP JUMPDEST SWAP2 POP POP SWAP3 SWAP2 POP POP JUMP JUMPDEST PUSH2 0x1FA DUP2 PUSH2 0x18B JUMP JUMPDEST DUP3 MSTORE POP POP JUMP JUMPDEST PUSH0 PUSH1 0x20 DUP3 ADD SWAP1 POP PUSH2 0x213 PUSH0 DUP4 ADD DUP5 PUSH2 0x1F1 JUMP JUMPDEST SWAP3 SWAP2 POP POP JUMP JUMPDEST PUSH0 DUP2 MLOAD SWAP1 POP SWAP2 SWAP1 POP JUMP JUMPDEST PUSH0 DUP2 SWAP1 POP SWAP3 SWAP2 POP POP JUMP JUMPDEST DUP3 DUP2 DUP4 MCOPY PUSH0 DUP4 DUP4 ADD MSTORE POP POP POP JUMP JUMPDEST PUSH0 PUSH2 0x245 DUP3 PUSH2 0x219 JUMP JUMPDEST PUSH2 0x24F DUP2 DUP6 PUSH2 0x223 JUMP JUMPDEST SWAP4 POP PUSH2 0x25F DUP2 DUP6 PUSH1 0x20 DUP7 ADD PUSH2 0x22D JUMP JUMPDEST DUP1 DUP5 ADD SWAP2 POP POP SWAP3 SWAP2 POP POP JUMP JUMPDEST PUSH0 PUSH2 0x276 DUP3 DUP5 PUSH2 0x23B JUMP JUMPDEST SWAP2 POP DUP2 SWAP1 POP SWAP3 SWAP2 POP POP JUMP INVALID LOG2 PUSH5 0x6970667358 0x22 SLT KECCAK256 SDIV 0xD5 0xC3 MUL EQ 0xB4 MSTORE EOFCREATE 0x90 0x2A 0xCA SWAP9 0xB2 EXP MCOPY 0xA6 0xDD SWAP9 0xCC CREATE2 0xEA BLOCKHASH 0xC6 PUSH24 0x1BA86BB31601655E64736F6C634300081F00330000000000 "
				},
				"gasEstimates": {
					"creation": {
						"codeDepositCost": "139000",
						"executionCost": "181",
						"totalCost": "139181"
					},
					"external": {
						"forward(address)": "infinite",
						"lastCaller()": "2507"
					}
				},
				"methodIdentifiers": {
					"forward(address)": "101e8952",
					"lastCaller()": "2113522a"
				}
			},
			"storageLayout": {
				"storage": [
					{
						"astId": 18,
						"contract": "contracts/Proxy.sol:Proxy",
						"label": "lastCaller",
						"offset": 0,
						"slot": "0",
						"type": "t_address"
					}
				],
				"types": {
					"t_address": {
						"encoding": "inplace",
						"label": "address",
						"numberOfBytes": "20"
					}
				}
			},
			"userdoc": {
				"kind": "user",
				"methods": {},
				"version": 1
			}
		}
	}
}