{
	"contracts/GoodLottery.sol": {
		"GoodLottery": {
			"abi": [
				{
					"inputs": [
						{
							"internalType": "address",
							"name": "winner",
							"type": "address"
						},
						{
							"internalType": "uint256",
							"name": "amount",
							"type": "uint256"
						}
					],
					"name": "assignPrize",
					"outputs": [],
					"stateMutability": "nonpayable",
					"type": "function"
				},
				{
					"inputs": [
						{
							"internalType": "address",
							"name": "",
							"type": "address"
						}
					],
					"name": "pendingWithdrawals",
					"outputs": [
						{
							"internalType": "uint256",
							"name": "",
							"type": "uint256"
						}
					],
					"stateMutability": "view",
					"type": "function"
				},
				{
					"inputs": [],
					"name": "withdraw",
					"outputs": [],
					"stateMutability": "nonpayable",
					"type": "function"
				}
			],
			"devdoc": {
				"kind": "dev",
				"methods": {},
				"version": 1
			},
			"evm": {
				"assembly": "    /* \"contracts/GoodLottery.sol\":99:798  contract GoodLottery {... */\n  mstore(0x40, 0x80)\n  callvalue\n  dup1\n  iszero\n  tag_1\n  jumpi\n  revert(0x00, 0x00)\ntag_1:\n  pop\n  dataSize(sub_0)\n  dup1\n  dataOffset(sub_0)\n  0x00\n  codecopy\n  0x00\n  return\nstop\n\nsub_0: assembly {\n        /* \"contracts/GoodLottery.sol\":99:798  contract GoodLottery {... */\n      mstore(0x40, 0x80)\n      callvalue\n      dup1\n      iszero\n      tag_1\n      jumpi\n      revert(0x00, 0x00)\n    tag_1:\n      pop\n      jumpi(tag_2, lt(calldatasize, 0x04))\n      shr(0xe0, calldataload(0x00))\n      dup1\n      0x3ccfd60b\n      eq\n      tag_3\n      jumpi\n      dup1\n      0x3dc61e7f\n      eq\n      tag_4\n      jumpi\n      dup1\n      0xf3f43703\n      eq\n      tag_5\n      jumpi\n    tag_2:\n      revert(0x00, 0x00)\n        /* \"contracts/GoodLottery.sol\":427:795  function withdraw() public {... */\n    tag_3:\n      tag_6\n      tag_7\n      jump\t// in\n    tag_6:\n      stop\n        /* \"contracts/GoodLottery.sol\":243:358  function assignPrize(address winner, uint256 amount) public {... */\n    tag_4:\n      tag_8\n      0x04\n      dup1\n      calldatasize\n      sub\n      dup2\n      add\n      swap1\n      tag_9\n      swap2\n      swap1\n      tag_10\n      jump\t// in\n    tag_9:\n      tag_11\n      jump\t// in\n    tag_8:\n      stop\n        /* \"contracts/GoodLottery.sol\":127:180  mapping(address => uint256) public pendingWithdrawals */\n    tag_5:\n      tag_12\n      0x04\n      dup1\n      calldatasize\n      sub\n      dup2\n      add\n      swap1\n      tag_13\n      swap2\n      swap1\n      tag_14\n      jump\t// in\n    tag_13:\n      tag_15\n      jump\t// in\n    tag_12:\n      mload(0x40)\n      tag_16\n      swap2\n      swap1\n      tag_17\n      jump\t// in\n    tag_16:\n      mload(0x40)\n      dup1\n      swap2\n      sub\n      swap1\n      return\n        /* \"contracts/GoodLottery.sol\":427:795  function withdraw() public {... */\n    tag_7:\n        /* \"contracts/GoodLottery.sol\":465:479  uint256 amount */\n      0x00\n        /* \"contracts/GoodLottery.sol\":482:500  pendingWithdrawals */\n      0x00\n        /* \"contracts/GoodLottery.sol\":482:512  pendingWithdrawals[msg.sender] */\n      0x00\n        /* \"contracts/GoodLottery.sol\":501:511  msg.sender */\n      caller\n        /* \"contracts/GoodLottery.sol\":482:512  pendingWithdrawals[msg.sender] */\n      0xffffffffffffffffffffffffffffffffffffffff\n      and\n      0xffffffffffffffffffffffffffffffffffffffff\n      and\n      dup2\n      mstore\n      0x20\n      add\n      swap1\n      dup2\n      mstore\n      0x20\n      add\n      0x00\n      keccak256\n      sload\n        /* \"contracts/GoodLottery.sol\":465:512  uint256 amount = pendingWithdrawals[msg.sender] */\n      swap1\n      pop\n        /* \"contracts/GoodLottery.sol\":540:541  0 */\n      0x00\n        /* \"contracts/GoodLottery.sol\":531:537  amount */\n      dup2\n        /* \"contracts/GoodLottery.sol\":531:541  amount > 0 */\n      gt\n        /* \"contracts/GoodLottery.sol\":523:565  require(amount > 0, \"Nothing to withdraw\") */\n      tag_19\n      jumpi\n      mload(0x40)\n      0x08c379a000000000000000000000000000000000000000000000000000000000\n      dup2\n      mstore\n      0x04\n      add\n      tag_20\n      swap1\n      tag_21\n      jump\t// in\n    tag_20:\n      mload(0x40)\n      dup1\n      swap2\n      sub\n      swap1\n      revert\n    tag_19:\n        /* \"contracts/GoodLottery.sol\":665:666  0 */\n      0x00\n        /* \"contracts/GoodLottery.sol\":632:650  pendingWithdrawals */\n      0x00\n        /* \"contracts/GoodLottery.sol\":632:662  pendingWithdrawals[msg.sender] */\n      0x00\n        /* \"contracts/GoodLottery.sol\":651:661  msg.sender */\n      caller\n        /* \"contracts/GoodLottery.sol\":632:662  pendingWithdrawals[msg.sender] */\n      0xffffffffffffffffffffffffffffffffffffffff\n      and\n      0xffffffffffffffffffffffffffffffffffffffff\n      and\n      dup2\n      mstore\n      0x20\n      add\n      swap1\n      dup2\n      mstore\n      0x20\n      add\n      0x00\n      keccak256\n        /* \"contracts/GoodLottery.sol\":632:666  pendingWithdrawals[msg.sender] = 0 */\n      dup2\n      swap1\n      sstore\n      pop\n        /* \"contracts/GoodLottery.sol\":680:692  bool success */\n      0x00\n        /* \"contracts/GoodLottery.sol\":706:716  msg.sender */\n      caller\n        /* \"contracts/GoodLottery.sol\":698:722  payable(msg.sender).call */\n      0xffffffffffffffffffffffffffffffffffffffff\n      and\n        /* \"contracts/GoodLottery.sol\":730:736  amount */\n      dup3\n        /* \"contracts/GoodLottery.sol\":698:741  payable(msg.sender).call{value: amount}(\"\") */\n      mload(0x40)\n      tag_22\n      swap1\n      tag_23\n      jump\t// in\n    tag_22:\n      0x00\n      mload(0x40)\n      dup1\n      dup4\n      sub\n      dup2\n      dup6\n      dup8\n      gas\n      call\n      swap3\n      pop\n      pop\n      pop\n      returndatasize\n      dup1\n      0x00\n      dup2\n      eq\n      tag_26\n      jumpi\n      mload(0x40)\n      swap2\n      pop\n      and(add(returndatasize, 0x3f), not(0x1f))\n      dup3\n      add\n      0x40\n      mstore\n      returndatasize\n      dup3\n      mstore\n      returndatasize\n      0x00\n      0x20\n      dup5\n      add\n      returndatacopy\n      jump(tag_25)\n    tag_26:\n      0x60\n      swap2\n      pop\n    tag_25:\n      pop\n        /* \"contracts/GoodLottery.sol\":679:741  (bool success, ) = payable(msg.sender).call{value: amount}(\"\") */\n      pop\n      swap1\n      pop\n        /* \"contracts/GoodLottery.sol\":760:767  success */\n      dup1\n        /* \"contracts/GoodLottery.sol\":752:787  require(success, \"Transfer failed\") */\n      tag_27\n      jumpi\n      mload(0x40)\n      0x08c379a000000000000000000000000000000000000000000000000000000000\n      dup2\n      mstore\n      0x04\n      add\n      tag_28\n      swap1\n      tag_29\n      jump\t// in\n    tag_28:\n      mload(0x40)\n      dup1\n      swap2\n      sub\n      swap1\n      revert\n    tag_27:\n        /* \"contracts/GoodLottery.sol\":454:795  {... */\n      pop\n      pop\n        /* \"contracts/GoodLottery.sol\":427:795  function withdraw() public {... */\n      jump\t// out\n        /* \"contracts/GoodLottery.sol\":243:358  function assignPrize(address winner, uint256 amount) public {... */\n    tag_11:\n        /* \"contracts/GoodLottery.sol\":344:350  amount */\n      dup1\n        /* \"contracts/GoodLottery.sol\":314:332  pendingWithdrawals */\n      0x00\n        /* \"contracts/GoodLottery.sol\":314:340  pendingWithdrawals[winner] */\n      0x00\n        /* \"contracts/GoodLottery.sol\":333:339  winner */\n      dup5\n        /* \"contracts/GoodLottery.sol\":314:340  pendingWithdrawals[winner] */\n      0xffffffffffffffffffffffffffffffffffffffff\n      and\n      0xffffffffffffffffffffffffffffffffffffffff\n      and\n      dup2\n      mstore\n      0x20\n      add\n      swap1\n      dup2\n      mstore\n      0x20\n      add\n      0x00\n      keccak256\n      0x00\n        /* \"contracts/GoodLottery.sol\":314:350  pendingWithdrawals[winner] += amount */\n      dup3\n      dup3\n      sload\n      tag_31\n      swap2\n      swap1\n      tag_32\n      jump\t// in\n    tag_31:\n      swap3\n      pop\n      pop\n      dup2\n      swap1\n      sstore\n      pop\n        /* \"contracts/GoodLottery.sol\":243:358  function assignPrize(address winner, uint256 amount) public {... */\n      pop\n      pop\n      jump\t// out\n        /* \"contracts/GoodLottery.sol\":127:180  mapping(address => uint256) public pendingWithdrawals */\n    tag_15:\n      mstore(0x20, 0x00)\n      dup1\n      0x00\n      mstore\n      keccak256(0x00, 0x40)\n      0x00\n      swap2\n      pop\n      swap1\n      pop\n      sload\n      dup2\n      jump\t// out\n        /* \"#utility.yul\":88:205   */\n    tag_34:\n        /* \"#utility.yul\":197:198   */\n      0x00\n        /* \"#utility.yul\":194:195   */\n      0x00\n        /* \"#utility.yul\":187:199   */\n      revert\n        /* \"#utility.yul\":334:460   */\n    tag_36:\n        /* \"#utility.yul\":371:378   */\n      0x00\n        /* \"#utility.yul\":411:453   */\n      0xffffffffffffffffffffffffffffffffffffffff\n        /* \"#utility.yul\":404:409   */\n      dup3\n        /* \"#utility.yul\":400:454   */\n      and\n        /* \"#utility.yul\":389:454   */\n      swap1\n      pop\n        /* \"#utility.yul\":334:460   */\n      swap2\n      swap1\n      pop\n      jump\t// out\n        /* \"#utility.yul\":466:562   */\n    tag_37:\n        /* \"#utility.yul\":503:510   */\n      0x00\n        /* \"#utility.yul\":532:556   */\n      tag_59\n        /* \"#utility.yul\":550:555   */\n      dup3\n        /* \"#utility.yul\":532:556   */\n      tag_36\n      jump\t// in\n    tag_59:\n        /* \"#utility.yul\":521:556   */\n      swap1\n      pop\n        /* \"#utility.yul\":466:562   */\n      swap2\n      swap1\n      pop\n      jump\t// out\n        /* \"#utility.yul\":568:690   */\n    tag_38:\n        /* \"#utility.yul\":641:665   */\n      tag_61\n        /* \"#utility.yul\":659:664   */\n      dup2\n        /* \"#utility.yul\":641:665   */\n      tag_37\n      jump\t// in\n    tag_61:\n        /* \"#utility.yul\":634:639   */\n      dup2\n        /* \"#utility.yul\":631:666   */\n      eq\n        /* \"#utility.yul\":621:684   */\n      tag_62\n      jumpi\n        /* \"#utility.yul\":680:681   */\n      0x00\n        /* \"#utility.yul\":677:678   */\n      0x00\n        /* \"#utility.yul\":670:682   */\n      revert\n        /* \"#utility.yul\":621:684   */\n    tag_62:\n        /* \"#utility.yul\":568:690   */\n      pop\n      jump\t// out\n        /* \"#utility.yul\":696:835   */\n    tag_39:\n        /* \"#utility.yul\":742:747   */\n      0x00\n        /* \"#utility.yul\":780:786   */\n      dup2\n        /* \"#utility.yul\":767:787   */\n      calldataload\n        /* \"#utility.yul\":758:787   */\n      swap1\n      pop\n        /* \"#utility.yul\":796:829   */\n      tag_64\n        /* \"#utility.yul\":823:828   */\n      dup2\n        /* \"#utility.yul\":796:829   */\n      tag_38\n      jump\t// in\n    tag_64:\n        /* \"#utility.yul\":696:835   */\n      swap3\n      swap2\n      pop\n      pop\n      jump\t// out\n        /* \"#utility.yul\":841:918   */\n    tag_40:\n        /* \"#utility.yul\":878:885   */\n      0x00\n        /* \"#utility.yul\":907:912   */\n      dup2\n        /* \"#utility.yul\":896:912   */\n      swap1\n      pop\n        /* \"#utility.yul\":841:918   */\n      swap2\n      swap1\n      pop\n      jump\t// out\n        /* \"#utility.yul\":924:1046   */\n    tag_41:\n        /* \"#utility.yul\":997:1021   */\n      tag_67\n        /* \"#utility.yul\":1015:1020   */\n      dup2\n        /* \"#utility.yul\":997:1021   */\n      tag_40\n      jump\t// in\n    tag_67:\n        /* \"#utility.yul\":990:995   */\n      dup2\n        /* \"#utility.yul\":987:1022   */\n      eq\n        /* \"#utility.yul\":977:1040   */\n      tag_68\n      jumpi\n        /* \"#utility.yul\":1036:1037   */\n      0x00\n        /* \"#utility.yul\":1033:1034   */\n      0x00\n        /* \"#utility.yul\":1026:1038   */\n      revert\n        /* \"#utility.yul\":977:1040   */\n    tag_68:\n        /* \"#utility.yul\":924:1046   */\n      pop\n      jump\t// out\n        /* \"#utility.yul\":1052:1191   */\n    tag_42:\n        /* \"#utility.yul\":1098:1103   */\n      0x00\n        /* \"#utility.yul\":1136:1142   */\n      dup2\n        /* \"#utility.yul\":1123:1143   */\n      calldataload\n        /* \"#utility.yul\":1114:1143   */\n      swap1\n      pop\n        /* \"#utility.yul\":1152:1185   */\n      tag_70\n        /* \"#utility.yul\":1179:1184   */\n      dup2\n        /* \"#utility.yul\":1152:1185   */\n      tag_41\n      jump\t// in\n    tag_70:\n        /* \"#utility.yul\":1052:1191   */\n      swap3\n      swap2\n      pop\n      pop\n      jump\t// out\n        /* \"#utility.yul\":1197:1671   */\n    tag_10:\n        /* \"#utility.yul\":1265:1271   */\n      0x00\n        /* \"#utility.yul\":1273:1279   */\n      0x00\n        /* \"#utility.yul\":1322:1324   */\n      0x40\n        /* \"#utility.yul\":1310:1319   */\n      dup4\n        /* \"#utility.yul\":1301:1308   */\n      dup6\n        /* \"#utility.yul\":1297:1320   */\n      sub\n        /* \"#utility.yul\":1293:1325   */\n      slt\n        /* \"#utility.yul\":1290:1409   */\n      iszero\n      tag_72\n      jumpi\n        /* \"#utility.yul\":1328:1407   */\n      tag_73\n      tag_34\n      jump\t// in\n    tag_73:\n        /* \"#utility.yul\":1290:1409   */\n    tag_72:\n        /* \"#utility.yul\":1448:1449   */\n      0x00\n        /* \"#utility.yul\":1473:1526   */\n      tag_74\n        /* \"#utility.yul\":1518:1525   */\n      dup6\n        /* \"#utility.yul\":1509:1515   */\n      dup3\n        /* \"#utility.yul\":1498:1507   */\n      dup7\n        /* \"#utility.yul\":1494:1516   */\n      add\n        /* \"#utility.yul\":1473:1526   */\n      tag_39\n      jump\t// in\n    tag_74:\n        /* \"#utility.yul\":1463:1526   */\n      swap3\n      pop\n        /* \"#utility.yul\":1419:1536   */\n      pop\n        /* \"#utility.yul\":1575:1577   */\n      0x20\n        /* \"#utility.yul\":1601:1654   */\n      tag_75\n        /* \"#utility.yul\":1646:1653   */\n      dup6\n        /* \"#utility.yul\":1637:1643   */\n      dup3\n        /* \"#utility.yul\":1626:1635   */\n      dup7\n        /* \"#utility.yul\":1622:1644   */\n      add\n        /* \"#utility.yul\":1601:1654   */\n      tag_42\n      jump\t// in\n    tag_75:\n        /* \"#utility.yul\":1591:1654   */\n      swap2\n      pop\n        /* \"#utility.yul\":1546:1664   */\n      pop\n        /* \"#utility.yul\":1197:1671   */\n      swap3\n      pop\n      swap3\n      swap1\n      pop\n      jump\t// out\n        /* \"#utility.yul\":1677:2006   */\n    tag_14:\n        /* \"#utility.yul\":1736:1742   */\n      0x00\n        /* \"#utility.yul\":1785:1787   */\n      0x20\n        /* \"#utility.yul\":1773:1782   */\n      dup3\n        /* \"#utility.yul\":1764:1771   */\n      dup5\n        /* \"#utility.yul\":1760:1783   */\n      sub\n        /* \"#utility.yul\":1756:1788   */\n      slt\n        /* \"#utility.yul\":1753:1872   */\n      iszero\n      tag_77\n      jumpi\n        /* \"#utility.yul\":1791:1870   */\n      tag_78\n      tag_34\n      jump\t// in\n    tag_78:\n        /* \"#utility.yul\":1753:1872   */\n    tag_77:\n        /* \"#utility.yul\":1911:1912   */\n      0x00\n        /* \"#utility.yul\":1936:1989   */\n      tag_79\n        /* \"#utility.yul\":1981:1988   */\n      dup5\n        /* \"#utility.yul\":1972:1978   */\n      dup3\n        /* \"#utility.yul\":1961:1970   */\n      dup6\n        /* \"#utility.yul\":1957:1979   */\n      add\n        /* \"#utility.yul\":1936:1989   */\n      tag_39\n      jump\t// in\n    tag_79:\n        /* \"#utility.yul\":1926:1989   */\n      swap2\n      pop\n        /* \"#utility.yul\":1882:1999   */\n      pop\n        /* \"#utility.yul\":1677:2006   */\n      swap3\n      swap2\n      pop\n      pop\n      jump\t// out\n        /* \"#utility.yul\":2012:2130   */\n    tag_43:\n        /* \"#utility.yul\":2099:2123   */\n      tag_81\n        /* \"#utility.yul\":2117:2122   */\n      dup2\n        /* \"#utility.yul\":2099:2123   */\n      tag_40\n      jump\t// in\n    tag_81:\n        /* \"#utility.yul\":2094:2097   */\n      dup3\n        /* \"#utility.yul\":2087:2124   */\n      mstore\n        /* \"#utility.yul\":2012:2130   */\n      pop\n      pop\n      jump\t// out\n        /* \"#utility.yul\":2136:2358   */\n    tag_17:\n        /* \"#utility.yul\":2229:2233   */\n      0x00\n        /* \"#utility.yul\":2267:2269   */\n      0x20\n        /* \"#utility.yul\":2256:2265   */\n      dup3\n        /* \"#utility.yul\":2252:2270   */\n      add\n        /* \"#utility.yul\":2244:2270   */\n      swap1\n      pop\n        /* \"#utility.yul\":2280:2351   */\n      tag_83\n        /* \"#utility.yul\":2348:2349   */\n      0x00\n        /* \"#utility.yul\":2337:2346   */\n      dup4\n        /* \"#utility.yul\":2333:2350   */\n      add\n        /* \"#utility.yul\":2324:2330   */\n      dup5\n        /* \"#utility.yul\":2280:2351   */\n      tag_43\n      jump\t// in\n    tag_83:\n        /* \"#utility.yul\":2136:2358   */\n      swap3\n      swap2\n      pop\n      pop\n      jump\t// out\n        /* \"#utility.yul\":2364:2533   */\n    tag_44:\n        /* \"#utility.yul\":2448:2459   */\n      0x00\n        /* \"#utility.yul\":2482:2488   */\n      dup3\n        /* \"#utility.yul\":2477:2480   */\n      dup3\n        /* \"#utility.yul\":2470:2489   */\n      mstore\n        /* \"#utility.yul\":2522:2526   */\n      0x20\n        /* \"#utility.yul\":2517:2520   */\n      dup3\n        /* \"#utility.yul\":2513:2527   */\n      add\n        /* \"#utility.yul\":2498:2527   */\n      swap1\n      pop\n        /* \"#utility.yul\":2364:2533   */\n      swap3\n      swap2\n      pop\n      pop\n      jump\t// out\n        /* \"#utility.yul\":2539:2708   */\n    tag_45:\n        /* \"#utility.yul\":2679:2700   */\n      0x4e6f7468696e6720746f20776974686472617700000000000000000000000000\n        /* \"#utility.yul\":2675:2676   */\n      0x00\n        /* \"#utility.yul\":2667:2673   */\n      dup3\n        /* \"#utility.yul\":2663:2677   */\n      add\n        /* \"#utility.yul\":2656:2701   */\n      mstore\n        /* \"#utility.yul\":2539:2708   */\n      pop\n      jump\t// out\n        /* \"#utility.yul\":2714:3080   */\n    tag_46:\n        /* \"#utility.yul\":2856:2859   */\n      0x00\n        /* \"#utility.yul\":2877:2944   */\n      tag_87\n        /* \"#utility.yul\":2941:2943   */\n      0x13\n        /* \"#utility.yul\":2936:2939   */\n      dup4\n        /* \"#utility.yul\":2877:2944   */\n      tag_44\n      jump\t// in\n    tag_87:\n        /* \"#utility.yul\":2870:2944   */\n      swap2\n      pop\n        /* \"#utility.yul\":2953:3046   */\n      tag_88\n        /* \"#utility.yul\":3042:3045   */\n      dup3\n        /* \"#utility.yul\":2953:3046   */\n      tag_45\n      jump\t// in\n    tag_88:\n        /* \"#utility.yul\":3071:3073   */\n      0x20\n        /* \"#utility.yul\":3066:3069   */\n      dup3\n        /* \"#utility.yul\":3062:3074   */\n      add\n        /* \"#utility.yul\":3055:3074   */\n      swap1\n      pop\n        /* \"#utility.yul\":2714:3080   */\n      swap2\n      swap1\n      pop\n      jump\t// out\n        /* \"#utility.yul\":3086:3505   */\n    tag_21:\n        /* \"#utility.yul\":3252:3256   */\n      0x00\n        /* \"#utility.yul\":3290:3292   */\n      0x20\n        /* \"#utility.yul\":3279:3288   */\n      dup3\n        /* \"#utility.yul\":3275:3293   */\n      add\n        /* \"#utility.yul\":3267:3293   */\n      swap1\n      pop\n        /* \"#utility.yul\":3339:3348   */\n      dup2\n        /* \"#utility.yul\":3333:3337   */\n      dup2\n        /* \"#utility.yul\":3329:3349   */\n      sub\n        /* \"#utility.yul\":3325:3326   */\n      0x00\n        /* \"#utility.yul\":3314:3323   */\n      dup4\n        /* \"#utility.yul\":3310:3327   */\n      add\n        /* \"#utility.yul\":3303:3350   */\n      mstore\n        /* \"#utility.yul\":3367:3498   */\n      tag_90\n        /* \"#utility.yul\":3493:3497   */\n      dup2\n        /* \"#utility.yul\":3367:3498   */\n      tag_46\n      jump\t// in\n    tag_90:\n        /* \"#utility.yul\":3359:3498   */\n      swap1\n      pop\n        /* \"#utility.yul\":3086:3505   */\n      swap2\n      swap1\n      pop\n      jump\t// out\n        /* \"#utility.yul\":3511:3658   */\n    tag_47:\n        /* \"#utility.yul\":3612:3623   */\n      0x00\n        /* \"#utility.yul\":3649:3652   */\n      dup2\n        /* \"#utility.yul\":3634:3652   */\n      swap1\n      pop\n        /* \"#utility.yul\":3511:3658   */\n      swap3\n      swap2\n      pop\n      pop\n      jump\t// out\n        /* \"#utility.yul\":3664:3778   */\n    tag_48:\n      pop\n      jump\t// out\n        /* \"#utility.yul\":3784:4182   */\n    tag_49:\n        /* \"#utility.yul\":3943:3946   */\n      0x00\n        /* \"#utility.yul\":3964:4047   */\n      tag_94\n        /* \"#utility.yul\":4045:4046   */\n      0x00\n        /* \"#utility.yul\":4040:4043   */\n      dup4\n        /* \"#utility.yul\":3964:4047   */\n      tag_47\n      jump\t// in\n    tag_94:\n        /* \"#utility.yul\":3957:4047   */\n      swap2\n      pop\n        /* \"#utility.yul\":4056:4149   */\n      tag_95\n        /* \"#utility.yul\":4145:4148   */\n      dup3\n        /* \"#utility.yul\":4056:4149   */\n      tag_48\n      jump\t// in\n    tag_95:\n        /* \"#utility.yul\":4174:4175   */\n      0x00\n        /* \"#utility.yul\":4169:4172   */\n      dup3\n        /* \"#utility.yul\":4165:4176   */\n      add\n        /* \"#utility.yul\":4158:4176   */\n      swap1\n      pop\n        /* \"#utility.yul\":3784:4182   */\n      swap2\n      swap1\n      pop\n      jump\t// out\n        /* \"#utility.yul\":4188:4567   */\n    tag_23:\n        /* \"#utility.yul\":4372:4375   */\n      0x00\n        /* \"#utility.yul\":4394:4541   */\n      tag_97\n        /* \"#utility.yul\":4537:4540   */\n      dup3\n        /* \"#utility.yul\":4394:4541   */\n      tag_49\n      jump\t// in\n    tag_97:\n        /* \"#utility.yul\":4387:4541   */\n      swap2\n      pop\n        /* \"#utility.yul\":4558:4561   */\n      dup2\n        /* \"#utility.yul\":4551:4561   */\n      swap1\n      pop\n        /* \"#utility.yul\":4188:4567   */\n      swap2\n      swap1\n      pop\n      jump\t// out\n        /* \"#utility.yul\":4573:4738   */\n    tag_50:\n        /* \"#utility.yul\":4713:4730   */\n      0x5472616e73666572206661696c65640000000000000000000000000000000000\n        /* \"#utility.yul\":4709:4710   */\n      0x00\n        /* \"#utility.yul\":4701:4707   */\n      dup3\n        /* \"#utility.yul\":4697:4711   */\n      add\n        /* \"#utility.yul\":4690:4731   */\n      mstore\n        /* \"#utility.yul\":4573:4738   */\n      pop\n      jump\t// out\n        /* \"#utility.yul\":4744:5110   */\n    tag_51:\n        /* \"#utility.yul\":4886:4889   */\n      0x00\n        /* \"#utility.yul\":4907:4974   */\n      tag_100\n        /* \"#utility.yul\":4971:4973   */\n      0x0f\n        /* \"#utility.yul\":4966:4969   */\n      dup4\n        /* \"#utility.yul\":4907:4974   */\n      tag_44\n      jump\t// in\n    tag_100:\n        /* \"#utility.yul\":4900:4974   */\n      swap2\n      pop\n        /* \"#utility.yul\":4983:5076   */\n      tag_101\n        /* \"#utility.yul\":5072:5075   */\n      dup3\n        /* \"#utility.yul\":4983:5076   */\n      tag_50\n      jump\t// in\n    tag_101:\n        /* \"#utility.yul\":5101:5103   */\n      0x20\n        /* \"#utility.yul\":5096:5099   */\n      dup3\n        /* \"#utility.yul\":5092:5104   */\n      add\n        /* \"#utility.yul\":5085:5104   */\n      swap1\n      pop\n        /* \"#utility.yul\":4744:5110   */\n      swap2\n      swap1\n      pop\n      jump\t// out\n        /* \"#utility.yul\":5116:5535   */\n    tag_29:\n        /* \"#utility.yul\":5282:5286   */\n      0x00\n        /* \"#utility.yul\":5320:5322   */\n      0x20\n        /* \"#utility.yul\":5309:5318   */\n      dup3\n        /* \"#utility.yul\":5305:5323   */\n      add\n        /* \"#utility.yul\":5297:5323   */\n      swap1\n      pop\n        /* \"#utility.yul\":5369:5378   */\n      dup2\n        /* \"#utility.yul\":5363:5367   */\n      dup2\n        /* \"#utility.yul\":5359:5379   */\n      sub\n        /* \"#utility.yul\":5355:5356   */\n      0x00\n        /* \"#utility.yul\":5344:5353   */\n      dup4\n        /* \"#utility.yul\":5340:5357   */\n      add\n        /* \"#utility.yul\":5333:5380   */\n      mstore\n        /* \"#utility.yul\":5397:5528   */\n      tag_103\n        /* \"#utility.yul\":5523:5527   */\n      dup2\n        /* \"#utility.yul\":5397:5528   */\n      tag_51\n      jump\t// in\n    tag_103:\n        /* \"#utility.yul\":5389:5528   */\n      swap1\n      pop\n        /* \"#utility.yul\":5116:5535   */\n      swap2\n      swap1\n      pop\n      jump\t// out\n        /* \"#utility.yul\":5541:5721   */\n    tag_52:\n        /* \"#utility.yul\":5589:5666   */\n      0x4e487b7100000000000000000000000000000000000000000000000000000000\n        /* \"#utility.yul\":5586:5587   */\n      0x00\n        /* \"#utility.yul\":5579:5667   */\n      mstore\n        /* \"#utility.yul\":5686:5690   */\n      0x11\n        /* \"#utility.yul\":5683:5684   */\n      0x04\n        /* \"#utility.yul\":5676:5691   */\n      mstore\n        /* \"#utility.yul\":5710:5714   */\n      0x24\n        /* \"#utility.yul\":5707:5708   */\n      0x00\n        /* \"#utility.yul\":5700:5715   */\n      revert\n        /* \"#utility.yul\":5727:5918   */\n    tag_32:\n        /* \"#utility.yul\":5767:5770   */\n      0x00\n        /* \"#utility.yul\":5786:5806   */\n      tag_106\n        /* \"#utility.yul\":5804:5805   */\n      dup3\n        /* \"#utility.yul\":5786:5806   */\n      tag_40\n      jump\t// in\n    tag_106:\n        /* \"#utility.yul\":5781:5806   */\n      swap2\n      pop\n        /* \"#utility.yul\":5820:5840   */\n      tag_107\n        /* \"#utility.yul\":5838:5839   */\n      dup4\n        /* \"#utility.yul\":5820:5840   */\n      tag_40\n      jump\t// in\n    tag_107:\n        /* \"#utility.yul\":5815:5840   */\n      swap3\n      pop\n        /* \"#utility.yul\":5863:5864   */\n      dup3\n        /* \"#utility.yul\":5860:5861   */\n      dup3\n        /* \"#utility.yul\":5856:5865   */\n      add\n        /* \"#utility.yul\":5849:5865   */\n      swap1\n      pop\n        /* \"#utility.yul\":5884:5887   */\n      dup1\n        /* \"#utility.yul\":5881:5882   */\n      dup3\n        /* \"#utility.yul\":5878:5888   */\n      gt\n        /* \"#utility.yul\":5875:5911   */\n      iszero\n      tag_108\n      jumpi\n        /* \"#utility.yul\":5891:5909   */\n      tag_109\n      tag_52\n      jump\t// in\n    tag_109:\n        /* \"#utility.yul\":5875:5911   */\n    tag_108:\n        /* \"#utility.yul\":5727:5918   */\n      swap3\n      swap2\n      pop\n      pop\n      jump\t// out\n\n    auxdata: 0xa26469706673582212208c6d652190c171d7929fc04fd8d5b6e544c86c14a9d375784d6d3191974b8fb364736f6c634300081f0033\n}\n",
				"bytecode": {
					"linkReferences": {},
					"object": "6080604052348015600e575f5ffd5b5061054b8061001c5f395ff3fe608060405234801561000f575f5ffd5b506004361061003f575f3560e01c80633ccfd60b146100435780633dc61e7f1461004d578063f3f4370314610069575b5f5ffd5b61004b610099565b005b61006760048036038101906100629190610303565b610208565b005b610083600480360381019061007e9190610341565b61025e565b604051610090919061037b565b60405180910390f35b5f5f5f3373ffffffffffffffffffffffffffffffffffffffff1673ffffffffffffffffffffffffffffffffffffffff1681526020019081526020015f205490505f811161011b576040517f08c379a0000000000000000000000000000000000000000000000000000000008152600401610112906103ee565b60405180910390fd5b5f5f5f3373ffffffffffffffffffffffffffffffffffffffff1673ffffffffffffffffffffffffffffffffffffffff1681526020019081526020015f20819055505f3373ffffffffffffffffffffffffffffffffffffffff168260405161018190610439565b5f6040518083038185875af1925050503d805f81146101bb576040519150601f19603f3d011682016040523d82523d5f602084013e6101c0565b606091505b5050905080610204576040517f08c379a00000000000000000000000000000000000000000000000000000000081526004016101fb90610497565b60405180910390fd5b5050565b805f5f8473ffffffffffffffffffffffffffffffffffffffff1673ffffffffffffffffffffffffffffffffffffffff1681526020019081526020015f205f82825461025391906104e2565b925050819055505050565b5f602052805f5260405f205f915090505481565b5f5ffd5b5f73ffffffffffffffffffffffffffffffffffffffff82169050919050565b5f61029f82610276565b9050919050565b6102af81610295565b81146102b9575f5ffd5b50565b5f813590506102ca816102a6565b92915050565b5f819050919050565b6102e2816102d0565b81146102ec575f5ffd5b50565b5f813590506102fd816102d9565b92915050565b5f5f6040838503121561031957610318610272565b5b5f610326858286016102bc565b9250506020610337858286016102ef565b9150509250929050565b5f6020828403121561035657610355610272565b5b5f610363848285016102bc565b91505092915050565b610375816102d0565b82525050565b5f60208201905061038e5f83018461036c565b92915050565b5f82825260208201905092915050565b7f4e6f7468696e6720746f207769746864726177000000000000000000000000005f82015250565b5f6103d8601383610394565b91506103e3826103a4565b602082019050919050565b5f6020820190508181035f830152610405816103cc565b9050919050565b5f81905092915050565b50565b5f6104245f8361040c565b915061042f82610416565b5f82019050919050565b5f61044382610419565b9150819050919050565b7f5472616e73666572206661696c656400000000000000000000000000000000005f82015250565b5f610481600f83610394565b915061048c8261044d565b602082019050919050565b5f6020820190508181035f8301526104ae81610475565b9050919050565b7f4e487b71000000000000000000000000000000000000000000000000000000005f52601160045260245ffd5b5f6104ec826102d0565b91506104f7836102d0565b925082820190508082111561050f5761050e6104b5565b5b9291505056fea26469706673582212208c6d652190c171d7929fc04fd8d5b6e544c86c14a9d375784d6d3191974b8fb364736f6c634300081f0033",
					"opcodes": "PUSH1 0x80 PUSH1 0x40 MSTORE CALLVALUE DUP1 ISZERO PUSH1 0xE JUMPI PUSH0 PUSH0 REVERT JUMPDEST POP PUSH2 0x54B DUP1 PUSH2 0x1C PUSH0 CODECOPY PUSH0 RETURN INVALID PUSH1 0x80 PUSH1 0x40 MSTORE CALLVALUE DUP1 ISZERO PUSH2 0xF JUMPI PUSH0 PUSH0 REVERT JUMPDEST POP PUSH1 0x4 CALLDATASIZE LT PUSH2 0x3F JUMPI PUSH0 CALLDATALOAD PUSH1 0xE0 SHR DUP1 PUSH4 0x3CCFD60B EQ PUSH2 0x43 JUMPI DUP1 PUSH4 0x3DC61E7F EQ PUSH2 0x4D JUMPI DUP1 PUSH4 0xF3F43703 EQ PUSH2 0x69 JUMPI JUMPDEST PUSH0 PUSH0 REVERT JUMPDEST PUSH2 0x4B PUSH2 0x99 JUMP JUMPDEST STOP JUMPDEST PUSH2 0x67 PUSH1 0x4 DUP1 CALLDATASIZE SUB DUP2 ADD SWAP1 PUSH2 0x62 SWAP2 SWAP1 PUSH2 0x303 JUMP JUMPDEST PUSH2 0x208 JUMP JUMPDEST STOP JUMPDEST PUSH2 0x83 PUSH1 0x4 DUP1 CALLDATASIZE SUB DUP2 ADD SWAP1 PUSH2 0x7E SWAP2 SWAP1 PUSH2 0x341 JUMP JUMPDEST PUSH2 0x25E JUMP JUMPDEST PUSH1 0x40 MLOAD PUSH2 0x90 SWAP2 SWAP1 PUSH2 0x37B JUMP JUMPDEST PUSH1 0x40 MLOAD DUP1 SWAP2 SUB SWAP1 RETURN JUMPDEST PUSH0 PUSH0 PUSH0 CALLER PUSH20 0xFFFFFFFFFFFFFFFFFFFFFFFFFFFFFFFFFFFFFFFF AND PUSH20 0xFFFFFFFFFFFFFFFFFFFFFFFFFFFFFFFFFFFFFFFF AND DUP2 MSTORE PUSH1 0x20 ADD SWAP1 DUP2 MSTORE PUSH1 0x20 ADD PUSH0 KECCAK256 SLOAD SWAP1 POP PUSH0 DUP2 GT PUSH2 0x11B JUMPI PUSH1 0x40 MLOAD PUSH32 0x8C379A000000000000000000000000000000000000000000000000000000000 DUP2 MSTORE PUSH1 0x4 ADD PUSH2 0x112 SWAP1 PUSH2 0x3EE JUMP JUMPDEST PUSH1 0x40 MLOAD DUP1 SWAP2 SUB SWAP1 REVERT JUMPDEST PUSH0 PUSH0 PUSH0 CALLER PUSH20 0xFFFFFFFFFFFFFFFFFFFFFFFFFFFFFFFFFFFFFFFF AND PUSH20 0xFFFFFFFFFFFFFFFFFFFFFFFFFFFFFFFFFFFFFFFF AND DUP2 MSTORE PUSH1 0x20 ADD SWAP1 DUP2 MSTORE PUSH1 0x20 ADD PUSH0 KECCAK256 DUP2 SWAP1 SSTORE POP PUSH0 CALLER PUSH20 0xFFFFFFFFFFFFFFFFFFFFFFFFFFFFFFFFFFFFFFFF AND DUP3 PUSH1 0x40 MLOAD PUSH2 0x181 SWAP1 PUSH2 0x439 JUMP JUMPDEST PUSH0 PUSH1 0x40 MLOAD DUP1 DUP4 SUB DUP2 DUP6 DUP8 GAS CALL SWAP3 POP POP POP RETURNDATASIZE DUP1 PUSH0 DUP2 EQ PUSH2 0x1BB JUMPI PUSH1 0x40 MLOAD SWAP2 POP PUSH1 0x1F NOT PUSH1 0x3F RETURNDATASIZE ADD AND DUP3 ADD PUSH1 0x40 MSTORE RETURNDATASIZE DUP3 MSTORE RETURNDATASIZE PUSH0 PUSH1 0x20 DUP5 ADD RETURNDATACOPY PUSH2 0x1C0 JUMP JUMPDEST PUSH1 0x60 SWAP2 POP JUMPDEST POP POP SWAP1 POP DUP1 PUSH2 0x204 JUMPI PUSH1 0x40 MLOAD PUSH32 0x8C379A000000000000000000000000000000000000000000000000000000000 DUP2 MSTORE PUSH1 0x4 ADD PUSH2 0x1FB SWAP1 PUSH2 0x497 JUMP JUMPDEST PUSH1 0x40 MLOAD DUP1 SWAP2 SUB SWAP1 REVERT JUMPDEST POP POP JUMP JUMPDEST DUP1 PUSH0 PUSH0 DUP5 PUSH20 0xFFFFFFFFFFFFFFFFFFFFFFFFFFFFFFFFFFFFFFFF AND PUSH20 0xFFFFFFFFFFFFFFFFFFFFFFFFFFFFFFFFFFFFFFFF AND DUP2 MSTORE PUSH1 0x20 ADD SWAP1 DUP2 MSTORE PUSH1 0x20 ADD PUSH0 KECCAK256 PUSH0 DUP3 DUP3 SLOAD PUSH2 0x253 SWAP2 SWAP1 PUSH2 0x4E2 JUMP JUMPDEST SWAP3 POP POP DUP2 SWAP1 SSTORE POP POP POP JUMP JUMPDEST PUSH0 PUSH1 0x20 MSTORE DUP1 PUSH0 MSTORE PUSH1 0x40 PUSH0 KECCAK256 PUSH0 SWAP2 POP SWAP1 POP SLOAD DUP2 JUMP JUMPDEST PUSH0 PUSH0 REVERT JUMPDEST PUSH0 PUSH20 0xFFFFFFFFFFFFFFFFFFFFFFFFFFFFFFFFFFFFFFFF DUP3 AND SWAP1 POP SWAP2 SWAP1 POP JUMP JUMPDEST PUSH0 PUSH2 0x29F DUP3 PUSH2 0x276 JUMP JUMPDEST SWAP1 POP SWAP2 SWAP1 POP JUMP JUMPDEST PUSH2 0x2AF DUP2 PUSH2 0x295 JUMP JUMPDEST DUP2 EQ PUSH2 0x2B9 JUMPI PUSH0 PUSH0 REVERT JUMPDEST POP JUMP JUMPDEST PUSH0 DUP2 CALLDATALOAD SWAP1 POP PUSH2 0x2CA DUP2 PUSH2 0x2A6 JUMP JUMPDEST SWAP3 SWAP2 POP POP JUMP JUMPDEST PUSH0 DUP2 SWAP1 POP SWAP2 SWAP1 POP JUMP JUMPDEST PUSH2 0x2E2 DUP2 PUSH2 0x2D0 JUMP JUMPDEST DUP2 EQ PUSH2 0x2EC JUMPI PUSH0 PUSH0 REVERT JUMPDEST POP JUMP JUMPDEST PUSH0 DUP2 CALLDATALOAD SWAP1 POP PUSH2 0x2FD DUP2 PUSH2 0x2D9 JUMP JUMPDEST SWAP3 SWAP2 POP POP JUMP JUMPDEST PUSH0 PUSH0 PUSH1 0x40 DUP4 DUP6 SUB SLT ISZERO PUSH2 0x319 JUMPI PUSH2 0x318 PUSH2 0x272 JUMP JUMPDEST JUMPDEST PUSH0 PUSH2 0x326 DUP6 DUP3 DUP7 ADD PUSH2 0x2BC JUMP JUMPDEST SWAP3 POP POP PUSH1 0x20 PUSH2 0x337 DUP6 DUP3 DUP7 ADD PUSH2 0x2EF JUMP JUMPDEST SWAP2 POP POP SWAP3 POP SWAP3 SWAP1 POP JUMP JUMPDEST PUSH0 PUSH1 0x20 DUP3 DUP5 SUB SLT ISZERO PUSH2 0x356 JUMPI PUSH2 0x355 PUSH2 0x272 JUMP JUMPDEST JUMPDEST PUSH0 PUSH2 0x363 DUP5 DUP3 DUP6 ADD PUSH2 0x2BC JUMP JUMPDEST SWAP2 POP POP SWAP3 SWAP2 POP POP JUMP JUMPDEST PUSH2 0x375 DUP2 PUSH2 0x2D0 JUMP JUMPDEST DUP3 MSTORE POP POP JUMP JUMPDEST PUSH0 PUSH1 0x20 DUP3 ADD SWAP1 POP PUSH2 0x38E PUSH0 DUP4 ADD DUP5 PUSH2 0x36C JUMP JUMPDEST SWAP3 SWAP2 POP POP JUMP JUMPDEST PUSH0 DUP3 DUP3 MSTORE PUSH1 0x20 DUP3 ADD SWAP1 POP SWAP3 SWAP2 POP POP JUMP JUMPDEST PUSH32 0x4E6F7468696E6720746F20776974686472617700000000000000000000000000 PUSH0 DUP3 ADD MSTORE POP JUMP JUMPDEST PUSH0 PUSH2 0x3D8 PUSH1 0x13 DUP4 PUSH2 0x394 JUMP JUMPDEST SWAP2 POP PUSH2 0x3E3 DUP3 PUSH2 0x3A4 JUMP JUMPDEST PUSH1 0x20 DUP3 ADD SWAP1 POP SWAP2 SWAP1 POP JUMP JUMPDEST PUSH0 PUSH1 0x20 DUP3 ADD SWAP1 POP DUP2 DUP2 SUB PUSH0 DUP4 ADD MSTORE PUSH2 0x405 DUP2 PUSH2 0x3CC JUMP JUMPDEST SWAP1 POP SWAP2 SWAP1 POP JUMP JUMPDEST PUSH0 DUP2 SWAP1 POP SWAP3 SWAP2 POP POP JUMP JUMPDEST POP JUMP JUMPDEST PUSH0 PUSH2 0x424 PUSH0 DUP4 PUSH2 0x40C JUMP JUMPDEST SWAP2 POP PUSH2 0x42F DUP3 PUSH2 0x416 JUMP JUMPDEST PUSH0 DUP3 ADD SWAP1 POP SWAP2 SWAP1 POP JUMP JUMPDEST PUSH0 PUSH2 0x443 DUP3 PUSH2 0x419 JUMP JUMPDEST SWAP2 POP DUP2 SWAP1 POP SWAP2 SWAP1 POP JUMP JUMPDEST PUSH32 0x5472616E73666572206661696C65640000000000000000000000000000000000 PUSH0 DUP3 ADD MSTORE POP JUMP JUMPDEST PUSH0 PUSH2 0x481 PUSH1 0xF DUP4 PUSH2 0x394 JUMP JUMPDEST SWAP2 POP PUSH2 0x48C DUP3 PUSH2 0x44D JUMP JUMPDEST PUSH1 0x20 DUP3 ADD SWAP1 POP SWAP2 SWAP1 POP JUMP JUMPDEST PUSH0 PUSH1 0x20 DUP3 ADD SWAP1 POP DUP2 DUP2 SUB PUSH0 DUP4 ADD MSTORE PUSH2 0x4AE DUP2 PUSH2 0x475 JUMP JUMPDEST SWAP1 POP SWAP2 SWAP1 POP JUMP JUMPDEST PUSH32 0x4E487B7100000000000000000000000000000000000000000000000000000000 PUSH0 MSTORE PUSH1 0x11 PUSH1 0x4 MSTORE PUSH1 0x24 PUSH0 REVERT JUMPDEST PUSH0 PUSH2 0x4EC DUP3 PUSH2 0x2D0 JUMP JUMPDEST SWAP2 POP PUSH2 0x4F7 DUP4 PUSH2 0x2D0 JUMP JUMPDEST SWAP3 POP DUP3 DUP3 ADD SWAP1 POP DUP1 DUP3 GT ISZERO PUSH2 0x50F JUMPI PUSH2 0x50E PUSH2 0x4B5 JUMP JUMPDEST JUMPDEST SWAP3 SWAP2 POP POP JUMP INVALID LOG2 PUSH5 0x6970667358 0x22 SLT KECCAK256 DUP13 PUSH14 0x652190C171D7929FC04FD8D5B6E5 PREVRANDAO 0xC8 PUSH13 0x14A9D375784D6D3191974B8FB3 PUSH5 0x736F6C6343 STOP ADDMOD 0x1F STOP CALLER "
				},
				"gasEstimates": {
					"creation": {
						"codeDepositCost": "271000",
						"executionCost": "310",
						"totalCost": "271310"
					},
					"external": {
						"assignPrize(address,uint256)": "infinite",
						"pendingWithdrawals(address)": "2823",
						"withdraw()": "infinite"
					}
				},
				"methodIdentifiers": {
					"assignPrize(address,uint256)": "3dc61e7f",
					"pendingWithdrawals(address)": "f3f43703",
					"withdraw()": "3ccfd60b"
				}
			},
			"storageLayout": {
				"storage": [
					{
						"astId": 5,
						"contract": "contracts/GoodLottery.sol:GoodLottery",
						"label": "pendingWithdrawals",
						"offset": 0,
						"slot": "0",
						"type": "t_mapping(t_address,t_uint256)"
					}
				],
				"types": {
					"t_address": {
						"encoding": "inplace",
						"label": "address",
						"numberOfBytes": "20"
					},
					"t_mapping(t_address,t_uint256)": {
						"encoding": "mapping",
						"key": "t_address",
						"label": "mapping(address => uint256)",
						"numberOfBytes": "32",
						"value": "t_uint256"
					},
					"t_uint256": {
						"encoding": "inplace",
						"label": "uint256",
						"numberOfBytes": "32"
					}
				}
			},
			"userdoc": {
				"kind": "user",
				"methods": {},
				"version": 1
			}
		}
	}
}