{
	"data": {
		"bytecode": {
			"linkReferences": {},
			"object": "6080604052348015600e575f5ffd5b506104068061001c5f395ff3fe608060405234801561000f575f5ffd5b5060043610610034575f3560e01c80633ccfd60b14610038578063f3f4370314610042575b5f5ffd5b610040610072565b005b61005c60048036038101906100579190610253565b6101e1565b6040516100699190610296565b60405180910390f35b5f5f5f3373ffffffffffffffffffffffffffffffffffffffff1673ffffffffffffffffffffffffffffffffffffffff1681526020019081526020015f205490505f81116100f4576040517f08c379a00000000000000000000000000000000000000000000000000000000081526004016100eb90610309565b60405180910390fd5b5f5f5f3373ffffffffffffffffffffffffffffffffffffffff1673ffffffffffffffffffffffffffffffffffffffff1681526020019081526020015f20819055505f3373ffffffffffffffffffffffffffffffffffffffff168260405161015a90610354565b5f6040518083038185875af1925050503d805f8114610194576040519150601f19603f3d011682016040523d82523d5f602084013e610199565b606091505b50509050806101dd576040517f08c379a00000000000000000000000000000000000000000000000000000000081526004016101d4906103b2565b60405180910390fd5b5050565b5f602052805f5260405f205f915090505481565b5f5ffd5b5f73ffffffffffffffffffffffffffffffffffffffff82169050919050565b5f610222826101f9565b9050919050565b61023281610218565b811461023c575f5ffd5b50565b5f8135905061024d81610229565b92915050565b5f60208284031215610268576102676101f5565b5b5f6102758482850161023f565b91505092915050565b5f819050919050565b6102908161027e565b82525050565b5f6020820190506102a95f830184610287565b92915050565b5f82825260208201905092915050565b7f4e6f7468696e6720746f207769746864726177000000000000000000000000005f82015250565b5f6102f36013836102af565b91506102fe826102bf565b602082019050919050565b5f6020820190508181035f830152610320816102e7565b9050919050565b5f81905092915050565b50565b5f61033f5f83610327565b915061034a82610331565b5f82019050919050565b5f61035e82610334565b9150819050919050565b7f5472616e73666572206661696c656400000000000000000000000000000000005f82015250565b5f61039c600f836102af565b91506103a782610368565b602082019050919050565b5f6020820190508181035f8301526103c981610390565b905091905056fea2646970667358221220f35f8bfd578d93732b1ee6e7851b1a5a43f3581e8bbbdf49244fba7d98d6842164736f6c634300081f0033",
			"opcodes": "PUSH1 0x80 PUSH1 0x40 MSTORE CALLVALUE DUP1 ISZERO PUSH1 0xE JUMPI PUSH0 PUSH0 REVERT JUMPDEST POP PUSH2 0x406 DUP1 PUSH2 0x1C PUSH0 CODECOPY PUSH0 RETURN INVALID PUSH1 0x80 PUSH1 0x40 MSTORE CALLVALUE DUP1 ISZERO PUSH2 0xF JUMPI PUSH0 PUSH0 REVERT JUMPDEST POP PUSH1 0x4 CALLDATASIZE LT PUSH2 0x34 JUMPI PUSH0 CALLDATALOAD PUSH1 0xE0 SHR DUP1 PUSH4 0x3CCFD60B EQ PUSH2 0x38 JUMPI DUP1 PUSH4 0xF3F43703 EQ PUSH2 0x42 JUMPI JUMPDEST PUSH0 PUSH0 REVERT JUMPDEST PUSH2 0x40 PUSH2 0x72 JUMP JUMPDEST STOP JUMPDEST PUSH2 0x5C PUSH1 0x4 DUP1 CALLDATASIZE SUB DUP2 ADD SWAP1 PUSH2 0x57 SWAP2 SWAP1 PUSH2 0x253 JUMP JUMPDEST PUSH2 0x1E1 JUMP JUMPDEST PUSH1 0x40 MLOAD PUSH2 0x69 SWAP2 SWAP1 PUSH2 0x296 JUMP JUMPDEST PUSH1 0x40 MLOAD DUP1 SWAP2 SUB SWAP1 RETURN JUMPDEST PUSH0 PUSH0 PUSH0 CALLER PUSH20 0xFFFFFFFFFFFFFFFFFFFFFFFFFFFFFFFFFFFFFFFF AND PUSH20 0xFFFFFFFFFFFFFFFFFFFFFFFFFFFFFFFFFFFFFFFF AND DUP2 MSTORE PUSH1 0x20 ADD SWAP1 DUP2 MSTORE PUSH1 0x20 ADD PUSH0 KECCAK256 SLOAD SWAP1 POP PUSH0 DUP2 GT PUSH2 0xF4 JUMPI PUSH1 0x40 MLOAD PUSH32 0x8C379A000000000000000000000000000000000000000000000000000000000 DUP2 MSTORE PUSH1 0x4 ADD PUSH2 0xEB SWAP1 PUSH2 0x309 JUMP JUMPDEST PUSH1 0x40 MLOAD DUP1 SWAP2 SUB SWAP1 REVERT JUMPDEST PUSH0 PUSH0 PUSH0 CALLER PUSH20 0xFFFFFFFFFFFFFFFFFFFFFFFFFFFFFFFFFFFFFFFF AND PUSH20 0xFFFFFFFFFFFFFFFFFFFFFFFFFFFFFFFFFFFFFFFF AND DUP2 MSTORE PUSH1 0x20 ADD SWAP1 DUP2 MSTORE PUSH1 0x20 ADD PUSH0 KECCAK256 DUP2 SWAP1 SSTORE POP PUSH0 CALLER PUSH20 0xFFFFFFFFFFFFFFFFFFFFFFFFFFFFFFFFFFFFFFFF AND DUP3 PUSH1 0x40 MLOAD PUSH2 0x15A SWAP1 PUSH2 0x354 JUMP JUMPDEST PUSH0 PUSH1 0x40 MLOAD DUP1 DUP4 SUB DUP2 DUP6 DUP8 GAS CALL SWAP3 POP POP POP RETURNDATASIZE DUP1 PUSH0 DUP2 EQ PUSH2 0x194 JUMPI PUSH1 0x40 MLOAD SWAP2 POP PUSH1 0x1F NOT PUSH1 0x3F RETURNDATASIZE ADD AND DUP3 ADD PUSH1 0x40 MSTORE RETURNDATASIZE DUP3 MSTORE RETURNDATASIZE PUSH0 PUSH1 0x20 DUP5 ADD RETURNDATACOPY PUSH2 0x199 JUMP JUMPDEST PUSH1 0x60 SWAP2 POP JUMPDEST POP POP SWAP1 POP DUP1 PUSH2 0x1DD JUMPI PUSH1 0x40 MLOAD PUSH32 0x8C379A000000000000000000000000000000000000000000000000000000000 DUP2 MSTORE PUSH1 0x4 ADD PUSH2 0x1D4 SWAP1 PUSH2 0x3B2 JUMP JUMPDEST PUSH1 0x40 MLOAD DUP1 SWAP2 SUB SWAP1 REVERT JUMPDEST POP POP JUMP JUMPDEST PUSH0 PUSH1 0x20 MSTORE DUP1 PUSH0 MSTORE PUSH1 0x40 PUSH0 KECCAK256 PUSH0 SWAP2 POP SWAP1 POP SLOAD DUP2 JUMP JUMPDEST PUSH0 PUSH0 REVERT JUMPDEST PUSH0 PUSH20 0xFFFFFFFFFFFFFFFFFFFFFFFFFFFFFFFFFFFFFFFF DUP3 AND SWAP1 POP SWAP2 SWAP1 POP JUMP JUMPDEST PUSH0 PUSH2 0x222 DUP3 PUSH2 0x1F9 JUMP JUMPDEST SWAP1 POP SWAP2 SWAP1 POP JUMP JUMPDEST PUSH2 0x232 DUP2 PUSH2 0x218 JUMP JUMPDEST DUP2 EQ PUSH2 0x23C JUMPI PUSH0 PUSH0 REVERT JUMPDEST POP JUMP JUMPDEST PUSH0 DUP2 CALLDATALOAD SWAP1 POP PUSH2 0x24D DUP2 PUSH2 0x229 JUMP JUMPDEST SWAP3 SWAP2 POP POP JUMP JUMPDEST PUSH0 PUSH1 0x20 DUP3 DUP5 SUB SLT ISZERO PUSH2 0x268 JUMPI PUSH2 0x267 PUSH2 0x1F5 JUMP JUMPDEST JUMPDEST PUSH0 PUSH2 0x275 DUP5 DUP3 DUP6 ADD PUSH2 0x23F JUMP JUMPDEST SWAP2 POP POP SWAP3 SWAP2 POP POP JUMP JUMPDEST PUSH0 DUP2 SWAP1 POP SWAP2 SWAP1 POP JUMP JUMPDEST PUSH2 0x290 DUP2 PUSH2 0x27E JUMP JUMPDEST DUP3 MSTORE POP POP JUMP JUMPDEST PUSH0 PUSH1 0x20 DUP3 ADD SWAP1 POP PUSH2 0x2A9 PUSH0 DUP4 ADD DUP5 PUSH2 0x287 JUMP JUMPDEST SWAP3 SWAP2 POP POP JUMP JUMPDEST PUSH0 DUP3 DUP3 MSTORE PUSH1 0x20 DUP3 ADD SWAP1 POP SWAP3 SWAP2 POP POP JUMP JUMPDEST PUSH32 0x4E6F7468696E6720746F20776974686472617700000000000000000000000000 PUSH0 DUP3 ADD MSTORE POP JUMP JUMPDEST PUSH0 PUSH2 0x2F3 PUSH1 0x13 DUP4 PUSH2 0x2AF JUMP JUMPDEST SWAP2 POP PUSH2 0x2FE DUP3 PUSH2 0x2BF JUMP JUMPDEST PUSH1 0x20 DUP3 ADD SWAP1 POP SWAP2 SWAP1 POP JUMP JUMPDEST PUSH0 PUSH1 0x20 DUP3 ADD SWAP1 POP DUP2 DUP2 SUB PUSH0 DUP4 ADD MSTORE PUSH2 0x320 DUP2 PUSH2 0x2E7 JUMP JUMPDEST SWAP1 POP SWAP2 SWAP1 POP JUMP JUMPDEST PUSH0 DUP2 SWAP1 POP SWAP3 SWAP2 POP POP JUMP JUMPDEST POP JUMP JUMPDEST PUSH0 PUSH2 0x33F PUSH0 DUP4 PUSH2 0x327 JUMP JUMPDEST SWAP2 POP PUSH2 0x34A DUP3 PUSH2 0x331 JUMP JUMPDEST PUSH0 DUP3 ADD SWAP1 POP SWAP2 SWAP1 POP JUMP JUMPDEST PUSH0 PUSH2 0x35E DUP3 PUSH2 0x334 JUMP JUMPDEST SWAP2 POP DUP2 SWAP1 POP SWAP2 SWAP1 POP JUMP JUMPDEST PUSH32 0x5472616E73666572206661696C65640000000000000000000000000000000000 PUSH0 DUP3 ADD MSTORE POP JUMP JUMPDEST PUSH0 PUSH2 0x39C PUSH1 0xF DUP4 PUSH2 0x2AF JUMP JUMPDEST SWAP2 POP PUSH2 0x3A7 DUP3 PUSH2 0x368 JUMP JUMPDEST PUSH1 0x20 DUP3 ADD SWAP1 POP SWAP2 SWAP1 POP JUMP JUMPDEST PUSH0 PUSH1 0x20 DUP3 ADD SWAP1 POP DUP2 DUP2 SUB PUSH0 DUP4 ADD MSTORE PUSH2 0x3C9 DUP2 PUSH2 0x390 JUMP JUMPDEST SWAP1 POP SWAP2 SWAP1 POP JUMP INVALID LOG2 PUSH5 0x6970667358 0x22 SLT KECCAK256 RETURN PUSH0 DUP12 REVERT JUMPI DUP14 SWAP4 PUSH20 0x2B1EE6E7851B1A5A43F3581E8BBBDF49244FBA7D SWAP9 0xD6 DUP5 0x21 PUSH5 0x736F6C6343 STOP ADDMOD 0x1F STOP CALLER "
		},
		"gasEstimates": {
			"creation": {
				"codeDepositCost": "206000",
				"executionCost": "249",
				"totalCost": "206249"
			},
			"external": {
				"pendingWithdrawals(address)": "2801",
				"withdraw()": "infinite"
			},
			"internal": {
				"assignPrize(address,uint256)": "infinite"
			}
		},
		"methodIdentifiers": {
			"pendingWithdrawals(address)": "f3f43703",
			"withdraw()": "3ccfd60b"
		}
	},
	"abi": [
		{
			"inputs": [
				{
					"internalType": "address",
					"name": "",
					"type": "address"
				}
			],
			"name": "pendingWithdrawals",
			"outputs": [
				{
					"internalType": "uint256",
					"name": "",
					"type": "uint256"
				}
			],
			"stateMutability": "view",
			"type": "function"
		},
		{
			"inputs": [],
			"name": "withdraw",
			"outputs": [],
			"stateMutability": "nonpayable",
			"type": "function"
		}
	]
}