{
	"data": {
		"bytecode": {
			"linkReferences": {},
			"object": "6080604052348015600e575f5ffd5b5061029f8061001c5f395ff3fe608060405234801561000f575f5ffd5b5060043610610034575f3560e01c8063200d2ed21461003857806369ba1a7514610056575b5f5ffd5b610040610072565b60405161004d9190610176565b60405180910390f35b610070600480360381019061006b91906101c6565b610083565b005b5f5f9054906101000a900460ff1681565b600381106100c6576040517f08c379a00000000000000000000000000000000000000000000000000000000081526004016100bd9061024b565b60405180910390fd5b8060028111156100d9576100d8610103565b5b5f5f6101000a81548160ff021916908360028111156100fb576100fa610103565b5b021790555050565b7f4e487b71000000000000000000000000000000000000000000000000000000005f52602160045260245ffd5b6003811061014157610140610103565b5b50565b5f81905061015182610130565b919050565b5f61016082610144565b9050919050565b61017081610156565b82525050565b5f6020820190506101895f830184610167565b92915050565b5f5ffd5b5f819050919050565b6101a581610193565b81146101af575f5ffd5b50565b5f813590506101c08161019c565b92915050565b5f602082840312156101db576101da61018f565b5b5f6101e8848285016101b2565b91505092915050565b5f82825260208201905092915050565b7f496e76616c69642076616c7565210000000000000000000000000000000000005f82015250565b5f610235600e836101f1565b915061024082610201565b602082019050919050565b5f6020820190508181035f83015261026281610229565b905091905056fea264697066735822122087f752cffaf974c9040bb5b9b025b6f05c45cd9ac8fb11b03eb1a2d8d649115164736f6c634300081f0033",
			"opcodes": "PUSH1 0x80 PUSH1 0x40 MSTORE CALLVALUE DUP1 ISZERO PUSH1 0xE JUMPI PUSH0 PUSH0 REVERT JUMPDEST POP PUSH2 0x29F DUP1 PUSH2 0x1C PUSH0 CODECOPY PUSH0 RETURN INVALID PUSH1 0x80 PUSH1 0x40 MSTORE CALLVALUE DUP1 ISZERO PUSH2 0xF JUMPI PUSH0 PUSH0 REVERT JUMPDEST POP PUSH1 0x4 CALLDATASIZE LT PUSH2 0x34 JUMPI PUSH0 CALLDATALOAD PUSH1 0xE0 SHR DUP1 PUSH4 0x200D2ED2 EQ PUSH2 0x38 JUMPI DUP1 PUSH4 0x69BA1A75 EQ PUSH2 0x56 JUMPI JUMPDEST PUSH0 PUSH0 REVERT JUMPDEST PUSH2 0x40 PUSH2 0x72 JUMP JUMPDEST PUSH1 0x40 MLOAD PUSH2 0x4D SWAP2 SWAP1 PUSH2 0x176 JUMP JUMPDEST PUSH1 0x40 MLOAD DUP1 SWAP2 SUB SWAP1 RETURN JUMPDEST PUSH2 0x70 PUSH1 0x4 DUP1 CALLDATASIZE SUB DUP2 ADD SWAP1 PUSH2 0x6B SWAP2 SWAP1 PUSH2 0x1C6 JUMP JUMPDEST PUSH2 0x83 JUMP JUMPDEST STOP JUMPDEST PUSH0 PUSH0 SWAP1 SLOAD SWAP1 PUSH2 0x100 EXP SWAP1 DIV PUSH1 0xFF AND DUP2 JUMP JUMPDEST PUSH1 0x3 DUP2 LT PUSH2 0xC6 JUMPI PUSH1 0x40 MLOAD PUSH32 0x8C379A000000000000000000000000000000000000000000000000000000000 DUP2 MSTORE PUSH1 0x4 ADD PUSH2 0xBD SWAP1 PUSH2 0x24B JUMP JUMPDEST PUSH1 0x40 MLOAD DUP1 SWAP2 SUB SWAP1 REVERT JUMPDEST DUP1 PUSH1 0x2 DUP2 GT ISZERO PUSH2 0xD9 JUMPI PUSH2 0xD8 PUSH2 0x103 JUMP JUMPDEST JUMPDEST PUSH0 PUSH0 PUSH2 0x100 EXP DUP2 SLOAD DUP2 PUSH1 0xFF MUL NOT AND SWAP1 DUP4 PUSH1 0x2 DUP2 GT ISZERO PUSH2 0xFB JUMPI PUSH2 0xFA PUSH2 0x103 JUMP JUMPDEST JUMPDEST MUL OR SWAP1 SSTORE POP POP JUMP JUMPDEST PUSH32 0x4E487B7100000000000000000000000000000000000000000000000000000000 PUSH0 MSTORE PUSH1 0x21 PUSH1 0x4 MSTORE PUSH1 0x24 PUSH0 REVERT JUMPDEST PUSH1 0x3 DUP2 LT PUSH2 0x141 JUMPI PUSH2 0x140 PUSH2 0x103 JUMP JUMPDEST JUMPDEST POP JUMP JUMPDEST PUSH0 DUP2 SWAP1 POP PUSH2 0x151 DUP3 PUSH2 0x130 JUMP JUMPDEST SWAP2 SWAP1 POP JUMP JUMPDEST PUSH0 PUSH2 0x160 DUP3 PUSH2 0x144 JUMP JUMPDEST SWAP1 POP SWAP2 SWAP1 POP JUMP JUMPDEST PUSH2 0x170 DUP2 PUSH2 0x156 JUMP JUMPDEST DUP3 MSTORE POP POP JUMP JUMPDEST PUSH0 PUSH1 0x20 DUP3 ADD SWAP1 POP PUSH2 0x189 PUSH0 DUP4 ADD DUP5 PUSH2 0x167 JUMP JUMPDEST SWAP3 SWAP2 POP POP JUMP JUMPDEST PUSH0 PUSH0 REVERT JUMPDEST PUSH0 DUP2 SWAP1 POP SWAP2 SWAP1 POP JUMP JUMPDEST PUSH2 0x1A5 DUP2 PUSH2 0x193 JUMP JUMPDEST DUP2 EQ PUSH2 0x1AF JUMPI PUSH0 PUSH0 REVERT JUMPDEST POP JUMP JUMPDEST PUSH0 DUP2 CALLDATALOAD SWAP1 POP PUSH2 0x1C0 DUP2 PUSH2 0x19C JUMP JUMPDEST SWAP3 SWAP2 POP POP JUMP JUMPDEST PUSH0 PUSH1 0x20 DUP3 DUP5 SUB SLT ISZERO PUSH2 0x1DB JUMPI PUSH2 0x1DA PUSH2 0x18F JUMP JUMPDEST JUMPDEST PUSH0 PUSH2 0x1E8 DUP5 DUP3 DUP6 ADD PUSH2 0x1B2 JUMP JUMPDEST SWAP2 POP POP SWAP3 SWAP2 POP POP JUMP JUMPDEST PUSH0 DUP3 DUP3 MSTORE PUSH1 0x20 DUP3 ADD SWAP1 POP SWAP3 SWAP2 POP POP JUMP JUMPDEST PUSH32 0x496E76616C69642076616C756521000000000000000000000000000000000000 PUSH0 DUP3 ADD MSTORE POP JUMP JUMPDEST PUSH0 PUSH2 0x235 PUSH1 0xE DUP4 PUSH2 0x1F1 JUMP JUMPDEST SWAP2 POP PUSH2 0x240 DUP3 PUSH2 0x201 JUMP JUMPDEST PUSH1 0x20 DUP3 ADD SWAP1 POP SWAP2 SWAP1 POP JUMP JUMPDEST PUSH0 PUSH1 0x20 DUP3 ADD SWAP1 POP DUP2 DUP2 SUB PUSH0 DUP4 ADD MSTORE PUSH2 0x262 DUP2 PUSH2 0x229 JUMP JUMPDEST SWAP1 POP SWAP2 SWAP1 POP JUMP INVALID LOG2 PUSH5 0x6970667358 0x22 SLT KECCAK256 DUP8 0xF7 MSTORE 0xCF STATICCALL EXTDELEGATECALL PUSH21 0xC9040BB5B9B025B6F05C45CD9AC8FB11B03EB1A2D8 0xD6 BLOBHASH GT MLOAD PUSH5 0x736F6C6343 STOP ADDMOD 0x1F STOP CALLER "
		},
		"gasEstimates": {
			"creation": {
				"codeDepositCost": "134200",
				"executionCost": "175",
				"totalCost": "134375"
			},
			"external": {
				"setStatus(uint256)": "24735",
				"status()": "2531"
			}
		},
		"methodIdentifiers": {
			"setStatus(uint256)": "69ba1a75",
			"status()": "200d2ed2"
		}
	},
	"abi": [
		{
			"inputs": [
				{
					"internalType": "uint256",
					"name": "_value",
					"type": "uint256"
				}
			],
			"name": "setStatus",
			"outputs": [],
			"stateMutability": "nonpayable",
			"type": "function"
		},
		{
			"inputs": [],
			"name": "status",
			"outputs": [
				{
					"internalType": "enum pr_enum.Order",
					"name": "",
					"type": "uint8"
				}
			],
			"stateMutability": "view",
			"type": "function"
		}
	]
}