{
	"data": {
		"bytecode": {
			"linkReferences": {},
			"object": "6080604052348015600e575f5ffd5b5061049a8061001c5f395ff3fe608060405234801561000f575f5ffd5b506004361061003f575f3560e01c80632c1360b214610043578063d39fa23314610061578063fce6802314610091575b5f5ffd5b61004b6100ad565b60405161005891906102c8565b60405180910390f35b61007b60048036038101906100769190610316565b6101c1565b6040516100889190610350565b60405180910390f35b6100ab60048036038101906100a69190610316565b6101e0565b005b60605f5f90505f60015f805490506100c59190610396565b90505b8082101561016c575f5f83815481106100e4576100e36103c9565b5b905f5260205f20015490505f8281548110610102576101016103c9565b5b905f5260205f2001545f848154811061011e5761011d6103c9565b5b905f5260205f200181905550805f838154811061013e5761013d6103c9565b5b905f5260205f2001819055508280610155906103f6565b93505081806101639061043d565b925050506100c8565b5f8054806020026020016040519081016040528092919081815260200182805480156101b557602002820191905f5260205f20905b8154815260200190600101908083116101a1575b50505050509250505090565b5f81815481106101cf575f80fd5b905f5260205f20015f915090505481565b5f81908060018154018082558091505060019003905f5260205f20015f909190919091505550565b5f81519050919050565b5f82825260208201905092915050565b5f819050602082019050919050565b5f819050919050565b61024381610231565b82525050565b5f610254838361023a565b60208301905092915050565b5f602082019050919050565b5f61027682610208565b6102808185610212565b935061028b83610222565b805f5b838110156102bb5781516102a28882610249565b97506102ad83610260565b92505060018101905061028e565b5085935050505092915050565b5f6020820190508181035f8301526102e0818461026c565b905092915050565b5f5ffd5b6102f581610231565b81146102ff575f5ffd5b50565b5f81359050610310816102ec565b92915050565b5f6020828403121561032b5761032a6102e8565b5b5f61033884828501610302565b91505092915050565b61034a81610231565b82525050565b5f6020820190506103635f830184610341565b92915050565b7f4e487b71000000000000000000000000000000000000000000000000000000005f52601160045260245ffd5b5f6103a082610231565b91506103ab83610231565b92508282039050818111156103c3576103c2610369565b5b92915050565b7f4e487b71000000000000000000000000000000000000000000000000000000005f52603260045260245ffd5b5f61040082610231565b91507fffffffffffffffffffffffffffffffffffffffffffffffffffffffffffffffff820361043257610431610369565b5b600182019050919050565b5f61044782610231565b91505f820361045957610458610369565b5b60018203905091905056fea264697066735822122012ba579c9bec869468b8865b03f811ded6c1cc8acb10389c2adde9e1655eb08964736f6c634300081f0033",
			"opcodes": "PUSH1 0x80 PUSH1 0x40 MSTORE CALLVALUE DUP1 ISZERO PUSH1 0xE JUMPI PUSH0 PUSH0 REVERT JUMPDEST POP PUSH2 0x49A DUP1 PUSH2 0x1C PUSH0 CODECOPY PUSH0 RETURN INVALID PUSH1 0x80 PUSH1 0x40 MSTORE CALLVALUE DUP1 ISZERO PUSH2 0xF JUMPI PUSH0 PUSH0 REVERT JUMPDEST POP PUSH1 0x4 CALLDATASIZE LT PUSH2 0x3F JUMPI PUSH0 CALLDATALOAD PUSH1 0xE0 SHR DUP1 PUSH4 0x2C1360B2 EQ PUSH2 0x43 JUMPI DUP1 PUSH4 0xD39FA233 EQ PUSH2 0x61 JUMPI DUP1 PUSH4 0xFCE68023 EQ PUSH2 0x91 JUMPI JUMPDEST PUSH0 PUSH0 REVERT JUMPDEST PUSH2 0x4B PUSH2 0xAD JUMP JUMPDEST PUSH1 0x40 MLOAD PUSH2 0x58 SWAP2 SWAP1 PUSH2 0x2C8 JUMP JUMPDEST PUSH1 0x40 MLOAD DUP1 SWAP2 SUB SWAP1 RETURN JUMPDEST PUSH2 0x7B PUSH1 0x4 DUP1 CALLDATASIZE SUB DUP2 ADD SWAP1 PUSH2 0x76 SWAP2 SWAP1 PUSH2 0x316 JUMP JUMPDEST PUSH2 0x1C1 JUMP JUMPDEST PUSH1 0x40 MLOAD PUSH2 0x88 SWAP2 SWAP1 PUSH2 0x350 JUMP JUMPDEST PUSH1 0x40 MLOAD DUP1 SWAP2 SUB SWAP1 RETURN JUMPDEST PUSH2 0xAB PUSH1 0x4 DUP1 CALLDATASIZE SUB DUP2 ADD SWAP1 PUSH2 0xA6 SWAP2 SWAP1 PUSH2 0x316 JUMP JUMPDEST PUSH2 0x1E0 JUMP JUMPDEST STOP JUMPDEST PUSH1 0x60 PUSH0 PUSH0 SWAP1 POP PUSH0 PUSH1 0x1 PUSH0 DUP1 SLOAD SWAP1 POP PUSH2 0xC5 SWAP2 SWAP1 PUSH2 0x396 JUMP JUMPDEST SWAP1 POP JUMPDEST DUP1 DUP3 LT ISZERO PUSH2 0x16C JUMPI PUSH0 PUSH0 DUP4 DUP2 SLOAD DUP2 LT PUSH2 0xE4 JUMPI PUSH2 0xE3 PUSH2 0x3C9 JUMP JUMPDEST JUMPDEST SWAP1 PUSH0 MSTORE PUSH1 0x20 PUSH0 KECCAK256 ADD SLOAD SWAP1 POP PUSH0 DUP3 DUP2 SLOAD DUP2 LT PUSH2 0x102 JUMPI PUSH2 0x101 PUSH2 0x3C9 JUMP JUMPDEST JUMPDEST SWAP1 PUSH0 MSTORE PUSH1 0x20 PUSH0 KECCAK256 ADD SLOAD PUSH0 DUP5 DUP2 SLOAD DUP2 LT PUSH2 0x11E JUMPI PUSH2 0x11D PUSH2 0x3C9 JUMP JUMPDEST JUMPDEST SWAP1 PUSH0 MSTORE PUSH1 0x20 PUSH0 KECCAK256 ADD DUP2 SWAP1 SSTORE POP DUP1 PUSH0 DUP4 DUP2 SLOAD DUP2 LT PUSH2 0x13E JUMPI PUSH2 0x13D PUSH2 0x3C9 JUMP JUMPDEST JUMPDEST SWAP1 PUSH0 MSTORE PUSH1 0x20 PUSH0 KECCAK256 ADD DUP2 SWAP1 SSTORE POP DUP3 DUP1 PUSH2 0x155 SWAP1 PUSH2 0x3F6 JUMP JUMPDEST SWAP4 POP POP DUP2 DUP1 PUSH2 0x163 SWAP1 PUSH2 0x43D JUMP JUMPDEST SWAP3 POP POP POP PUSH2 0xC8 JUMP JUMPDEST PUSH0 DUP1 SLOAD DUP1 PUSH1 0x20 MUL PUSH1 0x20 ADD PUSH1 0x40 MLOAD SWAP1 DUP2 ADD PUSH1 0x40 MSTORE DUP1 SWAP3 SWAP2 SWAP1 DUP2 DUP2 MSTORE PUSH1 0x20 ADD DUP3 DUP1 SLOAD DUP1 ISZERO PUSH2 0x1B5 JUMPI PUSH1 0x20 MUL DUP3 ADD SWAP2 SWAP1 PUSH0 MSTORE PUSH1 0x20 PUSH0 KECCAK256 SWAP1 JUMPDEST DUP2 SLOAD DUP2 MSTORE PUSH1 0x20 ADD SWAP1 PUSH1 0x1 ADD SWAP1 DUP1 DUP4 GT PUSH2 0x1A1 JUMPI JUMPDEST POP POP POP POP POP SWAP3 POP POP POP SWAP1 JUMP JUMPDEST PUSH0 DUP2 DUP2 SLOAD DUP2 LT PUSH2 0x1CF JUMPI PUSH0 DUP1 REVERT JUMPDEST SWAP1 PUSH0 MSTORE PUSH1 0x20 PUSH0 KECCAK256 ADD PUSH0 SWAP2 POP SWAP1 POP SLOAD DUP2 JUMP JUMPDEST PUSH0 DUP2 SWAP1 DUP1 PUSH1 0x1 DUP2 SLOAD ADD DUP1 DUP3 SSTORE DUP1 SWAP2 POP POP PUSH1 0x1 SWAP1 SUB SWAP1 PUSH0 MSTORE PUSH1 0x20 PUSH0 KECCAK256 ADD PUSH0 SWAP1 SWAP2 SWAP1 SWAP2 SWAP1 SWAP2 POP SSTORE POP JUMP JUMPDEST PUSH0 DUP2 MLOAD SWAP1 POP SWAP2 SWAP1 POP JUMP JUMPDEST PUSH0 DUP3 DUP3 MSTORE PUSH1 0x20 DUP3 ADD SWAP1 POP SWAP3 SWAP2 POP POP JUMP JUMPDEST PUSH0 DUP2 SWAP1 POP PUSH1 0x20 DUP3 ADD SWAP1 POP SWAP2 SWAP1 POP JUMP JUMPDEST PUSH0 DUP2 SWAP1 POP SWAP2 SWAP1 POP JUMP JUMPDEST PUSH2 0x243 DUP2 PUSH2 0x231 JUMP JUMPDEST DUP3 MSTORE POP POP JUMP JUMPDEST PUSH0 PUSH2 0x254 DUP4 DUP4 PUSH2 0x23A JUMP JUMPDEST PUSH1 0x20 DUP4 ADD SWAP1 POP SWAP3 SWAP2 POP POP JUMP JUMPDEST PUSH0 PUSH1 0x20 DUP3 ADD SWAP1 POP SWAP2 SWAP1 POP JUMP JUMPDEST PUSH0 PUSH2 0x276 DUP3 PUSH2 0x208 JUMP JUMPDEST PUSH2 0x280 DUP2 DUP6 PUSH2 0x212 JUMP JUMPDEST SWAP4 POP PUSH2 0x28B DUP4 PUSH2 0x222 JUMP JUMPDEST DUP1 PUSH0 JUMPDEST DUP4 DUP2 LT ISZERO PUSH2 0x2BB JUMPI DUP2 MLOAD PUSH2 0x2A2 DUP9 DUP3 PUSH2 0x249 JUMP JUMPDEST SWAP8 POP PUSH2 0x2AD DUP4 PUSH2 0x260 JUMP JUMPDEST SWAP3 POP POP PUSH1 0x1 DUP2 ADD SWAP1 POP PUSH2 0x28E JUMP JUMPDEST POP DUP6 SWAP4 POP POP POP POP SWAP3 SWAP2 POP POP JUMP JUMPDEST PUSH0 PUSH1 0x20 DUP3 ADD SWAP1 POP DUP2 DUP2 SUB PUSH0 DUP4 ADD MSTORE PUSH2 0x2E0 DUP2 DUP5 PUSH2 0x26C JUMP JUMPDEST SWAP1 POP SWAP3 SWAP2 POP POP JUMP JUMPDEST PUSH0 PUSH0 REVERT JUMPDEST PUSH2 0x2F5 DUP2 PUSH2 0x231 JUMP JUMPDEST DUP2 EQ PUSH2 0x2FF JUMPI PUSH0 PUSH0 REVERT JUMPDEST POP JUMP JUMPDEST PUSH0 DUP2 CALLDATALOAD SWAP1 POP PUSH2 0x310 DUP2 PUSH2 0x2EC JUMP JUMPDEST SWAP3 SWAP2 POP POP JUMP JUMPDEST PUSH0 PUSH1 0x20 DUP3 DUP5 SUB SLT ISZERO PUSH2 0x32B JUMPI PUSH2 0x32A PUSH2 0x2E8 JUMP JUMPDEST JUMPDEST PUSH0 PUSH2 0x338 DUP5 DUP3 DUP6 ADD PUSH2 0x302 JUMP JUMPDEST SWAP2 POP POP SWAP3 SWAP2 POP POP JUMP JUMPDEST PUSH2 0x34A DUP2 PUSH2 0x231 JUMP JUMPDEST DUP3 MSTORE POP POP JUMP JUMPDEST PUSH0 PUSH1 0x20 DUP3 ADD SWAP1 POP PUSH2 0x363 PUSH0 DUP4 ADD DUP5 PUSH2 0x341 JUMP JUMPDEST SWAP3 SWAP2 POP POP JUMP JUMPDEST PUSH32 0x4E487B7100000000000000000000000000000000000000000000000000000000 PUSH0 MSTORE PUSH1 0x11 PUSH1 0x4 MSTORE PUSH1 0x24 PUSH0 REVERT JUMPDEST PUSH0 PUSH2 0x3A0 DUP3 PUSH2 0x231 JUMP JUMPDEST SWAP2 POP PUSH2 0x3AB DUP4 PUSH2 0x231 JUMP JUMPDEST SWAP3 POP DUP3 DUP3 SUB SWAP1 POP DUP2 DUP2 GT ISZERO PUSH2 0x3C3 JUMPI PUSH2 0x3C2 PUSH2 0x369 JUMP JUMPDEST JUMPDEST SWAP3 SWAP2 POP POP JUMP JUMPDEST PUSH32 0x4E487B7100000000000000000000000000000000000000000000000000000000 PUSH0 MSTORE PUSH1 0x32 PUSH1 0x4 MSTORE PUSH1 0x24 PUSH0 REVERT JUMPDEST PUSH0 PUSH2 0x400 DUP3 PUSH2 0x231 JUMP JUMPDEST SWAP2 POP PUSH32 0xFFFFFFFFFFFFFFFFFFFFFFFFFFFFFFFFFFFFFFFFFFFFFFFFFFFFFFFFFFFFFFFF DUP3 SUB PUSH2 0x432 JUMPI PUSH2 0x431 PUSH2 0x369 JUMP JUMPDEST JUMPDEST PUSH1 0x1 DUP3 ADD SWAP1 POP SWAP2 SWAP1 POP JUMP JUMPDEST PUSH0 PUSH2 0x447 DUP3 PUSH2 0x231 JUMP JUMPDEST SWAP2 POP PUSH0 DUP3 SUB PUSH2 0x459 JUMPI PUSH2 0x458 PUSH2 0x369 JUMP JUMPDEST JUMPDEST PUSH1 0x1 DUP3 SUB SWAP1 POP SWAP2 SWAP1 POP JUMP INVALID LOG2 PUSH5 0x6970667358 0x22 SLT KECCAK256 SLT 0xBA JUMPI SWAP13 SWAP12 EOFCREATE 0x86 SWAP5 PUSH9 0xB8865B03F811DED6C1 0xCC DUP11 0xCB LT CODESIZE SWAP13 0x2A 0xDD 0xE9 RJUMPI 0x655E 0xB0 DUP10 PUSH5 0x736F6C6343 STOP ADDMOD 0x1F STOP CALLER "
		},
		"gasEstimates": {
			"creation": {
				"codeDepositCost": "235600",
				"executionCost": "273",
				"totalCost": "235873"
			},
			"external": {
				"addNumber(uint256)": "46842",
				"numbers(uint256)": "infinite",
				"reverseArray()": "infinite"
			}
		},
		"methodIdentifiers": {
			"addNumber(uint256)": "fce68023",
			"numbers(uint256)": "d39fa233",
			"reverseArray()": "2c1360b2"
		}
	},
	"abi": [
		{
			"inputs": [
				{
					"internalType": "uint256",
					"name": "_num",
					"type": "uint256"
				}
			],
			"name": "addNumber",
			"outputs": [],
			"stateMutability": "nonpayable",
			"type": "function"
		},
		{
			"inputs": [
				{
					"internalType": "uint256",
					"name": "",
					"type": "uint256"
				}
			],
			"name": "numbers",
			"outputs": [
				{
					"internalType": "uint256",
					"name": "",
					"type": "uint256"
				}
			],
			"stateMutability": "view",
			"type": "function"
		},
		{
			"inputs": [],
			"name": "reverseArray",
			"outputs": [
				{
					"internalType": "uint256[]",
					"name": "",
					"type": "uint256[]"
				}
			],
			"stateMutability": "nonpayable",
			"type": "function"
		}
	]
}